S02300004446344941485F31304D487A5F5265666572656E63655F4170706C2E73726563C8
S1130000CAC600000FC70000E3C60000E1C6000036
S1130010DFC60000DDC600000C94070BD9C6000043
S1130020D7C60000D5C600000C9415090C94D60858
S1130030CFC60000CDC60000CBC60000C9C6000074
S11300400C948509C5C600000C944D240C94CF244F
S11300500C940F250C945908BBC60000B9C60000C7
S11300600C942D26B5C60000020E0E0E8D0E1A0E2F
S1130070260E320E3E0E4A0E560E620E6E0E7A0E8C
S1130080860E07634236B79BD8A71A39685618AE4E
S1130090BAAB558C1D3CB7CC5763BD6DEDFD753EB9
S11300A0F6177231BF000000803F08000000BE92C6
S11300B02449123EABAAAA2ABECDCCCC4C3E0000A9
S11300C00080BEABAAAAAA3E00000000BF00000048
S11300D0803F0000000000084178D3BB4387D11360
S11300E03D190E3CC3BD4282AD2B3E68EC8276BE08
S11300F0D98FE1A93E4C80EFFFBE01C4FF7F3F00D2
S11301000000000024474C4753562C252A642C3108
S11301102C25642C002447504753562C252A642C44
S1130120312C25642C00244750524D432C256C64FB
S11301302E25642C252A632C25662C25632C256604
S11301402C25632C252A662C252A662C256C642CE8
S11301502C2C252A632A25640025662C25662C254B
S1130160662A2564002447504753412C252A632CD2
S113017025642C002447504747412C256C642E25C8
S1130180642C25662C25632C25662C25632C25647C
S11301902C25642C25662C25662C252A632C252ADF
S11301A0662C252A632C252A642C252A642A256496
S11301B000436F6D6D756E69636174696F6E206263
S11301C061756420726174652073657420746F2096
S11301D025357520626175642E0A00444634494110
S11301E0482C25732C253035752C56323025303368
S11301F075253033752E0023534330323A20733D36
S11302003078253032782C64533D25752C69503D67
S113021025750A0023534330313A20537461636BCC
S11302202D436865636B3A206D756E672D77616C3D
S11302306C20616464726573733A203078253034BD
S1130240782C206C6F776573742D737461636B3ACB
S1130250203078253034780A002563253033642E25
S1130260253033642025632531642E2530336456CC
S1130270200025632531752025632531752025311E
S1130280642E25316420256325303275256325309D
S1130290327520002530347525303275253032759D
S11302A020552530327525303275253032752000C1
S11302B062202D2D2D2E2D2D2D2025632531582006
S11302C02563253032752000256320253033642EC4
S11302D025303364202563253158202563253032A9
S11302E075200031304D487A5265664F736320564D
S11302F0327831002B3D3D3D20444634494148206D
S11303003D3D3D2B0023494131323A205048415371
S113031045206661737450776D53696E676C6544EC
S11303206966665F7374657073203D2025632530AC
S113033033642E253033640A0023494131313A2095
S1130340504841534520706861736545727220209E
S11303503D20253033642E25303364C2B02C20096F
S11303602070686173655374657073467265717546
S1130370656E6379203D202563253033642E253056
S113038033642C200970686173655374657073500D
S113039068617365203D202563253033642E253044
S11303A033640A0023494130333A20515247202014
S11303B0206E657750776D56616C203D2025303373
S11303C0642E253033642C200970776D436F72538B
S11303D0746570732020202020202020203D2025BB
S11303E02B3034642E253033640A002349413032E3
S11303F03A20436C6F636B206C6F63616C4D656175
S11304006E466C6F6174436C6F636B4469666620FF
S11304103D202563253033642E25303364487A200B
S11304204032304D487A2C20097172674465765FFA
S1130430487A203D202563253033642E25303364EB
S1130440487A204031304D487A2C200970706D2054
S11304503D202563253032642E253036640A00237E
S1130460494130313A20436C6F636B20696E7432BA
S1130470304D487A436C6F636B4469666620202074
S1130480202020203D20252B30346C692020487A00
S1130490204032304D487A0A0023494430323A2011
S11304A02B2F2D204B455920096D61696E50776DB6
S11304B05465726D696E616C41646A203D202564E7
S11304C02E253037642C20096C6F63616C46617390
S11304D07450776D56616C4E657874203D202530DC
S11304E03375202B206C6F63616C46617374507795
S11304F06D537562436D704E657874203D202530D0
S113050033750A0023494430313A202B2F2D204BD8
S1130510455920096D61696E50776D5465726D6936
S11305206E616C41646A203D2025642E2530376459
S11305302C200970756C6C50776D56616C42656641
S11305406F7265202020203D2025303375202B201C
S11305506661737450776D537562436D704265665E
S11305606F7265202020203D20253033750A00233A
S1130570544131343A206D61696E526566436C6B47
S11305805374617465203D2030782531580A002366
S1130590544131333A2050574D203D202530337596
S11305A02C20095375622D50574D203D20253033A2
S11305B0750A0023544131323A20707073537461C8
S11305C06D70437472316D7320203D202530396C79
S11305D0752C20097070735374616D7049435231E6
S11305E02020203D20253035752C20097070735350
S11305F074616D70437472316D735F6C61737420D8
S1130600203D202530396C752C200970707353748B
S1130610616D70494352315F6C6173742020203DD9
S113062020253035750A0023544131313A206C6F4E
S113063063616C46617374437472316D73203D2041
S11306402530396C752C20096C6F63616C466173BD
S11306507454434E5431203D20253035750A00230F
S1130660544130333A2054656D70203D2025303498
S113067075202825642E25316443290A002354411A
S113068030323A2041444331203D20253034752016
S11306902825642E2530336456290A00235441301A
S11306A0313A2041444330203D2025303475202800
S11306B025642E2530336456290A002347503035EB
S11306C03A204C6174203D20256320253034642E6B
S11306D0253034642C204C6F6E203D20256320256A
S11306E03035642E253034642C204865696768747D
S11306F0203D2025642E25303264206D0A002347D6
S11307005030343A2050444F50203D2025642E254B
S11307103032642C2048444F50203D2025642E253F
S11307203032642C2056444F50203D2025642E2521
S11307303032642C0A0023475030333A205361741A
S11307407355736564203D20253032642C20536139
S11307507473457068696D5F47707347616C696C49
S1130760656F517A7373203D20253032642C2053F9
S1130770617473457068696D5F476C6F6E61737304
S1130780203D20253032640A0023475030323A207D
S11307904D6F646532203D202531642C20506F73E9
S11307A0466978496E64203D202531640A00234758
S11307B05030313A2044617465203D202530386C36
S11307C0642C2054696D65203D202530366C642EE0
S11307D0253033640A000A23475030303A203D3D27
S11307E03D3D3D3D3D0024504D544B3335332C317C
S11307F02C312A33370D0A0024504D544B333533F2
S11308002C312C302A33360D0A0024504D544B33EE
S113081035332C302C302A33370D0A0024504D54F4
S11308204B3130322A33310D0A0024504D544B32AF
S113083035312C393630302A31370D0A000D0A0093
S11308400A3D3D3D20444634494148202D20313065
S1130850204D487A205265666572656E6365204F47
S11308607363696C6C61746F72203D3D3D0A3D3D5C
S11308703D205665723A20323025303364253033BA
S113088064000A2A3F2A2020756E6B6E6F776E20F3
S1130890636F6D6D616E6420272573272072656315
S11308A065697665642C207472792048454C502E15
S11308B00A3E000A3D3D3D3D3D3D3D3D3D3D3D0A39
S11308C03E000A2B2F2D203C50574D2076616C752D
S11308D0653E0909636F7272656374696F6E207691
S11308E0616C756520746F20626520616464656461
S11308F02E000A575249544550574D09090973743B
S11309006F72652063757272656E742050574D2046
S113091061732064656661756C742076616C7565BD
S11309202E0A575249544554454D50203C54454D88
S1130930502076616C75653E09097772697465208B
S113094063757272656E742074656D70657261741E
S11309507572652061732064656661756C742076B8
S1130960616C75652E000A544553540909090974CC
S11309706F67676C657320636F756E74657220743E
S11309806573742E000A535441434B0909090974D1
S11309906F67676C657320737461636B206D756E2C
S11309A0672D77616C6C20746573742E000A53454F
S11309B0524F4646090909097377697463682073BD
S11309C0657269616C20636F6D6D756E69636174C6
S11309D0696F6E204F46462E0A5345524F4E090901
S11309E009097377697463682073657269616C209F
S11309F0636F6D6D756E69636174696F6E204F4EC0
S1130A002E000A53455242415544203C62617564AC
S1130A103E09090973657474696E672073657269A8
S1130A20616C206261756420726174652E000A4CE9
S1130A3045444F4646090909097377697463682078
S1130A406261636B6C69676874204F46462E0A4C7A
S1130A5045444F4E09090909737769746368206234
S1130A6061636B6C69676874204F4E2E000A494EAF
S1130A70464F09090909746F67676C6573206164DF
S1130A80646974696F6E616C207072696E746564F8
S1130A9020696E666F732E000A48454C5009090997
S1130AA00974686973206D6573736167652E000A44
S1130AB04150434F464609090909737769746368CD
S1130AC02041504320286175746F6D6174696320FF
S1130AD0706861736520636F6E74726F6C29206F28
S1130AE066662E0A4150434F4E0909090973776916
S1130AF07463682041504320286175746F6D61747C
S1130B00696320706861736520636F6E74726F6CC3
S1130B1029206F6E2E000A4146434F4646090909B3
S1130B2009737769746368204146432028617574AA
S1130B306F6D61746963206672657175656E637942
S1130B4020636F6E74726F6C29206F66662E0A4183
S1130B5046434F4E09090909737769746368204154
S1130B60464320286175746F6D61746963206672F1
S1130B70657175656E637920636F6E74726F6C292D
S1130B80206F6E2E000A3D3D3D2048454C50203DCF
S1130B903D3D0A0A24203C4E4D45412D4D6573735D
S1130BA06167653E090973656E6473206D657373CF
S1130BB061676520746F2074686520475053206D09
S1130BC06F64756C652E002A49444E3F00575249A4
S1130BD0544554454D5000575249544550574D00C3
S1130BE05445535400535441434B005345524F4EC4
S1130BF0005345524F464600534552424155440026
S1130C004C45444F4E004C45444F464600494E46E1
S1130C104F0048454C50004150434F4E0041504313
S1130C204F4646004146434F4E004146434F4646D9
S1130C30004446344941482031304D687A2D52658C
S1130C406670AA000001FFFFFFFFFFFFFF00000C1A
S1130C50B0A52C8F4048E18A3F0080AF4300A087B5
S1130C603FFFFFFFFFFFFFFFFFFFFFFFFF00001C31
S1130C70B0CDCC94C05C8FC23FB81E053DFFFFFFD2
S1130C80FFFFFF713D8A3F33331340780000002C8F
S1130C90B08025080100000000FFFFFFFFFFFFFFF9
S1130CA0FFFFFFFFFFFFFFFFFFFFFFFFFF00003C11
S1130CB0B000000000FFFFFFFFFFFFFFFFFFFFFF8B
S1130CC0FFFFFFFFFFFFFFFFFFFFFFFFFF00004CE1
S1130CD0B00902190001010080690904000001FF44
S1130CE00000000705810308000A12011001FF003B
S1130CF00008C016DC0500010102030110035000C6
S1130D0072006F0074006F002D0031002A0344004C
S1130D10460034004900410048002D0031003000F5
S1130D204D0048007A002D005200650066002D0039
S1130D304F00730063000E03440046003400490072
S1130D4041004800040309046364696E6F7073759D
S1130D5078585B65666745464700616E006E666954
S1130D606E69747900CDCCCC3D0AD7233C17B7D13A
S1130D703877CC2B329595E6241FB14F0A0000201A
S1130D80410000C84200401C4620BCBE4CCA1B0E99
S1130D905AAEC59D740011241FBECFEFD8E0DEBF4C
S1130DA0CDBF11E0A0E0B1E0E6E7FFE602C00590A8
S1130DB00D92AC31B107D9F728E0ACE1B1E001C044
S1130DC01D92A332B207E1F70E94741F0C94B93745
S1130DD017C9A82FB92F8FEF9FEF1BC02D91822722
S1130DE0282F22952827722F269526952727239585
S1130DF026952170782F892F82272195207C922F88
S1130E0022277695279597278227769527959727E2
S1130E108227615018F7809590950895DADF8D93B5
S1130E209D930895CF93CFB7CF93DF93C395339B0F
S1130E30E9F7339B11C0339B0FC0339B0DC0339B29
S1130E400BC0339B09C0339B07C0339B05C0339B46
S1130E5003C0339B01C083C06F93C0910608DD2794
S1130E60C35FD74F2F9320E400C065E0339B03C0DA
S1130E702F916F91DECF0F931F934F9345E55F93AF
S1130E8055E53F933BE014E006B10C702EC06A9523
S1130E90C9F03150D8F106B10C7001130BC008949D
S1130EA02795299320E4555500F46A9569F701E0E4
S1130EB066B10BC0102F66E02695299320E45555A2
S1130EC018F3E2CF0FEF66B10000162F455500F07E
S1130ED0404066E01C700030E2F221F0000006B1F0
S1130EE00C7003C006B10C70A9F0011309C008947A
S1130EF0279568F200C06A95A9F700E066B1E5CFCE
S1130F00102F66E0269528F20000ECCF11E01CBB00
S1130F10002719C03B503195C31BD04011E01CBBC6
S1130F200881033C09F10B34F9F02091040819817C
S1130F30110F1213EDCF4A81441F093651F10D32BE
S1130F4011F0013E29F700930B083F915F914F91F7
S1130F501F910F912F916F91CCB3C0FD67CFDF919B
S1130F60CF91CFBFCF91189520910B08222369F31D
S1130F7010910908112381F5343082F13093090866
S1130F8020930508109106083BE0311B30930608B6
S1130F9025C0009109080130FCF40AE54F7049F4BA
S1130FA03091140134FD1BC000931401C9EFD7E044
S1130FB01AC030918C0534FD12C000938C05CDE825
S1130FC0D5E011C0052710E000C008B919C00527F5
S1130FD010E0221F00C01DC04AE502C032ED432FBD
S1130FE0C4E1D0E032E017B11C60439A08B117B9EC
S1130FF05CE020E869E420FF052708B927951795E8
S113100000C000001C3FF0F66695A8F7A1F720FF8A
S1131010052708B92795179500001C3FC0F62991AC
S11310203A9541F7037F10910A08110F08B9C65188
S1131030D04011F01093040811E01CBB086017B1F4
S1131040137F402F437F55E05A95F1F708B917B93C
S113105048B97BCFE4E6F0E080818E7F80831092F4
S11310602805EFE7F0E080818360808383E080934C
S11310707E00EBE7F0E080818F7B8083EAE7F0E09D
S113108080818768808380B787E180BF81E1809316
S1131090290581E480937C00808180658083808140
S11310A0886080830895EAE7F0E08081806480832B
S11310B008951F920F920FB60F9211242F933F930E
S11310C04F935F936F937F938F939F93AF93BF934C
S11310D0EF93FF938091780020917900789490E0C9
S11310E0922B20912905283021F168F42223A1F0C4
S11310F0213019F590938E0380938D0380E18093C2
S1131100290580E41EC0213101F1283171F020311C
S1131110A1F41092290517C090938C0380938B033C
S113112088E18093290588EC0CC088E08093290528
S11311300AC09093900380938F0381E180932905E3
S113114081E480937C00AFDF08C081E080932905AF
S1131150809128058F5F80932805FF91EF91BF91BF
S1131160AF919F918F917F916F915F914F913F913B
S11311702F910F900FBE0F901F901895E4E6F0E0AA
S11311808081877F808310928500109284008EE492
S1131190809389008FE1809388001092800089E415
S11311A08093810082E280936F0008951F920F92D2
S11311B00FB60F9211242F933F938F939F93AF9366
S11311C0BF938091350590913605A0913705B09174
S11311D038050196A11DB11D809335059093360500
S11311E0A0933705B093380578948091060180FF69
S11311F011C0F8948DB72EB7789490E0922B20917B
S11312000A0130910B018217930720F490930B018C
S113121080930A01BF91AF919F918F913F912F913C
S11312200F900FBE0F901F9018951F920F920FB63C
S11312300F9211242F934F935F936F937F938F9308
S11312409F93EF93FF9380918600209187004091B4
S113125035055091360560913705709138057894BD
S1131260EAE7F0E0908190649083F89490E0922B08
S113127090933E0580933D054093390550933A057C
S113128060933B0570933C057894FF91EF919F9197
S11312908F917F916F915F914F912F910F900FBE1E
S11312A00F901F901895809164008F7D8093640047
S11312B016BC8AE588BD83E284BD81E085BD559A6C
S11312C082E00E940F218823C9F04AE550E061E0E2
S11312D084E091E00E94F5204BE550E061E08FE36B
S11312E095E00E94F5208FB7F894909104019093B3
S11312F0340590913F05909333058FBFA89A809150
S11313006E00816080936E0008951F920F920FB655
S11313100F9211248F939F937894809132058823A0
S113132061F0F8948091310588BD809130058093F7
S11313302F0578941092320509C0F89480913405F1
S113134088BD8091330580932F057894F89490910B
S11313502E0580912F05981718F488B58F5F88BDE6
S1131360789480912E058F5F80932E059F918F91A5
S11313700F900FBE0F901F901895CF92DF92EF92AF
S1131380FF92C0905205D0905305E0905405F09020
S113139055052FEFC21AD20AE20AF20AC701B601B2
S11313A024E630E040E050E00E94EF2F6C337105FA
S11313B0810591054CF0C61AD70AE80AF90A84E6B1
S11313C0C80ED11CE11CF11CC0925205D0925305E9
S11313D0E0925405F0925505C0905205D090530503
S11313E0E0905405F0905505C701B60120E137E2BD
S11313F040E050E00E94EF2F683427E17207810536
S1131400910594F0C61AD70AE80AF90A80E1C80ED1
S113141087E2D81EE11CF11CC0925205D0925305FC
S1131420E0925405F0925505FF90EF90DF90CF9035
S11314300895EF92FF921F93CF93DF9300D0CDB71F
S1131440DEB7182F7B010E94B5209A838983A701F8
S113145062E0CE0101960E944821812F0E948921D9
S11314600F900F90DF91CF911F91FF90EF9008950F
S11314704F925F926F927F928F929F92AF92BF92A0
S1131480CF92DF92EF92FF920F931F93CF93DF934C
S11314904B015C016A017901F901608170E080E02F
S11314A090E00E94653120E030E040E85BE30E9478
S11314B06C322B013C01F601608170E080E090E029
S11314C00E9465319B01AC01C301B2010E946230EC
S11314D0A50194010E9462308B01D82FC92F20E00E
S11314E030E0A9010E94C63087FD1CC020E03FEF18
S11314F04EE753E4B8018D2F9C2F0E9468321816D2
S1131500B4F420E03FEF4EE753E4B8018D2F9C2F55
S11315100E9461308B01D82FC92FB0E0AFEFFEE7F6
S1131520E3E40CC0B0E0A0E0F0E0E0E007C0B02FDE
S1131530A12FFE0100E010E0D0E0C0E020E030E0A8
S113154040E05BE36B2F7A2F8F2F9E2F0E94623037
S11315504B015C010E943731F6016083C501B4017F
S11315600E94A0319B01AC01C501B4010E9461300D
S113157020E030E040E853E40E946C320E943731AE
S1131580F7016083B8018D2F9C2FDF91CF911F91BC
S11315900F91FF90EF90DF90CF90BF90AF909F900E
S11315A08F907F906F905F904F900895CF92DF92CD
S11315B0EF92FF92CF936B017C01C42F0E94A03164
S11315C09B01AC01C701B6010E9461306B017C0133
S11315D06C2F70E080E090E00E9463319B01AC01CD
S11315E060E070E080E291E40E94CF329B01AC01A4
S11315F0C701B6010E946C320E94A0310E943231B0
S1131600CB01CF91FF90EF90DF90CF900895189584
S11316100F931F93CF93DF938C01EA019A01AB01DF
S113162061E973E081E00E949320AE0161E973E017
S1131630C801DF91CF911F910F910C9457340F93F0
S11316401F93CF93DF938C01EA019A01AB0161E907
S113165073E081E00E949320AE0161E973E0C80168
S1131660DF91CF911F910F910C9441348F929F92EF
S1131670AF92BF92CF92DF92EF92FF920F931F939C
S1131680CF93DF9300D000D0CDB7DEB781E00E94C6
S1131690D321882309F44AC381E00E941423182F1C
S11316A080E00E9414239091060196959F7009F0A2
S11316B08DC210FF8BC214FF04C081E00E940A2473
S11316C035C3107F09F02FC34FE761E974E081E06F
S11316D00E94872281E00E94E42146E050E067EC0A
S11316E07BE081E994E094DF892B41F52CE130E043
S11316F04BED51E061E973E081E00E949320809119
S1131700C1059091C2059C0133273F932F931F92EB
S11317109F938091C4058F938091C3058F9385EC2B
S113172095E09F938F9381E993E09F938F9381E159
S113173094E09F938F930E94D03429C147E050E0F6
S11317406AE27CE081E994E063DF892B21F48091F3
S113175005018E7F0CC046E050E064E27CE081E944
S113176094E056DF892B31F48091050181608093E8
S11317700501DCC247E050E06DE17CE081E994E0E2
S113178047DF892B21F4809105018D7FF0CF46E05E
S113179050E067E17CE081E994E03ADF892B21F4B1
S11317A0809105018260E3CF45E050E062E17CE096
S11317B081E994E02DDF892BE1F522E430E040E477
S11317C058E061E973E081E00E94932082E08F9306
S11317D080E78F931F928AEA8F9381E993E09F9326
S11317E08F931F928FE78F9381E194E09F938F9360
S11317F00E94A334282F41E154E060E080E00E947D
S1131800372322E445E85BE061E080E00E9437236F
S113181080910601817E826080930601809105019A
S11318208F7E809305010FB6F894DEBF0FBECDBF47
S11318307DC245E050E06DE07CE081E994E0E8DEC3
S1131840892BA9F48091050182FB992790F981E005
S113185089279091050180FB92F99093050180916D
S1131860050182FF63C280910501877F48C047E07C
S113187050E066E07CE081E994E0CADE892B29F43B
S11318801982809106018F710FC046E050E060E03C
S11318907CE081E994E0BCDE892B99F481E08983C2
S11318A0809106018F7180628093060144E150E0CB
S11318B061E0CE0101960E9448216EE170E080E073
S11318C02DC147E050E061EF7BE081E994E0A0DEC8
S11318D0892B21F480910501877F49CF46E050E0B0
S11318E06BEE7BE081E994E093DE892B71F48091C7
S11318F00501886080930501809105018B7F8093A9
S11319000501809105018F7E32CF47E050E068EFFA
S11319107BE081E994E093DE892B09F040C082E00A
S113192091E09F938F9385E191E09F938F9388E952
S113193094E09F938F930E94EF34809102019091E1
S113194003010E948E2340E650E062E082E091E0D1
S11319500E9448216EE770E083E06BDD2AE230E00C
S113196041EB51E061E973E081E00E9493208091B2
S113197003018F93809102018F9381E993E09F93F8
S11319808F9381E194E09F938F930E94D034282F0A
S113199041E154E060E080E00E94372344CF46E018
S11319A050E065EE7BE081E994E032DE892B51F46E
S11319B08091060180959091060180FB90F99093A7
S11319C00601B4C145E050E060EE7BE081E994E0BB
S11319D01FDE892BC9F4809105018295817091E005
S11319E089279091050180FB94F9909305018091DA
S11319F0050184FF9BC180910501877F80930501C8
S1131A00809105018B7FB3CE49E050E067ED7BE028
S1131A1081E994E0FDDD892BE9F48FB7F894909186
S1131A203405909304019091330590933F058FBF43
S1131A304AE550E061E084E091E00E9448214BE5F2
S1131A4050E061E08FE395E00E9448216EE570E08C
S1131A5082E064C049E050E06DEC7BE081E994E011
S1131A60EEDD892B09F05CC019821A821B821C826C
S1131A70CE0101969F938F9388E191E09F938F937A
S1131A808AE994E09F938F930E94EF34C980DA80AF
S1131A90EB80FC800F900F900F900F900F900F90A1
S1131AA020E030E0A901C701B6010E94C6308823B6
S1131AB009F43CC160918F037091900380E090E041
S1131AC00E9463314B015C0120E030E048EC51E4BA
S1131AD0C701B6010E9461302091B1053091B20571
S1131AE04091B3055091B4050E94CA309B01AC01EA
S1131AF0C501B4010E9461306093B5057093B605C9
S1131B008093B7059093B80548E250E064E085EB14
S1131B1095E00E9448216EE370E081E08ADC06C112
S1131B2001E914E0809191048B3279F488E995E01D
S1131B309F938F9388E191E09F938F9382E994E040
S1131B409F938F930E94EF3421C08D3231F588E941
S1131B5095E09F938F9388E191E09F938F9382E91F
S1131B6094E09F938F930E94EF3480919805909115
S1131B709905A0919A05B0919B05B058809398055A
S1131B8090939905A0939A05B0939B050F900F909D
S1131B900F900F900F900F90C9C021E330E042E8FE
S1131BA058E061E973E081E00E9493201F930F9352
S1131BB081E993E09F938F931F928FE78F9381E145
S1131BC094E09F938F930E94A334E1CE90910601F9
S1131BD096959F7009F4A7C080FDA5C081E00E947E
S1131BE0E42180910601E82FE695EF708E2F90E0B6
S1131BF0FC013197ED30F10508F08FC0EC5CFF4F2C
S1131C000C940B302FE646E15BE061E080E00E943B
S1131C10372380910601817E846082C027E64FEAE3
S1131C205AE061E080E00E94372380910601817EC2
S1131C30886076C027E148E95AE061E080E00E94CC
S1131C40372380910601817E8A606AC02BE24DE6CB
S1131C505AE061E080E00E94372380910601817E92
S1131C608C605EC02FE34EE25AE061E080E00E94A7
S1131C70372380910601817E8E6052C02CE242E0BF
S1131C805AE061E080E00E94372380910601817E62
S1131C90806146C025E54DEA59E061E080E00E949C
S1131CA0372380910601817E82613AC028E245E8AB
S1131CB059E061E080E00E94372380910601817E33
S1131CC084612EC02FE146E659E061E080E00E9485
S1131CD0372380910601817E866122C024E742EF8A
S1131CE058E061E080E00E94372380910601817E04
S1131CF0886116C020E342EC58E061E080E00E9475
S1131D00372380910601817E8A610AC02FE043EB6C
S1131D1058E061E080E00E94372380910601817ED3
S1131D208093060103C081E00E94E4210F900F908C
S1131D300F900F90DF91CF911F910F91FF90EF9033
S1131D40DF90CF90BF90AF909F908F9008952F9287
S1131D503F924F925F926F927F928F929F92AF9237
S1131D60BF92CF92DF92EF92FF920F931F93CF9384
S1131D70DF93CDB7DEB765970FB6F894DEBF0FBE1D
S1131D80CDBFA8950E944A2A0E9401296FDC9FB703
S1131D90F894209184002B87309185003F834090F4
S1131DA03505509036056090370570903805809160
S1131DB08600209187004091390550913A05609141
S1131DC03B0570913C059FBF9091280530913001EF
S1131DD0391769F19093300110922F01C090880552
S1131DE0D0908905E0908A05F0908B05C092820519
S1131DF0D0928305E0928405F0928505E0918605F2
S1131E00F0918705F0938105E09380056627772795
S1131E10409388055093890560938A0570938B05D8
S1131E2090E0922B90938705809386052CC0809137
S1131E302B0190912C01A0912D01B0912E014816F7
S1131E4059066A067B0698F120912F012F5F253BE6
S1131E5008F024EB20932F0120912F01253050F01E
S1131E6010929C0510927C0510927D0510927E05BF
S1131E7010927F0588519C4FAF4FBF4F48165906AB
S1131E806A067B0630F0D301C2018E519B4FAF4FDF
S1131E90BF4F80932B0190932C01A0932D01B093FD
S1131EA02E0180910701882309F4FDC1C7C18091E7
S1131EB01C05823009F080C12DE330E044E751E095
S1131EC061E973E081E00E94932080E495E09F93B0
S1131ED08F9382E495E09F938F938EE595E09F9393
S1131EE08F9386E695E09F938F938CE695E09F937E
S1131EF08F9386E495E09F938F9387E495E09F9377
S1131F008F938BE495E09F938F938CE495E09F935C
S1131F108F9380E595E09F938F9382E595E09F935F
S1131F208F9321E9E22E23E0F22EFF92EF9203E158
S1131F3012E01F930F930E94EF342FE030E045E648
S1131F4051E0B70181E00E9493208EE695E09F93D3
S1131F508F93FF92EF921F930F930E94EF340FB66B
S1131F60F894DEBF0FBECDBF181619060CF057C08B
S1131F7004DA80916E0590916F050297029720F024
S1131F8010926F0510926E0500911F0510E001502C
S1131F901109E9F0F801ED5EFD4F80818A32B9F74D
S1131FA0C80120E030E0181619068CF4FC01ED5E3F
S1131FB0FD4F40814C3249F42F5F3F4F23303105B0
S1131FC021F48C010F5F1F4F02C00197ECCF2CE06E
S1131FD030E049E551E061E973E081E00E9493203B
S1131FE080E495E09F938F938AE595E09F938F9388
S1131FF08EE595E09F938F9382E695E09F938F9370
S113200081E993E09F938F930D5E1D4F1F930F9370
S11320100E94EF340FB6F894DEBF0FBECDBF23E3AA
S113202030E046E251E061E973E081E00E949320F0
S113203080E495E09F938F9386E595E09F938F933B
S113204086E495E09F938F9387E495E09F938F9325
S11320508BE495E09F938F938CE495E09F938F930B
S113206080E595E09F938F9382E595E09F938F930E
S113207081E993E09F938F9383E192E09F938F9301
S11320800E94EF340FB6F894DEBF0FBECDBF181612
S113209019060CF052C071D98090560590905705DE
S11320A0A0905805B0905905D501C40180549041C1
S11320B0A109B109833C9F4AA440B105B0F5C5010B
S11320C0B40124E630E040E050E00E94EF2F6B01C1
S11320D07C01A5019401261B370B480B590BA4E680
S11320E0B0E00E941130DC01CB018053984FAF4F18
S11320F0BF4FC80ED91EEA1EFB1EC0925605D092D1
S11321005705E0925805F092590530E2C31A31E7B9
S1132110D30A3FE0E30AF10884E9C81681E7D80648
S11321208BECE80681E0F80640F010925605109218
S11321305705109258051092590521E130E045E108
S113214051E061E973E081E00E9493208AE695E022
S11321509F938F9391E9E92E93E0F92EFF92EF92EA
S113216003E112E01F930F930E94EF3421E130E06A
S113217044E051E0B70181E00E94932088E695E0B5
S11321809F938F93FF92EF921F930F930E94EF34CC
S1132190809105010FB6F894DEBF0FBECDBF83FF5B
S11321A007C020911F05A80160E080E00E9437234A
S11321B010921F0510921C058FB7F89410913205E8
S11321C08FBFC0902A05D0902B05E0902C05F0908D
S11321D02D0520E030E0A901C701B6010E94C630F8
S11321E0882311F40C945B1F11110C945B1F1FB70F
S11321F0F894809134058A838091330589831FBFC5
S11322009E012F5F3F4FAE014E5F5F4FC701B60186
S11322102FD9F8942A812093310529812093300500
S113222021E0209332051FBF60932A0570932B058C
S113223080932C0590932D050C945B1F8F5F8093E6
S11322400701833021F443E06DE378E005C0843076
S113225039F443E16AE278E081E00E94F82323C084
S1132260853021F44EE06CE178E0F6CF8A3021F439
S113227042E16AE078E0F0CF8B3021F442E168EF8C
S113228077E0EACF8C3021F442E166EE77E0E4CFE8
S1132290863449F442E166EE77E081E00E94F82357
S11322A08AE08093070160918B0370918C0380E036
S11322B090E00E94633120E030E045E553E40E9461
S11322C0CA3029E639E340E15DE30E94623060935D
S11322D078057093790580937A0590937B056091D6
S11322E08D0370918E0380E090E00E94633120E0C2
S11322F030E045E553E40E94CA3029E639E340E181
S11323005DE30E9462306093740570937505809359
S113231076059093770560918F037091900380E028
S113232090E00E9463312091B5053091B60540914B
S1132330B7055091B8050E9461302091B1053091E4
S1132340B2054091B3055091B4050E946C3220E06F
S113235030E048EC51E40E94623060937005709361
S1132360710580937205909373058091050182FF36
S1132370ACC221E130E046ED57E061E174E081E078
S11323800E94932021E141E154E060E080E00E945A
S1132390372328E230E04EEA57E061E973E081E058
S11323A00E949320809151058F93809150058F93C3
S11323B0809155058F93809154058F938091530597
S11323C08F93809152058F93809159058F938091BB
S11323D058058F93809157058F93809156058F935D
S11323E081E9282E83E0382E3F922F9201E114E0F8
S11323F01F930F930E94D034282FA80160E080E03F
S11324000E94372325E230E049E857E0B10181E03A
S11324100E94932080916D058F9380916C058F931A
S113242080916F058F9380916E058F933F922F92C9
S11324301F930F930E94D034282FA80160E080E0FE
S11324400E94372323E530E046E357E0B10181E001
S11324500E949320809169058F93809168058F93E2
S113246080916B058F9380916A058F9380916705A6
S11324708F93809166058F933F922F921F930F93B2
S11324800E94D0340FB6F894DEBF0FBECDBF282F04
S1132490A80160E080E00E94372328E330E04EEF9B
S11324A056E0B10181E00E94932080915A059091F9
S11324B05B05A0915C05B0915D058B839C83AD8326
S11324C0BE8342E0BC01CD0171D88F87998B809087
S11324D05E0590905F05A0906005B090610542E0B4
S11324E0C501B40163D88A8B9B8BC0906205D090E0
S11324F06305E0906405F090650542E0C701B6010C
S113250055D88C8B9D8B99899F93AF85AF936B81A5
S11325107C818D819E810E9432317F936F93BB8930
S1132520BF932A892F93C501B4010E9432317F934E
S11325306F933D893F938C898F93C701B6010E94A5
S113254032317F936F933F922F921F930F930E9488
S1132550D034282FA80160E080E00E94372323E4D0
S113256030E04BEB56E0B10181E00E949320C09033
S11325704205D0904305E0904405F090450542E0C3
S1132580C701B60113D8382E292EC701B6010E94FF
S11325903231698B7A8BC0904705D0904805E09022
S11325A04905F0904A0544E0C701B6010E94D60AE5
S11325B08B839F87C701B6010E943231962E872EE6
S11325C0009146050FB6F894DEBF0FBECDBF0023C1
S11325D011F010E002C00DE210E0C0904C05D09064
S11325E04D05E0904E05F0904F0544E0C701B6015B
S11325F00E94D60AB82EA92EC701B6010E94323114
S113260080914B05882311F090E002C08DE290E0A8
S11326102F923F92BA89BF9329892F933F853F9385
S1132620AB81AF938F929F921F930F93AF92BF9200
S11326307F936F939F938F9301E9E02E03E0F02E35
S1132640FF92EF9201E114E01F930F930E94D034A4
S1132650282FA80160E080E00E9437230FB6F89489
S1132660DEBF0FBECDBF80912F01811192C02FE13B
S113267030E04CE956E0B70181E00E94932080905D
S1132680780590907905A0907A05B0907B0543E099
S1132690C501B4010E94D60AC0908B03D0908C036C
S11326A09F938F93C501B4010E9432317F936F933E
S11326B0DF92CF92FF92EF921F930F930E94D03438
S11326C0282FA80160E080E00E9437232FE130E04A
S11326D04DE756E0B70181E00E9493208090740595
S11326E090907505A0907605B090770543E0C501FC
S11326F0B4010E94D60AC0908D03D0908E039F939C
S11327008F93C501B4010E9432317F936F93DF929E
S1132710CF92FF92EF921F930F930E94D034282FF1
S1132720A80160E080E00E9437232EE130E04FE50D
S113273056E0B70181E00E9493208090700590904C
S11327407105A0907205B090730541E0C501B40114
S11327500E94D60AC0908F03D09090039F938F93CA
S1132760C501B4010E9432317F936F93DF92CF92FF
S1132770FF92EF921F930F930E94D034282FA80149
S113278060E080E00E9437230FB6F894DEBF0FBEEE
S1132790CDBF28E330E047E256E061E973E081E031
S11327A00E949320AB8590E0BF819B2B9F93AF93B6
S11327B07F926F925F924F9211E9E12E13E0F12E16
S11327C0FF92EF9201E114E01F930F930E94D03423
S11327D0282FA80160E080E00E94372324E730E03E
S11327E043EB55E0B70181E00E949320809181057D
S11327F08F93809180058F93809185058F9380912D
S113280084058F93809183058F93809182058F93A4
S1132810809187058F93809186058F9380918B0596
S11328208F9380918A058F93809189058F938091EE
S113283088058F93FF92EF921F930F930E94D034D9
S1132840282FA80160E080E00E94372324E230E0D2
S11328504FE855E0B70181E00E9493208091330551
S11328601F928F93809134051F928F93FF92EF9262
S11328701F930F930E94D0340FB6F894DEBF0FBE9F
S1132880CDBF282FA80160E080E00E94372320E21A
S113289030E04FE655E0B70181E00E94932080913B
S11328A09C051F928F93FF92EF921F930F930E94A8
S11328B0D034282FA80160E080E00E9437230F90D5
S11328C00F900F900F900F900F9080912F01811116
S11328D044C5409188055091890560918A0570919D
S11328E08B058091820590918305A0918405B09118
S11328F085059A01AB01281B390B4A0B5B0BA0E23F
S1132900BEE40E941130209186053091870549016B
S1132910A12CB12C2091800530918105821A930A53
S1132920A108B108860E971EA81EB91ED501C401C0
S11329309D52A143B1408B839C83AD83BE83409061
S11329402701509028016090290170902A0120E00D
S113295030E040EA50E4C301B2010E94CA306B0186
S11329607C019CE9891A9CE2990A91E3A90A91E005
S1132970B90AA9EC8A169104A104B104D8F020E0A4
S113298030E040E05FE3C701B6010E946C322B01E6
S11329903C0120E030E040EA51E4C701B6010E9466
S11329A0CA306B877C878D879E871B821C821D8221
S11329B01E8256C08B819C81AD81BE814396A11D30
S11329C0B11D8797A105B10538F56B817C818D8197
S11329D09E810E946531A70196010E946130A30186
S11329E092010E94623060932701709328018093C2
S11329F0290190932A0120E030E040E05FE3C70121
S1132A00B6010E946C322B013C0120E030E040EA28
S1132A1051E4C701B6011EC010922701109228018B
S1132A201092290110922A016B817C818D819E81F3
S1132A300E9465314B015C0120E030E040E05FE33F
S1132A400E946C322B013C0120E030E040EA51E46A
S1132A50C501B4010E94CA306B877C878D879E872D
S1132A608091050182FFC3C08091050180FDBFC034
S1132A702AE330E04FE554E061E973E081E00E942D
S1132A809320BE81BF932D812F933C813F938B81F3
S1132A908F9381E993E09F938F9381E194E09F93D7
S1132AA08F930E94D034282F41E154E060E080E00D
S1132AB00E94372320E030E040E250E460917C053E
S1132AC070917D0580917E0590917F050E94623012
S1132AD04B015C0124E730E04BEE53E061E973E025
S1132AE081E00E94932046E0C501B4010E94D60A09
S1132AF08F87998BC501B4010E9432316A8B7B8B1D
S1132B000FB6F894DEBF0FBECDBF20E030E0A901C0
S1132B10C501B4010E94683287FF02C08DE201C082
S1132B208BE2282F30E038872F8343E0C301B201C2
S1132B300E94D60A1C01C301B2010E9432316C8B7F
S1132B407D8B20E030E0A901C301B2010E9468320C
S1132B5087FF02C00DE201C00BE210E043E0C701B1
S1132B60B6010E94D60A982E892EC701B6010E948A
S1132B703231B62EA72E20E030E0A901C701B601FC
S1132B800E94683287FF02C08DE201C08BE239895E
S1132B903F939F859F93AB89AF93BA89BF93288551
S1132BA02F933F813F933F922F929D899F93AC89AE
S1132BB0AF931F930F938F929F92AF92BF921F92E6
S1132BC08F9381E993E09F938F9381E194E09F93A6
S1132BD08F930E94D034282F41E154E060E080E0DC
S1132BE00E9437230FB6F894DEBF0FBECDBF80918D
S1132BF09C05843080F48091050181FF0CC02DEC8C
S1132C003CEC4CEC5DE3C701B6010E9462306B0101
S1132C107C0111E001C010E020E030E04AE754EC10
S1132C20C701B6010E94683218160CF018C220E0E1
S1132C3030E04AE754E4C701B6010E94C63087FF7A
S1132C400EC2111104C020E030E0A90104C02AE042
S1132C5037ED43EA5BE36B857C858D859E850E9419
S1132C6061304B015C018B819C81AD81BE810396F7
S1132C70A11DB11D0797A105B105F0F420E030E0D6
S1132C8040EA51E4C701B60190580E94CA3020912D
S1132C90A5053091A6054091A7055091A8050E946D
S1132CA0CA3020E030E040E251E40E94CA306F8331
S1132CB0788789879A8729C06B817C818D819E81E1
S1132CC090958095709561957F4F8F4F9F4F0E948F
S1132CD0653120E030E040EA51E40E94CA3020919E
S1132CE0A5053091A6054091A7055091A8050E941D
S1132CF0CA302DEC3CEC4CE85FE30E94CA306F8391
S1132D00788789879A8710929C052FE832EC45E7EB
S1132D105CEBC501B4010E94683287FD16C02FE840
S1132D2032EC45E75CE3C501B4010E94C6301816D5
S1132D3064F080919C05823041F4809126018111D8
S1132D4062C083E080939C055EC02CEE31E548E3CD
S1132D505DEBC501B4010E94683287FD14C02CEEFE
S1132D6031E548E35DE3C501B4010E94C63018169D
S1132D7054F080919C05813031F4809126018111B9
S1132D8042C082E031C02CE53FE842EC5DEBC50176
S1132D90B4010E94683287FD0EC02CE53FE842EC86
S1132DA05DE3C501B4010E94C630181624F0809179
S1132DB09C05823040F520E030E048EC51ECC50140
S1132DC0B4010E94683287FD19C020E030E048EC6D
S1132DD051E4C501B4010E94C63018167CF08091FC
S1132DE09C05823020F081E080939C0509C081110C
S1132DF00AC0809126018823B1F305C010929C0576
S1132E0084E1809326018091050180FF31C18FB751
S1132E10F894909134059A839091330599838FBFE8
S1132E2080919C058430A8F49E012F5F3F4FAE0132
S1132E304E5F5F4F6F81788589859A850E94380A35
S1132E408FB7F8949A8190933405998190933305C0
S1132E508FBF8091050182FF02C12AE330E04FE574
S1132E6054E061E973E081E00E9493203E813F9346
S1132E708D818F939C819F93AB81AF9381E993E084
S1132E809F938F9381E194E09F938F930E94D0341A
S1132E90282F41E154E060E080E00E94372324E7DA
S1132EA030E04BEE53E061E973E081E00E9493204F
S1132EB046E0C501B4010E94D60A8C01C501B401E3
S1132EC00E9432311B010FB6F894DEBF0FBECDBF96
S1132ED020E030E0A901C501B4010E94683287FFF7
S1132EE002C08DE201C08BE2A82FB0E0BC83AB83AB
S1132EF043E0C301B2010E94D60A5C01C301B201DE
S1132F000E9432314B0120E030E0A901C301B2013B
S1132F100E94683287FF02C08DE201C08BE2282F35
S1132F2030E0388B2F8743E0C701B6010E94D60AF0
S1132F30898B9A8BC701B6010E9432316B8B7C8BD3
S1132F4020E030E0A901C701B6010E94683287FF82
S1132F5002C08DE201C08BE21F930F933F922F9228
S1132F603C813F939B819F93BF92AF929F928F929C
S1132F70A889AF93BF85BF932A892F9339893F933B
S1132F809C899F93AB89AF931F928F93B1E9EB2EEA
S1132F90B3E0FB2EFF92EF9201E114E01F930F9335
S1132FA00E94D034282FA80160E080E00E943723DB
S1132FB0698170E080E090E00E94653120E030E0BB
S1132FC040E85BE30E946C324B015C016A8170E073
S1132FD080E090E00E9465319B01AC01C501B40121
S1132FE00E9462304B015C0127E430E044EA53E084
S1132FF0B70181E00E94932043E06F817885898541
S11330009A850E94D60A382E292E43E0C501B401C0
S11330100E94D60AD82EC92E2F923F926F817885AE
S113302089859A850E9432317F936F93CF92DF9284
S1133030C501B4010E9432317F936F93FF92EF92E6
S11330401F930F930E94D0340FB6F894DEBF0FBEC7
S1133050CDBF282FA80160E080E00E943723809133
S11330602601815018F08093260102C01092260197
S113307010919C05143060F48B859C85AD85BE85CC
S113308080937C0590937D05A0937E05B0937F0586
S11330908091050181FF61C160918D0370918E0360
S11330A06D507140072E000C880B990B0E946531FE
S11330B020E030E045E553E40E94CA3023E333E3E3
S11330C043EB5FE30E94CA3020E030E044EB52E47B
S11330D00E946C324B015C01133008F45EC020E0A6
S11330E030E042E852EC0E94683287FD46C020E09E
S11330F030E042E852E4C501B4010E94C63018161B
S1133100E4F11730C8F487E080939C058FB7F894F6
S113311010922A0510922B0510922C0510922D0561
S11331208FBF20E030E04CE052ECC501B4010E94B6
S1133130683287FF10C031C0173019F087E08093E0
S11331409C0520E030E04CE052ECC501B4010E9443
S1133150683287FD26C020E030E04CE052E4C5012F
S1133160B4010E94C6301816C4F080919C058F30BB
S1133170A0F48FE080939C0510C0173070F081E0BC
S113318080939C058FB7F89410922A0510922B0512
S113319010922C0510922D058FBF80919C058730CD
S11331A0F8F023E333E343E95FE3C501B4019F7718
S11331B00E94CF3220E030E046E153E40E946C32BA
S11331C06B017C0120E030E0A901C501B4010E943B
S11331D0C63087FFA6C5F7FAF094F7F8F094A1C5B6
S11331E0C12CD12C7601260137018091050182FF83
S11331F0B4C02BE630E049E353E061E973E081E0D9
S113320092D743E0C701B6010E94D60A382E292E70
S1133210C701B6010E943231162F072F20E030E09B
S1133220A901C701B6010E94683287FF02C08DE27E
S113323001C08BE2E82EF12C43E0C301B2010E94ED
S1133240D60AD82EC92EC301B2010E9432316B8333
S11332507B8720E030E0A901C301B2010E946832FB
S113326087FF03C0ADE27A2E02C0FBE27F2E43E06B
S1133270C501B4010E94D60A2F923F920F931F9367
S1133280FF92EF92CF92DF92AB85AF93BB81BF9356
S11332901F927F929F938F93C501B4010E94323194
S11332A07F936F9381E993E09F938F9381E194E0FF
S11332B09F938F930E94D034282F41E154E060E023
S11332C080E00E94372324E330E045E053E061E9E5
S11332D073E081E028D7C0902A05D0902B05E090B8
S11332E02C05F0902D0543E0C701B6010E94D60AD3
S11332F0B82EA92EC701B6010E943231162F072F0E
S11333000FB6F894DEBF0FBECDBF20E030E0A901B8
S1133310C701B6010E94683287FF02C08DE201C076
S11333208BE2AF92BF920F931F931F928F9381E909
S113333093E09F938F9381E194E09F938F930E94F6
S1133340D034282F41E154E060E080E00E9437232C
S11333500FB6F894DEBF0FBECDBF8091060180FF8B
S113336067C0E9EDF5E080E090E021912A3571F045
S113337087529A4F209108013091090182179307CF
S113338050F4909309018093080105C0019680329E
S1133390A2E09A0751F725E430E044E152E061E904
S11333A073E081E0C0D680910B018F9380910A0174
S11333B08F93809109018F93809108018F93E1E9A4
S11333C0EE2EE3E0FE2EFF92EF9201E114E01F9354
S11333D00F930E94D034282FA80160E080E00E945F
S11333E037232DE130E047EF51E0B70181E09BD670
S11333F09091420196959170809142018170209143
S113340041011F929F931F928F931F922F93FF92BC
S1133410EF921F930F930E94D034282FA80160E0ED
S113342080E00E9437230FB6F894DEBF0FBECDBFF5
S11334308091050186FF37C02FB7F8948091350538
S113344090913605A0913705B09138052FBF893882
S11334509341A105B10580F521E130E044EF52E04C
S113346061E973E081E05FD660E080E00E94F127CB
S113347060E181E993E00E941A280E944A2A21E12E
S113348030E043EE52E061E973E081E04CD660E065
S113349081E00E94F12760E181E993E00E941A280B
S11334A00E944A2AB1C10E9414270E948A2780914F
S11334B0050186FDC1CFA8C180919C05882309F42C
S11334C043C020E030E04AE754E460917C05709109
S11334D07D0580917E0590917F050E946C326B0181
S11334E07C012BE130E048EC52E061E973E081E0DB
S11334F01AD6109166050091670543E0C701B6012D
S11335000E94D60A0F931F931F9223EF2F932091AB
S11335109C051F922F931F9220EE2F939F938F93BE
S1133520C701B6010E9432317F936F931F9282E6E6
S11335308F9381E993E09F938F9381E194E09F932C
S11335408F930E94D03422C028E130E040EB52E057
S113355061E973E081E0E7D5809167058F938091FD
S113356066058F931F9283EF8F9380919C051F9222
S11335708F931F9280EE8F9381E993E09F938F93B3
S113358081E194E09F938F930E94D034182F0FB65B
S1133590F894DEBF0FBECDBF60E080E00E94F1274B
S11335A0612F81E194E00E941A280E944A2A8091A6
S11335B01D01813009F459C0823009F4A2C0809001
S11335C0560590905705A0905805B0905905409025
S11335D052055090530560905405709055052CE1A8
S11335E030E044E952E061E973E081E09CD574E69F
S11335F0C72ED12CE12CF12CC301B201A7019601F5
S11336000E94EF2F1F926F93CA01B901A70196017F
S11336100E94EF2F1F926F93C301B20120E137E2A2
S113362040E050E00E94EF2F1F922F93C501B40198
S113363020E432E44FE050E00E94EF2F1F922F93DA
S1133640C501B40120E137E240E050E00E94EF2FD1
S1133650162F072FCA01B901A70196010E94EF2F67
S11336601F926F930F931F93A2C022E230E042E7B0
S113367052E061E973E081E056D5B0906805A0900E
S1133680690510916A0500916B05C0906205D090A0
S11336906305E0906405F090650541E0C701B6015B
S11336A00E94D60AAF92BF921F922BEE2F930F93D4
S11336B01F931F922FED2F939F938F93C701B601F2
S11336C00E9432317F936F9380916D058F93809127
S11336D06C058F931F9286E48F9380916F058F936F
S11336E080916E058F931F928DE48F9381E993E00F
S11336F09F938F9381E194E09F938F930E94D034A2
S113370060C08FB7F89410913405609133058FBF72
S113371070E080E090E00E94653120E030E040E815
S11337205BE30E946C326B017C01612F70E080E0EE
S113373090E00E9465319B01AC01C701B6010E9473
S113374062306B017C0129E130E049E552E061E936
S113375073E081E0E8D48090780590907905A0909A
S11337607A05B0907B0543E0C501B4010E94D60AF6
S1133770782E692E43E0C701B6010E94D60A182F9D
S1133780092F6F927F92C501B4010E9432317F9359
S11337906F931F928BEA8F930F931F93C701B60108
S11337A00E9432317F936F931F9280E58F9381E95A
S11337B093E09F938F9381E194E09F938F930E9472
S11337C0D034182F60E081E00E94F127612F81E15D
S11337D094E00E941A280FB6F894DEBF0FBECDBF46
S11337E00E944A2A80911C018F5F833018F48093D1
S11337F01C010AC010921C0180911D018F5F63E0BF
S11338000E949A2F90931D018091050187FD08C0A5
S11338100E945E288091050187FFE5C10E947A28F5
S11338208FB7F89410919C05C0907405D0907505DD
S1133830E0907605F09077058FBFA701960166E6C4
S113384076E686EA9FE30E94613023E333E343EBA9
S11338505FE30E94CA3020E030E044EB52E40E946F
S11338606C3220E030E048EC52E40E946C320E945A
S113387032314B015C0120E030E04AE754E4C701F7
S1133880B6010E946C320E943731A401812F0E943C
S113389084288FB7F894C0905605D0905705E090CF
S11338A05805F09059058FBFC701B60120E432E4F2
S11338B04FE050E00E94EF2F122F90E1892E97E203
S11338C0992EA12CB12CC701B601A50194010E9427
S11338D0EF2F2B013C0164E6C62ED12CE12CF12CF8
S11338E0CA01B901A70196010E94EF2F412FC2011D
S11338F00E9490288FB7F894409052055090530539
S113390060905405709055058FBFC301B201A701A3
S113391096010E94EF2F062FCA01B901A701960153
S11339200E94EF2F162FC301B201A50194010E943A
S1133930EF2F822F402F612F0E949B288FB7F8947E
S1133940C0907C05D0907D05E0907E05F0907F05C9
S11339508FBF20E030E0A901C701B6010E946832A0
S113396018162CF420E030E04AE754E404C020E0C8
S113397030E04AE754ECC701B6010E946C322B01D7
S11339803C010E9432314B015C018B01072E000C7B
S1133990880B990B0E9465319B01AC01C301B201F4
S11339A00E94613020E030E04AE754E40E946C3227
S11339B00E9437312B013C0120E030E0A901C7010E
S11339C0B6010E94C63087FF04C0002711270819DA
S11339D01909B201C8010E94A5289FB7F8948091E3
S11339E03405609133059FBF0E94B0288FB7F894C7
S11339F0C0907805D0907905E0907A05F0907B0529
S1133A008FBFC701B6010E943731162F70E080E0E6
S1133A1090E00E9465319B01AC01C701B6010E9490
S1133A20613020E030E04AE754E40E946C320E94A6
S1133A303731812F0E94B9289FB7F89480916A0585
S1133A4060916805409166059FBF0E94C3282FB707
S1133A50F89460916205709163058091640590917A
S1133A6065052FBF20E030E048EC52E40E946C3240
S1133A700E943731CB010E94CD289FB7F8948091E2
S1133A806C0560916E059FBF0E94D6288FB7F8948D
S1133A90C0904B0580904C0590904D05A0904E052C
S1133AA0B0904F058FBF20E030E048EC52E4C501F0
S1133AB0B4010E94CA300E943731D62EC501B40128
S1133AC00E94323104E610E0CB01B8010E94BA2F03
S1133AD07C01BC017727B4E6DB9E600D711D1124C7
S1133AE0072E000C880B990B0E9465319B01AC01D9
S1133AF0C501B4010E94613020E030E44CE156E499
S1133B000E946C320E9437319B014E2D6D2D8C2DFD
S1133B100E94DF288FB7F89470904605C09047053F
S1133B20D0904805E0904905F0904A058FBF20E009
S1133B3030E048EC52E4C701B6010E94CA300E944A
S1133B4037314B015C01C701B6010E943231CB0110
S1133B50B8010E94BA2F182F84E6889DB001899D70
S1133B60700D1124610F711D80E090E00E9463319B
S1133B709B01AC01C701B6010E94613020E030E432
S1133B804CE156E40E946C320E9437319B01412F74
S1133B90682D872D0E94EB288FB7F894C0904205BA
S1133BA0D0904305E0904405F09045058FBFC701D0
S1133BB0B6010E94A0319B01AC01C701B6010E946D
S1133BC0613020E030E040E251E40E946C320E9417
S1133BD03231162FC701B6010E943231DC01CB010C
S1133BE0612F0E94F72820E030E0A9016091980538
S1133BF07091990580919A0590919B050E94C63019
S1133C00882309F458C1FFB6F89410913405009143
S1133C103305FFBE19830A83609198057091990555
S1133C2080919A0590919B059E012E5F3F4FAE01B6
S1133C304F5F5F4F0E94380AF8948981809334055E
S1133C408A8180933305FFBE2BE630E044E055E0E3
S1133C5061E973E081E067D2C0909805D09099053E
S1133C60E0909A05F0909B0547E0C701B6010E94D9
S1133C70D60A1F920F931F921F939F938F93C7018E
S1133C80B6010E9432317F936F9381E9E82E83E07D
S1133C90F82EFF92EF9201E114E01F930F930E941C
S1133CA0D034282FA80160E080E0E1D42BE630E096
S1133CB049E954E0B70181E036D2809098059090AC
S1133CC09905A0909A05B0909B0547E0C501B40101
S1133CD00E94D60A2A811F922F9329811F922F9323
S1133CE09F938F93C501B4010E9432317F936F93E8
S1133CF0FF92EF921F930F930E94D034282FA801B4
S1133D0060E080E0B4D41092980510929905109266
S1133D109A0510929B050FB6F894DEBF0FBECDBF77
S1133D20CAC0209122013091230140912401509175
S1133D302501C701B6010E9461302B013C0120E03E
S1133D4030E0A901C701B6010E94683218164CF48C
S1133D5020E030E0A901C301B2010E9468321816C4
S1133D60A4F020E030E0A901C701B6010E94C630EA
S1133D7087FF0DC020E030E0A901C301B2010E9419
S1133D80C630881F8827881F03C081E001C080E0F7
S1133D90C0922201D0922301E0922401F0922501E5
S1133DA0811105C06CE973E589E496EB04C062E80F
S1133DB078EA8BE797E3A70196010E946C3220E032
S1133DC030E0A9010E9462302B013C0180911E0168
S1133DD090911F01A0912001B09121018B839C83BC
S1133DE0AD83BE8320E030E040EE50E4BC01CD0161
S1133DF00E94CA306B877C878D879E879B01AC01AC
S1133E006091A5057091A6058091A7059091A805DC
S1133E100E946C3260937C0570937D0580937E05CF
S1133E2090937F0520E030E0A901C301B2010E9414
S1133E3068322B853C854D855E8587FD03C0C301B3
S1133E40B20103C0C301B20190580E9461302B81BA
S1133E503C814D815E810E94623060931E017093AB
S1133E601F01809320019093210120E030E0A901FB
S1133E70C301B2010E94C630882309F4B6C91FB732
S1133E80F894809134058A838091330589831FBF18
S1133E909E012F5F3F4FAE014E5F5F4FC301B201E2
S1133EA00E94380AF8948A8180933405898180932A
S1133EB033051FBF9AC965960FB6F894DEBF0FBECF
S1133EC0CDBFDF91CF911F910F91FF90EF90DF90C5
S1133ED0CF90BF90AF909F908F907F906F905F90A6
S1133EE04F903F902F900895F894F89481E085BF07
S1133EF080E085BF0FB6F894A89580916000886132
S1133F0080936000109260000FBE8FEE8093640077
S1133F1080B7806880BF80917F00836080937F003A
S1133F2085B78F7E85BF0E945309E9EFF7E08AE5E4
S1133F30829325E0E93DF207D9F70E94BE080E946A
S1133F402A080CD40E940A29789481E080931A05E7
S1133F5071D56AD7DFD78FE794E82EE1815090407E
S1133F602040E1F700C000000E947A280DD260E0F2
S1133F7081E993E070D1882339F180E1E1E9F3E04C
S1133F80A5ECB5E001900D928A95E1F71092D50564
S1133F908091A3039091A4039093C4058093C305D7
S1133FA08091A1039091A2039093C2058093C105CF
S1133FB08091A503982F9295990F907E8091060188
S1133FC08F71892B8093060161E081E993E043D1ED
S1133FD0882309F440C08091910390919203A091A9
S1133FE09303B09194038093BD059093BE05A09371
S1133FF0BF05B093C0058091950390919603A0915D
S11340009703B09198038093B9059093BA05A09350
S1134010BB05B093BC058091990390919A03A0913C
S11340209B03B0919C038093B5059093B605A09330
S1134030B705B093B80580919D0390919E03A0911C
S11340409F03B091A0038093B1059093B205A09310
S1134050B305B093B40562E081E993E0FCD0882312
S113406009F450C08091910390919203A09193031D
S1134070B09194038093AD059093AE05A093AF05E2
S1134080B093B0058091950390919603A091970306
S1134090B09198038093A9059093AA05A093AB05CA
S11340A0B093AC058091990390919A03A0919B03DE
S11340B0B0919C038093A5059093A605A093A705B2
S11340C0B093A8058091A3039091A403A091A503A4
S11340D0B091A6038093A1059093A205A093A30594
S11340E0B093A4058091A7039091A803A091A9037C
S11340F0B091AA0380939D0590939E05A0939F057C
S1134100B093A0058091050186FD0AC08091050148
S113411087FD06C025E042E15CE061E081E0A7D2D2
S11341200E94A70EFDCFCF93DF93D62FC72FBA01DE
S1134130882329F0AD2FBC2F80E090E007C0A901AF
S11341408D2F9C2FDF91CF910C944E3482179307BF
S113415039F0FB01E80FF91FE491ED930196F6CFD6
S11341608D2F9C2FDF91CF91089520E1829FC00174
S113417011248C60906B0895CF93DF93FC01DC01D4
S11341805E9625EA35EA60E1E901CC0FDD1F832F55
S1134190881F8827881F922F91709827A901452F7F
S11341A055274295469547704170942733FB332732
S11341B030F9932727FB882780F9982722FB2227A9
S11341C020F92927CE01822B9C016150E9F68191C7
S11341D02827EA17FB07B9F6C901DF91CF910895A3
S11341E0E0910C01F0910D010994EF92FF921F935D
S11341F0CF93DF93162FEC017A01E81AF90A112301
S113420041F0C7018C0F9D1F0E94A3378993115061
S1134210F6CFDF91CF911F91FF90EF900895CF9348
S1134220DF93883098F490E2899FA001112460E222
S113423081E993E0DADFC091AF03D091B00381E963
S113424093E09ADF21E08C179D0709F020E0822F8C
S1134250DF91CF9108950F931F93CF93683010F09F
S113426080E012C0C62F8C01862FD9DF8823C1F3CA
S113427083E00139180739F080E2C89FA0011124B6
S113428060E2C801B2DF81E0CF911F910F910895E0
S1134290EF92FF920F931F93CF938A017C01C62F55
S11342A0CC2351F0F70161917F01C8010E94AB3723
S11342B00F5F1F4FC150F4CFCF911F910F91FF900B
S11342C0EF9008951F93CF93DF936830D8F4162F9F
S11342D0EC0152DF2E8D3F8D28173907A9F08E8F00
S11342E09F8F8C8D9D8D01968C8F9D8FCE0144DF89
S11342F08E8F9F8F80E2189FA001112460E2CE016F
S1134300C7DF02C080E001C081E0DF91CF911F913F
S113431008951F93CF93DF93883010F080E030C06E
S1134320182F7DDF8111FACF212F30E0C90144E03D
S1134330880F991F4A95E1F78C60906B4091AF0309
S11343405091B00348175907B1F0C091AD03D09113
S1134350AE0385E0220F331F8A95E1F72F5C334FBC
S113436040E050E06CE181E993E03ADF2196C093AC
S1134370AD03D093AE03612F81E993E0A3DF81E025
S1134380DF91CF911F910895CF93DF93C0E0D0E0E8
S11343908C2FBFDF8111DF5FCF5FC830C9F78D2F4E
S11343A0DF91CF910895811103C0E2E2F5E002C0EC
S11343B0E3E2F5E08FB7F894908121E020838FBF8A
S11343C081E0911180E00895811103C0E2E2F5E0FB
S11343D002C0E3E2F5E08FB7F89410828FBF08952E
S11343E08F929F92AF92BF92CF92DF92EF92FF9201
S11343F00F931F93CF93DF933FB7F894882329F04B
S1134400709127059091260504C07091250590911F
S113441024053FBFA72FB0E0C92FD0E0FD0131969E
S1134420EC17FD0709F464C07F3719F4992309F4E4
S11344305FC0811105C0EBE8EE2EE2E0FE2E04C061
S11344403BE0E32E33E0F32E30E0791728F4FE014D
S1134450EA1BFB0B31970CC0E0E8F0E0EA1BFB0B16
S113446001E010E0992311F000E010E0E01BF10BF3
S11344702E173F070CF4F901DE2E8F011127201BA4
S1134480310B791720F0992311F0219702C0C0E075
S1134490D0E02C173D070CF4E9015A01962E882E22
S11344A0CC2EDD2031F0B7016A0F7B1F9801892DD6
S11344B03ADECC2049F09E013327A501400F511F5D
S11344C0B701892D30DEDC0C9FB7882041F0F894C9
S11344D0809127058D0D8F778093270507C0F89469
S11344E0809125058D0D8F77809325059FBF01C091
S11344F0D12C8D2DDF91CF911F910F91FF90EF90D3
S1134500DF90CF90BF90AF909F908F9008959F922F
S1134510AF92BF92CF92DF92EF92FF920F931F93CD
S1134520CF93DF932FB7F894882329F0C091270500
S11345309091260504C0C0912505909124052FBFB4
S11345409C1709F45FC0423008F45CC0811105C0B7
S11345503BE8E32E32E0F32E04C02BE0E22E23E00E
S1134560F22E242F30E021503109E92FF0E09C177E
S113457018F44C2F50E002C040E850E04E1B5F0B93
S1134580241735070CF4A901D42E8A011127201B06
S1134590310B9C1710F0D0E002C0C0E0D0E02C1723
S11345A03D070CF4E9015B01C82E9C2EDD2039F097
S11345B0B7016E0F7F1FA801C5010E944E349920D8
S11345C049F0AE015527B701C501800F911F0E9424
S11345D04E34D90CF501ED0DF11D10829FB7CC209E
S11345E041F0F894809126058D0D8F7780932605F0
S11345F007C0F894809124058D0D8F77809324054E
S11346009FBF05C0411102C0FB011082D12C8D2D2A
S1134610DF91CF911F910F91FF90EF90DF90CF909A
S1134620BF90AF909F9008953FB7F894882329F0E6
S1134630909127052091260504C09091250520918D
S113464024053FBF291779F0811103C08BE892E05C
S113465002C08BE093E0FC01E20FF11D8081843203
S113466021F481E1089580E0089581E00895FF92A6
S11346700F931F93CF93DF93C82FD62F8A01F22E67
S11346808C2F91DE8823A9F02FB7CC2331F0F89436
S1134690909127058091260505C0F89490912505F1
S11346A0809124052FBF981739F08C2F8DDEA895A3
S11346B0F1D6A895EFD6E4CF2F2DA8016D2F8C2F1E
S11346C08FDED82F8C2F80DE8D2FDF91CF911F911D
S11346D00F91FF9008959FB7F894E0ECF0E080818B
S11346E08F7B8083E0911D0581E08E0F80931D05F3
S11346F0F0E0E553FE4F80818093C6009FBFE1EC5C
S1134700F0E080818062808308959FB7F894E1ECA3
S1134710F0E08081806880839FBF08959C01BC0184
S113472076956795CB01A0E0B0E0BC01CD01605364
S11347307D4E8C4E9F4F40E050E00E94CD2FDA0119
S1134740C9010197A109B109892F9A2FAB2FBB2762
S11347508093C50021502093C40008958091640083
S11347608D7F8093640085B78F7E85BF589A63E000
S113477081E993E070DD8823C1F0809191039091E9
S1134780920390930301809302018091930390918B
S1134790940390930101809300018091950390917B
S11347A096039093210580932005809102019091B6
S11347B00301B4DF88E18093C100209100013091AE
S11347C0010183E0820F8370880F932F9073892BEC
S11347D0222733709FEF930F9170990F990F990FC0
S11347E0892B8093C2008091C60010921D058DCF45
S11347F0CF93442369F0C42FAB012C2F30E06BEC32
S113480071E091DC10921D05C0931E05CF9163CF1A
S1134810CF910895CF932FB7F8949091C0002FBFF4
S113482020911E05211135C095FF33C0C82F4DE3DB
S11348306BEC71E06CDE80931E058C2FC5DD8091DE
S1134840050183FF10921E0510921D0580911E051F
S1134850882309F1EFEFE80FE0931E05F0E0E5533C
S1134860FE4F9081911180931E05E0911E05AE2F9D
S1134870B0E0A553BE4F8DE08C9382E08E0F809301
S11348801E05EF5FF0E0E553FE4F8AE08083CF9191
S113489022CFCF9199CDCF9108951F920F920FB649
S11348A00F9211242F933F934F935F938F939F9372
S11348B0AF93BF93CF93DF93EF93FF939091C60091
S11348C0789480911C0520911B05811148C030917A
S11348D01F05353708F043C031E030931C0522230F
S11348E0C1F02FB7F89430911B0540911F05ABE040
S11348F0B2E0E82FE40F381739F05D91F0E0ED5E97
S1134900FD4F50838F5FF5CFE0931F0510921B0579
S11349102FBFE0911F05A1E0AE0FA0931F05CE2F7E
S1134920D0E0CD5EDD4F9883A53780F0B0E0AD5E7A
S1134930BD4F8DE08C9383E08E0F80931F05EE5F57
S1134940F0E0ED5EFD4F8AE0808302C09A3021F4EE
S113495082E080931C0512C010921C050FC0283001
S113496068F48FB7F894E0911B0521E02E0F209393
S11349701B05F0E0E55FFD4F90838FBFFF91EF9142
S1134980DF91CF91BF91AF919F918F915F914F91A3
S11349903F912F910F900FBE0F901F9018951F926B
S11349A00F920FB60F9211248F939F93EF93FF935F
S11349B08091C1008F7D8093C100789490911D05F2
S11349C080911E05981798F4F894E0911D0581E0F4
S11349D08E0F80931D05F0E0E553FE4F8081809398
S11349E0C6008091C10080628093C1007894909148
S11349F01D0580911E05981748F0F8948091C10018
S1134A008F7D8093C100789410921E05FF91EF91E1
S1134A109F918F910F900FBE0F901F9018957894CF
S1134A201F920F920FB60F9211240F900FBE0F908A
S1134A301F901895E4E6F0E080818F7780839FB71C
S1134A40F89487B18F7C87B988B1806388B9109254
S1134A50B90081E18093B80084E88093BC009FBFD3
S1134A600895CF93DF93C82FD4E6D150F9F0809105
S1134A70420180FF0AC0A89580911A058823A9F3F2
S1134A8009D5BFD30E94360BF0CF8091420181FD3E
S1134A90F2CFCC2359F0A89580911A05882321F0F0
S1134AA0F9D4AFD30E94360BC150F3CFDF91CF912D
S1134AB008952FB7F8949091420191FD04C090910C
S1134AC0420190FD06C09091420191FF17C06623F8
S1134AD0A9F090911305992389F090914201926075
S1134AE090934201909142019E7F909342011092D3
S1134AF01105882319F085EA8093BC002FBF08951F
S1134B00FF920F931F93CF93DF93082FF62E142F4A
S1134B10E901823211F080E001C08AE0A2DF9FB790
S1134B20F8940093140510921305E091130581E0A5
S1134B308E0F80931305F0E0EF5CFE4FF0828091BE
S1134B4042018B7F80934201DE01412F50E09D01A1
S1134B502C1B3D0B2417350764F4E091130581E009
S1134B608E0F80931305F0E08D91EF5CFE4F8083F0
S1134B70EECF809142018160809342019FBF60E04B
S1134B8081E0DF91CF911F910F91FF9092CFCF934E
S1134B90DF931F92CDB7DEB749839E012F5F3F4F4E
S1134BA041E0AEDF0F90DF91CF910895CF93DF9373
S1134BB000D0CDB7DEB749832A839E012F5F3F4FD4
S1134BC042E09EDF0F900F90DF91CF910895CF9335
S1134BD0DF93C82FD62F823211F080E001C08AE023
S1134BE040DF9FB7F894C093140510921305E09129
S1134BF0130581E08E0F80931305F0E0EF5CFE4F08
S1134C00D0838091420184608093420181E080934B
S1134C101205809142018160809342019FBF60E050
S1134C2081E047DF80E01DDF80913101DF91CF918A
S1134C3008959FB7F894882339F08091420181FF49
S1134C4003C085E98093BC00109213058091420152
S1134C508D7F809342019FBF08951F920F920FB6DC
S1134C600F9211242F933F934F935F936F937F93EE
S1134C708F939F93AF93BF93CF93EF93FF938091C1
S1134C80B900887F9091BB002091BC00C22FC574ED
S1134C9080934101883209F46BC080F48031F9F0CB
S1134CA038F4883009F0A8C080911405880F3EC0FC
S1134CB0883129F1803209F448C09EC0883409F44F
S1134CC044C030F4803309F497C08034C1F094C0F8
S1134CD0803509F468C0883509F47CC08DC08091A2
S1134CE01405880F81608093BB00809142018B7F03
S1134CF080934201809112058093130580C08091B6
S1134D001405803221F480910501806407C08091EC
S1134D101405823229F4809105018068809305018D
S1134D2080914101883129F4809131018093BB0045
S1134D3066C0809111054091130590E0019650E002
S1134D40841795070CF444C040C080911405803248
S1134D5021F4809105018F7B08C080911405823273
S1134D6009F04AC0809105018F778093050144C002
S1134D70809111058F5F80931105909111058091A9
S1134D801305981738F4E0911105F0E0EF5CFE4F3D
S1134D908081CCCF8091420182FF2EC061E080E00F
S1134DA088DEC0622CC0E091110581E08E0F8093F3
S1134DB01105F0E08091BB00EF5CFE4F8083909181
S1134DC0110580911305981718F0C22FC57017C0EC
S1134DD0C06415C09091110580911305981760F473
S1134DE0E091110581E08E0F80931105F0E0809130
S1134DF0BB00EF5CFE4F808380E01BDFC061C568B1
S1134E00C093BC00FF91EF91CF91BF91AF919F915F
S1134E108F917F916F915F914F913F912F910F905F
S1134E200FBE0F901F90189544E26AE080E2AFDE57
S1134E3080E017DE8091050186FF28C02FEF4FEF39
S1134E406CE080E2B3DE20E04FEF60E080E2AEDEB3
S1134E5020E040E062E080E2A9DE20E040E062E1A0
S1134E6080E2A4DE20E040E064E180E29FDE20E016
S1134E7040E064E080E29ADE20E040E066E080E228
S1134E8095DE2FEF4FEF68E080E290CE08958823FF
S1134E9011F040E001C04FEF60E080E278CE482F8F
S1134EA065E180E274CE462F90E8699F9001112459
S1134EB0282B64E180E27ACE62E180E288CE1F93FF
S1134EC0CF93DF9380910601829586958770813018
S1134ED011F0C0E001C0C8E080E0D9DF8091050195
S1134EE086FF14C0DC2FD260C3608D2FD8DF8C2FD7
S1134EF0D6DFE2DF182F8D2FD2DF17FF07C082E441
S1134F008A95F1F700C0A895C5D2EFCFDF91CF9174
S1134F101F9108958091050186FF62C0D0DF81E072
S1134F20B6DF6CE380E0BFDF6CE381E0BCDF6CE301
S1134F3080E0B9DF80E0ABDF8BE18A95F1F7000018
S1134F4081E0A5DF6CE380E0AEDF6CE381E0ABDF02
S1134F506CE380E0A8DF80E09ADF83EF91E00197C3
S1134F60F1F700C0000081E092DF6CE380E09BDF9A
S1134F706CE381E098DF6CE380E095DFA0DF81E003
S1134F8086DF6CE380E08FDF6CE381E08CDF6CE331
S1134F9080E089DF94DF81E07ADF6CE080E083DF0A
S1134FA06CE081E080DF6CE080E07DDF88DF81E021
S1134FB06EDF61E080E077DF61E081E074DF61E073
S1134FC080E071DF7CDF81E062DF66E080E06BDF40
S1134FD066E081E068DF66E088E065DF80E057CF67
S1134FE00895CF93DF9390910601929596959770CB
S1134FF0913011F0D0E001C0D8E0282F217030E0CA
S113500086E0220F331F8A95E1F7C62FCF70C06860
S1135010C22B55DF81E03BDF6C2F8D2F44DF6C2FDB
S11350208D2F816040DF6C2F8D2F3DDF80E0DF917D
S1135030CF912DCFAF92BF92CF92DF92EF92FF929A
S11350400F931F93CF93DF936C0180910601829598
S113505086958770813011F0C0E001C0C8E0760108
S1135060062F10E08C2F8460B82EEC2FE560AE2E56
S1135070C7018C199D0980179107ACF4F701D191F0
S11350807F011DDF81E003DF6D2F8B2D0CDF6D2F82
S11350908A2D09DF6D2F8B2D06DF6D2F8C2F03DFFB
S11350A080E0F5DEE5CFDF91CF911F910F91FF9066
S11350B0EF90DF90CF90BF90AF900895CF9361E0D1
S11350C082E285DDC3E0803158F48FE493EC0197EC
S11350D0F1F700C0000061E082E279DDC15099F788
S11350E0CF9108958093110421E134E041E062E01E
S11350F082E206CDE3DF813120F48091050187FF50
S113510002C080E2EFCF0895E1E1F4E0808361839F
S11351107283438354839F0145E060E882E2F0CCCC
S1135120E1E1F4E080839183628343839F0144E05F
S113513061E882E2E5CCE1E1F4E0808361834283CB
S11351409F0143E062E882E2DBCCE1E1F4E08083AA
S11351509183628373839F0144E063E882E2D0CC4D
S1135160E1E1F4E0808361839F0142E064E882E24C
S1135170C7CCE1E1F4E08083618372839F0143E063
S113518065E882E2BDCCE1E1F4E08083618342839F
S11351909F0143E068E882E2B3CCE1E1F4E080837C
S11351A091839F0142E069E882E2AACCE1E1F4E064
S11351B0808361839F0142E06AE882E2A1CCE1E15D
S11351C0F4E0808361834283238334839F0145E039
S11351D06BE882E295CCE1E1F4E080836183428371
S11351E0238334839F0145E06CE882E289CCE1E1CA
S11351F0F4E08083918362839F0143E06DE882E25F
S11352007FCC80918C0584FF04C065E08EE091E042
S11352101BC108959DD2E898219829988AEF81505E
S113522041F0E7E8F3E13197F1F700C00000A895F9
S1135230F6CF219A299AE89A0895FC018081982F43
S11352409076903459F58F7149F5818181110EC0A2
S1135250828180934301838180934401848180937C
S1135260450185818093460184E019C0823049F468
S11352708FB7F89426813781309319052093180548
S11352800AC0813059F48FB7F8942681378130935E
S11352901705209316058FBF8FEF01C080E023E42C
S11352A031E030930808209307080895CF92DF92E5
S11352B0EF92FF920F931F93CF938C01462F80910F
S11352C0050184FF37C08091180590911905892B39
S11352D089F12091D6053091D705C90168EE73E0B4
S11352E035D6CB01EAE0F0E0BF0130D6805DD801CD
S11352F08C93C90164E670E029D6CB01BF0126D6A0
S1135300805DD80111968C93C901BF011FD6C82FA7
S1135310CB01BF011BD6805DF80182832F5F3F4F15
S11353203093D7052093D605C05DC3838AE3848375
S1135330C5E001C0C0E0CC2ED12C642F70E04091B8
S11353401805509119056417750708F4AB017A0123
S1135350EC18FD081E141F04ECF480E024D8882304
S1135360E1F341E04E0DB8016C0D7D1D80E0CFD816
S1135370182F80E029D8C10ED11C80911805909176
S113538019058C199D0990931905809318058C2F84
S1135390810F01C08C2FCF911F910F91FF90EF903F
S11353A0DF90CF9008951F93CF93DF93D62F462F8E
S11353B050E0209116053091170542175307C0F4A9
S11353C0241B350B30931705209316051FB7F8944B
S11353D0C09115052C2F30E0BC01C901855B9E4F9F
S11353E00E944E34CD0FC09315051FBF80E028C026
S11353F0232BA9F01FB7F894C091160550911705F7
S1135400D09115052D2F30E04C2FBC01C901855BCF
S11354109E4F0E944E34CD0FC09315051FBF20919F
S113542015054BE451E060E081E021D98FB7F89491
S11354301092170510921605109215058FBF81E082
S1135440DF91CF911F910895CF9320918C052E3138
S1135450F9F020918C0524FF0BC030918D0528E8CC
S1135460232720938D05FC01AEE8B5E0862F04C008
S11354702AE520938C05F7CF91919D938150E1F714
S1135480C62F8EE895E00E940E07CC5FC0938C0572
S1135490CF910895CF93DF9360910908635067FD1E
S11354A0DFC080910608CCE0D0E0C81BD109C35FFF
S11354B0D74F809105088D3209F0C1C0683009F0DA
S11354C0CDC083EC8093F9078AE580931401109290
S11354D0D8052881822F807631F0CE01AEDE8F3F51
S11354E009F49CC0A2C09A813C811092020889816F
S11354F0811113C02F71223051F4313841F490914D
S11355008C0581E09E3109F080E0809302081092BE
S1135510030822E038E082E07CC0282F2D7F213070
S113552081F4911173C0313809F070C0813011F0E9
S11355308EE101C08AE580938C058BE480938D0510
S113554065C0853019F490930A0860C0863009F06C
S113555044C08B81813041F48AEE9CE0909308082A
S11355608093070882E135C0823041F481ED9CE0EC
S1135570909308088093070889E12BC0833041F594
S1135580911108C084E49DE0909308088093070873
S113559084E01FC0913041F486E39DE090930808B5
S11355A0809307088EE015C0923041F48CE09DE0B2
S11355B090930808809307088AE20BC0933041F463
S11355C08CEF9CE0909308088093070880E101C069
S11355D080E090E49093D80528C0883081F0893029
S11355E019F490930C0807C08A3061F08B3071F481
S11355F08BE480938D058AE580938C0507C02CE0AD
S113560038E002C022E038E081E003C022E038E064
S113561080E0309308082093070807C0988197FD1D
S11356208E8190E89093D80507C09F81911104C0A2
S11356309E81981708F4892F809313010FC08091DD
S1135640D80587FF0BC0CE01AEDE8F3F21F48EE17B
S11356508093140103C08111109213011092090860
S11356608091140184FF5CC0809113018F3F09F481
S113567057C0C82F893008F0C8E08C1B80931301F1
S11356809091F90788E889278093F907CC2309F4D6
S113569055C02091D80527FF08C06C2F8AEF97E0EA
S11356A005DEC82F8930B0F529C080910708909194
S11356B0080826FF12C0A9EFB7E02C2FAC01495F00
S11356C05740FA01EA0FFB1FE4911196EC931197EE
S11356D0215011962111F5CF08C0EAEFF7E0DC0163
S11356E02C2F3D9131932150E1F701962FEF2C0F90
S11356F0820F911D90930808809307086C2F8AEFFE
S113570097E00E940E07CC5FCC3041F08FEF80937E
S1135710130104C08FEF80931301CEE1C0931401F1
S113572084E196B19C7089F48150D9F710920A08EB
S1135730109204088AE580938C0507C060E08AEF24
S113574097E00E940E07C4E0E1CFDF91CF91089566
S1135750E9E6F0E0808183608083E89AECE8F5E094
S11357608BE481838AE58083089520FD09C0FC01D0
S113577023FD05C022FF02C07383628351834083EB
S1135780089544FD17C046FD17C0AB01BC01DA0102
S1135790FB01AA0FBB1FEE1FFF1F1094D1F74A0F86
S11357A05B1F6E1F7F1FCB01BA01660F771F881F17
S11357B0991F09C033E001C034E0660F771F881FCA
S11357C0991F3150D1F7620F711D811D911D0895EC
S11357D00F931F93CF93DF938C01C8010E9465340C
S11357E0EC0197FD08C00E942634892BB1F7B8015B
S11357F0CE010E940535CE01DF91CF911F910F910B
S11358000895A0E0B0E0E6E0FCE21BC47C018B015B
S11358106A01D22F0E9465349C0133272B32310553
S113582021F02D32310559F4D0680150110911F4D9
S113583080E068C0C7010E94653497FDF9CFCD2F81
S1135840CD7F2D2F207319F5803309F5580181E0A0
S1135850A81AB10809F443C0C7010E94653497FD32
S11358603EC09C012F7D33272835310551F4C26495
S113587002501109A1F1C7010E94653497FF07C0C6
S11358802EC0D6FF02C0C26001C0C2618501812C56
S1135890912C540120ED280F283080F0C4FF04C05F
S11358A0B7010E94053518C02A3040F0C6FFF8CF72
S11358B02F7D3FEE320F363098F727504C2FC5011D
S11358C0B4015FDF4B015C01C2600150110951F06A
S11358D0C701FBD797FFDECFC1FD04C0A9CF812C40
S11358E0912C5401C7FF08C0B094A0949094809464
S11358F0811C911CA11CB11C2C2FB501A401C60153
S113590034DF81E0CDB7DEB7ECE0B7C3A0E2B0E0AE
S1135910EBE8FCE292C35C014B017A018E010F5F5C
S11359201F4F680180E2F80111928A95E9F7F501A9
S1135930538040E050E0612C90E0712CA1E0B0E095
S1135940F90153FC859153FE81918F01482E9F01EB
S1135950811103C080E090E094C08E3519F44115A4
S1135960510551F1672D70E0641775073CF48D35CE
S113597061F18D3219F4992311F103C0992309F4CB
S11359806BC0842D869586958695F601E80FF11DEA
S1135990842D87708D0102C0000F111F8A95E2F7D4
S11359A0C8019081892B8083641459F0461410F443
S11359B04394E7CF4A94E5CF7724739403C091E0EE
S11359C001C090E04F5F5F4FBBCF992319F08E81E8
S11359D080628E83711003C07724739419C0F6011A
S11359E09E012F5D3F4F8081809581932E173F0745
S11359F0D1F7F2CFE114F10431F0F7018083B7015C
S1135A006F5F7F4F7B0171E0871A9108712CE9F079
S1135A10C5015BD797FD17C0FC01FF2723E0F5956F
S1135A20E7952A95E1F7EC0DFD1D208130E0AC01EE
S1135A304770552702C0359527954A95E2F720FD12
S1135A40D9CFB501E2D7711085CFE114F10411F07B
S1135A50F7011082C80115C0682F66956695669592
S1135A60F601E60FF11D682F67708D0102C0000F6B
S1135A70111F6A95E2F7B8017081672B6083682E65
S1135A80A1CFA096E0E1F5C22F923F924F925F9290
S1135A906F927F929F92AF92BF92CF92DF92EF92DA
S1135AA0FF920F931F93CF93DF936C018B011A0125
S1135AB00CD7EC0199278B32910529F08D9779F455
S1135AC030E8932E01C0912C0150110911F480E0AB
S1135AD0FEC0C601FAD6EC0197FF02C0F8CF912CA4
S1135AE0CE01BCD68936910531F08E36910581F50B
S1135AF0CAE5DDE002C0CDE5DDE02196FE01319787
S1135B00B490BB20B1F00150110979F0C601DDD683
S1135B107C0197FD0AC0A2D69927EB2DF0E08E17E1
S1135B209F0759F3B601C70170D7C056DD4079F617
S1135B3003C0CD55DD4029F080E090E0A0E8BFE748
S1135B4004C080E090E0A0ECBFE7BC01CD01AFC091
S1135B50412C512C3201E12CF12C2C2F20532A30D2
S1135B6008F5E92DE260BE2E892D887092FE06C0EC
S1135B7081111FC0FFEFEF1AFF0A1BC0882319F021
S1135B8081E0E81AF10840E2C301B201FADD2B0119
S1135B903C01683979498949994158F0F92DF660F1
S1135BA0BF2E07C02E3F81F493FC0EC0292D286020
S1135BB0B22E0150110939F0C60187D6EC019B2C95
S1135BC097FFCBCF01C09B2C91FE81CFCE018F7D5F
S1135BD099278534910509F03EC0580181E0A81A3F
S1135BE0B10809F474CFC60170D6EC0197FD6FCFEC
S1135BF099278B32910529F08D9761F4E92DE061A5
S1135C009E2E5801F2E0AF1AB10809F460CFC60124
S1135C105CD6EC01CE01C0970A9708F058CF8501F5
S1135C20A12CB12CB501BB0C880B990B2C2F205344
S1135C3040E2A7DD5B010150110931F0C60145D6F0
S1135C40EC01C0970A9770F394FE03C0B194A19439
S1135C50B108EA0CFB1C012B29F0D7FD03C0B601E7
S1135C60CE01D3D6C301B2012ED3F7FE06C0F19400
S1135C70E194F108C9E7DDE002C0C1E9DDE06E01AD
S1135C8028E1C21AD10800E210E0E016F10648F05B
S1135C90FE0125913591459154911ED4E01AF10AE3
S1135CA0F4CF249716950795CC16DD0671F797FE69
S1135CB005C0DC01CB01B058BC01CD012114310475
S1135CC029F0F101608371838283938381E0DF9102
S1135CD0CF911F910F91FF90EF90DF90CF90BF90E5
