:10000000CAC600000FC70000E3C60000E1C600003A
:10001000DFC60000DDC600000C94070BD9C6000047
:10002000D7C60000D5C600000C9415090C94D6085C
:10003000CFC60000CDC60000CBC60000C9C6000078
:100040000C948509C5C600000C944F240C94D1244F
:100050000C9411250C945908BBC60000B9C60000C9
:100060000C942F26B5C60000030E0F0E8E0E1B0E2D
:10007000270E330E3F0E4B0E570E630E6F0E7B0E88
:10008000870E07634236B79BD8A71A39685618AE51
:10009000BAAB558C1D3CB7CC5763BD6DEDFD753EBD
:1000A000F6177231BF000000803F08000000BE92CA
:1000B0002449123EABAAAA2ABECDCCCC4C3E0000AD
:1000C0000080BEABAAAAAA3E00000000BF0000004C
:1000D000803F0000000000084178D3BB4387D11364
:1000E0003D190E3CC3BD4282AD2B3E68EC8276BE0C
:1000F000D98FE1A93E4C80EFFFBE01C4FF7F3F00D6
:100100000000000024474C4753562C252A642C310C
:100110002C25642C002447504753562C252A642C48
:10012000312C25642C00244750524D432C256C64FF
:100130002E25642C252A632C25662C25632C256608
:100140002C25632C252A662C252A662C256C642CEC
:100150002C2C252A632A25640025662C25662C254F
:10016000662A2564002447504753412C252A632CD6
:1001700025642C002447504747412C256C642E25CC
:10018000642C25662C25632C25662C25632C256480
:100190002C25642C25662C25662C252A632C252AE3
:1001A000662C252A632C252A642C252A642A25649A
:1001B00000436F6D6D756E69636174696F6E206267
:1001C00061756420726174652073657420746F209A
:1001D00025357520626175642E0A00444634494114
:1001E000482C25732C253035752C5632302530336C
:1001F00075253033752E0023534330323A20733D3A
:100200003078253032782C64533D25752C69503D6B
:1002100025750A0023534330313A20537461636BD0
:100220002D436865636B3A206D756E672D77616C41
:100230006C20616464726573733A203078253034C1
:10024000782C206C6F776573742D737461636B3ACF
:10025000203078253034780A002563253033642E29
:10026000253033642025632531642E2530336456D0
:100270002000256325317520256325317520253122
:10028000642E2531642025632530327525632530A1
:1002900032752000253034752530327525303275A1
:1002A00020552530327525303275253032752000C5
:1002B00062202D2D2D2E2D2D2D202563253158200A
:1002C0002563253032752000256320253033642EC8
:1002D00025303364202563253158202563253032AD
:1002E00075200031304D487A5265664F7363205651
:1002F000327831002B3D3D3D204446344941482071
:100300003D3D3D2B0023494131323A205048415375
:1003100045206661737450776D53696E676C6544F0
:100320006966665F7374657073203D2025632530B0
:1003300033642E253033640A0023494131313A2099
:1003400050484153452070686173654572722020A2
:100350003D20253033642E25303364C2B02C200973
:10036000207068617365537465707346726571754A
:10037000656E6379203D202563253033642E25305A
:1003800033642C2009706861736553746570735011
:1003900068617365203D202563253033642E253048
:1003A00033640A0023494130333A20515247202018
:1003B000206E657750776D56616C203D2025303377
:1003C000642E253033642C200970776D436F72538F
:1003D000746570732020202020202020203D2025BF
:1003E0002B3034642E253033640A002349413032E7
:1003F0003A20436C6F636B206C6F63616C4D656179
:100400006E466C6F6174436C6F636B446966662003
:100410003D202563253033642E25303364487A200F
:100420004032304D487A2C20097172674465765FFE
:10043000487A203D202563253033642E25303364EF
:10044000487A204031304D487A2C200970706D2058
:100450003D202563253032642E253036640A002382
:10046000494130313A20436C6F636B20696E7432BE
:10047000304D487A436C6F636B4469666620202078
:10048000202020203D20252B30346C692020487A04
:10049000204032304D487A0A0023494430323A2015
:1004A0002B2F2D204B455920096D61696E50776DBA
:1004B0005465726D696E616C41646A203D202564EB
:1004C0002E253037642C20096C6F63616C46617394
:1004D0007450776D56616C4E657874203D202530E0
:1004E0003375202B206C6F63616C46617374507799
:1004F0006D537562436D704E657874203D202530D4
:1005000033750A0023494430313A202B2F2D204BDC
:10051000455920096D61696E50776D5465726D693A
:100520006E616C41646A203D2025642E253037645D
:100530002C200970756C6C50776D56616C42656645
:100540006F7265202020203D2025303375202B2020
:100550006661737450776D537562436D7042656662
:100560006F7265202020203D20253033750A00233E
:10057000544131343A206D61696E526566436C6B4B
:100580005374617465203D2030782531580A00236A
:10059000544131333A2050574D203D20253033759A
:1005A0002C20095375622D50574D203D20253033A6
:1005B000750A0023544131323A20707073537461CC
:1005C0006D70437472316D7320203D202530396C7D
:1005D000752C20097070735374616D7049435231EA
:1005E0002020203D20253035752C20097070735354
:1005F00074616D70437472316D735F6C61737420DC
:10060000203D202530396C752C200970707353748F
:10061000616D70494352315F6C6173742020203DDD
:1006200020253035750A0023544131313A206C6F52
:1006300063616C46617374437472316D73203D2045
:100640002530396C752C20096C6F63616C466173C1
:100650007454434E5431203D20253035750A002313
:10066000544130333A2054656D70203D202530349C
:1006700075202825642E25316443290A002354411E
:1006800030323A2041444331203D2025303475201A
:100690002825642E2530336456290A00235441301E
:1006A000313A2041444330203D2025303475202804
:1006B00025642E2530336456290A002347503035EF
:1006C0003A204C6174203D20256320253034642E6F
:1006D000253034642C204C6F6E203D20256320256E
:1006E0003035642E253034642C2048656967687481
:1006F000203D2025642E25303264206D0A002347DA
:100700005030343A2050444F50203D2025642E254F
:100710003032642C2048444F50203D2025642E2543
:100720003032642C2056444F50203D2025642E2525
:100730003032642C0A0023475030333A205361741E
:100740007355736564203D20253032642C2053613D
:100750007473457068696D5F47707347616C696C4D
:10076000656F517A7373203D20253032642C2053FD
:10077000617473457068696D5F476C6F6E61737308
:10078000203D20253032640A0023475030323A2081
:100790004D6F646532203D202531642C20506F73ED
:1007A000466978496E64203D202531640A0023475C
:1007B0005030313A2044617465203D202530386C3A
:1007C000642C2054696D65203D202530366C642EE4
:1007D000253033640A000A23475030303A203D3D2B
:1007E0003D3D3D3D3D0024504D544B3335332C3180
:1007F0002C312A33370D0A0024504D544B333533F6
:100800002C312C302A33360D0A0024504D544B33F2
:1008100035332C302C302A33370D0A0024504D54F8
:100820004B3130322A33310D0A0024504D544B32B3
:1008300035312C393630302A31370D0A000D0A0097
:100840000A3D3D3D20444634494148202D20313069
:10085000204D487A205265666572656E6365204F4B
:100860007363696C6C61746F72203D3D3D0A3D3D60
:100870003D205665723A20323025303364253033BE
:1008800064000A2A3F2A2020756E6B6E6F776E20F7
:10089000636F6D6D616E6420272573272072656319
:1008A00065697665642C207472792048454C502E19
:1008B0000A3E000A3D3D3D3D3D3D3D3D3D3D3D0A3D
:1008C0003E000A2B2F2D203C50574D2076616C7531
:1008D000653E0909636F7272656374696F6E207695
:1008E000616C756520746F20626520616464656465
:1008F0002E000A575249544550574D09090973743F
:100900006F72652063757272656E742050574D204A
:1009100061732064656661756C742076616C7565C1
:100920002E0A575249544554454D50203C54454D8C
:10093000502076616C75653E09097772697465208F
:1009400063757272656E742074656D706572617422
:100950007572652061732064656661756C742076BC
:10096000616C75652E000A544553540909090974D0
:100970006F67676C657320636F756E746572207442
:100980006573742E000A535441434B0909090974D5
:100990006F67676C657320737461636B206D756E30
:1009A000672D77616C6C20746573742E000A534553
:1009B000524F4646090909097377697463682073C1
:1009C000657269616C20636F6D6D756E69636174CA
:1009D000696F6E204F46462E0A5345524F4E090905
:1009E00009097377697463682073657269616C20A3
:1009F000636F6D6D756E69636174696F6E204F4EC4
:100A00002E000A53455242415544203C62617564B0
:100A10003E09090973657474696E672073657269AC
:100A2000616C206261756420726174652E000A4CED
:100A300045444F464609090909737769746368207C
:100A40006261636B6C69676874204F46462E0A4C7E
:100A500045444F4E09090909737769746368206238
:100A600061636B6C69676874204F4E2E000A494EB3
:100A7000464F09090909746F67676C6573206164E3
:100A8000646974696F6E616C207072696E746564FC
:100A900020696E666F732E000A48454C500909099B
:100AA0000974686973206D6573736167652E000A48
:100AB0004150434F464609090909737769746368D1
:100AC0002041504320286175746F6D617469632003
:100AD000706861736520636F6E74726F6C29206F2C
:100AE00066662E0A4150434F4E090909097377691A
:100AF0007463682041504320286175746F6D617480
:100B0000696320706861736520636F6E74726F6CC7
:100B100029206F6E2E000A4146434F4646090909B7
:100B200009737769746368204146432028617574AE
:100B30006F6D61746963206672657175656E637946
:100B400020636F6E74726F6C29206F66662E0A4187
:100B500046434F4E09090909737769746368204158
:100B6000464320286175746F6D61746963206672F5
:100B7000657175656E637920636F6E74726F6C2931
:100B8000206F6E2E000A3D3D3D2048454C50203DD3
:100B90003D3D0A0A24203C4E4D45412D4D65737361
:100BA0006167653E090973656E6473206D657373D3
:100BB00061676520746F2074686520475053206D0D
:100BC0006F64756C652E002A49444E3F00575249A8
:100BD000544554454D5000575249544550574D00C7
:100BE0005445535400535441434B005345524F4EC8
:100BF000005345524F46460053455242415544002A
:100C00004C45444F4E004C45444F464600494E46E5
:100C10004F0048454C50004150434F4E0041504317
:100C20004F4646004146434F4E004146434F4646DD
:100C3000004446344941482031304D687A2D526590
:100C4000666FAA000001FFFFFFFFFFFFFF00000C1F
:100C5000B0A52C8F4048E18A3F0080AF4300A087B9
:100C60003FFFFFFFFFFFFFFFFFFFFFFFFF00001C35
:100C7000B0CDCC94C05C8FC23FB81E053DFFFFFFD6
:100C8000FFFFFF713D8A3F33331340780000002C93
:100C9000B08025080100000000FFFFFFFFFFFFFFFD
:100CA000FFFFFFFFFFFFFFFFFFFFFFFFFF00003C15
:100CB000B000000000FFFFFFFFFFFFFFFFFFFFFF8F
:100CC000FFFFFFFFFFFFFFFFFFFFFFFFFF00004CE5
:100CD000B00902190001010080690904000001FF48
:100CE0000000000705810308000A12011001FF003F
:100CF0000008C016DC0500010102030110035000CA
:100D000072006F0074006F002D0031002A03440050
:100D1000460034004900410048002D0031003000F9
:100D20004D0048007A002D005200650066002D003D
:100D30004F00730063000E03440046003400490076
:100D400041004800040309046364696E6F707375A1
:100D500078585B65666745464700616E006E666958
:100D60006E69747900CDCCCC3D0AD7233C17B7D13E
:100D70003877CC2B329595E6241FB14F0A0000201E
:100D8000410000C84200401C4620BCBE4CCA1B0E9D
:100D90005AAEC59D740011241FBECFEFD8E0DEBF50
:100DA000CDBF11E0A0E0B1E0EAE6FFE602C00590A9
:100DB0000D92A831B107D9F728E0A8E1B1E001C050
:100DC0001D92A432B207E1F70E94761F0C94B3374C
:100DD00017C9A82FB92F8FEF9FEF1BC02D91822726
:100DE000282F22952827722F269526952727239589
:100DF00026952170782F892F82272195207C922F8C
:100E000022277695279597278227769527959727E6
:100E10008227615018F7809590950895DADF8D93B9
:100E20009D930895CF93CFB7CF93DF93C395339B13
:100E3000E9F7339B11C0339B0FC0339B0DC0339B2D
:100E40000BC0339B09C0339B07C0339B05C0339B4A
:100E500003C0339B01C083C06F93C0910708DD2797
:100E6000C25FD74F2F9320E400C065E0339B03C0DF
:100E70002F916F91DECF0F931F934F9345E55F93B3
:100E800055E53F933BE014E006B10C702EC06A9527
:100E9000C9F03150D8F106B10C7001130BC00894A1
:100EA0002795299320E4555500F46A9569F701E0E8
:100EB00066B10BC0102F66E02695299320E45555A6
:100EC00018F3E2CF0FEF66B10000162F455500F082
:100ED000404066E01C700030E2F221F0000006B1F4
:100EE0000C7003C006B10C70A9F0011309C008947E
:100EF000279568F200C06A95A9F700E066B1E5CFD2
:100F0000102F66E0269528F20000ECCF11E01CBB04
:100F1000002719C03B503195C31BD04011E01CBBCA
:100F20000881033C09F10B34F9F02091050819817F
:100F3000110F1213EDCF4A81441F093651F10D32C2
:100F400011F0013E29F700930C083F915F914F91FA
:100F50001F910F912F916F91CCB3C0FD67CFDF919F
:100F6000CF91CFBFCF91189520910C08222369F320
:100F700010910A08112381F5343082F130930A0868
:100F800020930608109107083BE0311B30930708B7
:100F900025C000910A080130FCF40AE54F7049F4BD
:100FA0003091110134FD1BC000931101CAEFD7E04D
:100FB0001AC030918D0534FD12C000938D05CEE826
:100FC000D5E011C0052710E000C008B919C00527F9
:100FD00010E0221F00C01DC04AE502C032ED432FC1
:100FE000C4E1D0E032E017B11C60439A08B117B9F0
:100FF0005CE020E869E420FF052708B927951795EC
:1010000000C000001C3FF0F66695A8F7A1F720FF8E
:10101000052708B92795179500001C3FC0F62991B0
:101020003A9541F7037F10910B08110F08B9C6518B
:10103000D04011F01093050811E01CBB086017B1F7
:10104000137F402F437F55E05A95F1F708B917B940
:1010500048B97BCFE4E6F0E080818E7F80831092F8
:101060002805EFE7F0E080818360808383E0809350
:101070007E00EBE7F0E080818F7B8083EAE7F0E0A1
:1010800080818768808380B787E180BF81E180931A
:10109000290581E480937C00808180658083808144
:1010A000886080830895EAE7F0E08081806480832F
:1010B00008951F920F920FB60F9211242F933F9312
:1010C0004F935F936F937F938F939F93AF93BF9350
:1010D000EF93FF938091780020917900789490E0CD
:1010E000922B20912905283021F168F42223A1F0C8
:1010F000213019F590938A038093890380E18093CE
:10110000290580E41EC0213101F1283171F0203120
:10111000A1F41092290517C0909388038093870348
:1011200088E18093290588EC0CC088E0809329052C
:101130000AC090938C0380938B0381E180932905EF
:1011400081E480937C00AFDF08C081E080932905B3
:10115000809128058F5F80932805FF91EF91BF91C3
:10116000AF919F918F917F916F915F914F913F913F
:101170002F910F900FBE0F901F901895E4E6F0E0AE
:101180008081877F808310928500109284008EE496
:10119000809389008FE1809388001092800089E419
:1011A0008093810082E280936F0008951F920F92D6
:1011B0000FB60F9211242F933F938F939F93AF936A
:1011C000BF938091350590913605A0913705B09178
:1011D00038050196A11DB11D809335059093360504
:1011E000A0933705B093380578948091020186FF6B
:1011F00011C0F8948DB72EB7789490E0922B20917F
:101200000701309108018217930720F49093080199
:1012100080930701BF91AF919F918F913F912F9143
:101220000F900FBE0F901F9018951F920F920FB640
:101230000F9211242F934F935F936F937F938F930C
:101240009F93EF93FF9380918600209187004091B8
:1012500035055091360560913705709138057894C1
:10126000EAE7F0E0908190649083F89490E0922B0C
:1012700090933E0580933D054093390550933A0580
:1012800060933B0570933C057894FF91EF919F919B
:101290008F917F916F915F914F912F910F900FBE22
:1012A0000F901F901895809164008F7D809364004B
:1012B00016BC8AE588BD83E284BD81E085BD559A70
:1012C00082E00E9411218823C9F04AE550E061E0E4
:1012D00080E495E00E94F7204BE550E061E08FE369
:1012E00095E00E94F7208FB7F89490914005909375
:1012F000340590913F05909333058FBFA89A809154
:101300006E00816080936E0008951F920F920FB659
:101310000F9211248F939F937894809132058823A4
:1013200061F0F8948091310588BD809130058093FB
:101330002F0578941092320509C0F89480913405F5
:1013400088BD8091330580932F057894F89490910F
:101350002E0580912F05981718F488B58F5F88BDEA
:10136000789480912E058F5F80932E059F918F91A9
:101370000F900FBE0F901F901895CF92DF92EF92B3
:10138000FF92C0905305D0905405E0905505F09021
:1013900056052FEFC21AD20AE20AF20AC701B601B5
:1013A00024E630E040E050E00E94E92F6C33710504
:1013B000810591054CF0C61AD70AE80AF90A84E6B5
:1013C000C80ED11CE11CF11CC0925305D0925405EB
:1013D000E0925505F0925605C0905305D090540503
:1013E000E0905505F0905605C701B60120E137E2BF
:1013F00040E050E00E94E92F683427E17207810540
:10140000910594F0C61AD70AE80AF90A80E1C80ED5
:1014100087E2D81EE11CF11CC0925305D0925405FE
:10142000E0925505F0925605FF90EF90DF90CF9037
:101430000895EF92FF921F93CF93DF9300D0CDB723
:10144000DEB7182F7B010E94B7209A838983A701FA
:1014500062E0CE0101960E944A21812F0E948B21D9
:101460000F900F90DF91CF911F91FF90EF90089513
:101470004F925F926F927F928F929F92AF92BF92A4
:10148000CF92DF92EF92FF920F931F93CF93DF9350
:101490004B015C016A017901F901608170E080E033
:1014A00090E00E945F3120E030E040E85BE30E9482
:1014B00066322B013C01F601608170E080E090E033
:1014C0000E945F319B01AC01C301B2010E945C30FC
:1014D000A50194010E945C308B01D82FC92F20E018
:1014E00030E0A9010E94C03087FD1CC020E03FEF22
:1014F0004EE753E4B8018D2F9C2F0E9462321816DC
:10150000B4F420E03FEF4EE753E4B8018D2F9C2F59
:101510000E945B308B01D82FC92FB0E0AFEFFEE700
:10152000E3E40CC0B0E0A0E0F0E0E0E007C0B02FE2
:10153000A12FFE0100E010E0D0E0C0E020E030E0AC
:1015400040E05BE36B2F7A2F8F2F9E2F0E945C3041
:101550004B015C010E943131F6016083C501B40189
:101560000E949A319B01AC01C501B4010E945B301D
:1015700020E030E040E853E40E9466320E943131BE
:10158000F7016083B8018D2F9C2FDF91CF911F91C0
:101590000F91FF90EF90DF90CF90BF90AF909F9012
:1015A0008F907F906F905F904F900895CF92DF92D1
:1015B000EF92FF92CF936B017C01C42F0E949A316E
:1015C0009B01AC01C701B6010E945B306B017C013D
:1015D0006C2F70E080E090E00E945D319B01AC01D7
:1015E00060E070E080E291E40E94C9329B01AC01AE
:1015F000C701B6010E9466320E949A310E942C31C6
:10160000CB01CF91FF90EF90DF90CF900895189588
:101610000F931F93CF93DF938C01EA019A01AB01E3
:101620006DE873E081E00E949520AE016DE873E003
:10163000C801DF91CF911F910F910C9451340F93FA
:101640001F93CF93DF938C01EA019A01AB016DE800
:1016500073E081E00E949520AE016DE873E0C8015F
:10166000DF91CF911F910F910C943B348F929F92F9
:10167000AF92BF92CF92DF92EF92FF920F931F93A0
:10168000CF93DF9300D000D0CDB7DEB781E00E94CA
:10169000D521882309F44BC381E00E941623182F1B
:1016A00080E00E941623909103019F7009F091C27F
:1016B00010FF8FC214FF04C081E00E940C2437C3C6
:1016C000107F09F031C34FE76DE874E081E00E94BC
:1016D000892281E00E94E62146E050E067EC7BE051
:1016E0008DE894E095DF892B41F52CE130E04BED5E
:1016F00051E06DE873E081E00E9495208091C20581
:101700009091C3059C0133273F932F931F929F9382
:101710008091C5058F938091C4058F9386EC95E0E9
:101720009F938F938DE893E09F938F938DE094E048
:101730009F938F930E94CA3429C147E050E06AE228
:101740007CE08DE894E064DF892B21F48091020134
:101750008E7F0CC046E050E064E27CE08DE894E0CF
:1017600057DF892B31F4809102018160809302015F
:10177000DEC247E050E06DE17CE08DE894E048DFB8
:10178000892B21F4809102018D7FF0CF46E050E05B
:1017900067E17CE08DE894E03BDF892B21F48091C8
:1017A00002018260E3CF45E050E062E17CE08DE839
:1017B00094E02EDF892BE1F522E430E040E458E0AC
:1017C0006DE873E081E00E94952082E08F938FE6C0
:1017D0008F931F928AEA8F938DE893E09F938F9364
:1017E0001F928FE78F938DE094E09F938F930E94D9
:1017F0009D34282F4DE054E060E080E00E943923C2
:1018000022E445E85BE061E080E00E9439238091BA
:101810000301807F816080930301809102018F7EAC
:10182000809302010FB6F894DEBF0FBECDBF7FC21A
:1018300045E050E06DE07CE08DE894E0E9DE892B46
:10184000A9F48091020182FB992790F981E0892710
:101850009091020180FB92F9909302018091020124
:1018600082FF65C280910201877F48C047E050E057
:1018700066E07CE08DE894E0CBDE892B29F41982C8
:10188000809103018F780FC046E050E060E07CE07B
:101890008DE894E0BDDE892B99F481E08983809105
:1018A00003018F7880618093030144E150E061E09F
:1018B000CE0101960E944A216EE170E080E031C1C4
:1018C00047E050E061EF7BE08DE894E0A1DE892BFA
:1018D00021F480910201877F49CF46E050E06BEE12
:1018E0007BE08DE894E094DE892B71F48091020115
:1018F000886080930201809102018B7F80930201B6
:10190000809102018F7E32CF47E050E068EF7BE0AC
:101910008DE894E094DE892B09F040C080E295E0E8
:101920009F938F9382E191E09F938F9384E994E05A
:101930009F938F930E94E934809120059091210517
:101940000E94902340E650E062E080E295E00E9431
:101950004A216EE770E083E06CDD2AE230E041EB83
:1019600051E06DE873E081E00E94952080912105AF
:101970008F93809120058F938DE893E09F938F93B1
:101980008DE094E09F938F930E94CA34282F4DE0FE
:1019900054E060E080E00E94392344CF46E050E00C
:1019A00065EE7BE08DE894E033DE892B71F4809165
:1019B000020186FB992790F981E089279091020125
:1019C00080FB96F990930201B2C145E050E060EED1
:1019D0007BE08DE894E01CDE892BC9F48091020144
:1019E0008295817091E089279091020180FB94F9A2
:1019F000909302018091020184FF99C180910201BC
:101A0000877F80930201809102018B7FAFCE49E0F6
:101A100050E067ED7BE08DE894E0FADD892BE9F496
:101A20008FB7F894909134059093400590913305C9
:101A300090933F058FBF4AE550E061E080E495E078
:101A40000E944A214BE550E061E08FE395E00E945F
:101A50004A216EE570E082E064C049E050E06DEC40
:101A60007BE08DE894E0EBDD892B09F05CC0198206
:101A70001A821B821C82CE0101969F938F9385E16F
:101A800091E09F938F9386E994E09F938F930E94B8
:101A9000E934C980DA80EB80FC800F900F900F90C2
:101AA0000F900F900F9020E030E0A901C701B60120
:101AB0000E94C030882309F43AC160918B03709171
:101AC0008C0380E090E00E945D314B015C0120E0DE
:101AD00030E048EC51E4C701B6010E945B30209130
:101AE000B2053091B3054091B4055091B5050E94FF
:101AF000C4309B01AC01C501B4010E945B3060930E
:101B0000B6057093B7058093B8059093B90548E280
:101B100050E064E086EB95E00E944A216EE370E0BD
:101B200081E087DC04C10DE814E080918D048B32E4
:101B300079F489E995E09F938F9385E191E09F93F4
:101B40008F938EE894E09F938F930E94E93421C095
:101B50008D3231F589E995E09F938F9385E191E08E
:101B60009F938F938EE894E09F938F930E94E93424
:101B70008091990590919A05A0919B05B0919C0543
:101B8000B0588093990590939A05A0939B05B093C4
:101B90009C050F900F900F900F900F900F90C7C063
:101BA00021E330E042E858E06DE873E081E00E9414
:101BB00095201F930F938DE893E09F938F931F922F
:101BC0008FE78F938DE094E09F938F930E949D34D5
:101BD000DDCE909103019F7009F4A6C080FDA4C0E2
:101BE00081E00E94E62180910301E82FEF708E2FA3
:101BF00090E0FC013197ED30F10508F08FC0EC5C0E
:101C0000FF4F0C9405302FE646E15BE061E080E099
:101C10000E94392380910301807F826082C027E681
:101C20004FEA5AE061E080E00E943923809103018D
:101C3000807F846076C027E148E95AE061E080E077
:101C40000E94392380910301807F85606AC02BE266
:101C50004DE65AE061E080E00E9439238091030163
:101C6000807F86605EC02FE34EE25AE061E080E054
:101C70000E94392380910301807F876052C02CE24B
:101C800042E05AE061E080E00E9439238091030144
:101C9000807F886046C025E54DEA59E061E080E03C
:101CA0000E94392380910301807F89603AC028E235
:101CB00045E859E061E080E00E943923809103010A
:101CC000807F8A602EC02FE146E659E061E080E027
:101CD0000E94392380910301807F8B6022C024E71A
:101CE00042EF58E061E080E00E94392380910301D7
:101CF000807F8C6016C020E342EC58E061E080E019
:101D00000E94392380910301807F8D600AC02FE0FB
:101D100043EB58E061E080E00E94392380910301A9
:101D2000807F8093030103C081E00E94E6210F9031
:101D30000F900F900F90DF91CF911F910F91FF9017
:101D4000EF90DF90CF90BF90AF909F908F900895CD
:101D50002F923F924F925F926F927F928F929F92BB
:101D6000AF92BF92CF92DF92EF92FF920F931F93A9
:101D7000CF93DF93CDB7DEB765970FB6F894DEBF8C
:101D80000FBECDBFA8950E94442A0E94FB286EDC9E
:101D90009FB7F894209184002B87309185003F8372
:101DA00040903505509036056090370570903805A5
:101DB00080918600209187004091390550913A0525
:101DC00060913B0570913C059FBF90912805309133
:101DD0002C01391769F190932C0110922B01C090BE
:101DE0008905D0908A05E0908B05F0908C05C09213
:101DF0008305D0928405E0928505F0928605E091F6
:101E00008705F0918805F0938205E09381056627A8
:101E100077274093890550938A0560938B057093CB
:101E20008C0590E0922B90938805809387052CC0B9
:101E30008091270190912801A0912901B0912A0158
:101E4000481659066A067B0698F120912B012F5FF0
:101E5000253B08F024EB20932B0120912B0125300A
:101E600050F010929D0510927D0510927E05109203
:101E70007F051092800588519C4FAF4FBF4F481689
:101E800059066A067B0630F0D301C2018E519B4F82
:101E9000AF4FBF4F8093270190932801A093290152
:101EA000B0932A0180910401882309F4FDC1C7C1C0
:101EB00080911805823009F080C12DE330E044E7BD
:101EC00051E06DE873E081E00E94952081E495E0A7
:101ED0009F938F9383E495E09F938F938FE595E095
:101EE0009F938F9387E695E09F938F938DE695E080
:101EF0009F938F9387E495E09F938F9388E495E079
:101F00009F938F938CE495E09F938F938DE495E05E
:101F10009F938F9381E595E09F938F9383E595E061
:101F20009F938F932DE8E22E23E0F22EFF92EF9203
:101F30000FE012E01F930F930E94E9342FE030E08E
:101F400045E651E0B70181E00E9495208FE695E0DB
:101F50009F938F93FF92EF921F930F930E94E93408
:101F60000FB6F894DEBF0FBECDBF181619060CF0E1
:101F700057C003DA80916F05909170050297029720
:101F800020F01092700510926F0500911B0510E073
:101F900001501109E9F0F801E15FFD4F80818A32BB
:101FA000B9F7C80120E030E0181619068CF4FC01DE
:101FB000E15FFD4F40814C3249F42F5F3F4F2330AA
:101FC000310521F48C010F5F1F4F02C00197ECCF48
:101FD0002CE030E049E551E06DE873E081E00E94DB
:101FE000952081E495E09F938F938BE595E09F93F7
:101FF0008F938FE595E09F938F9383E695E09F9372
:102000008F938DE893E09F938F93015F1D4F1F93F4
:102010000F930E94E9340FB6F894DEBF0FBECDBF18
:1020200023E330E046E251E06DE873E081E00E9496
:10203000952081E495E09F938F9387E595E09F93AA
:102040008F9387E495E09F938F9388E495E09F9327
:102050008F938CE495E09F938F938DE495E09F930D
:102060008F9381E595E09F938F9383E595E09F9310
:102070008F938DE893E09F938F938FE092E09F93EF
:102080008F930E94E9340FB6F894DEBF0FBECDBF28
:10209000181619060CF052C070D980905705909010
:1020A0005805A0905905B0905A05D501C401805437
:1020B0009041A109B109833C9F4AA440B105B0F504
:1020C000C501B40124E630E040E050E00E94E92F71
:1020D0006B017C01A5019401261B370B480B590BA2
:1020E000A4E6B0E00E940B30DC01CB018053984F96
:1020F000AF4FBF4FC80ED91EEA1EFB1EC092570538
:10210000D0925805E0925905F0925A0530E2C31A70
:1021100031E7D30A3FE0E30AF10884E9C81681E712
:10212000D8068BECE80681E0F80640F010925705DF
:10213000109258051092590510925A0521E130E08D
:1021400045E151E06DE873E081E00E9495208BE667
:1021500095E09F938F939DE8E92E93E0F92EFF92EF
:10216000EF920FE012E01F930F930E94E93421E1F8
:1021700030E044E051E0B70181E00E94952089E61B
:1021800095E09F938F93FF92EF921F930F930E947E
:10219000E934809102010FB6F894DEBF0FBECDBFC7
:1021A00083FF07C020911B05A80160E080E00E942A
:1021B000392310921B05109218058FB7F8941091CF
:1021C00032058FBFC0902A05D0902B05E0902C05DA
:1021D000F0902D0520E030E0A901C701B6010E9472
:1021E000C030882311F40C945D1F11110C945D1FF5
:1021F0001FB7F894809134058A83809133058983D1
:102200001FBF9E012F5F3F4FAE014E5F5F4FC70163
:10221000B6012ED9F8942A81209331052981209383
:10222000300521E0209332051FBF60932A0570938B
:102230002B0580932C0590932D050C945D1F8F5FCB
:1022400080930401833021F443E06DE378E005C01E
:10225000843039F443E16AE278E081E00E94FA23B5
:1022600023C0853021F44EE06CE178E0F6CF8A306F
:1022700021F442E16AE078E0F0CF8B3021F442E1D2
:1022800068EF77E0EACF8C3021F442E166EE77E048
:10229000E4CF863449F442E166EE77E081E00E94C3
:1022A000FA238AE080930401609187037091880388
:1022B00080E090E00E945D3120E030E045E553E4AD
:1022C0000E94C43029E639E340E15DE30E945C30BE
:1022D0006093790570937A0580937B0590937C05D4
:1022E0006091890370918A0380E090E00E945D31E3
:1022F00020E030E045E553E40E94C43029E639E3AC
:1023000040E15DE30E945C30609375057093760553
:10231000809377059093780560918B0370918C037F
:1023200080E090E00E945D312091B6053091B705C4
:102330004091B8055091B9050E945B302091B205DB
:102340003091B3054091B4055091B5050E946632B5
:1023500020E030E048EC51E40E945C30609371056D
:1023600070937205809373059093740580910201B8
:1023700082FFACC221E130E046ED57E06DE074E051
:1023800081E00E94952021E14DE054E060E080E092
:102390000E94392328E230E04EEA57E06DE873E00E
:1023A00081E00E949520809152058F938091510584
:1023B0008F93809156058F93809155058F938091CF
:1023C00054058F93809153058F9380915A058F9375
:1023D000809159058F93809158058F93809157056F
:1023E0008F938DE8282E83E0382E3F922F920DE0B8
:1023F00014E01F930F930E94CA34282FA80160E0B5
:1024000080E00E94392325E230E049E857E0B1013D
:1024100081E00E94952080916E058F9380916D05DB
:102420008F93809170058F9380916F058F933F926A
:102430002F921F930F930E94CA34282FA80160E0A7
:1024400080E00E94392323E530E046E357E0B10104
:1024500081E00E94952080916A058F9380916905A3
:102460008F9380916C058F9380916B058F938091F2
:1024700068058F93809167058F933F922F921F93EA
:102480000F930E94CA340FB6F894DEBF0FBECDBFC3
:10249000282FA80160E080E00E94392328E330E083
:1024A0004EEF56E0B10181E00E94952080915B05DE
:1024B00090915C05A0915D05B0915E058B839C8336
:1024C000AD83BE8342E0BC01CD0170D88F87998B6C
:1024D00080905F0590906005A0906105B0906205C6
:1024E00042E0C501B40162D88A8B9B8BC090630522
:1024F000D0906405E0906505F090660542E0C70164
:10250000B60154D88C8B9D8B99899F93AF85AF93DF
:102510006B817C818D819E810E942C317F936F9392
:10252000BB89BF932A892F93C501B4010E942C3126
:102530007F936F933D893F938C898F93C701B60139
:102540000E942C317F936F933F922F921F930F9392
:102550000E94CA34282FA80160E080E00E9439233D
:1025600023E430E04BEB56E0B10181E00E9495207E
:10257000C0904305D0904405E0904505F090460595
:1025800042E0C701B60112D8382E292EC701B60184
:102590000E942C31698B7A8BC0904805D0904905F8
:1025A000E0904A05F0904B0544E0C701B6010E9457
:1025B000D60A8B839F87C701B6010E942C31962EC5
:1025C000872E009147050FB6F894DEBF0FBECDBF32
:1025D000002311F010E002C00DE210E0C0904D05A4
:1025E000D0904E05E0904F05F090500544E0C701B3
:1025F000B6010E94D60AB82EA92EC701B6010E94C4
:102600002C3180914C05882311F090E002C08DE2BE
:1026100090E02F923F92BA89BF9329892F933F85EB
:102620003F93AB81AF938F929F921F930F93AF9283
:10263000BF927F936F939F938F930DE8E02E03E0FB
:10264000F02EFF92EF920DE014E01F930F930E9483
:10265000CA34282FA80160E080E00E9439230FB619
:10266000F894DEBF0FBECDBF80912B01811192C0C7
:102670002FE130E04CE956E0B70181E00E9495205F
:102680008090790590907A05A0907B05B0907C05AC
:1026900043E0C501B4010E94D60AC0908703D090E0
:1026A00088039F938F93C501B4010E942C317F93BF
:1026B0006F93DF92CF92FF92EF921F930F930E943E
:1026C000CA34282FA80160E080E00E9439232FE15E
:1026D00030E04DE756E0B70181E00E949520809000
:1026E000750590907605A0907705B090780543E049
:1026F000C501B4010E94D60AC0908903D0908A0314
:102700009F938F93C501B4010E942C317F936F93E7
:10271000DF92CF92FF92EF921F930F930E94CA34E1
:10272000282FA80160E080E00E9439232EE130E0EC
:102730004FE556E0B70181E00E9495208090710539
:1027400090907205A0907305B090740541E0C501AA
:10275000B4010E94D60AC0908B03D0908C039F9343
:102760008F93C501B4010E942C317F936F93DF9248
:10277000CF92FF92EF921F930F930E94CA34282F9B
:10278000A80160E080E00E9439230FB6F894DEBF14
:102790000FBECDBF28E330E047E256E06DE873E0BE
:1027A00081E00E949520AB8590E0BF819B2B9F9399
:1027B000AF937F926F925F924F921DE8E12E13E0EC
:1027C000F12EFF92EF920DE014E01F930F930E9401
:1027D000CA34282FA80160E080E00E94392324E752
:1027E00030E043EB55E0B70181E00E9495208091F5
:1027F00082058F93809181058F93809186058F93B9
:10280000809185058F93809184058F9380918305B6
:102810008F93809188058F93809187058F93809106
:102820008C058F9380918B058F9380918A058F9370
:10283000809189058F93FF92EF921F930F930E94CF
:10284000CA34282FA80160E080E00E94392324E2E6
:1028500030E04FE855E0B70181E00E94952080917B
:1028600033051F928F93809134051F928F93FF92AF
:10287000EF921F930F930E94CA340FB6F894DEBFF5
:102880000FBECDBF282FA80160E080E00E94392351
:1028900020E230E04FE655E0B70181E00E9495204C
:1028A00080919D051F928F93FF92EF921F930F933C
:1028B0000E94CA34282FA80160E080E00E943923DA
:1028C0000F900F900F900F900F900F9080912B0111
:1028D000811144C54091890550918A0560918B050D
:1028E00070918C058091830590918405A091850558
:1028F000B09186059A01AB01281B390B4A0B5B0B83
:10290000A0E2BEE40E940B3020918705309188053B
:102910004901A12CB12C2091810530918205821AA8
:10292000930AA108B108860E971EA81EB91ED501EC
:10293000C4019D52A143B1408B839C83AD83BE8370
:102940004090230150902401609025017090260151
:1029500020E030E040EA50E4C301B2010E94C430FC
:102960006B017C019CE9891A9CE2990A91E3A90A0E
:1029700091E0B90AA9EC8A169104A104B104D8F037
:1029800020E030E040E05FE3C701B6010E9466321C
:102990002B013C0120E030E040EA51E4C701B601E0
:1029A0000E94C4306B877C878D879E871B821C8228
:1029B0001D821E8256C08B819C81AD81BE81439653
:1029C000A11DB11D8797A105B10538F56B817C81EB
:1029D0008D819E810E945F31A70196010E945B302C
:1029E000A30192010E945C30609323017093240143
:1029F000809325019093260120E030E040E05FE3E2
:102A0000C701B6010E9466322B013C0120E030E094
:102A100040EA51E4C701B6011EC010922301109292
:102A2000240110922501109226016B817C818D81F9
:102A30009E810E945F314B015C0120E030E040E06C
:102A40005FE30E9466322B013C0120E030E040EA67
:102A500051E4C501B4010E94C4306B877C878D8727
:102A60009E878091020182FFC3C08091020180FD98
:102A7000BFC02AE330E04FE554E06DE873E081E049
:102A80000E949520BE81BF932D812F933C813F935F
:102A90008B818F938DE893E09F938F938DE094E0EB
:102AA0009F938F930E94CA34282F4DE054E060E03A
:102AB00080E00E94392320E030E040E250E4609161
:102AC0007D0570917E0580917F05909180050E9423
:102AD0005C304B015C0124E730E04BEE53E06DE8E5
:102AE00073E081E00E94952046E0C501B4010E9498
:102AF000D60A8F87998BC501B4010E942C316A8B4D
:102B00007B8B0FB6F894DEBF0FBECDBF20E030E068
:102B1000A901C501B4010E94623287FF02C08DE2A3
:102B200001C08BE2282F30E038872F8343E0C301B8
:102B3000B2010E94D60A1C01C301B2010E942C31CD
:102B40006C8B7D8B20E030E0A901C301B2010E94B3
:102B5000623287FF02C00DE201C00BE210E043E0E9
:102B6000C701B6010E94D60A982E892EC701B60168
:102B70000E942C31B62EA72E20E030E0A901C7011B
:102B8000B6010E94623287FF02C08DE201C08BE273
:102B900039893F939F859F93AB89AF93BA89BF9340
:102BA00028852F933F813F933F922F929D899F933A
:102BB000AC89AF931F930F938F929F92AF92BF9266
:102BC0001F928F938DE893E09F938F938DE094E015
:102BD0009F938F930E94CA34282F4DE054E060E009
:102BE00080E00E9439230FB6F894DEBF0FBECDBF40
:102BF00080919D05843080F48091020181FF0CC09A
:102C00002DEC3CEC4CEC5DE3C701B6010E945C305E
:102C10006B017C0111E001C010E020E030E04AE7E8
:102C200054ECC701B6010E94623218160CF018C2AB
:102C300020E030E04AE754E4C701B6010E94C0300A
:102C400087FF0EC2111104C020E030E0A90104C0CA
:102C50002AE037ED43EA5BE36B857C858D859E85B5
:102C60000E945B304B015C018B819C81AD81BE81F8
:102C70000396A11DB11D0797A105B105F0F420E051
:102C800030E040EA51E4C701B60190580E94C430D8
:102C90002091A6053091A7054091A8055091A9055E
:102CA0000E94C43020E030E040E251E40E94C43091
:102CB0006F83788789879A8729C06B817C818D8112
:102CC0009E8190958095709561957F4F8F4F9F4F16
:102CD0000E945F3120E030E040EA51E40E94C430BD
:102CE0002091A6053091A7054091A8055091A9050E
:102CF0000E94C4302DEC3CEC4CE85FE30E94C430F1
:102D00006F83788789879A8710929D052FE832EC28
:102D100045E75CEBC501B4010E94623287FD16C035
:102D20002FE832EC45E75CE3C501B4010E94C030F6
:102D3000181664F080919D05823041F48091220143
:102D4000811162C083E080939D055EC02CEE31E569
:102D500048E35DEBC501B4010E94623287FD14C0F7
:102D60002CEE31E548E35DE3C501B4010E94C030BB
:102D7000181654F080919D05813031F48091220124
:102D8000811142C082E031C02CE53FE842EC5DEBAE
:102D9000C501B4010E94623287FD0EC02CE53FE8F8
:102DA00042EC5DE3C501B4010E94C030181624F066
:102DB00080919D05823040F520E030E048EC51ECF8
:102DC000C501B4010E94623287FD19C020E030E0E5
:102DD00048EC51E4C501B4010E94C03018167CF0E3
:102DE00080919D05823020F081E080939D0509C08F
:102DF00081110AC0809122018823B1F305C010928D
:102E00009D0584E1809322018091020180FF31C100
:102E10008FB7F894909134059A83909133059983F4
:102E20008FBF80919D058430A8F49E012F5F3F4F96
:102E3000AE014E5F5F4F6F81788589859A850E94CC
:102E4000380A8FB7F8949A819093340599819093BA
:102E500033058FBF8091020182FF02C12AE330E077
:102E60004FE554E06DE873E081E00E9495203E81DB
:102E70003F938D818F939C819F93AB81AF938DE81E
:102E800093E09F938F938DE094E09F938F930E94A4
:102E9000CA34282F4DE054E060E080E00E943923DE
:102EA00024E730E04BEE53E06DE873E081E00E94F0
:102EB000952046E0C501B4010E94D60A8C01C501E7
:102EC000B4010E942C311B010FB6F894DEBF0FBE77
:102ED000CDBF20E030E0A901C501B4010E946232FB
:102EE00087FF02C08DE201C08BE2A82FB0E0BC8357
:102EF000AB8343E0C301B2010E94D60A5C01C30167
:102F0000B2010E942C314B0120E030E0A901C30145
:102F1000B2010E94623287FF02C08DE201C08BE2E3
:102F2000282F30E0388B2F8743E0C701B6010E947D
:102F3000D60A898B9A8BC701B6010E942C316B8B04
:102F40007C8B20E030E0A901C701B6010E9462320B
:102F500087FF02C08DE201C08BE21F930F933F9267
:102F60002F923C813F939B819F93BF92AF929F9200
:102F70008F92A889AF93BF85BF932A892F933989F0
:102F80003F939C899F93AB89AF931F928F93BDE82A
:102F9000EB2EB3E0FB2EFF92EF920DE014E01F93B7
:102FA0000F930E94CA34282FA80160E080E00E949D
:102FB0003923698170E080E090E00E945F3120E079
:102FC00030E040E85BE30E9466324B015C016A81BD
:102FD00070E080E090E00E945F319B01AC01C50190
:102FE000B4010E945C304B015C0127E430E044EA0C
:102FF00053E0B70181E00E94952043E06F8178851E
:1030000089859A850E94D60A382E292E43E0C5016B
:10301000B4010E94D60AD82EC92E2F923F926F81FA
:10302000788589859A850E942C317F936F93CF9202
:10303000DF92C501B4010E942C317F936F93FF9200
:10304000EF921F930F930E94CA340FB6F894DEBF1D
:103050000FBECDBF282FA80160E080E00E94392379
:1030600080912201815018F08093220102C01092B9
:10307000220110919D05143060F48B859C85AD85EF
:10308000BE8580937D0590937E05A0937F05B093C8
:1030900080058091020181FF61C160918903709177
:1030A0008A036D507140072E000C880B990B0E940B
:1030B0005F3120E030E045E553E40E94C43023E373
:1030C00033E343EB5FE30E94C43020E030E044EBA5
:1030D00052E40E9466324B015C01133008F45EC07A
:1030E00020E030E042E852EC0E94623287FD46C0A8
:1030F00020E030E042E852E4C501B4010E94C03053
:103100001816E4F11730C8F487E080939D058FB757
:10311000F89410922A0510922B0510922C0510920B
:103120002D058FBF20E030E04CE052ECC501B4012A
:103130000E94623287FF10C031C0173019F087E05B
:1031400080939D0520E030E04CE052ECC501B401D5
:103150000E94623287FD26C020E030E04CE052E45D
:10316000C501B4010E94C0301816C4F080919D05BD
:103170008F30A0F48FE080939D0510C0173070F061
:1031800081E080939D058FB7F89410922A051092E4
:103190002B0510922C0510922D058FBF80919D0557
:1031A0008730F8F023E333E343E95FE3C501B4017B
:1031B0009F770E94C93220E030E046E153E40E944C
:1031C00066326B017C0120E030E0A901C501B40149
:1031D0000E94C03087FFA7C5F7FAF094F7F8F09483
:1031E000A2C5C12CD12C76012601370180910201A4
:1031F00082FFB4C02BE630E049E353E06DE873E0B2
:1032000081E093D743E0C701B6010E94D60A382E69
:10321000292EC701B6010E942C31162F072F20E05E
:1032200030E0A901C701B6010E94623287FF02C0E7
:103230008DE201C08BE2E82EF12C43E0C301B20124
:103240000E94D60AD82EC92EC301B2010E942C3189
:103250006B837B8720E030E0A901C301B2010E94AB
:10326000623287FF03C0ADE27A2E02C0FBE27F2EFE
:1032700043E0C501B4010E94D60A2F923F920F93FA
:103280001F93FF92EF92CF92DF92AB85AF93BB81FA
:10329000BF931F927F929F938F93C501B4010E94A9
:1032A0002C317F936F938DE893E09F938F938DE004
:1032B00094E09F938F930E94CA34282F4DE054E0EE
:1032C00060E080E00E94392324E330E045E053E0F1
:1032D0006DE873E081E029D7C0902A05D0902B05D6
:1032E000E0902C05F0902D0543E0C701B6010E9447
:1032F000D60AB82EA92EC701B6010E942C31162F6E
:10330000072F0FB6F894DEBF0FBECDBF20E030E030
:10331000A901C701B6010E94623287FF02C08DE297
:1033200001C08BE2AF92BF920F931F931F928F93B6
:103330008DE893E09F938F938DE094E09F938F931C
:103340000E94CA34282F4DE054E060E080E00E94E3
:1033500039230FB6F894DEBF0FBECDBF80910201B6
:1033600086FF67C0EAEDF5E080E090E021912A3524
:1033700071F086529A4F2091050130910601821713
:10338000930750F4909306018093050105C00196C0
:103390008032A2E09A0751F725E430E044E152E0A0
:1033A0006DE873E081E0C1D6809108018F93809130
:1033B00007018F93809106018F93809105018F9370
:1033C000EDE8EE2EE3E0FE2EFF92EF920DE014E02A
:1033D0001F930F930E94CA34282FA80160E080E059
:1033E0000E9439232DE130E047EF51E0B70181E041
:1033F0009CD690913E019695917080913E0181708E
:1034000020913D011F929F931F928F931F922F93A4
:10341000FF92EF921F930F930E94CA34282FA801A6
:1034200060E080E00E9439230FB6F894DEBF0FBE43
:10343000CDBF809100018823B9F12FB7F894809116
:10344000350590913605A0913705B09138052FBF0D
:1034500089389341A105B10580F521E130E044EFC1
:1034600052E06DE873E081E060D660E080E00E94A9
:10347000ED2760E18DE893E00E9415280E94442A20
:1034800021E130E043EE52E06DE873E081E04DD69B
:1034900060E081E00E94ED2760E18DE893E00E940A
:1034A00015280E94442AB1C10E9410270E94852736
:1034B000809100018111C1CFA8C180919D05882311
:1034C00009F443C020E030E04AE754E460917D0510
:1034D00070917E0580917F05909180050E946632F3
:1034E0006B017C012BE130E048EC52E06DE873E0C9
:1034F00081E01BD6109167050091680543E0C70184
:10350000B6010E94D60A0F931F931F9223EF2F93A9
:1035100020919D051F922F931F9220EE2F939F9332
:103520008F93C701B6010E942C317F936F931F9236
:1035300082E68F938DE893E09F938F938DE094E0E4
:103540009F938F930E94CA3422C028E130E040EB61
:1035500052E06DE873E081E0E8D5809168058F93D3
:10356000809167058F931F9283EF8F9380919D05C4
:103570001F928F931F9280EE8F938DE893E09F931D
:103580008F938DE094E09F938F930E94CA34182FFD
:103590000FB6F894DEBF0FBECDBF60E080E00E94A2
:1035A000ED27612F8DE094E00E9415280E94442AA7
:1035B00080911901813009F459C0823009F4A2C008
:1035C0008090570590905805A0905905B0905A05E5
:1035D00040905305509054056090550570905605E5
:1035E0002CE130E044E952E06DE873E081E09DD5E4
:1035F00074E6C72ED12CE12CF12CC301B201A70136
:1036000096010E94E92F1F926F93CA01B901A70189
:1036100096010E94E92F1F926F93C301B20120E12E
:1036200037E240E050E00E94E92F1F922F93C5013E
:10363000B40120E432E44FE050E00E94E92F1F92F1
:103640002F93C501B40120E137E240E050E00E9431
:10365000E92F162F072FCA01B901A70196010E9471
:10366000E92F1F926F930F931F93A2C022E230E0C5
:1036700042E752E06DE873E081E057D5B09069050C
:10368000A0906A0510916B0500916C05C0906305D0
:10369000D0906405E0906505F090660541E0C701B3
:1036A000B6010E94D60AAF92BF921F922BEE2F93C3
:1036B0000F931F931F922FED2F939F938F93C7010B
:1036C000B6010E942C317F936F9380916E058F938A
:1036D00080916D058F931F9286E48F938091700582
:1036E0008F9380916F058F931F928DE48F938DE858
:1036F00093E09F938F938DE094E09F938F930E942C
:10370000CA3460C08FB7F8941091340560913305C6
:103710008FBF70E080E090E00E945F3120E030E0F9
:1037200040E85BE30E9466326B017C01612F70E030
:1037300080E090E00E945F319B01AC01C701B601BF
:103740000E945C306B017C0129E130E049E552E0E8
:103750006DE873E081E0E9D48090790590907A0576
:10376000A0907B05B0907C0543E0C501B4010E94A8
:10377000D60A782E692E43E0C701B6010E94D60A08
:10378000182F092F6F927F92C501B4010E942C312E
:103790007F936F931F928BEA8F930F931F93C701B1
:1037A000B6010E942C317F936F931F9280E58F9317
:1037B0008DE893E09F938F938DE094E09F938F9398
:1037C0000E94CA34182F60E081E00E94ED27612F2B
:1037D0008DE094E00E9415280FB6F894DEBF0FBE6E
:1037E000CDBF0E94442A809118018F5F833018F466
:1037F000809318010AC010921801809119018F5FFF
:1038000063E00E94942F909319018091010181112E
:1038100009C00E94582880910101882309F4E5C15C
:103820000E9474288FB7F89410919D05C09075057B
:10383000D0907605E0907705F09078058FBFA701CE
:10384000960166E676E686EA9FE30E945B3023E314
:1038500033E343EB5FE30E94C43020E030E044EB0D
:1038600052E40E94663220E030E048EC52E40E94CC
:1038700066320E942C314B015C0120E030E04AE7C7
:1038800054E4C701B6010E9466320E943131A4019E
:10389000812F0E947E288FB7F894C0905705D09052
:1038A0005805E0905905F0905A058FBFC701B60141
:1038B00020E432E44FE050E00E94E92F122F90E123
:1038C000892E97E2992EA12CB12CC701B601A50132
:1038D00094010E94E92F2B013C0164E6C62ED12CF5
:1038E000E12CF12CCA01B901A70196010E94E92F30
:1038F000412FC2010E948A288FB7F8944090530547
:103900005090540560905505709056058FBFC301C7
:10391000B201A70196010E94E92F062FCA01B90141
:10392000A70196010E94E92F162FC301B201A5013C
:1039300094010E94E92F822F402F612F0E94952829
:103940008FB7F894C0907D05D0907E05E0907F05FC
:10395000F09080058FBF20E030E0A901C701B601DB
:103960000E94623218162CF420E030E04AE754E45A
:1039700004C020E030E04AE754ECC701B6010E94E1
:1039800066322B013C010E942C314B015C018B0102
:10399000072E000C880B990B0E945F319B01AC0134
:1039A000C301B2010E945B3020E030E04AE754E4FA
:1039B0000E9466320E9431312B013C0120E030E050
:1039C000A901C701B6010E94C03087FF04C00027CB
:1039D000112708191909B201C8010E949F289FB731
:1039E000F89480913405609133059FBF0E94AA2806
:1039F0008FB7F894C0907905D0907A05E0907B0558
:103A0000F0907C058FBFC701B6010E943131162F9F
:103A100070E080E090E00E945F319B01AC01C70143
:103A2000B6010E945B3020E030E04AE754E40E9497
:103A300066320E943131812F0E94B3289FB7F894DB
:103A400080916B0560916905409167059FBF0E9459
:103A5000BD282FB7F894609163057091640580913B
:103A60006505909166052FBF20E030E048EC52E4F8
:103A70000E9466320E943131CB010E94C7289FB755
:103A8000F89480916D0560916F059FBF0E94D028CA
:103A90008FB7F894C0904C0580904D0590904E05DE
:103AA000A0904F05B09050058FBF20E030E048EC6B
:103AB00052E4C501B4010E94C4300E943131D62EB7
:103AC000C501B4010E942C3104E610E0CB01B8011D
:103AD0000E94B42F7C01BC017727B4E6DB9E600D09
:103AE000711D1124072E000C880B990B0E945F3169
:103AF0009B01AC01C501B4010E945B3020E030E4C1
:103B00004CE156E40E9466320E9431319B014E2DF9
:103B10006D2D8C2D0E94D9288FB7F8947090470591
:103B2000C0904805D0904905E0904A05F0904B05BB
:103B30008FBF20E030E048EC52E4C701B6010E949C
:103B4000C4300E9431314B015C01C701B6010E94B3
:103B50002C31CB01B8010E94B42F182F84E6889D28
:103B6000B001899D700D1124610F711D80E090E0FE
:103B70000E945D319B01AC01C701B6010E945B3020
:103B800020E030E44CE156E40E9466320E9431317C
:103B90009B01412F682D872D0E94E5288FB7F8944F
:103BA000C0904305D0904405E0904505F09046054F
:103BB0008FBFC701B6010E949A319B01AC01C701BA
:103BC000B6010E945B3020E030E040E251E40E9408
:103BD00066320E942C31162FC701B6010E942C318B
:103BE000DC01CB01612F0E94F12820E030E0A90127
:103BF0006091990570919A0580919B0590919C0523
:103C00000E94C030882309F458C1FFB6F89410917F
:103C1000340500913305FFBE19830A83609199052D
:103C200070919A0580919B0590919C059E012E5F55
:103C30003F4FAE014F5F5F4F0E94380AF894898171
:103C4000809334058A8180933305FFBE2BE630E0F4
:103C500044E055E06DE873E081E067D2C0909905DB
:103C6000D0909A05E0909B05F0909C0547E0C70135
:103C7000B6010E94D60A1F920F931F921F939F9323
:103C80008F93C701B6010E942C317F936F938DE80B
:103C9000E82E83E0F82EFF92EF920DE014E01F93E0
:103CA0000F930E94CA34282FA80160E080E0E1D47D
:103CB0002BE630E049E954E0B70181E036D280904C
:103CC000990590909A05A0909B05B0909C0547E0BF
:103CD000C501B4010E94D60A2A811F922F9329811F
:103CE0001F922F939F938F93C501B4010E942C3193
:103CF0007F936F93FF92EF921F930F930E94CA34AA
:103D0000282FA80160E080E0B4D4109299051092A9
:103D10009A0510929B0510929C050FB6F894DEBF91
:103D20000FBECDBFCAC020911E0130911F0140912E
:103D3000200150912101C701B6010E945B302B0187
:103D40003C0120E030E0A901C701B6010E946232C7
:103D500018164CF420E030E0A901C301B2010E9422
:103D600062321816A4F020E030E0A901C701B601C4
:103D70000E94C03087FF0DC020E030E0A901C301E0
:103D8000B2010E94C030881F8827881F03C081E0CD
:103D900001C080E0C0921E01D0921F01E09220017C
:103DA000F0922101811105C06CE973E589E496EB7D
:103DB00004C062E878EA8BE797E3A70196010E94C6
:103DC000663220E030E0A9010E945C302B013C010A
:103DD00080911A0190911B01A0911C01B0911D01CD
:103DE0008B839C83AD83BE8320E030E040EE50E4C3
:103DF000BC01CD010E94C4306B877C878D879E8774
:103E00009B01AC016091A6057091A7058091A80562
:103E10009091A9050E94663260937D0570937E059E
:103E200080937F059093800520E030E0A901C301D5
:103E3000B2010E9462322B853C854D855E8587FDEF
:103E400003C0C301B20103C0C301B20190580E9474
:103E50005B302B813C814D815E810E945C306093A0
:103E60001A0170931B0180931C0190931D0120E0A7
:103E700030E0A901C301B2010E94C030882309F4D7
:103E8000B5C91FB7F894809134058A8380913305B2
:103E900089831FBF9E012F5F3F4FAE014E5F5F4F73
:103EA000C301B2010E94380AF8948A8180933405D4
:103EB0008981809333051FBF99C965960FB6F89421
:103EC000DEBF0FBECDBFDF91CF911F910F91FF904D
:103ED000EF90DF90CF90BF90AF909F908F907F90AA
:103EE0006F905F904F903F902F900895F894F894C2
:103EF00081E085BF80E085BF0FB6F894A8958091DA
:103F00006000886180936000109260000FBE8FEEA9
:103F10008093640080B7806880BF80917F00836059
:103F200080937F0085B78F7E85BF0E945309EAEF9B
:103F3000F7E08AE5829325E0EA3DF207D9F70E948F
:103F4000BE080E942A080CD40E940429789481E0BB
:103F50008093160571D564D7D8D78FE794E82EE102
:103F6000815090402040E1F700C000000E9474287A
:103F70000DD260E08DE893E070D1882339F180E1C3
:103F8000EDE8F3E0A6ECB5E001900D928A95E1F73B
:103F90001092D60580919F039091A0039093C50540
:103FA0008093C40580919D0390919E039093C305D7
:103FB0008093C2058091A1038770982F9295907F7E
:103FC000809103018F78892B8093030161E08DE854
:103FD00093E043D1882309F440C080918D039091F0
:103FE0008E03A0918F03B09190038093BE059093B0
:103FF000BF05A093C005B093C10580919103909136
:104000009203A0919303B09194038093BA05909387
:10401000BB05A093BC05B093BD058091950390911D
:104020009603A0919703B09198038093B60590935F
:10403000B705A093B805B093B90580919903909105
:104040009A03A0919B03B0919C038093B205909337
:10405000B305A093B405B093B50562E08DE893E095
:10406000FCD0882309F450C080918D0390918E0379
:10407000A0918F03B09190038093AE059093AF050C
:10408000A093B005B093B1058091910390919203F4
:10409000A0919303B09194038093AA059093AB05EC
:1040A000A093AC05B093AD058091950390919603D4
:1040B000A0919703B09198038093A6059093A705CC
:1040C000A093A805B093A90580919F039091A003A8
:1040D000A091A103B091A2038093A2059093A305A0
:1040E000A093A405B093A5058091A3039091A40388
:1040F000A091A503B091A60380939E0590939F0580
:10410000A093A005B093A1058091000181110AC080
:1041100080910101811106C025E042E15CE061E08F
:1041200081E0A7D20E94A80EFDCFCF93DF93D62FB8
:10413000C72FBA01882329F0AD2FBC2F80E090E073
:1041400007C0A9018D2F9C2FDF91CF910C9448348B
:104150008217930739F0FB01E80FF91FE491ED9303
:104160000196F6CF8D2F9C2FDF91CF91089520E1FE
:10417000829FC00111248C60906B0895CF93DF93D0
:10418000FC01DC015E9625EA35EA60E1E901CC0F2D
:10419000DD1F832F881F8827881F922F91709827F3
:1041A000A901452F552742954695477041709427A0
:1041B00033FB332730F9932727FB882780F998278B
:1041C00022FB222720F92927CE01822B9C01615056
:1041D000E9F681912827EA17FB07B9F6C901DF91B3
:1041E000CF910895E0910901F0910A010994EF92AD
:1041F000FF921F93CF93DF93162FEC017A01E81AF9
:10420000F90A112341F0C7018C0F9D1F0E949D37B1
:1042100089931150F6CFDF91CF911F91FF90EF90CE
:104220000895CF93DF93883098F490E2899FA0019E
:10423000112460E28DE893E0DADFC091AB03D09106
:10424000AC038DE893E09ADF21E08C179D0709F01D
:1042500020E0822FDF91CF9108950F931F93CF938A
:10426000683010F080E012C0C62F8C01862FD9DF95
:104270008823C1F383E00D38180739F080E2C89F26
:10428000A001112460E2C801B2DF81E0CF911F914B
:104290000F910895EF92FF920F931F93CF938A018E
:1042A0007C01C62FCC2351F0F70161917F01C80139
:1042B0000E94A5370F5F1F4FC150F4CFCF911F91C0
:1042C0000F91FF90EF9008951F93CF93DF93683085
:1042D000D8F4162FEC0152DF2E8D3F8D28173907A9
:1042E000A9F08E8F9F8F8C8D9D8D01968C8F9D8FC9
:1042F000CE0144DF8E8F9F8F80E2189FA001112492
:1043000060E2CE01C7DF02C080E001C081E0DF9142
:10431000CF911F9108951F93CF93DF93883010F0B2
:1043200080E030C0182F7DDF8111FACF212F30E0DF
:10433000C90144E0880F991F4A95E1F78C60906BA2
:104340004091AB035091AC0348175907B1F0C091AD
:10435000A903D091AA0385E0220F331F8A95E1F7C4
:104360002F5C334F40E050E06CE18DE893E03ADFA2
:104370002196C093A903D093AA03612F8DE893E0FF
:10438000A3DF81E0DF91CF911F910895CF93DF9359
:10439000C0E0D0E08C2FBFDF8111DF5FCF5FC8307E
:1043A000C9F78D2FDF91CF910895811103C0E2E20B
:1043B000F5E002C0E3E2F5E08FB7F894908121E0E8
:1043C00020838FBF81E0911180E00895811103C0A7
:1043D000E2E2F5E002C0E3E2F5E08FB7F894108284
:1043E0008FBF08958F929F92AF92BF92CF92DF922C
:1043F000EF92FF920F931F93CF93DF933FB7F89401
:10440000882329F0709127059091260504C07091AA
:104410002505909124053FBFA72FB0E0C92FD0E01C
:10442000FD013196EC17FD0709F464C07F3719F4DC
:10443000992309F45FC0811105C0E7E8EE2EE2E0A0
:10444000FE2E04C037E0E32E33E0F32E30E0791780
:1044500028F4FE01EA1BFB0B31970CC0E0E8F0E00A
:10446000EA1BFB0B01E010E0992311F000E010E0E3
:10447000E01BF10B2E173F070CF4F901DE2E8F0124
:104480001127201B310B791720F0992311F0219768
:1044900002C0C0E0D0E02C173D070CF4E9015A013E
:1044A000962E882ECC2EDD2031F0B7016A0F7B1FAF
:1044B0009801892D3ADECC2049F09E013327A501D1
:1044C000400F511FB701892D30DEDC0C9FB78820CB
:1044D00041F0F894809127058D0D8F778093270503
:1044E00007C0F894809125058D0D8F778093250561
:1044F0009FBF01C0D12C8D2DDF91CF911F910F91C6
:10450000FF90EF90DF90CF90BF90AF909F908F90F3
:1045100008959F92AF92BF92CF92DF92EF92FF9257
:104520000F931F93CF93DF932FB7F894882329F02D
:10453000C09127059091260504C0C0912505909152
:1045400024052FBF9C1709F45FC0423008F45CC0FB
:10455000811105C037E8E32E32E0F32E04C027E0D6
:10456000E22E23E0F22E242F30E021503109E92FF2
:10457000F0E09C1718F44C2F50E002C040E850E0E7
:104580004E1B5F0B241735070CF4A901D42E8A01AA
:104590001127201B310B9C1710F0D0E002C0C0E0A7
:1045A000D0E02C173D070CF4E9015B01C82E9C2ECE
:1045B000DD2039F0B7016E0F7F1FA801C5010E94F1
:1045C0004834992049F0AE015527B701C501800F45
:1045D000911F0E944834D90CF501ED0DF11D108298
:1045E0009FB7CC2041F0F894809126058D0D8F77F0
:1045F0008093260507C0F894809124058D0D8F7750
:10460000809324059FBF05C0411102C0FB011082A9
:10461000D12C8D2DDF91CF911F910F91FF90EF90B5
:10462000DF90CF90BF90AF909F9008953FB7F894E0
:10463000882329F0909127052091260504C09091A8
:104640002505209124053FBF291779F0811103C06A
:1046500087E892E002C087E093E0FC01E20FF11DE1
:104660008081843221F481E1089580E0089581E021
:104670000895FF920F931F93CF93DF93C82FD62FE8
:104680008A01F22E8C2F91DE8823A9F02FB7CC233C
:1046900031F0F894909127058091260505C0F89493
:1046A00090912505809124052FBF981739F08C2F04
:1046B0008DDEA895E9D6A895E7D6E4CF2F2DA801E1
:1046C0006D2F8C2F8FDED82F8C2F80DE8D2FDF91DA
:1046D000CF911F910F91FF9008959FB7F894E0EC50
:1046E000F0E080818F7B8083E091190581E08E0F5F
:1046F00080931905F0E0E953FE4F80818093C60056
:104700009FBFE1ECF0E080818062808308959FB7D5
:10471000F894E1ECF0E08081806880839FBF089589
:104720009C01BC0176956795CB01A0E0B0E0BC018F
:10473000CD0160537D4E8C4E9F4F40E050E00E9473
:10474000C72FDA01C9010197A109B109892F9A2F51
:10475000AB2FBB278093C50021502093C400089540
:10476000809164008D7F8093640085B78F7E85BFC4
:10477000589A63E08DE893E070DD8823C1F0809162
:104780008D0390918E039093210580932005809155
:104790008F039091900390931F0580931E05809145
:1047A00091039091920390931D0580931C05809135
:1047B000200590912105B4DF88E18093C10020910C
:1047C0001E0530911F0583E0820F8370880F932FA1
:1047D0009073892B222733709FEF930F9170990F5D
:1047E000990F990F892B8093C2008091C600109277
:1047F00019058DCFCF93442369F0C42FAB012C2F23
:1048000030E067EC71E091DC10921905C0931A0555
:10481000CF9163CFCF910895CF932FB7F894909114
:10482000C0002FBF20911A05211135C095FF33C05C
:10483000C82F4DE367EC71E06CDE80931A058C2F76
:10484000C5DD8091020183FF10921A0510921905AF
:1048500080911A05882309F1EFEFE80FE0931A051C
:10486000F0E0E953FE4F9081911180931A05E09199
:104870001A05AE2FB0E0A953BE4F8DE08C9382E0B5
:104880008E0F80931A05EF5FF0E0E953FE4F8AE048
:104890008083CF9122CFCF9199CDCF9108951F9250
:1048A0000F920FB60F9211242F933F934F935F9364
:1048B0008F939F93AF93BF93CF93DF93EF93FF9328
:1048C0009091C60078948091180520911705811168
:1048D00048C030911B05353708F043C031E03093B4
:1048E00018052223C1F02FB7F89430911705409195
:1048F0001B05A7E0B2E0E82FE40F381739F05D910F
:10490000F0E0E15FFD4F50838F5FF5CFE0931B0533
:10491000109217052FBFE0911B05A1E0AE0FA093E9
:104920001B05CE2FD0E0C15FDD4F9883A53780F007
:10493000B0E0A15FBD4F8DE08C9383E08E0F80933C
:104940001B05EE5FF0E0E15FFD4F8AE0808302C06F
:104950009A3021F482E08093180512C01092180555
:104960000FC0283068F48FB7F894E091170521E064
:104970002E0F20931705F0E0E95FFD4F90838FBF66
:10498000FF91EF91DF91CF91BF91AF919F918F9167
:104990005F914F913F912F910F900FBE0F901F90FD
:1049A00018951F920F920FB60F9211248F939F9319
:1049B000EF93FF938091C1008F7D8093C100789425
:1049C0009091190580911A05981798F4F894E09140
:1049D000190581E08E0F80931905F0E0E953FE4F31
:1049E00080818093C6008091C10080628093C10065
:1049F00078949091190580911A05981748F0F894C9
:104A00008091C1008F7D8093C100789410921A0527
:104A1000FF91EF919F918F910F900FBE0F901F907C
:104A2000189578941F920F920FB60F9211240F9041
:104A30000FBE0F901F901895E4E6F0E080818F770D
:104A400080839FB7F89487B18F7C87B988B18063E2
:104A500088B91092B90081E18093B80084E880930E
:104A6000BC009FBF0895CF93DF93C82FD4E6D150E9
:104A7000F9F080913E0180FF0AC0A895809116054B
:104A80008823A9F301D5B7D30E94360BF0CF8091CC
:104A90003E0181FDF2CFCC2359F0A89580911605F7
:104AA000882321F0F1D4A7D30E94360BC150F3CF55
:104AB000DF91CF9108952FB7F89490913E0191FD29
:104AC00004C090913E0190FD06C090913E0191FF7F
:104AD00017C06623A9F090910F05992389F0909152
:104AE0003E01926090933E0190913E019E7F909393
:104AF0003E0110920D05882319F085EA8093BC00D1
:104B00002FBF0895FF920F931F93CF93DF93082F2A
:104B1000F62E142FE901823211F080E001C08AE004
:104B2000A2DF9FB7F8940093100510920F05E09153
:104B30000F0581E08E0F80930F05F0E0E35DFE4FDF
:104B4000F08280913E018B7F80933E01DE01412FF8
:104B500050E09D012C1B3D0B2417350764F4E091B8
:104B60000F0581E08E0F80930F05F0E08D91E35DDE
:104B7000FE4F8083EECF80913E01816080933E01A5
:104B80009FBF60E081E0DF91CF911F910F91FF9077
:104B900092CFCF93DF931F92CDB7DEB749839E01AB
:104BA0002F5F3F4F41E0AEDF0F90DF91CF9108952F
:104BB000CF93DF9300D0CDB7DEB749832A839E0120
:104BC0002F5F3F4F42E09EDF0F900F90DF91CF911C
:104BD0000895CF93DF93C82FD62F823211F080E053
:104BE00001C08AE040DF9FB7F894C093100510928F
:104BF0000F05E0910F0581E08E0F80930F05F0E027
:104C0000E35DFE4FD08380913E01846080933E013E
:104C100081E080930E0580913E01816080933E018A
:104C20009FBF60E081E047DF80E01DDF80912D01C4
:104C3000DF91CF9108959FB7F894882339F0809140
:104C40003E0181FF03C085E98093BC0010920F05EF
:104C500080913E018D7F80933E019FBF08951F92FA
:104C60000F920FB60F9211242F933F934F935F93A0
:104C70006F937F938F939F93AF93BF93CF93EF9354
:104C8000FF938091B900887F9091BB002091BC0078
:104C9000C22FC57480933D01883209F465C080F449
:104CA0008031F9F038F4883009F0A2C08091100505
:104CB000880F3CC0883129F1803209F446C098C081
:104CC000883409F442C030F4803309F491C0803450
:104CD000C1F08EC0803509F462C0883509F476C011
:104CE00087C080911005880F81608093BB00809100
:104CF0003E018B7F80933E0180910E0580930F05CE
:104D00007AC080911005803221F481E08093000107
:104D100007C080911005823219F481E0809301016F
:104D200080913D01883129F480912D018093BB0051
:104D300062C080910D0540910F0590E0019650E012
:104D4000841795070CF440C03CC080911005803258
:104D500019F4109200014CC080911005823209F0C4
:104D600047C01092010144C080910D058F5F809370
:104D70000D0590910D0580910F05981738F4E0917D
:104D80000D05F0E0E35DFE4F8081D0CF80913E01C4
:104D900082FF2EC061E080E08EDEC0622CC0E09118
:104DA0000D0581E08E0F80930D05F0E08091BB0032
:104DB000E35DFE4F808390910D0580910F0598175C
:104DC00018F0C22FC57017C0C06415C090910D05B2
:104DD00080910F05981760F4E0910D0581E08E0F2A
:104DE00080930D05F0E08091BB00E35DFE4F808372
:104DF00080E021DFC061C568C093BC00FF91EF91E6
:104E0000CF91BF91AF919F918F917F916F915F9162
:104E10004F913F912F910F900FBE0F901F901895BB
:104E200044E26AE080E2B5DE80E01DDE80910001B0
:104E3000882341F12FEF4FEF6CE080E2B9DE20E0F4
:104E40004FEF60E080E2B4DE20E040E062E080E22C
:104E5000AFDE20E040E062E180E2AADE20E040E058
:104E600064E180E2A5DE20E040E064E080E2A0DED4
:104E700020E040E066E080E29BDE2FEF4FEF68E04D
:104E800080E296CE0895882311F040E001C04FEFF4
:104E900060E080E27ECE482F65E180E27ACE462F48
:104EA00090E8699F90011124282B64E180E280CE74
:104EB00062E180E28ECE1F93CF93DF938091030156
:104EC00082958770813011F0C0E001C0C8E080E0B9
:104ED000DADF809100018823A1F0DC2FD260C3606B
:104EE0008D2FD9DF8C2FD7DFE3DF182F8D2FD3DF66
:104EF00017FF07C082E48A95F1F700C0A895C4D2D5
:104F0000EFCFDF91CF911F91089580910001882309
:104F100009F462C0D0DF81E0B6DF6CE380E0BFDF80
:104F20006CE381E0BCDF6CE380E0B9DF80E0ABDF05
:104F30008BE18A95F1F7000081E0A5DF6CE380E06A
:104F4000AEDF6CE381E0ABDF6CE380E0A8DF80E004
:104F50009ADF83EF91E00197F1F700C0000081E054
:104F600092DF6CE380E09BDF6CE381E098DF6CE331
:104F700080E095DFA0DF81E086DF6CE380E08FDFFB
:104F80006CE381E08CDF6CE380E089DF94DF81E01B
:104F90007ADF6CE080E083DF6CE081E080DF6CE052
:104FA00080E07DDF88DF81E06EDF61E080E077DF39
:104FB00061E081E074DF61E080E071DF7CDF81E04F
:104FC00062DF66E080E06BDF66E081E068DF66E07C
:104FD00088E065DF80E057CF0895CF93DF9390910D
:104FE000030192959770913011F0D0E001C0D8E0A4
:104FF000282F217030E086E0220F331F8A95E1F7D9
:10500000C62FCF70C068C22B56DF81E03CDF6C2F0B
:105010008D2F45DF6C2F8D2F816041DF6C2F8D2F01
:105020003EDF80E0DF91CF912ECFAF92BF92CF9243
:10503000DF92EF92FF920F931F93CF93DF936C0158
:105040008091030182958770813011F0C0E001C02A
:10505000C8E07601062F10E08C2F8460B82EEC2F6C
:10506000E560AE2EC7018C199D0980179107ACF43D
:10507000F701D1917F011FDF81E005DF6D2F8B2DBF
:105080000EDF6D2F8A2D0BDF6D2F8B2D08DF6D2F1F
:105090008C2F05DF80E0F7DEE5CFDF91CF911F9108
:1050A0000F91FF90EF90DF90CF90BF90AF90089559
:1050B000CF9361E082E28DDDC3E0803158F48FE46C
:1050C00093EC0197F1F700C0000061E082E281DD1E
:1050D000C15099F7CF91089580930D042DE034E0ED
:1050E00041E062E082E20ECDE3DF813120F4809185
:1050F0000101882311F080E2EFCF0895EDE0F4E0A4
:10510000808361837283438354839F0145E060E819
:1051100082E2F8CCEDE0F4E0808391836283438304
:105120009F0144E061E882E2EDCCEDE0F4E08083B1
:10513000618342839F0143E062E882E2E3CCEDE0D9
:10514000F4E080839183628373839F0144E063E88A
:1051500082E2D8CCEDE0F4E0808361839F0142E0FD
:1051600064E882E2CFCCEDE0F4E080836183728377
:105170009F0143E065E882E2C5CCEDE0F4E0808386
:10518000618342839F0143E068E882E2BBCCEDE0AB
:10519000F4E0808391839F0142E069E882E2B2CC2F
:1051A000EDE0F4E0808361839F0142E06AE882E2FF
:1051B000A9CCEDE0F4E080836183428323833483D0
:1051C0009F0145E06BE882E29DCCEDE0F4E0808356
:1051D00061834283238334839F0145E06CE882E24C
:1051E00091CCEDE0F4E08083918362839F0143E002
:1051F0006DE882E287CC80918D0584FF04C065E074
:105200008BE091E01BC108959DD2E89821982998E0
:105210008AEF815041F0E7E8F3E13197F1F700C000
:105220000000A895F6CF219A299AE89A0895FC01E2
:105230008081982F9076903459F58F7149F581814E
:1052400081110EC0828180933F0183818093400150
:1052500084818093410185818093420184E019C05B
:10526000823049F48FB7F894268137813093150541
:10527000209314050AC0813059F48FB7F894268121
:10528000378130931305209312058FBF8FEF01C034
:1052900080E02FE331E03093090820930808089557
:1052A000CF92DF92EF92FF920F931F93CF938C01D7
:1052B000462F8091020184FF37C0809114059091A0
:1052C0001505892B89F12091D7053091D805C901A1
:1052D00068EE73E035D6CB01EAE0F0E0BF0130D6EE
:1052E000805DD8018C93C90164E670E029D6CB01BA
:1052F000BF0126D6805DD80111968C93C901BF01EC
:105300001FD6C82FCB01BF011BD6805DF801828359
:105310002F5F3F4F3093D8052093D705C05DC383DF
:105320008AE38483C5E001C0C0E0CC2ED12C642F79
:1053300070E040911405509115056417750708F445
:10534000AB017A01EC18FD081E141F04ECF480E098
:105350002CD88823E1F341E04E0DB8016C0D7D1D82
:1053600080E0D7D8182F80E031D8C10ED11C8091B1
:105370001405909115058C199D099093150580933E
:1053800014058C2F810F01C08C2FCF911F910F918D
:10539000FF90EF90DF90CF9008951F93CF93DF930E
:1053A000D62F462F50E02091120530911305421759
:1053B0005307C0F4241B350B3093130520931205BB
:1053C0001FB7F894C09111052C2F30E0BC01C90122
:1053D000895B9E4F0E944834CD0FC09311051FBFBB
:1053E00080E028C0232BA9F01FB7F894C0911205C4
:1053F00050911305D09111052D2F30E04C2FBC0199
:10540000C901895B9E4F0E944834CD0FC09311059E
:105410001FBF2091110547E451E060E081E029D9E8
:105420008FB7F8941092130510921205109211057F
:105430008FBF81E0DF91CF911F910895CF9320918D
:105440008D052E31F9F020918D0524FF0BC0309190
:105450008E0528E8232720938E05FC01AFE8B5E0F0
:10546000862F04C02AE520938D05F7CF91919D9357
:105470008150E1F7C62F8FE895E00E940E07CC5FC0
:10548000C0938D05CF910895CF93DF9360910A0863
:10549000635067FDDFC080910708CCE0D0E0C81BF7
:1054A000D109C25FD74F809106088D3209F0C1C083
:1054B000683009F0CDC083EC8093FA078AE58093C9
:1054C00011011092D9052881822F807631F0CE010A
:1054D000AEDE8F3F09F49CC0A2C09A813C8110923D
:1054E00003088981811113C02F71223051F43138A2
:1054F00041F490918D0581E09E3109F080E0809328
:1055000003081092040823E038E082E07CC0282FD2
:105510002D7F213081F4911173C0313809F070C0B2
:10552000813011F08EE101C08AE580938D058BE416
:1055300080938E0565C0853019F490930B0860C088
:10554000863009F044C08B81813041F48AEE9CE0C2
:10555000909309088093080882E135C0823041F4B5
:1055600081ED9CE0909309088093080889E12BC0A5
:10557000833041F5911108C084E49DE090930908BF
:105580008093080884E01FC0913041F486E39DE0D9
:1055900090930908809308088EE015C0923041F47A
:1055A0008CE09DE090930908809308088AE20BC084
:1055B000933041F48CEF9CE09093090880930808A5
:1055C00080E101C080E090E49093D90528C0883044
:1055D00081F0893019F490930D0807C08A3061F08A
:1055E0008B3071F48BE480938E058AE580938D0572
:1055F00007C02DE038E002C023E038E081E003C0BE
:1056000023E038E080E0309309082093080807C0C1
:10561000988197FD8E8190E89093D90507C09F816E
:10562000911104C09E81981708F4892F809310016E
:105630000FC08091D90587FF0BC0CE01AEDE8F3F32
:1056400021F48EE18093110103C0811110921001A9
:1056500010920A088091110184FF5CC080911001B2
:105660008F3F09F457C0C82F893008F0C8E08C1B61
:10567000809310019091FA0788E889278093FA07B0
:10568000CC2309F455C02091D90527FF08C06C2F01
:105690008BEF97E005DEC82F8930B0F529C08091E7
:1056A00008089091090826FF12C0AAEFB7E02C2F36
:1056B000AC014A5F5740FA01EA0FFB1FE4911196D3
:1056C000EC931197215011962111F5CF08C0EBEF03
:1056D000F7E0DC012C2F3D9131932150E1F7019649
:1056E0002FEF2C0F820F911D9093090880930808CB
:1056F0006C2F8BEF97E00E940E07CC5FCC3041F00F
:105700008FEF8093100104C08FEF80931001CEE1E2
:10571000C093110184E196B19C7089F48150D9F74E
:1057200010920B08109205088AE580938D0507C03A
:1057300060E08BEF97E00E940E07C4E0E1CFDF91BD
:10574000CF910895E9E6F0E0808183608083E89A54
:10575000EDE8F5E08BE481838AE58083089520FD00
:1057600009C0FC0123FD05C022FF02C073836283D0
:1057700051834083089544FD17C046FD17C0AB0117
:10578000BC01DA01FB01AA0FBB1FEE1FFF1F109423
:10579000D1F74A0F5B1F6E1F7F1FCB01BA01660F47
:1057A000771F881F991F09C033E001C034E0660FDE
:1057B000771F881F991F3150D1F7620F711D811D0E
:1057C000911D08950F931F93CF93DF938C01C80110
:1057D0000E945F34EC0197FD08C00E942034892BA1
:1057E000B1F7B801CE010E94FF34CE01DF91CF9115
:1057F0001F910F910895A0E0B0E0E0E0FCE21BC42F
:105800007C018B016A01D22F0E945F349C013327F7
:105810002B32310521F02D32310559F4D068015079
:10582000110911F480E068C0C7010E945F3497FD40
:10583000F9CFCD2FCD7F2D2F207319F5803309F5AA
:10584000580181E0A81AB10809F443C0C7010E94B9
:105850005F3497FD3EC09C012F7D332728353105ED
:1058600051F4C26402501109A1F1C7010E945F34D2
:1058700097FF07C02EC0D6FF02C0C26001C0C26140
:105880008501812C912C540120ED280F283080F0C7
:10589000C4FF04C0B7010E94FF3418C02A3040F092
:1058A000C6FFF8CF2F7D3FEE320F363098F72750E6
:1058B0004C2FC501B4015FDF4B015C01C260015098
:1058C000110951F0C701FBD797FFDECFC1FD04C01E
:1058D000A9CF812C912C5401C7FF08C0B094A0948B
:1058E00090948094811C911CA11CB11C2C2FB5019B
:1058F000A401C60134DF81E0CDB7DEB7ECE0B7C369
:10590000A0E2B0E0E5E8FCE292C35C014B017A0161
:105910008E010F5F1F4F680180E2F80111928A9596
:10592000E9F7F501538040E050E0612C90E0712CE4
:10593000A1E0B0E0F90153FC859153FE81918F0104
:10594000482E9F01811103C080E090E094C08E3505
:1059500019F44115510551F1672D70E06417750771
:105960003CF48D3561F18D3219F4992311F103C0A6
:10597000992309F46BC0842D869586958695F6014A
:10598000E80FF11D842D87708D0102C0000F111FDB
:105990008A95E2F7C8019081892B8083641459F0BD
:1059A000461410F44394E7CF4A94E5CF77247394D8
:1059B00003C091E001C090E04F5F5F4FBBCF9923E0
:1059C00019F08E8180628E83711003C077247394E6
:1059D00019C0F6019E012F5D3F4F80818095819314
:1059E0002E173F07D1F7F2CFE114F10431F0F701A0
:1059F0008083B7016F5F7F4F7B0171E0871A910849
:105A0000712CE9F0C5015BD797FD17C0FC01FF279A
:105A100023E0F595E7952A95E1F7EC0DFD1D208132
:105A200030E0AC014770552702C0359527954A955F
:105A3000E2F720FDD9CFB501E2D7711085CFE1148F
:105A4000F10411F0F7011082C80115C0682F6695A6
:105A500066956695F601E60FF11D682F67708D015A
:105A600002C0000F111F6A95E2F7B8017081672B21
:105A70006083682EA1CFA096E0E1F5C22F923F92FD
:105A80004F925F926F927F929F92AF92BF92CF920E
:105A9000DF92EF92FF920F931F93CF93DF936C01EE
:105AA0008B011A010CD7EC0199278B32910529F053
:105AB0008D9779F430E8932E01C0912C0150110993
:105AC00011F480E0FEC0C601FAD6EC0197FF02C0D7
:105AD000F8CF912CCE01BCD68936910531F08E36A7
