S02300004446344941485F31304D487A5F5265666572656E63655F4170706C2E73726563C8
S11300000C944C070C9494070C9469070C9469079E
S11300100C9469070C9469070C94870A0C9469077B
S11300200C9469070C9469070C94B3090C94740933
S11300300C9469070C9469070C9469070C9469077C
S11300400C94300A0C9469070C9491210C9413229B
S11300500C9453220C94EC080C9469070C946907D3
S11300600C94AD230C946907AE10BA10C610D210CC
S1130070DE10EA10F61002110E111A1126113211B7
S11300803E1107634236B79BD8A71A39685618AE93
S1130090BAAB558C1D3CB7CC5763BD6DEDFD753EB9
S11300A0F6177231BF000000803F08000000BE92C6
S11300B02449123EABAAAA2ABECDCCCC4C3E0000A9
S11300C00080BEABAAAAAA3E00000000BF00000048
S11300D0803F0000000000084178D3BB4387D11360
S11300E03D190E3CC3BD4282AD2B3E68EC8276BE08
S11300F0D98FE1A93E4C80EFFFBE01C4FF7F3F00D2
S1130100000000006E616E00696E660000407A10A7
S1130110F35A00A0724E18090010A5D4E80000E8B4
S11301207648170000E40B54020000CA9A3B000012
S113013000E1F505000080969800000040420F00A1
S11301400000A08601000000102700000000E80362
S1130150000000006400000000000A00000000002D
S11301600100000000002C76D888DC674F0823DFEC
S1130170C1DFAE59E1B1B796E5E3E453C63AE651BF
S1130180997696E8E6C28426EB898C9B62ED407CE6
S11301906FFCEFBC9C9F40F2BAA56FA5F490055A82
S11301A02AF75C936B6CF9676DC11BFCE0E40D47A7
S11301B0FEF520E6B500D0ED902E030094357705CA
S11301C00080841E080000204E0A000000C80C3382
S11301D03333330F986E12831141EF8D2114893B11
S11301E0E65516CFFEE6DB18D1844B381BF77C1D91
S11301F0901DA4BBE424203284725E228100C9F1E4
S113020024ECA1E53D2724474C4753562C252A646A
S11302102C312C25642C002447504753562C252A76
S1130220642C312C25642C00244750524D432C253A
S11302306C642E25642C252A632C25662C25632CBE
S113024025662C25632C252A662C252A662C256CEC
S1130250642C2C2C252A632A25640025662C25660B
S11302602C25662A2564002447504753412C252A0F
S1130270632C25642C002447504747412C256C648B
S11302802E25642C25662C25632C25662C25632CB1
S113029025642C25642C25662C25662C252A632CA4
S11302A0252A662C252A632C252A642C252A642ACF
S11302B0256400436F6D6D756E69636174696F6E5B
S11302C020626175642072617465207365742074A2
S11302D06F2025357520626175642E0A004446340A
S11302E04941482C25732C253035752C5632302540
S11302F0303375253033752E0023534330323A2082
S1130300733D3078253032782C64533D25752C6943
S1130310503D25752C65533D25752C61413D257552
S11303202C6141563D25752C64413D25752C644155
S1130330563D25750A0023534330313A20537461E6
S1130340636B2D436865636B3A206D756E672D771B
S1130350616C6C20616464726573733A2030782533
S11303603034782C206C6F776573742D73746163EB
S11303706B3A203078253034780A002563253037ED
S11303802E336620256325352E33665620002563DB
S11303902531752025632531752025332E316620BE
S11303A025632530327525632530327520002530CC
S11303B03475253032752530327520552530327527
S11303C02530327525303275200062202D2D2D2EDA
S11303D02D2D2D2025632531582025632530327598
S11303E020002563252030382E33662025632531EF
S11303F05820256325303275200031304D487A521B
S113040065664F73632056327831002B3D3D3D20A5
S1130410444634494148203D3D3D2B002349413168
S1130420323A205048415345206661737450776DC9
S113043053696E676C65446966665F73746570734F
S1130440203D20252B30332E33660A0023494131C9
S1130450313A2050484153452070686173654572B4
S11304607220203D202530332E3366C2B02C200963
S11304702070686173655374657073467265717535
S1130480656E6379203D20252B30332E33662C2076
S1130490097068617365537465707350686173653E
S11304A0203D20252B30332E33660A00234941306A
S11304B0333A205152472020206E657750776D568D
S11304C0616C203D202530332E33662C2009707753
S11304D06D436F7253746570732020202020202098
S11304E020203D20252B30332E33660A002349413A
S11304F030323A20436C6F636B206C6F63616C4DD8
S113050065616E466C6F6174436C6F636B446966BE
S113051066203D20252B30332E3366487A20403226
S1130520304D487A2C20097172674465765F487AA9
S1130530203D20252B30332E3366487A204031303D
S11305404D487A2C200970706D203D20252B3032C7
S11305502E36660A0023494130313A20436C6F63DA
S11305606B20696E7432304D487A436C6F636B4410
S1130570696666202020202020203D202020252B75
S113058030346C69487A204032304D487A0A00236E
S1130590494430323A202B2F2D204B455920096DE8
S11305A061696E50776D5465726D696E616C4164FA
S11305B06A203D2025662C20096C6F63616C4661BE
S11305C0737450776D56616C4E657874203D2025A8
S11305D0303375202B206C6F63616C4661737450EB
S11305E0776D537562436D704E657874203D202598
S11305F03033750A0023494430313A202B2F2D2003
S11306004B455920096D61696E50776D5465726D63
S1130610696E616C41646A203D2025662C20097056
S1130620756C6C50776D56616C4265666F726520AF
S11306302020203D2025303375202B2066617374E3
S113064050776D537562436D704265666F726520B5
S11306502020203D20253033750A002354413134B5
S11306603A206D61696E526566436C6B53746174B4
S113067065203D2030782531580A00235441313318
S11306803A2050574D203D20253033752C200953F6
S113069075622D50574D203D20253033750A0023B7
S11306A0544131323A207070735374616D704374E5
S11306B072316D7320203D202530396C752C200952
S11306C07070735374616D70494352312020203D22
S11306D020253035752C20097070735374616D704A
S11306E0437472316D735F6C61737420203D2025F7
S11306F030396C752C20097070735374616D7049B6
S11307004352315F6C6173742020203D20253035C5
S1130710750A0023544131313A206C6F63616C4691
S1130720617374437472316D73203D202530396CCC
S1130730752C20096C6F63616C4661737454434E6D
S11307405431203D20253035750A0023544130337F
S11307503A2054656D70203D2025303475202825BD
S1130760302E316643290A0023544130323A204165
S1130770444331203D2025303475202825302E3344
S11307806656290A0023544130313A20414443300B
S1130790203D2025303475202825302E33665629F7
S11307A00A0023475030353A204C6174203D2025FF
S11307B063202530392E34662C204C6F6E203D206A
S11307C0256320253031302E34662C204865696736
S11307D06874203D20252E3166206D0A0023475081
S11307E030343A2050444F50203D20252E32662C80
S11307F02048444F50203D20252E32662C2056445C
S11308004F50203D20252E32662C0A0023475030BD
S1130810333A205361747355736564203D20253049
S113082032642C2053617473457068696D5F47703E
S11308307347616C696C656F517A7373203D202531
S11308403032642C2053617473457068696D5F475E
S11308506C6F6E617373203D20253032640A00236F
S1130860475030323A204D6F646532203D202531A7
S1130870642C20506F73466978496E64203D2025AE
S113088031640A0023475030313A204461746520B2
S11308903D202530386C642C2054696D65203D2042
S11308A02530366C642E253033640A000A23475001
S11308B030303A203D3D3D3D3D3D3D0024504D54BA
S11308C04B3335332C312C312A33370D0A00245065
S11308D04D544B3335332C312C302A33360D0A002A
S11308E024504D544B3335332C302C302A33370DB0
S11308F00A0024504D544B3136312C302A32380DF5
S11309000A0024504D544B3130322A33310D0A0041
S11309100A3D3D3D20444634494148202D20313094
S1130920204D487A205265666572656E6365204F76
S11309307363696C6C61746F72203D3D3D0A3D3D8B
S11309403D205665723A20323025303364253033E9
S113095064000A2A3F2A2020756E6B6E6F776E2022
S1130960636F6D6D616E6420272573272072656344
S113097065697665642C207472792048454C502E44
S11309800A3E000A3D3D3D3D3D3D3D3D3D3D3D0A68
S11309903E000A2B2F2D203C50574D2076616C755C
S11309A0653E0909636F7272656374696F6E2076C0
S11309B0616C756520746F20626520616464656490
S11309C02E000A575249544550574D09090973746A
S11309D06F72652063757272656E742050574D2076
S11309E061732064656661756C742076616C7565ED
S11309F02E0A575249544554454D50203C54454DB8
S1130A00502076616C75653E0909777269746520BA
S1130A1063757272656E742074656D70657261744D
S1130A207572652061732064656661756C742076E7
S1130A30616C75652E000A544553540909090974FB
S1130A406F67676C657320636F756E74657220746D
S1130A506573742E000A535441434B090909097400
S1130A606F67676C657320737461636B206D756E5B
S1130A70672D77616C6C20746573742E000A53457E
S1130A80524F4646090909097377697463682073EC
S1130A90657269616C20636F6D6D756E69636174F5
S1130AA0696F6E204F46462E0A5345524F4E090930
S1130AB009097377697463682073657269616C20CE
S1130AC0636F6D6D756E69636174696F6E204F4EEF
S1130AD02E000A53455242415544203C62617564DC
S1130AE03E09090973657474696E672073657269D8
S1130AF0616C206261756420726174652E000A4C19
S1130B0045444F46460909090973776974636820A7
S1130B106261636B6C69676874204F46462E0A4CA9
S1130B2045444F4E09090909737769746368206263
S1130B3061636B6C69676874204F4E2E000A494EDE
S1130B40464F09090909746F67676C65732061640E
S1130B50646974696F6E616C207072696E74656427
S1130B6020696E666F732E000A48454C50090909C6
S1130B700974686973206D6573736167652E000A73
S1130B8048414C5409090909706F776572732074E0
S1130B9068652064657669636520646F776E2028D4
S1130BA0736C656570206D6F6465292E000A415071
S1130BB0434F4646090909097377697463682041FC
S1130BC0504320286175746F6D6174696320706887
S1130BD061736520636F6E74726F6C29206F666633
S1130BE02E0A4150434F4E0909090973776974630A
S1130BF0682041504320286175746F6D6174696386
S1130C0020706861736520636F6E74726F6C292045
S1130C106F6E2E000A4146434F464609090909737F
S1130C2077697463682041464320286175746F6D49
S1130C3061746963206672657175656E637920639A
S1130C406F6E74726F6C29206F66662E0A4146437C
S1130C504F4E090909097377697463682041464353
S1130C6020286175746F6D617469632066726571A3
S1130C7075656E637920636F6E74726F6C29206F73
S1130C806E2E000A3D3D3D2048454C50203D3D3DE3
S1130C900A0A24203C4E4D45412D4D65737361670E
S1130CA0653E090973656E6473206D6573736167CE
S1130CB06520746F2074686520475053206D6F64FD
S1130CC0756C652E002A49444E3F005752495445DD
S1130CD054454D5000575249544550574D005445C2
S1130CE0535400535441434B005345524F4E005309
S1130CF045524F46460053455242415544004C45E7
S1130D00444F4E004C45444F464600494E464F0022
S1130D1048454C500048414C54004150434F4E000C
S1130D204150434F4646004146434F4E00414643DF
S1130D304F4646004446344941482031304D687A94
S1130D402D5265663FAB000001FFFFFFFFFFFFFF71
S1130D5000000CB0A52C8F4048E18A3F0000AD4351
S1130D6000A0873FFFFFFFFFFFFFFFFFFFFFFFFF25
S1130D7000001CB0CDCC94C05C8FC23F508D173D99
S1130D80FFFFFFFFFFFF713D8A3F333313409B009A
S1130D9000002CB08025080100000000FFFFFFFFC9
S1130DA0FFFFFFFFFFFFFFFFFFFFFFFFFFFFFFFF4F
S1130DB000003CB000000000FFFFFFFFFFFFFFFF4B
S1130DC0FFFFFFFFFFFFFFFFFFFFFFFFFFFFFFFF2F
S1130DD000004CB0090219000101008069090400F7
S1130DE00001FF0000000705810308000A1201103A
S1130DF001FF000008C016DC050001010203011018
S1130E0003500072006F0074006F002D0031002A3F
S1130E10034400460034004900410048002D0031DD
S1130E200030004D0048007A002D00520065006635
S1130E30002D004F00730063000E0344004600348D
S1130E4000490041004800040309046364696E6FAB
S1130E5070737578585B65666745464700616E0038
S1130E606E66696E69747900CDCCCC3D0AD7233C9B
S1130E7017B7D13877CC2B329595E6241FB14F0A9A
S1130E80000020410000C84200401C4620BCBE4C6B
S1130E90CA1B0E5AAEC59D7411241FBECFEFD8E0F5
S1130EA0DEBFCDBF11E0A0E0B1E0EAEDFFE602C095
S1130EB005900D92A431B107D9F728E0A4E1B1E07F
S1130EC001C01D92A331B207E1F70E94721C0C9479
S1130ED0EB370C940000A82FB92F8FEF9FEF1BC0A6
S1130EE02D918227282F22952827722F2695269523
S1130EF02727239526952170782F892F82272195DE
S1130F00207C922F222776952795972782277695FE
S1130F10279597278227615018F780959095089513
S1130F20DADF8D939D930895CF93CFB7CF93DF935B
S1130F30C395339BE9F7339B11C0339B0FC0339B9D
S1130F400DC0339B0BC0339B09C0339B07C0339B3D
S1130F5005C0339B03C0339B01C083C06F93C09112
S1130F60F607DD27C350D84F2F9320E400C065E077
S1130F70339B03C02F916F91DECF0F931F934F9339
S1130F8045E55F9355E53F933BE014E006B10C70F3
S1130F902EC06A95C9F03150D8F106B10C70011316
S1130FA00BC008942795299320E4555500F46A95BD
S1130FB069F701E066B10BC0102F66E0269529930E
S1130FC020E4555518F3E2CF0FEF66B10000162F59
S1130FD0455500F0404066E01C700030E2F221F01C
S1130FE0000006B10C7003C006B10C70A9F0011327
S1130FF009C00894279568F200C06A95A9F700E033
S113100066B1E5CF102F66E0269528F20000ECCFFC
S113101011E01CBB002719C03B503195C31BD040C5
S113102011E01CBB0881033C09F10B34F9F0209159
S1131030F4071981110F1213EDCF4A81441F0936A9
S113104051F10D3211F0013E29F70093FB073F9156
S11310505F914F911F910F912F916F91CCB3C0FD70
S113106067CFDF91CF91CFBFCF9118952091FB0728
S1131070222369F31091F907112381F5343082F1A9
S11310803093F9072093F5071091F6073BE0311BE5
S11310903093F60725C00091F9070130FCF40AE506
S11310A04F7049F430910D0134FD1BC000930D01C4
S11310B0C9EED7E01AC030917C0534FD12C000930C
S11310C07C05CDE7D5E011C0052710E000C008B9C4
S11310D019C0052710E0221F00C01DC04AE502C048
S11310E032ED432FC4E1D0E032E017B11C60439AE3
S11310F008B117B95CE020E869E420FF052708B9C6
S11311002795179500C000001C3FF0F66695A8F7D8
S1131110A1F720FF052708B92795179500001C3F64
S1131120C0F629913A9541F7037F1091FA07110F00
S113113008B9C651D04011F01093F40711E01CBB5C
S1131140086017B1137F402F437F55E05A95F1F79C
S113115008B917B948B97BCFE4E6F0E080818E7F07
S1131160808310921705EFE7F0E08081836080832D
S113117083E080937E00EBE7F0E080818F7B8083C7
S1131180EAE7F0E080818768808380B787E180BFE9
S113119081E18093180581E480937C0080818065DF
S11311A08083808188608083089580B78777806892
S11311B080BF87E080937A0010927B0010927C00BD
S11311C0E4E6F0E08081816080830895EAE7F0E05E
S11311D080818064808308951F920F920FB60F92CE
S11311E011242F933F934F935F936F937F938F9328
S11311F09F93AF93BF93EF93FF93809178002091D7
S11312007900789490E0922B20911805283021F1F0
S113121068F42223A1F0213019F590937A03809386
S1131220790380E18093180580E41EC0213109F11F
S1131230283171F02031A1F41092180517C0909351
S113124078038093770388E18093180588EC0CC0B9
S113125088E0809318050AC090937C0380937B03F5
S113126081E18093180581E480937C000E94E60864
S113127008C081E080931805809117058F5F8093E3
S11312801705FF91EF91BF91AF919F918F917F913E
S11312906F915F914F913F912F910F900FBE0F90DF
S11312A01F901895E4E6F0E08081877F8083109298
S11312B08500109284008EE4809389008FE18093EE
S11312C088001092800089E48093810082E28093F8
S11312D06F00089510926F0010928100E4E6F0E030
S11312E080818860808308951F920F920FB60F92B9
S11312F011242F933F938F939F93AF93BF93809128
S1131300240590912505A0912605B0912705019605
S1131310A11DB11D8093240590932505A093260556
S1131320B093270578948091000186FF11C0F8944A
S11313308DB72EB7789490E0922B209105013091CF
S113134006018217930720F4909306018093050108
S1131350BF91AF919F918F913F912F910F900FBEAD
S11313600F901F9018951F920F920FB60F92112491
S11313702F934F935F936F937F938F939F93EF93E9
S1131380FF9380918600209187004091240550911D
S1131390250560912605709127057894EAE7F0E029
S11313A0908190649083F89490E0922B90932D0513
S11313B080932C05409328055093290560932A05B2
S11313C070932B057894FF91EF919F918F917F916A
S11313D06F915F914F912F910F900FBE0F901F90BF
S11313E01895809164008F7D8093640016BC8AE513
S11313F088BD83E284BD81E085BD559A82E00E9468
S1131400381E8823C9F04AE550E061E08FE295E098
S11314100E94151E4BE550E061E08EE295E00E94CB
S1131420151E8FB7F89490912F05909323059091F2
S11314302E05909322058FBFA89A80916E0081603B
S113144080936E00089510926E00559815BC14BCDC
S113145018BC16BCE4E6F0E08081806280830895C5
S11314601F920F920FB60F9211248F939F9378942B
S113147080912105882361F0F8948091200588BD2E
S113148080911F0580931E0578941092210509C050
S1131490F8948091230588BD8091220580931E05D0
S11314A07894F89490911D0580911E05981718F46E
S11314B088B58F5F88BD789480911D058F5F809378
S11314C01D059F918F910F900FBE0F901F9018953F
S11314D0EF92FF921F93CF93DF9300D0CDB7DEB787
S11314E0182F7B010E94E71D9A838983A70162E07C
S11314F0CE0101960E94701E812F0E94A21E0F90A1
S11315000F90DF91CF911F91FF90EF900895189560
S11315104F925F926F927F928F929F92AF92BF92FF
S1131520CF92DF92EF92FF920F931F93CF93DF93AB
S11315304B015C016A017901FA01608170E080E08D
S113154090E00E945A322B013C01F701608170E067
S113155080E090E00E945A3220E030E040E85BE313
S11315600E9467339B01AC01C301B2010E94463162
S1131570A50194010E9446318B01D82FC92F20E088
S113158030E0A9010E94B23187FD1CC020E03FEF8A
S11315904EE753E4B8018D2F9C2F0E946233181636
S11315A0B4F420E03FEF4EE753E4B8018D2F9C2FB5
S11315B00E9445318B01D82FC92FB0E0AFEFFEE771
S11315C0E3E40CC0B0E0A0E0F0E0E0E007C0B02F3E
S11315D0A12FFE0100E010E0D0E0C0E020E030E008
S11315E040E05BE36B2F7A2F8F2F9E2F0E944631B2
S11315F04B015C010E942932F6016083C501B401EC
S11316000E9495329B01AC01C501B4010E94453191
S113161020E030E040E853E40E9467330E9429321E
S1131620F7016083B8018D2F9C2FDF91CF911F911B
S11316300F91FF90EF90DF90CF90BF90AF909F906D
S11316408F907F906F905F904F9008951F93CF93EA
S1131650DF9300D0CDB7DEB78FB7F8941091210592
S11316608FBF20E030E0A9016091190570911A053F
S113167080911B0590911C050E94B231882379F159
S113168011112DC08FB7F894909123059A839091EE
S1131690220599838FBF6091190570911A05809175
S11316A01B0590911C059E012F5F3F4FAE014E5FBD
S11316B05F4F0E94880A6093190570931A058093FE
S11316C01B0590931C058FB7F8949A81909320057D
S11316D0998190931F0591E0909321058FBF0F90FE
S11316E00F90DF91CF911F9108950F931F93CF9384
S11316F0DF938C01EA019A01AB016DE773E081E0AD
S11317000E94C41DAE016DE773E0C801DF91CF9163
S11317101F910F910C9460360F931F93CF93DF9317
S11317208C01EA019A01AB016DE773E081E00E944C
S1131730C41DAE016DE773E0C801DF91CF911F9125
S11317400F910C944A36CF92DF92EF92FF92C090A1
S11317504205D0904305E0904405F09045052FEFF5
S1131760C21AD20AE20AF20AC701B60124E630E03C
S113177040E050E00E94CF306C3371058105910543
S11317804CF0C61AD70AE80AF90A84E6C80ED11C36
S1131790E11CF11CC0924205D0924305E09244053D
S11317A0F0924505C0904205D0904305E090440571
S11317B0F0904505C701B60120E137E240E050E072
S11317C00E94CF30683427E172078105910594F0B7
S11317D0C61AD70AE80AF90A80E1C80E87E2D81EB9
S11317E0E11CF11CC0924205D0924305E0924405ED
S11317F0F0924505FF90EF90DF90CF9008958F927F
S11318009F92AF92BF92CF92DF92EF92FF920F938B
S11318101F93CF93DF932DE330E046E752E06DE76B
S113182073E081E00E94C41D80E395E09F938F9351
S113183082E395E09F938F938EE495E09F938F933B
S113184086E595E09F938F938CE595E09F938F9326
S113185086E395E09F938F9387E395E09F938F931F
S11318608BE395E09F938F938CE395E09F938F9305
S113187080E495E09F938F9382E495E09F938F9308
S11318800DE713E01F930F93CFEFD1E0DF93CF93D6
S11318900E9442372FE030E047E652E0B80181E091
S11318A00E94C41D8EE595E09F938F931F930F9321
S11318B0DF93CF930E9442372DB73EB7205E3F4F50
S11318C00FB6F8943EBF0FBE2DBF181619060CF0C4
S11318D04FC00E94A30BC0910A05D0E0219731F0BC
S11318E0FE01E150FE4F80818A32C1F7CE0120E033
S11318F030E01816190684F4FC01E150FE4F4081D3
S11319004C3241F42F5F3F4F2330310519F4EC0181
S1131910219602C00197EDCF2CE030E04BE552E078
S11319206DE773E081E00E94C41D80E395E09F931E
S11319308F938AE495E09F938F938EE495E09F9331
S11319408F9382E595E09F938F938DE793E09F9328
S11319508F93C150DE4FDF93CF930E9442372DB750
S11319603EB7245F3F4F0FB6F8943EBF0FBE2DBF66
S113197023E330E048E252E06DE773E081E00E9447
S1131980C41D80E395E09F938F9386E495E09F9335
S11319908F9386E395E09F938F9387E395E09F93DE
S11319A08F938BE395E09F938F938CE395E09F93C4
S11319B08F9380E495E09F938F9382E495E09F93C7
S11319C08F938DE793E09F938F938FEF91E09F9395
S11319D08F930E9442372DB73EB72C5E3F4F0FB610
S11319E0F8943EBF0FBE2DBF181619060CF044C064
S11319F00E94A30BC0904605D0904705E09048058F
S1131A00F0904905D701C60180549041A109B1095C
S1131A10833C9F4AA440B10538F5C701B60124E6CA
S1131A2030E040E050E00E94CF304B015C01A70160
S1131A309601261B370B480B590BA4E6B0E00E9415
S1131A40F430DC01CB018053984FAF4FBF4F880E69
S1131A50991EAA1EBB1E8092460590924705A0922D
S1131A604805B092490508C01092460510924705F2
S1131A70109248051092490521E130E047E152E017
S1131A806DE773E081E00E94C41D8AE595E09F93B1
S1131A908F930DE713E01F930F93CFEFD1E0DF9304
S1131AA0CF930E94423721E130E046E052E0B80192
S1131AB081E00E94C41D88E595E09F938F931F9356
S1131AC00F93DF93CF930E9442378DB79EB70C9646
S1131AD00FB6F8949EBF0FBE8DBFDF91CF911F91BB
S1131AE00F91FF90EF90DF90CF90BF90AF909F90B9
S1131AF08F90089525E040E15DE061E081E00C9481
S1131B006C202F923F924F925F926F927F928F92AE
S1131B109F92AF92BF92CF92DF92EF92FF920F9378
S1131B201F93CF93DF93CDB7DEB764970FB6F894C6
S1131B30DEBF0FBECDBFA8950E94BF270E946726B7
S1131B4081E00E94E61E882309F4A4C381E00E9478
S1131B502520182F80E00E942520909101019F707C
S1131B6009F0E2C210FFE0C214FF04C081E00E9449
S1131B704A2190C3107F11F00C94541C4FE76DE779
S1131B8074E081E00E949D1F81E00E94F71E46E000
S1131B9050E065EC7CE08DE794E00E94750B892BA6
S1131BA041F52CE130E04DED52E06DE773E081E06A
S1131BB00E94C41D8091B1059091B2059C01332708
S1131BC03F932F931F929F938091B4058F9380919D
S1131BD0B3058F9385EB95E09F938F938DE793E007
S1131BE09F938F938DEF93E09F938F930E941F3762
S1131BF08EC247E050E06DE27DE08DE794E00E9404
S1131C00750B892B21F4809100018E7F0DC046E075
S1131C1050E067E27DE08DE794E00E94750B892B2C
S1131C2031F48091000181608093000133C347E067
S1131C3050E060E27DE08DE794E00E94750B892B13
S1131C4021F4809100018D7FEFCF46E050E06AE1FE
S1131C507DE08DE794E00E94750B892B21F480913F
S1131C6000018260E1CF45E050E065E17DE08DE771
S1131C7094E00E94750B892B99F5809100018B7F6C
S1131C8080930001809100018F7E809300018091F8
S1131C90000188608093000140E162EF78E081E018
S1131CA00E9436210E942F21882321F0A8950E94AA
S1131CB0BF27F8CF1AEF115051F0A8950E94BF2703
S1131CC087E893E10197F1F700C00000F4CF809119
S1131CD00001877F80930001809100018062A4CF7E
S1131CE045E050E060E17DE08DE794E00E94750BF3
S1131CF0892BB9F522E430E040E159E06DE773E067
S1131D0081E00E94C41D81E08F938FE38F931F9223
S1131D108AEA8F938DE793E09F938F931F928FE7C7
S1131D208F938DEF93E09F938F930E94EF36282F2C
S1131D304DEF53E060E080E00E946C2022E443E831
S1131D405CE061E080E00E946C2080910101807F72
S1131D50816080930101809100018F7E8093000156
S1131D60DDC145E050E06BE07DE08DE794E00E944A
S1131D70750B892BA9F48091000182FB992790F9B6
S1131D8081E089279091000180FB92F990930001F2
S1131D908091000182FF7EC280910001877F4CC048
S1131DA047E050E064E07DE08DE794E00E94750B2D
S1131DB0892B29F41982809101018F7810C046E0A3
S1131DC050E06EEF7CE08DE794E00E94750B892B68
S1131DD099F481E08983809101018F7880618093F7
S1131DE0010144E150E061E0CE0101960E94701EC1
S1131DF06EE170E080E033C147E050E06FEE7CE0DC
S1131E008DE794E00E94750B892B21F480910001E9
S1131E10877F0ACF46E050E069EE7CE08DE794E0EE
S1131E200E94750B892B71F4809100018860809366
S1131E300001809100018B7F80930001809100015B
S1131E408F7EF2CE47E050E066EF7CE08DE794E0D1
S1131E500E948C0B892BD1F58FE095E09F938F9393
S1131E608EE091E09F938F9384E894E09F938F9307
S1131E700E94423780910F05909110050E94C22064
S1131E8040E650E062E08FE095E00E94701E6EE74D
S1131E9070E083E00E94680A2AE230E043EB52E0FB
S1131EA06DE773E081E00E94C41D809110058F935B
S1131EB080910F058F938DE793E09F938F938DEF20
S1131EC093E09F938F930E941F3721C146E050E017
S1131ED063EE7CE08DE794E00E94750B892B71F42E
S1131EE08091000186FB992790F981E089279091E0
S1131EF0000180FB96F990930001CCC145E050E0CD
S1131F006EED7CE08DE794E00E94750B892BD1F493
S1131F108091000184FB992790F981E089279091B1
S1131F20000180FB94F9909300018091000184FFEB
S1131F30B1C180910001877F8093000180910001ED
S1131F408B7F72CE49E050E065ED7CE08DE794E054
S1131F500E94750B892BE9F48FB7F89490912305AF
S1131F6090932F059091220590932E058FBF4AE5FB
S1131F7050E061E08FE295E00E94701E4BE550E076
S1131F8061E08EE295E00E94701E6EE570E082E0F2
S1131F9066C049E050E06BEC7CE08DE794E00E9481
S1131FA08C0B892B09F05EC019821A821B821C8259
S1131FB0CE0101969F938F9381E191E09F938F933C
S1131FC086E894E09F938F930E944237C980DA8019
S1131FD0EB80FC800F900F900F900F900F900F905C
S1131FE020E030E0A901C701B6010E94B231882384
S1131FF009F450C180917B0390917C03BC0180E083
S113200090E00E9458324B015C0120E030E048EC43
S113201051E4C701B6010E9445312091A1053091D8
S1132020A2054091A3055091A4050E94B7319B01DC
S1132030AC01C501B4010E9445316093A5057093BC
S1132040A6058093A7059093A80548E250E064E0B4
S113205085EA95E00E94701E6EE370E081E00E94C4
S1132060680A18C10DE714E080917D048B3279F47D
S113207088E895E09F938F9381E191E09F938F93FC
S11320808EE794E09F938F930E94423721C08D3254
S113209031F588E895E09F938F9381E191E09F93D8
S11320A08F938EE794E09F938F930E9442378091A1
S11320B0880590918905A0918A05B0918B05B05847
S11320C08093880590938905A0938A05B0938B0526
S11320D00F900F900F900F900F900F90DBC021E3A3
S11320E030E042E559E06DE773E081E00E94C41DF1
S11320F01F930F938DE793E09F938F931F928FE726
S11321008F938DEF93E09F938F930E94EF36282F48
S11321104DEF53E060E080E00E946C200FB6F8942D
S1132120DEBF0FBECDBFB6C0909101019F7011F408
S11321300C94541C80FF02C00C94541C81E00E9437
S1132140F71EE0910101EF70F0E03197ED30F105F9
S113215008F09BC0EC5CFF4F0C94EE302FE644E19A
S11321605CE061E080E00E946C2080910101807F4E
S113217082608EC027E64DEA5BE061E080E00E9469
S11321806C2080910101807F836082C02EE24FE742
S11321905BE061E080E00E946C2080910101807F1F
S11321A0846076C027E148E65BE061E080E00E945D
S11321B06C2080910101807F85606AC02BE24DE331
S11321C05BE061E080E00E946C2080910101807FEF
S11321D086605EC02FE34EEF5AE061E080E00E942B
S11321E06C2080910101807F876052C02CE242ED17
S11321F05AE061E080E00E946C2080910101807FC0
S1132200886046C025E54DE75AE061E080E00E9421
S11322106C2080910101807F89603AC028E245E505
S11322205AE061E080E00E946C2080910101807F8F
S11322308A602EC02FE146E35AE061E080E00E940C
S11322406C2080910101807F8B6022C024E742ECE6
S113225059E061E080E00E946C2080910101807F60
S11322608C6016C020E342E959E061E080E00E94FE
S11322706C2080910101807F8D600AC02FE043E8CB
S113228059E061E080E00E946C2080910101807F30
S1132290809301019FB7F89480908400909085000A
S11322A0C0902405D0902505E0902605F0902705E0
S11322B0809186002091870040912805509129053E
S11322C060912A0570912B059FBF9091170530915D
S11322D02801391769F19093280110922701409041
S11322E078055090790560907A0570907B0540924E
S11322F07205509273056092740570927505E091B1
S11323007605F0917705F0937105E09370056627E3
S11323107727409378055093790560937A057093F5
S11323207B0590E0922B90937705809376052CC0E3
S11323308091230190912401A0912501B09126015F
S1132340C816D906EA06FB0698F1209127012F5FEB
S1132350253B08F024EB2093270120912701253009
S113236050F010928C0510926C0510926D0510922D
S11323706E0510926F0588519C4FAF4FBF4FC81622
S1132380D906EA06FB0630F0D701C6018E519B4FF1
S1132390AF4FBF4F8093230190932401A093250155
S11323A0B093260180910201882309F444C01AC025
S11323B080910705823091F40E94FF0B8091000107
S11323C083FF08C020910A054FEF51E060E080E0F0
S11323D00E946C2010920A05109207050E94260B99
S11323E00C94591C8F5F80930201853021F44EE0D8
S11323F062E079E005C08A3039F442E160EE78E0C9
S113240081E00E94362117C08B3021F442E16EEC4A
S113241078E0F6CF8C3021F442E16CEB78E0F0CF39
S1132420863449F442E16CEB78E081E00E94362185
S11324308AE0809302016091770370917803409061
S1132440AD055090AE056090AF057090B00580E08A
S113245090E00E945832A30192010E94673320E069
S113246030E040E85AE30E94673360936805709354
S1132470690580936A0590936B0560917903709167
S11324807A0380E090E00E945832A30192010E94F6
S1132490673320E030E040E85AE30E9467336093FA
S11324A06405709365058093660590936705609154
S11324B07B0370917C0380E090E00E94583220916D
S11324C0A5053091A6054091A7055091A8050E9445
S11324D045312091A1053091A2054091A305509169
S11324E0A4050E94673320E030E048EC51E40E94E8
S11324F04631609360057093610580936205909303
S113250063058091000182FF3DC221E130E04CEA85
S113251058E06DEF73E081E00E94C41D21E14DEFAE
S113252053E060E080E00E946C2028E230E044E860
S113253058E06DE773E081E00E94C41D809141057D
S11325408F93809140058F93809145058F9380915F
S113255044058F93809143058F93809142058F9317
S1132560809149058F93809148058F938091470509
S11325708F93809146058F93EDE7AE2EE3E0BE2E58
S1132580BF92AF920DEF13E01F930F930E941F377A
S1132590282FA80160E080E00E946C2025E230E052
S11325A04FE558E0B50181E00E94C41D80915D05AE
S11325B08F9380915C058F9380915F058F938091B9
S11325C05E058F93BF92AF921F930F930E941F37A4
S11325D0282FA80160E080E00E946C2023E530E011
S11325E04CE058E0B50181E00E94C41D809159057A
S11325F08F93809158058F9380915B058F93809181
S11326005A058F93809157058F93809156058F9328
S1132610BF92AF921F930F930E941F370FB6F89487
S1132620DEBF0FBECDBF282FA80160E080E00E946E
S11326306C202FE230E04DED57E0B50181E00E94BF
S1132640C41D80914D058F9380914C058F9380918B
S11326504B058F9380914A058F93809151058F93F9
S1132660809150058F9380914F058F9380914E05F3
S11326708F93809155058F93809154058F9380910A
S113268053058F93809152058F93BF92AF921F93FE
S11326900F930E941F37282FA80160E080E00E945A
S11326A06C202BE330E042EA57E0B50181E00E9460
S11326B0C41D1091320500913305B0903405A090EB
S11326C03505E0913705F0913805A0913905B091B1
S11326D03A05209136050FB6F894DEBF0FBECDBF84
S11326E0222311F030E002C02DE230E040913C059D
S11326F050913D0560913E0570913F0580913B05E9
S1132700882311F090E002C08DE290E0AF92BF9276
S11327100F931F93BF93AF93FF93EF933F932F9325
S11327207F936F935F934F939F938F937DE7A72E30
S113273073E0B72EBF92AF920DEF13E01F930F9388
S11327400E941F37282FA80160E080E00E946C20BF
S11327500FB6F894DEBF0FBECDBF80912701811163
S113276077C02DE130E045E857E0B50181E00E94F3
S1132770C41D809177039091780320916B052F936A
S113278020916A052F93209169052F932091680564
S11327902F939F938F93BF92AF921F930F930E9497
S11327A01F37282FA80160E080E00E946C202DE1F3
S11327B030E048E657E0B50181E00E94C41D8091F5
S11327C0790390917A03209167052F9320916605F0
S11327D02F93209165052F93209164052F939F9348
S11327E08F93BF92AF921F930F930E941F37282F8E
S11327F0A80160E080E00E946C202DE130E04BE411
S113280057E0B50181E00E94C41D80917B03909143
S11328107C03209163052F93209162052F932091CF
S113282061052F93209160052F939F938F93BF92FF
S1132830AF921F930F930E941F37282FA80160E0C7
S113284080E00E946C200FB6F894DEBF0FBECDBFAF
S113285028E330E043E157E06DE773E081E00E9454
S1132860C41D90E099299F938F92FF92EF92DF927B
S1132870CF926DE7E62E63E0F62EFF92EF920DEF16
S113288013E01F930F930E941F37282FA80160E0C5
S113289080E00E946C2024E730E04FE956E0B70165
S11328A081E00E94C41D809171058F938091700511
S11328B08F93809175058F93809174058F93809188
S11328C073058F93809172058F93809177058F9311
S11328D0809176058F9380917B058F9380917A0503
S11328E08F93809179058F93809178058F93FF92D0
S11328F0EF921F930F930E941F37282FA80160E0C7
S113290080E00E946C2024E230E04BE756E0B701FF
S113291081E00E94C41D809122051F928F938091B3
S113292023051F928F93FF92EF921F930F930E94A0
S11329301F370FB6F894DEBF0FBECDBF282FA801F6
S113294060E080E00E946C2020E230E04BE556E03D
S1132950B70181E00E94C41D80918C051F928F9362
S1132960FF92EF921F930F930E941F37282FA80105
S113297060E080E00E946C200F900F900F900F9009
S11329800F900F90809127018111BAC4409178056E
S11329905091790560917A0570917B05809172055B
S11329A090917305A0917405B09175059A01AB01DE
S11329B0281B390B4A0B5B0BA0E2BEE40E94F430E7
S11329C020917605309177054901A12CB12C2091F5
S11329D0700530917105821A930AA108B108860E18
S11329E0971EA81EB91E24013501BDE25B1AB1E38E
S11329F06B0AB1E07B0A80911F0190912001A091A4
S1132A002101B09122018E839F83A887B98720E09A
S1132A1030E040EA50E4BC01CD010E94B7316B01C3
S1132A207C019CE9891A9CE2990A91E3A90A91E044
S1132A30B90AA9EC8A169104A104B104E0F020E0DB
S1132A4030E040E05FE3C701B6010E9467336A8764
S1132A507E87888B998B20E030E040EA51E4C701FF
S1132A60B6010E94B7316E837F8388879987412C92
S1132A70512C320158C0D301C2014396A11DB11D8E
S1132A808797A105B10558F5C301B2010E945A32D6
S1132A90A70196010E9445319B01AC016E817F81A3
S1132AA0888599850E94463160931F0170932001A7
S1132AB0809321019093220120E030E040E05FE325
S1132AC0C701B6010E9467336A877E87888B998B1A
S1132AD020E030E040EA51E4C701B6011EC0109284
S1132AE01F01109220011092210110922201C301B2
S1132AF0B2010E945A324B015C0120E030E040E018
S1132B005FE30E9467336A877E87888B998B20E016
S1132B1030E040EA51E4C501B4010E94B7316E834C
S1132B207F83888799878091000182FF54C08091B8
S1132B30000180FD50C02AE330E045E555E06DE733
S1132B4073E081E00E94C41D7F926F925F924F9266
S1132B505DE7A52E53E0B52EBF92AF920DEF13E0C3
S1132B601F930F930E941F37282FA80160E080E075
S1132B700E946C2028E630E04DEE54E0B50181E07F
S1132B800E94C41D80916F058F9380916E058F9371
S1132B9080916D058F9380916C058F93B989BF9354
S1132BA028892F933E853F938A858F93FF92EF92D6
S1132BB0DF92CF92BF92AF921F930F930E941F3761
S1132BC0282FA80160E080E00E946C200FB6F894E2
S1132BD0DEBF0FBECDBF8091000180FFE9C18091AF
S1132BE08C05843060F42DEC3CEC4CEC5DE3C701C7
S1132BF0B6010E9446316B017C0111E001C010E076
S1132C0020E030E04AE754ECC701B6010E94623389
S1132C1018160CF0B4C120E030E04AE754E4C701D0
S1132C20B6010E94B23187FFAAC1111104C020E08D
S1132C3030E0A90104C02AE037ED43EA5BE36E818A
S1132C407F81888599850E944531962E872E382E5E
S1132C50292ED301C2010396A11DB11D0797A10519
S1132C60B105F0F420E030E040EA51E4C701B601D8
S1132C7090580E94B7312091950530919605409166
S1132C809705509198050E94B73120E030E040E26A
S1132C9051E40E94B7316F877A8B8B8B9C8B25C054
S1132CA066277727CB0164197509860997090E945D
S1132CB05A3220E030E040EA51E40E94B7312091DA
S1132CC095053091960540919705509198050E947D
S1132CD0B7312DEC3CEC4CE85FE30E94B7316F87D1
S1132CE07A8B8B8B9C8B10928C052FE832EC45E70A
S1132CF05CEBD401F1016B2F782D8F2F922D0E9464
S1132D00623387FD1AC02FE832EC45E75CE3D40157
S1132D10F1016B2F782D8F2F922D0E94B23118164E
S1132D2064F080918C05823041F480911C01811102
S1132D307AC083E080938C0576C02CEE31E548E3BD
S1132D405DEBD401F1016B2F782D8F2F922D0E9412
S1132D50623387FD18C02CEE31E548E35DE3D4010E
S1132D60F1016B2F782D8F2F922D0E94B2311816FE
S1132D7054F080918C05813031F480911C018111D3
S1132D8052C082E041C02CE53FE842EC5DEBD40147
S1132D90F1016B2F782D8F2F922D0E94623387FDC6
S1132DA012C02CE53FE842EC5DE3D401F1016B2F46
S1132DB0782D8F2F922D0E94B231181624F0809115
S1132DC08C05823080F520E030E048EC51ECD401F1
S1132DD0F1016B2F782D8F2F922D0E94623387FD86
S1132DE01DC020E030E048EC51E4D401F1016B2F28
S1132DF0782D8F2F922D0E94B23118167CF080917D
S1132E008C05823020F081E080938C0509C081110B
S1132E100AC080911C018823B1F305C010928C056F
S1132E2084E180931C018FB7F894909123059D83CE
S1132E309091220599838FBF80918C058430C8F4CA
S1132E409E012F5F3F4FAE014B5F5F4FBF85AA8945
S1132E50FB89EC896B2F7A2F8F2F9E2F0E94880A73
S1132E608FB7F8949D8190932305998190932205BF
S1132E708FBF8091000182FF82C02AE330E045E5E4
S1132E8055E06DE773E081E00E94C41D7F926F926C
S1132E905F924F924DE7A42E43E0B42EBF92AF92BF
S1132EA00DEF13E01F930F930E941F37282FA801E3
S1132EB060E080E00E946C2028E630E04DEE54E0B3
S1132EC0B50181E00E94C41D2F923F928F929F9280
S1132ED0B989BF9328892F933E853F938A858F9321
S1132EE0FF92EF92DF92CF92BF92AF921F930F9314
S1132EF00E941F37282FA80160E080E00E946C2008
S1132F0021E430E04CEA54E0B50181E00E94C41DA4
S1132F109C899F93AB89AF93BA89BF932F852F93D5
S1132F206D8170E080E090E00E945A326B017C0178
S1132F30698170E080E090E00E945A3220E030E045
S1132F4040E85BE30E9467339B01AC01C701B60113
S1132F500E9446319F938F937F936F93BF92AF925A
S1132F601F930F930E941F370FB6F894DEBF0FBE56
S1132F70CDBF282FA80160E080E00E946C208091E2
S1132F801C01815018F080931C0102C010921C0196
S1132F9080918C05843060F48E819F81A885B985E9
S1132FA080936C0590936D05A0936E05B0936F05A7
S1132FB08091000181FFA4C16091790370917A032B
S1132FC080918C05833008F446C09CEE960F9E3D9C
S1132FD050F58730B8F487E080938C05109218017F
S1132FE01092190110921A0110921B018FB7F894D4
S1132FF01092190510921A0510921B0510921C05C7
S11330008FBF05C0873019F087E080938C0580EB73
S1133010860F843700F580918C058F30E0F48FE0C3
S113302080938C0518C08730B0F081E080938C05C4
S1133030109218011092190110921A0110921B019A
S11330408FB7F8941092190510921A0510921B0567
S113305010921C058FBF772769587109072E000C41
S1133060880B990B0E945A3226E131E542E050E484
S11330700E9467336E837F838887998780918C054C
S1133080873008F445C020E030E044E352E46E8128
S11330907F81888599859F770E9467332AE939E97A
S11330A049E95FE30E94D4336B017C0120E030E006
S11330B0A9016E817F81888599850E94B23187FF3D
S11330C004C0F7FAF094F7F8F09420E030E0A90196
S11330D0C701B6010E94B2318823E9F01FB7F89402
S11330E0A70196016091190570911A0580911B053D
S11330F090911C050E9446316093190570931A053E
S113310080931B0590931C051FBF0E94260B03C0D0
S1133110C12CD12C760180918C05873008F499C09C
S11331208090180190901901A0901A01B0901B0191
S113313020E030E040E450E4C501B4010E94B7311E
S11331409B01AC01C701B6010E9445319B01AC0152
S1133150C501B4010E9446316093180170931901AE
S113316080931A0190931B0125E93FEB46ED53E34D
S11331700E9467334B015C0140901401509015018B
S1133180609016017090170120E030E040EE50E4AA
S1133190C301B2010E94B7316A877B878C879D8700
S11331A020E030E0A901C501B4010E9462332A8500
S11331B03B854C855D8587FD03C0C501B40103C013
S11331C0C501B40190580E9445319B01AC01C30173
S11331D0B2010E94463160931401709315018093EB
S11331E01601909317016091950570919605809151
S11331F09705909198059B01AC010E9446312A8560
S11332003B854C855D850E94673360936C057093A4
S11332106D0580936E0590936F051FB7F8948091A8
S113322023058D838091220589831FBF9E012F5F13
S11332303F4FAE014B5F5F4FC501B4010E94880A46
S1133240F8948D81809323058981809322051FBF83
S113325003C0812C912C54018091000182FF50C045
S113326020E630E04CE454E06DE773E081E00E9436
S1133270C41DFF92EF92DF92CF92BF92AF929F92C2
S11332808F9299859F93A885AF93BF81BF932E8119
S11332902F933DE7E32E33E0F32EFF92EF920DEFF1
S11332A013E01F930F930E941F37282FA80160E09B
S11332B080E00E946C2020E330E04CE154E0B70150
S11332C081E00E94C41D80911C058F9380911B0591
S11332D08F9380911A058F93809119058F93FF9294
S11332E0EF921F930F930E941F37282FA80160E0CD
S11332F080E00E946C200FB6F894DEBF0FBECDBFF5
S11333008091000186FF8CC0E9ECF5E080E090E05C
S113331021912A3571F087539A4F209103013091FE
S113332004018217930750F49093040180930301DE
S113333005C001968032A2E09A0751F725E430E0F7
S113334046E353E06DE773E081E00E94C41D809181
S113335006018F93809105018F93809104018F93CF
S1133360809103018F932DE7E22E23E0F22EFF924A
S1133370EF920DEF13E01F930F930E941F37282F36
S1133380A80160E080E00E946C202DE330E049EF6A
S113339052E0B70181E00E94C41D70912E0172FBBE
S11333A0772770F960912E0163FB662760F95091CD
S11333B02E01517040912E014695417030912D019E
S11333C035FB332730F920912D01269521709091FA
S11333D02D01917080912D018695869587701F929D
S11333E07F931F926F931F925F931F924F931F922D
S11333F03F931F922F931F929F931F928F93FF923D
S1133400EF921F930F930E941F37282FA80160E0AB
S113341080E00E946C200FB6F894DEBF0FBECDBFD3
S11334208091000187FFB0C12FB7F89480912405E3
S113343090912505A0912605B09127052FBF8938C5
S11334409341A105B10528F521E130E04BE054E0BA
S11334506DE773E081E00E94C41D60E080E00E949B
S1133460EF2560E18DE793E00E941D2621E130E025
S11334704AEF53E06DE773E081E00E94C41D60E011
S113348081E00E94EF2560E18DE793E00E941D2614
S11334907BC180918C0528E130E08823B9F142EEAC
S11334A053E06DE773E081E00E94C41D80915705ED
S11334B08F93809156058F931F9283EF8F93809102
S11334C08C051F928F931F9280EE8F9320E030E043
S11334D04AE754E460916C0570916D0580916E0526
S11334E090916F050E9467339F938F937F936F939F
S11334F01F9282E68F938DE793E09F938F938DEFD6
S113350093E09F938F930E941F3721C04AEC53E0AE
S11335106DE773E081E00E94C41D809157058F938D
S1133520809156058F931F9283EF8F9380918C0522
S11335301F928F931F9280EE8F938DE793E09F935A
S11335408F938DEF93E09F938F930E941F37182FD3
S11335500FB6F894DEBF0FBECDBF60E080E00E94DE
S1133560EF25612F8DEF93E00E941D2680911E01AF
S1133570813009F45AC0823009F49BC0809046051A
S113358090904705A0904805B090490540904205A9
S11335905090430560904405709045052CE130E05F
S11335A04EEA53E06DE773E081E00E94C41D94E6A7
S11335B0C92ED12CE12CF12CC301B201A701960133
S11335C00E94CF301F926F93CA01B901A7019601DF
S11335D00E94CF301F926F93C301B20120E137E202
S11335E040E050E00E94CF301F922F93C501B401F8
S11335F020E432E44FE050E00E94CF301F922F933A
S1133600C501B40120E137E240E050E00E94CF3030
S1133610162F072FCA01B901A70196010E94CF30C6
S11336201F926F930F931F9384C020E230E04EE803
S113363053E06DE773E081E00E94C41D8091590559
S11336408F93809158058F931F928BEE8F93809167
S11336505B058F9380915A058F931F928FED8F9303
S1133660809155058F93809154058F9380915305D4
S11336708F93809152058F9380915D058F938091F4
S11336805C058F931F9286E48F9380915F058F93DF
S113369080915E058F931F928DE48F938DE793E065
S11336A09F938F938DEF93E09F938F930E941F3787
S11336B04AC08FB7F89400912305109122058FBF5B
S11336C023E130E04BE753E06DE773E081E00E94D3
S11336D0C41D80916B058F9380916A058F938091AF
S11336E069058F93809168058F931F928BEA8F935E
S11336F0602F70E080E090E00E945A326B017C0100
S1133700612F70E080E090E00E945A3220E030E0C7
S113371040E85BE30E9467339B01AC01C701B6013B
S11337200E9446319F938F937F936F931F9280E5FE
S11337308F938DE793E09F938F938DEF93E09F9307
S11337408F930E941F37182F60E081E00E94EF25BD
S1133750612F8DEF93E00E941D260FB6F894DEBF13
S11337600FBECDBF80911D018F5F833018F480930D
S11337701D010AC010921D0180911E018F5F63E03C
S11337800E948D3090931E0120E030E0A9016091E9
S113379088057091890580918A0590918B050E9416
S11337A0B231882309F485C0FFB6F894109123053B
S11337B000912205FFBE19830D83609188057091E5
S11337C0890580918A0590918B059E012B5F3F4F5F
S11337D0AE014F5F5F4F0E94880AF89489818093FD
S11337E023058D8180932205FFBE26E630E045EF58
S11337F055E06DE773E081E00E94C41D1F920F93B2
S11338001F921F9380918B058F9380918A058F93CC
S1133810809189058F93809188058F938DE7E82E99
S113382083E0F82EFF92EF920DEF13E01F930F93B6
S11338300E941F37282FA80160E080E00E946C20BE
S113384026E630E04FE855E0B70181E00E94C41D50
S11338508D811F928F9389811F928F9380918B0505
S11338608F9380918A058F93809189058F9380919E
S113387088058F93FF92EF921F930F930E941F3737
S1133880282FA80160E080E00E946C201092880537
S11338901092890510928A0510928B050FB6F89440
S11338A0DEBF0FBECDBF05C081E00E94F71E0C94A1
S11338B04A1164960FB6F894DEBF0FBECDBFDF91F8
S11338C0CF911F910F91FF90EF90DF90CF90BF9019
S11338D0AF909F908F907F906F905F904F903F90AC
S11338E02F900895F894F89481E085BF80E085BF17
S11338F00FB6F894A8958091600088618093600069
S1133900109260000FBE8FEE8093640080B78068D1
S113391080BF80917F00836080937F0085B78F7E16
S113392085BF0E94F109E9EEF7E08AE5829395E00C
S1133930E93CF907D9F70E9452090E94AC080E9499
S1133940E2200E947126789481E0809305050E940C
S11339506B220E94AA240E9439250E94D71E60E08F
S11339608DE793E00E94511E882339F180E1EDE751
S1133970F3E0A5EBB5E001900D928A95E1F7109282
S1133980C50580918F03909190039093B405809323
S1133990B30580918D0390918E039093B20580932B
S11339A0B105809191038770982F9295907F8091B3
S11339B001018F78892B8093010161E08DE793E009
S11339C00E94511E882309F440C080917D03909188
S11339D07E03A0917F03B09180038093AD05909303
S11339E0AE05A093AF05B093B0058091810390918B
S11339F08203A0918303B09184038093A9059093DB
S1133A00AA05A093AB05B093AC0580918503909172
S1133A108603A0918703B09188038093A5059093B2
S1133A20A605A093A705B093A8058091890390915A
S1133A308A03A0918B03B0918C038093A10590938A
S1133A40A205A093A305B093A40562E08DE793E0DB
S1133A500E94511E882309F450C080917D039091E7
S1133A607E03A0917F03B091800380939D05909382
S1133A709E05A0939F05B093A0058091810390912A
S1133A808203A0918303B09184038093990590935A
S1133A909A05A0939B05B0939C0580918503909112
S1133AA08603A0918703B091880380939505909332
S1133AB09605A0939705B093980580918F039091F4
S1133AC09003A0919103B0919203809391059093F8
S1133AD09205A0939305B0939405809193039091DC
S1133AE09403A0919503B091960380938D059093D0
S1133AF08E05A0938F05B09390058091000187FFF8
S1133B000E947A0D8091000185FD03C00E94810D01
S1133B10F9CF0FB6F894A8958091600088618093DE
S1133B206000109260000FBE0E94C4250E94DF2432
S1133B300E94822210920505F8940E9485260E9414
S1133B40B3200E94D5080E946A090E94230A14B86F
S1133B5017B81AB815B818B81BB885B78F7E85BFC3
S1133B6083B7817F846083BF9FB7F89483B78160F4
S1133B7083BF85B7806685BF8F7D85BF889583B7F2
S1133B808E7F83BF9FBFECCF1F93CF93DF93162FFE
S1133B90972FBA01882329F0C12FD92FA0E0B0E0D4
S1133BA007C0A901812FDF91CF911F910C94573643
S1133BB0A217B30739F0FB01EA0FFB1FE491E99365
S1133BC01196F6CF812FDF91CF911F91089520E1B7
S1133BD0829FC00111248C60906B0895FC016830B1
S1133BE000F5878D90E0982F8827268D822B853AC3
S1133BF025EA9207C1F020E1629FB00111246C60B4
S1133C00706B8617970749F0858D90E0982F882769
S1133C10248D822B0196848F958F85EA868F878FDA
S1133C2002C080E0089581E00895EF92FF920F931F
S1133C301F93CF93DF931F92CDB7DEB77C018A0128
S1133C40081B190B662361F0C8018E0D9F1D698343
S1133C500E94D537F70181937F0169816150F2CFCA
S1133C600F90DF91CF911F910F91FF90EF900895E6
S1133C708830A8F490E2899FA001112460E28DE7C6
S1133C8093E00E94151E20919C0330E0322F2227DE
S1133C9080919B03282B81E0253A354A09F080E086
S1133CA008950F931F93CF93683010F080E014C0F1
S1133CB0C62F8C01862F0E94381E8823B9F383E017
S1133CC00D37180741F080E2C89FA001112460E27B
S1133CD0C8010E94151E81E0CF911F910F91089594
S1133CE0EF92FF921F93CF93DF937C01C42FD52FC4
S1133CF0162F140F1C1741F0F70161917F01CE01BB
S1133D000E94DD372196F6CFDF91CF911F91FF906E
S1133D10EF9008950F931F93CF93683070F4C62FDC
S1133D208C010E94EE1D80E2C89FA001112460E274
S1133D30C8010E94701E81E001C080E0CF911F91F4
S1133D400F910895CF93883010F080E02EC0C82FD3
S1133D500E94381E8111F9CF2C2F30E040919C0332
S1133D6050E0542F442780919B03482BC90164E001
S1133D70880F991F6A95E1F78C60906B4817590773
S1133D8071F085E0220F331F8A95E1F72C5C324FE6
S1133D9040E050E06CE18DE793E00E94943C6C2F8E
S1133DA08DE793E00E948A1E81E0CF910895CF931E
S1133DB0DF93C0E0D0E08C2F0E94A21ED80FCF5F0B
S1133DC0C830C9F78D2FDF91CF910895811103C0B9
S1133DD0E1E1F5E002C0E2E1F5E08FB7F89490810B
S1133DE021E020838FBF81E0911180E0089581114B
S1133DF003C0E1E1F5E002C0E2E1F5E08FB7F89439
S1133E0010828FBF08958F929F92AF92BF92CF92EC
S1133E10DF92EF92FF920F931F93CF93DF93982F2C
S1133E203FB7F894882329F0709116058091150501
S1133E3004C070911405809113053FBFA72FB0E013
S1133E40C82FD0E0FD013196EC17FD0709F466C0D8
S1133E507F3719F4882309F461C0911105C0E7E79D
S1133E60EE2EE2E0FE2E04C037EFE32E32E0F32E16
S1133E7030E0781728F4FE01EA1BFB0B31970CC0E5
S1133E80E0E8F0E0EA1BFB0B01E010E0882311F00E
S1133E9000E010E0E01BF10B2E173F070CF4F901D2
S1133EA0DE2E8F011127201B310B781720F0882379
S1133EB011F0219702C0C0E0D0E02C173D070CF4AC
S1133EC0E9015A01962E892ECC2EDD2039F0B70156
S1133ED06A0F7B1F9801892D0E94C41DCC2051F0CC
S1133EE09E013327A501400F511FB701892D0E9460
S1133EF0C41DDC0C9FB7882041F0F894809116050E
S1133F008D0D8F778093160507C0F8948091140562
S1133F108D0D8F77809314059FBF01C0D12C8D2DFB
S1133F20DF91CF911F910F91FF90EF90DF90CF9091
S1133F30BF90AF909F908F9008959F92AF92BF9241
S1133F40CF92DF92EF92FF920F931F93CF93DF9361
S1133F502FB7F894882329F0C09116059091150580
S1133F6004C0C0911405909113052FBFC91709F41B
S1133F705AC0423008F457C0811103C007E712E069
S1133F8002C007EF12E050E041505109E92FF0E080
S1133F909C1718F42C2F30E002C020E830E02E1BD0
S1133FA03F0B421753070CF49A01B22E7901FF24F8
S1133FB04E195F099C1710F0D0E002C0C0E0D0E0B9
S1133FC04C175D070CF4EA016B01A82E9C2EBB2054
S1133FD039F0B8016E0F7F1FA701C6010E94573642
S1133FE0992049F0AE015527B801C6018E0D9F1DD9
S1133FF00E945736B90CF601EB0DF11D10829FB7E4
S1134000AA2041F0F894809115058B0D8F77809349
S1134010150507C0F894809113058B0D8F77809355
S113402013059FBF05C0411102C0FB011082B12CD2
S11340308B2DDF91CF911F910F91FF90EF90DF9027
S1134040CF90BF90AF909F9008953FB7F894882386
S113405029F0909116052091150504C0909114053E
S1134060209113053FBF291779F0811103C087E719
S113407092E002C087EF92E0FC01E20FF11D808123
S1134080843221F481E1089580E0089581E0089567
S1134090CF93C82F8C2F0E94E61E8823B9F02FB728
S11340A0CC2331F0F894809116059091150505C044
S11340B0F89480911405909113052FBF981751F02F
S11340C08C2F0E94F71EA8950E94BF27A8950E94D6
S11340D0BF27E0CFCF9108950F931F93CF93DF9322
S11340E000D000D0CDB7DEB7082F2C834A835B8382
S11340F069830E9448202C814A815B816981802FD9
S11341000E94031F182F802F0E94F71E812F0F90EB
S11341100F900F900F90DF91CF911F910F91089501
S11341209FB7F894E0ECF0E080818F7B8083E0918E
S1134130080581E08E0F80930805F0E0E954FE4FF6
S113414080818093C6009FBFE1ECF0E080818062B3
S1134150808308959FB7F894E1ECF0E08081806853
S113416080839FBF08959FB7F894E1ECF0E08081CD
S1134170877080839FBF5898E4E6F0E08081826076
S1134180808308959C01BC0176956795CB01A0E0DE
S1134190B0E0BC01CD0160537D4E8C4E9F4F40E09A
S11341A050E00E94AD30DA01C9010197A109B109BB
S11341B0892F9A2FAB2FBB278093C50021502093C2
S11341C0C4000895809164008D7F8093640085B756
S11341D08F7E85BF589A63E08DE793E00E94511E5D
S11341E08823C1F080917D0390917E039093100504
S11341F080930F0580917F039091800390930E0527
S113420080930D05809181039091820390930C0516
S113421080930B0580910F05909110050E94C22098
S113422088E18093C10020910D0530910E0583E053
S1134230820F8370880F932F9073892B22273370FA
S11342409FEF930F9170990F990F990F892B80937A
S1134250C2008091C600109208050C94AA2081E047
S113426090910905911101C080E00895CF934423F2
S113427079F0C42FAB012C2F30E067EB71E00E9482
S1134280C41D10920805C0930905CF910C94902089
S1134290CF910895CF932FB7F8949091C0002FBF7A
S11342A020910905211138C095FF36C0C82F4DE370
S11342B067EB71E00E949D1F809309058C2F0E947B
S11342C0F71E8091000183FF1092090510920805E2
S11342D080910905882319F1EFEFE80FE0930905B0
S11342E0F0E0E954FE4F9081911180930905E0912B
S11342F00905AE2FB0E0A954BE4F8DE08C9382E047
S11343008E0F80930905EF5FF0E0E954FE4F8AE0D9
S11343108083CF910C949020CF910C94F71ECF9171
S113432008951F920F920FB60F9211242F933F936B
S11343304F935F938F939F93AF93BF93CF93DF93E9
S1134340EF93FF939091C600789480910705209194
S11343500605811148C030910A05353708F043C07D
S113436031E0309307052223C1F02FB7F894309140
S1134370060540910A05A7EFB1E0E82FE40F831783
S113438039F05D91F0E0E150FE4F50838F5FF5CF3F
S1134390E0930A05109206052FBFE0910A05A1E0FB
S11343A0AE0FA0930A05CE2FD0E0C150DE4F988304
S11343B0A53780F0B0E0A150BE4F8DE08C9383E030
S11343C08E0F80930A05EE5FF0E0E150FE4F8AE025
S11343D0808302C09A3021F482E08093070512C0E2
S11343E0109207050FC0283068F48FB7F894E09155
S11343F0060521E02E0F20930605F0E0E950FE4F5C
S113440090838FBFFF91EF91DF91CF91BF91AF91D7
S11344109F918F915F914F913F912F910F900FBE7C
S11344200F901F9018951F920F920FB60F921124A0
S11344308F939F93EF93FF938091C1008F7D80931F
S1134440C10078949091080580910905981798F413
S1134450F894E091080581E08E0F80930805F0E060
S1134460E954FE4F80818093C6008091C100806230
S11344708093C1007894909108058091090598175C
S113448048F0F8948091C1008F7D8093C1007894A6
S113449010920905FF91EF919F918F910F900FBE9C
S11344A00F901F90189578941F920F920FB60F9249
S11344B011240F900FBE0F901F9018959091050531
S11344C080912D0181FF06C0A8959923C9F30E940C
S11344D0BF27F4CF0895E4E6F0E080818F778083EE
S11344E09FB7F89487B18F7C87B988B1806388B906
S11344F01092B90081E18093B80084E88093BC00F5
S11345009FBF08951092BC0088B18F6C88B9E4E60F
S1134510F0E0808180688083089580912D0180FF80
S113452034C08091FE04882381F1F89480912D0198
S1134530826080932D0180912D018E7F80932D01C7
S113454080912D018F7D80932D0180912E018D7F8F
S113455080932E0180912E018E7F80932E01809175
S11345602E01877F80932E0180912E018B7F809373
S11345702E011092FD0485EA8093BC0080912D01E8
S1134580837E846080932D0178940895CF93DF9384
S113459000D01F92CDB7DEB74B836A8389830E9414
S11345A05E22F8948981880F8093FF041092FE04A0
S11345B0E091FE0481E08E0F8093FE04F0E0E75D5D
S11345C0FE4F6A816083E091FE0481E08E0F809348
S11345D0FE04F0E0E75DFE4F4B814083EDE2F1E045
S11345E08081816080830E948D2280912E0183FBD3
S11345F0882780F90F900F900F90DF91CF91089545
S1134600CF93DF9300D000D0CDB7DEB72C834B839C
S11346106A8389830E945E22F8948981880F80933B
S1134620FF041092FE04E091FE0481E08E0F80935B
S1134630FE04F0E0E75DFE4F6A816083E091FE04D2
S113464081E08E0F8093FE04F0E0E75DFE4F4B8126
S11346504083E091FE0481E08E0F8093FE04F0E03D
S1134660E75DFE4F2C812083EDE2F1E080818160E3
S113467080830E948D2280912E0183FB882780F9FC
S11346800F900F900F900F90DF91CF9108951F938B
S1134690CF93DF931F92CDB7DEB7182F69830E94A3
S11346A05E22F894812F880F8093FF041092FE04F9
S11346B0E091FE0481E08E0F8093FE04F0E0E75D5C
S11346C0FE4F6981608380912D01816080932D016B
S11346D00E948D220E945E2280912E0181FF23C0C0
S11346E080910001806880930001F894812F880FE5
S11346F081608093FF041092FE04E091FE0481E047
S11347008E0F8093FE04F0E0E75DFE4F10828091EF
S11347102D01816080932D010E948D220E945E22D2
S11347208091290101C080E00F90DF91CF911F910A
S11347300895F8941092FE04882319F084E9809374
S1134740BC0080912D018D7F80932D0180912D01DE
S1134750837E80932D01789408951F920F920FB653
S11347600F9211242F933F934F935F936F937F93F3
S11347708F939F93AF93BF93EF93FF933091B900BF
S1134780232F287F80912D0186958695877090E050
S11347908330910591F11CF401974CF4C7C0843027
S11347A0910509F463C0059709F489C0BFC08091DD
S11347B02D01869586958770813011F4283049F053
S11347C080912D01869586958770823081F4203101
S11347D071F48091FF048093BB0085E88093BC0052
S11347E080912D01837E8C6080932D018FC08091F8
S11347F02D01806280932D0199C080912E01283172
S1134800E9F4826080932E0180912E01816080936F
S11348102E018091FE04823028F480912D01837E44
S1134820886104C080912D01837E806180932D0175
S1134830809129018093BB0085E866C0203479F417
S1134840826080932E0180912E01816080932E01DD
S113485080912D01837E846180932D01EDCF8D7F26
S113486080932E0180912E0181605EC0283209F070
S113487053C08091FD048F5F8093FD0480912E01CD
S1134880886080932E0180912E01846080932E0194
S11348908091FD042091FE0490E0019630E082179F
S11348A0930734F080912D01837E886180932D01DC
S11348B0E091FD04F0E0E75DFE4F8081BBCF307FE7
S11348C0E091FD04303521F581E08E0F8093FD04E5
S11348D0F0E08091BB00E75DFE4F808380912E0164
S11348E0886080932E0180912E01846080932E0134
S11348F09091FD048091FE04981728F080E00E94B6
S1134900992385E901C085EC8093BC00789411C09B
S1134910F0E0E75DFE4F208380912E01877F809336
S11349202E0180912E01846080932E0181E00E94EB
S11349309923FF91EF91BF91AF919F918F917F91B7
S11349406F915F914F913F912F910F900FBE0F90F8
S11349501F90189544E26AE080E20E94C6222FEF7D
S11349604FEF6CE080E20E94002320E04FEF60E014
S113497080E20E94002320E040E062E080E20E94A6
S1134980002320E040E062E180E20E94002320E076
S113499040E064E180E20E94002320E040E064E023
S11349A080E20E94002320E040E066E080E20E9472
S11349B000232FEF4FEF68E080E20C94002320E007
S11349C040E064E080E20E9400232FEF4FEF6CE0B0
S11349D080E20E9400232FEF4FEF60E080E20C940E
S11349E00023882311F040E001C04FEF60E080E233
S11349F00C94C622482F65E180E20C94C622462F0F
S1134A0090E8699F90011124282B64E180E20C94C2
S1134A10002362E180E20C9447231F93CF93DF933A
S1134A208091010182958770813011F0C0E001C04E
S1134A30C8E080E00E94F124DC2FD260C3608D2F97
S1134A400E94FA248C2F0E94FA240E940925182F10
S1134A508D2F0E94FA2417FF08C082E48A95F1F78B
S1134A6000C0A8950E94BF27EACFDF91CF911F9184
S1134A7008950E940D258091000187FF84C081E084
S1134A800E94F1246CE380E00E94FF246CE381E047
S1134A900E94FF246CE380E00E94FF2480E00E94D7
S1134AA0F1248BE18A95F1F7000081E00E94F12462
S1134AB06CE380E00E94FF246CE381E00E94FF2409
S1134AC06CE380E00E94FF2480E00E94F12483EFE5
S1134AD091E00197F1F700C0000081E00E94F12409
S1134AE06CE380E00E94FF246CE381E00E94FF24D9
S1134AF06CE380E00E94FF240E940D2581E00E9467
S1134B00F1246CE380E00E94FF246CE381E00E94C6
S1134B10FF246CE380E00E94FF240E940D2581E0C5
S1134B200E94F1246CE080E00E94FF246CE081E0AC
S1134B300E94FF246CE080E00E94FF240E940D2567
S1134B4081E00E94F12461E080E00E94FF2461E0A2
S1134B5081E00E94FF2461E080E00E94FF240E9423
S1134B600D2581E00E94F12466E080E00E94FF248C
S1134B7066E081E00E94FF2466E088E00E94FF2452
S1134B8080E00C94F12408958091000187FF26C0F1
S1134B9081E00E94F12461E080E00E94FF2461E052
S1134BA081E00E94FF2461E080E00E94FF2480E015
S1134BB00E94F1240E940D2581E00E94F12468E006
S1134BC080E00E94FF2468E081E00E94FF2468E006
S1134BD080E00E94FF2480E00C94F1240895CF9398
S1134BE0DF939091010192959770913011F0D0E08C
S1134BF001C0D8E0C62FCF70C068282F217030E0E4
S1134C0086E0220F331F8A95E1F7C22B0E940D25FF
S1134C1081E00E94F1246C2F8D2F0E94FF246C2FC1
S1134C208D2F81600E94FF246C2F8D2F0E94FF2402
S1134C3080E0DF91CF910C94F124AF92BF92CF9298
S1134C40DF92EF92FF920F931F93CF93DF936C0148
S1134C509091010192959770913011F0C0E001C0DC
S1134C60C8E07601062F10E08C2F8460B82EEC2F5C
S1134C70E560AE2E97012C193D0920173107E4F4A5
S1134C80F701D1917F010E940D2581E00E94F1245A
S1134C906D2F8B2D0E94FF246D2F8A2D0E94FF24DF
S1134CA06D2F8B2D0E94FF246D2F8C2F0E94FF24CB
S1134CB080E00E94F124DECFDF91CF911F910F910C
S1134CC0FF90EF90DF90CF90BF90AF9008958091C8
S1134CD07C0584FF05C065E087E091E00C9499278A
S1134CE008950E940D29E898219829988AEF815007
S1134CF041F0E7E8F3E13197F1F700C00000A8952F
S1134D00F6CF219A299AE89A0895E8982198299843
S1134D100895FC018081982F9076903459F58F7115
S1134D2049F5818181110EC0828180932F01838195
S1134D308093300184818093310185818093320195
S1134D4084E019C0823049F48FB7F8942681378102
S1134D5030930405209303050AC0813059F48FB7BA
S1134D60F8942681378130930205209301058FBF83
S1134D708FEF01C080E02FE231E03093F8072093F9
S1134D80F7070895CF92DF92EF92FF921F93CF938C
S1134D90DF937C01462F8091000184FF3DC0809108
S1134DA0030590910405892BB9F12091C605309132
S1134DB0C705C90168EE73E00E949930CB01EAE0AF
S1134DC0F0E0BF010E949930805DD7018C93C90146
S1134DD064E670E00E949930CB01BF010E949930D3
S1134DE0805DD70111968C93C901BF010E9499304F
S1134DF0C82FCB01BF010E949930805DF7018283E7
S1134E002F5F3F4F3093C7052093C605C05DC38312
S1134E108AE3848315E001C010E0C12ED12C809177
S1134E2003059091040550E08417950708F4AC013C
S1134E30EA01CC19DD091C161D0604F580E00E9468
S1134E40E61E8823D9F34C2F4F5FB7016C0D7D1DEF
S1134E5080E00E949D1FC82F80E00E94F71ECC0EA8
S1134E60D11C20910305309104052C193D09309380
S1134E700405209303058C2F810F01C0812FDF913E
S1134E80CF911F91FF90EF90DF90CF9008951F93E3
S1134E90CF93DF93D62F2091010530910205462F41
S1134EA050E042175307C0F4241B350B309302051E
S1134EB0209301051FB7F894C09100052C2F30E012
S1134EC0BC01C901895C9E4F0E945736CD0FC09327
S1134ED000051FBF80E029C0232BA9F01FB7F89459
S1134EE0C091010550910205D09100052D2F30E0AD
S1134EF04C2FBC01C901895C9E4F0E945736CD0FCF
S1134F00C09300051FBF2091000547E351E060E016
S1134F1081E00E946C208FB7F894109202051092E1
S1134F200105109200058FBF81E0DF91CF911F91A1
S1134F300895CF9320917C052E31F9F020917C05C2
S1134F4024FF07C030917D0528E8232720937D05A1
S1134F5003C02AE520937C05DC01EEE7F5E0862F0B
S1134F608E0F9D9191938E13FCCFC62F8EE795E003
S1134F700E949007CC5FC0937C05CF910895CF9396
S1134F80DF936091F907635067FDE2C08091F607F3
S1134F90CCE0D0E0C81BD109C350D84F8091F507AD
S1134FA08D3209F0C3C0683009F0D0C083EC80931F
S1134FB0E9078AE580930D011092C8052881822FA4
S1134FC0807641F0CE010E948926982F8F3F09F404
S1134FD09CC0A2C09A813C811092F2078981811100
S1134FE013C02F71223051F4313841F490917C0573
S1134FF081E09E3109F080E08093F2071092F3077C
S113500022EF37E092E07CC0282F2D7F213081F4FD
S1135010911173C0313809F070C0813011F08EE104
S113502001C08AE580937C058BE480937D0565C08F
S1135030853019F49093FA0760C0863009F044C0B3
S11350408B81813041F48DEE9DE09093F80780933D
S1135050F70792E135C0823041F484ED9DE09093EE
S1135060F8078093F70799E12BC0833041F591113C
S113507008C087E49EE09093F8078093F70794E0D4
S11350801FC0913041F489E39EE09093F807809328
S1135090F7079EE015C0923041F48FE09EE09093B4
S11350A0F8078093F7079AE20BC0933041F48FEF2F
S11350B09DE09093F8078093F70790E101C090E09A
S11350C080E48093C80528C0883081F0893019F4C1
S11350D09093FC0707C08A3061F08B3071F48BE445
S11350E080937D058AE580937C0507C02CEF37E02B
S11350F002C022EF37E091E003C022EF37E090E0F6
S11351003093F8072093F70707C0888187FD9E81B5
S113511080E88093C80507C08F81811104C08E8107
S1135120891708F4982F90930C0110C08091C8053A
S113513087FF0CC0CE010E9447278F3F21F48EE1E8
S113514080930D0103C0811110920C011092F90794
S113515080910D0184FF51C080910C018F3F09F4AF
S11351604CC0C82F893008F0C8E08C1B80930C0118
S11351709091E90788E889278093E907CC2359F1BE
S11351803091C80537FF09C06C2F8AEE97E00E9462
S1135190C226C82F893058F51EC08091F707909118
S11351A0F8072C2F280FAAEEB7E0FC0136FF06C043
S11351B034913D9331962E13FBCF04C031913D932E
S11351C02E13FCCF01962FEF2C0F820F911D90937D
S11351D0F8078093F7076C2F8AEE97E00E949007F8
S11351E0CC5FCC3041F08FEF80930C0104C08FEF83
S11351F080930C01CEE1C0930D0184E196B19C70C3
S113520049F48150D9F71092FA071092F4078AE50D
S113521080937C05DF91CF910895E9E6F0E08081E9
S113522083608083E89AECE7F5E08BE481838AE588
S113523080830895A3E1B0E0E0E2F9E20C94FF304A
S11352406C014B012A01FC0117821682838181FFC4
S113525043C3AE014F5F5F4F3A01F6019381F401FE
S113526093FD859193FF81914F01882309F430C305
S1135270853239F493FD859193FF81914F018532F5
S113528039F4B60190E00E94B73652012501E5CF0A
S113529010E0F12C20E02032A0F48B3269F030F4DD
S11352A0803259F0833269F420612CC08D3239F098
S11352B0803339F4216026C02260246023C0286032
S11352C021C027FD27C030ED380F3A3078F426FF8F
S11352D006C0FAE01F9F300D1124132F13C04AE0BB
S11352E0F49E300D1124F32E20620CC08E3221F472
S11352F026FDEEC2206406C08C3611F4206802C07C
S1135300883641F4F40193FD859193FF81914F0117
S11353108111C1CF9BEB980F933018F42061805E0C
S113532006C09BE9980F933008F071C12F7E26FFC9
S113533016E02F73322E853619F42064322E08C0FD
S1135340863621F4F22FF0683F2E02C0111111505D
S113535037FE07C01C3350F4EE24E394E10E27E03B
S11353600BC0183038F027E017E005C027E04CE305
S1135370E42E02C0212FE12C520144E0A40EB11C02
S1135380F20160817181828193810E2DA3010E94BB
S11353904B352C01098100FF02C003FF07C031FC1B
S11353A008C032FE09C030E2232E07C02DE2222EAF
S11353B004C09BE2292E01C0212C802F8C7019F08F
S11353C0211068C2A8C237FE0FC0E40C04FF04C059
S11353D08A81813309F4EA941E1474F5F8E0FE1509
S11353E078F588E0E82E2CC036FC2AC0812F90E0A6
S11353F0841595059CF02CEF42162FEF520674F09D
S1135400432D4068342E0AC0E2E0F0E0EC0FFD1FAB
S1135410E10FF11D8081803319F411501111F4CF83
S113542037FE0EC0EE24E394E10E812F90E048167F
S113543059062CF4141904C0EE24E39401C010E0BE
S113544037FE06C01414150434F4C201019605C0D5
S113545085E090E002C081E090E0211001961123E4
S113546031F0212F30E02F5F3F4F820F931F2F2DFC
S113547030E08217930714F4F81A01C0F12C832D3D
S1135480897049F4FF2039F0B60180E290E00E946F
S1135490B736FA94F7CF222029F0B601822D90E096
S11354A00E94B73633FC09C0FF2039F0B60180E30F
S11354B090E00E94B736FA94F7CF37FE5AC0942D85
S11354C0852D57FE02C090E080E0292E382E20E082
S11354D030E0A2014E1951095D874C87A20142199F
S11354E053095F874E87612F70E044275527461B79
S11354F0570B598B488B5FEF2516350649F4B601D7
S11355008EE290E02A8B3B8B0E94B7363B892A8936
S1135510421453046CF04C855D854215530544F4E4
S1135520EE85FF85E20FF31FE60DF71D818101C0B3
S113553080E351E0251A31082F5F3F4F488959898C
S1135540241635064CF0B60190E02A8B3B8B0E9462
S1135550B7362A893B89CFCF2414350439F49A818C
S1135560963318F4953311F404FF81E3B60190E007
S11355704BC08A81813309F00F7EB60190E00E940E
S1135580B736111105C034FC18C085E690E017C089
S1135590B6018EE290E00E94B73682E0EE24E394F6
S11355A0E80EF301E80FF11D8081B60190E00E943E
S11355B0B73611508E2D91F7E6CF85E490E0B60111
S11355C00E94B73657FC05C04114510439F404FF56
S11355D005C05194419451088DE201C08BE2B6019B
S11355E090E00E94B73680E39AE0491651042CF00B
S11355F08F5F5AE0451A5108F7CFB60190E00E9438
S1135600B736B601C201C0960E94B73657C1833679
S113561031F0833779F0833509F058C021C0520145
S1135620E2E0AE0EB11CF2018081898301E010E05A
S1135630230114C05201F2E0AF0EB11CF20140800C
S1135640518026FF03C0612F70E002C06FEF7FEF2F
S1135650C2012A8B0E946E368C012A892F7715C0CD
S11356605201F2E0AF0EB11CF2014080518026FFDE
S113567003C0612F70E002C06FEF7FEFC2012A8B7D
S11356800E943F368C012A892068322E23FD1AC0DD
S11356908F2D90E008171907A8F4B60180E290E076
S11356A00E94B736FA94F4CFF20137FC859137FEA5
S11356B081912F01B60190E00E94B736F110FA945F
S11356C0015011090115110579F7F8C0843611F05C
S11356D0893659F5520127FF09C0F4E0AF0EB11C19
S11356E0F20160817181828193810AC0F2E0AF0E80
S11356F0B11CF20160817181072E000C880B990B9B
S11357002F76322E97FF09C09095809570956195FC
S11357107F4F8F4F9F4F2068322E2AE030E0A30145
S11357200E947437E82EE6183FC0022F853721F413
S11357300F7E2AE030E01DC0097F8F3691F018F407
S1135740883559F0C5C0803719F0883711F0C0C0CA
S1135750006104FF09C0046007C024FF08C006609C
S113576006C028E030E005C020E130E002C020E1BE
S113577032E0520107FF09C0F4E0AF0EB11CF201A0
S1135780608171818281938108C0F2E0AF0EB11C07
S1135790F2016081718180E090E0A3010E9474377E
S11357A0E82EE6180F77302E36FE0BC0332D3E7FE1
S11357B0E11650F434FE0AC032FC08C0332D3E7E9C
S11357C005C00E2D332D03C00E2D01C0012F34FF53
S11357D00CC0FE01EE0DF11D8081803311F4397E81
S11357E008C032FF05C00E5F04C0832F867809F01D
S11357F00F5F33FD13C030FF06C01E2D0F1518F4C4
S11358001F0D101B0F2D0F1568F4B60180E290E0F8
S11358103B8B0E94B7360F5F3B89F5CF0F1510F411
S1135820F01A01C0F12C34FF12C0B60180E390E0FD
S11358303B8B0E94B7363B8932FF17C031FD03C052
S113584088E790E002C088E590E0B6010CC0832FA1
S1135850867859F031FF02C08BE201C080E237FD47
S11358608DE2B60190E00E94B736E11638F4B60135
S113587080E390E00E94B7361150F7CFEA94F30129
S1135880EE0DF11D8081B60190E00E94B736E11063
S1135890F5CF14C0F4E0FF1558F584E0F81A33FE90
S11358A01EC0211026C003FF2AC004E011E0F32D1E
S11358B0F0713F2EF8018491811124C0FF2009F476
S11358C0E5CCB60180E290E00E94B736FA94F6CFB8
S11358D0F6018681978126C08FEF9FEF23C0B60122
S11358E080E290E00E94B736FA94F110F8CFD9CF55
S11358F0F12CB601822D90E00E94B736D4CF08E097
S113590011E0D5CF31108052B60190E00E94B73635
S11359100F5F1F4FCFCF23E02F1510F483E0BECFCE
S1135920F12CC1CF6396E2E10C941B3120FD09C038
S1135930FC0123FD05C022FF02C0738362835183EF
S11359404083089544FD10C046FD10C0DB01FC01F6
S1135950AA0FBB1FEE1FFF1F1094D1F76A0F7B1F06
S11359608E1F9F1F31E003C033E001C034E0660F97
S1135970771F881F991F3150D1F7620F711D811D48
S1135980911D08950F931F93CF93DF938C01C8014A
S11359900E947936EC0197FD08C00E942336892BBA
S11359A0B1F7B801CE010E945B37CE01DF91CF91F0
S11359B01F910F910895A0E0B0E0E1EEFCE20C9499
S11359C005317C018B016A01D22F0E9479369C013A
S11359D033272B32310521F02D32310559F4D068AB
S11359E00150110911F480E069C0C7010E947936A1
S11359F097FDF9CFCD2FCD7F2D2F207309F580335F
S1135A00F9F4580181E0A81AB10809F443C0C701A8
S1135A100E94793697FD3EC0282F2F7D283551F4FA
S1135A20C26402501109B1F1C7010E94793697FF8F
S1135A3007C030C0D6FF02C0C26001C0C261850188
S1135A40812C912C540120ED280F283080F0C4FFC4
S1135A5004C0B7010E945B371AC02A3040F0C6FF69
S1135A60F8CF2F7D3FEE320F363098F727504C2F6A
S1135A70C501B4010E94A22C4B015C01C26001501B
S1135A80110959F0C7010E94793697FFDCCFC1FD97
S1135A9004C0A9CF812C912C5401C7FF08C0B09435
S1135AA0A09490948094811C911CA11CB11C2C2F57
S1135AB0B501A401C6010E94962C81E0CDB7DEB7E2
S1135AC0ECE00C942131A0E2B0E0E9E6FDE20C94B4
S1135AD001314C015B017A018E010F5F1F4F680198
S1135AE080E2F80111928A95E9F7F401638040E0BD
S1135AF050E0712C412C80E0A1E0B0E0F90163FC9E
S1135B00559063FE51908F01952D9F01511003C054
S1135B1080E090E080C0FEE55F1203C041155105AE
S1135B2061F1682F70E0641775074CF46DE5561643
S1135B3069F1EDE25E1203C0442009F103C0411093
S1135B4001C0752C692F669566956695F601E60F7A
S1135B50F11D692F67708D0102C0000F111F6A9536
S1135B60E2F7B8017081672B6083971559F0971598
S1135B7010F49F5FE7CF9150E5CF81E004C0442447
S1135B80439401C0412C4F5F5F4FB8CF442019F0BC
S1135B909E8190629E83811103C07724739418C000
S1135BA0F6019E012F5D3F4F808180958193E2171E
S1135BB0F307D1F7F2CFE114F10429F0F701808360
S1135BC0C70101967C0191E0A91AB108712CE9F092
S1135BD0C4010E94793697FD16C0282F2695269574
S1135BE02695F601E20FF11D208130E0AC014770EB
S1135BF0552702C0359527954A95E2F720FDDBCF5E
S1135C00B4010E945B37711083CFE114F10411F0E9
S1135C10F7011082C801A096E0E10C941D31A6E0C2
S1135C20B0E0E5E1FEE20C94FF305C017B011A0177
S1135C300E9479369E838D8399278B32910521F0BA
S1135C408D9789F410E801C010E021E0E21AF10810
S1135C5011F480E02CC1C5010E9479369E838D83A6
S1135C6097FF02C0F6CF10E08D819E810E942C36F2
S1135C708936910549F08E36910509F03BC06DE5F2
S1135C80862E6EE0962E04C070E6872E7EE0972E58
S1135C90EFEF8E1A9E0AF401319704910023C9F0A4
S1135CA081E0E81AF10871F0C5010E9479366C01AF
S1135CB097FD08C00E942C36081751F3B501C601A0
S1135CC00E945B3793E689169EE0990609F0C1CFDE
S1135CD005C0F0E68F16FEE09F0629F080E090E014
