:10000000BFC6000004C70000D8C60000D6C6000066
:10001000D4C60000D2C600000C942D0BCEC6000042
:10002000CCC60000CAC600000C940A090C94CB0888
:10003000C4C60000C2C60000C0C60000BEC60000A4
:100040000C947A09BAC600000C9435240C94B72499
:100050000C94F7240C944E08B0C60000AEC6000005
:100060000C941A26AAC600002B0E370EB60E430EAD
:100070004F0E5B0E670E730E7F0E8B0E970EA30E48
:10008000AF0E07634236B79BD8A71A39685618AE29
:10009000BAAB558C1D3CB7CC5763BD6DEDFD753EBD
:1000A000F6177231BF000000803F08000000BE92CA
:1000B0002449123EABAAAA2ABECDCCCC4C3E0000AD
:1000C0000080BEABAAAAAA3E00000000BF0000004C
:1000D000803F0000000000084178D3BB4387D11364
:1000E0003D190E3CC3BD4282AD2B3E68EC8276BE0C
:1000F000D98FE1A93E4C80EFFFBE01C4FF7F3F00D6
:100100000000000024474C4753562C252A642C310C
:100110002C25642C002447504753562C252A642C48
:10012000312C25642C00244750524D432C256C64FF
:100130002E25642C252A632C25662C25632C256608
:100140002C25632C252A662C252A662C256C642CEC
:100150002C2C252A632A25640025662C25662C254F
:10016000662A2564002447504753412C252A632CD6
:1001700025642C002447504747412C256C642E25CC
:10018000642C25662C25632C25662C25632C256480
:100190002C25642C25662C25662C252A632C252AE3
:1001A000662C252A632C252A642C252A642A25649A
:1001B00000436F6D6D756E69636174696F6E206267
:1001C00061756420726174652073657420746F209A
:1001D00025357520626175642E0A00444634494114
:1001E000482C25732C253035752C5632302530336C
:1001F00075253033752E0023534330323A20733D3A
:100200003078253032782C64533D25752C69503D6B
:1002100025750A0023534330313A20537461636BD0
:100220002D436865636B3A206D756E672D77616C41
:100230006C20616464726573733A203078253034C1
:10024000782C206C6F776573742D737461636B3ACF
:10025000203078253034780A002563253037642E25
:10026000253033642025632535642E2530336456CC
:100270002000256325317520256325317520253320
:10028000642E2531642025632530327525632530A1
:1002900032752000253032752E253032752E2055CE
:1002A000253032753A253032753A253032752000C6
:1002B00062202D2D2D2E2D2D2D202563253158200A
:1002C0002563253032752000256320253038642EC3
:1002D00025303364202563253158202563253032AD
:1002E00075200031304D487A5265664F7363205651
:1002F000327831002B3D3D3D204446344941482071
:100300003D3D3D2B0023494131323A205048415375
:1003100045206661737450776D53696E676C6544F0
:100320006966665F7374657073203D2025632530B0
:1003300033642E253033640A0023494131313A2099
:1003400050484153452070686173654572722020A2
:100350003D20253033642E25303364C2B02C200973
:10036000207068617365537465707346726571754A
:10037000656E6379203D202563253033642E25305A
:1003800033642C2009706861736553746570735011
:1003900068617365203D202563253033642E253048
:1003A00033640A0023494130333A20515247202018
:1003B000206E657750776D56616C203D2025303377
:1003C000642E253033642C200970776D436F72538F
:1003D000746570732020202020202020203D2025BF
:1003E0002B3033642E253033640A002349413032E8
:1003F0003A20436C6F636B206C6F63616C4D656179
:100400006E466C6F6174436C6F636B446966662003
:100410003D202563253033642E25303364487A200F
:100420004032304D487A2C20097172674465765FFE
:10043000487A203D202563253033642E25303364EF
:10044000487A204031304D487A2C200970706D2058
:100450003D202563253032642E253036640A002382
:10046000494130313A20436C6F636B20696E7432BE
:10047000304D487A436C6F636B4469666620202078
:10048000202020203D202020252B30346C69487A04
:10049000204032304D487A0A0023494430323A2015
:1004A0002B2F2D204B455920096D61696E50776DBA
:1004B0005465726D696E616C41646A203D202564EB
:1004C0002E253037642C20096C6F63616C46617394
:1004D0007450776D56616C4E657874203D202530E0
:1004E0003375202B206C6F63616C46617374507799
:1004F0006D537562436D704E657874203D202530D4
:1005000033750A0023494430313A202B2F2D204BDC
:10051000455920096D61696E50776D5465726D693A
:100520006E616C41646A203D2025642E253037645D
:100530002C200970756C6C50776D56616C42656645
:100540006F7265202020203D2025303375202B2020
:100550006661737450776D537562436D7042656662
:100560006F7265202020203D20253033750A00233E
:10057000544131343A206D61696E526566436C6B4B
:100580005374617465203D2030782531580A00236A
:10059000544131333A2050574D203D20253033759A
:1005A0002C20095375622D50574D203D20253033A6
:1005B000750A0023544131323A20707073537461CC
:1005C0006D70437472316D7320203D202530396C7D
:1005D000752C20097070735374616D7049435231EA
:1005E0002020203D20253035752C20097070735354
:1005F00074616D70437472316D735F6C61737420DC
:10060000203D202530396C752C200970707353748F
:10061000616D70494352315F6C6173742020203DDD
:1006200020253035750A0023544131313A206C6F52
:1006300063616C46617374437472316D73203D2045
:100640002530396C752C20096C6F63616C466173C1
:100650007454434E5431203D20253035750A002313
:10066000544130333A2054656D70203D202530349C
:1006700075202825642E25316443290A002354411E
:1006800030323A2041444331203D2025303475201A
:100690002825642E2530336456290A00235441301E
:1006A000313A2041444330203D2025303475202804
:1006B00025642E2530336456290A002347503035EF
:1006C0003A204C6174203D20256320253034642E6F
:1006D000253034642C204C6F6E203D20256320256E
:1006E0003035642E253034642C2048656967687481
:1006F000203D2025642E25303264206D0A002347DA
:100700005030343A2050444F50203D2025642E254F
:100710003032642C2048444F50203D2025642E2543
:100720003032642C2056444F50203D2025642E2525
:100730003032642C0A0023475030333A205361741E
:100740007355736564203D20253032642C2053613D
:100750007473457068696D5F47707347616C696C4D
:10076000656F517A7373203D20253032642C2053FD
:10077000617473457068696D5F476C6F6E61737308
:10078000203D20253032640A0023475030323A2081
:100790004D6F646532203D202531642C20506F73ED
:1007A000466978496E64203D202531640A0023475C
:1007B0005030313A2044617465203D202530386C3A
:1007C000642C2054696D65203D202530366C642EE4
:1007D000253033640A000A23475030303A203D3D2B
:1007E0003D3D3D3D3D0024504D544B3335332C3180
:1007F0002C312A33370D0A0024504D544B333533F6
:100800002C312C302A33360D0A0024504D544B33F2
:1008100035332C302C302A33370D0A0024504D54F8
:100820004B3130322A33310D0A000A3D3D3D204420
:100830004634494148202D203130204D487A2052FD
:1008400065666572656E6365204F7363696C6C6184
:10085000746F72203D3D3D0A3D3D3D205665723A24
:100860002032302530336425303364000A2A3F2A91
:100870002020756E6B6E6F776E20636F6D6D616E8D
:100880006420272573272072656365697665642C6B
:10089000207472792048454C502E0A3E000A3D3D96
:1008A0003D3D3D3D3D3D3D3D3D0A3E000A2B2F2D4A
:1008B000203C50574D2076616C75653E0909636F89
:1008C0007272656374696F6E2076616C75652074F1
:1008D0006F2062652061646465642E000A57524986
:1008E000544550574D09090973746F72652063753B
:1008F0007272656E742050574D2061732064656676
:1009000061756C742076616C75652E0A5752495476
:100910004554454D50203C54454D502076616C75F2
:10092000653E090977726974652063757272656E38
:10093000742074656D706572617475726520617381
:100940002064656661756C742076616C75652E0037
:100950000A5445535409090909746F67676C657334
:1009600020636F756E74657220746573742E000A4F
:10097000535441434B09090909746F67676C6573E8
:1009800020737461636B206D756E672D77616C6C7D
:1009900020746573742E000A5345524F4646090968
:1009A00009097377697463682073657269616C20E3
:1009B000636F6D6D756E69636174696F6E204F460C
:1009C000462E0A5345524F4E090909097377697437
:1009D00063682073657269616C20636F6D6D756EFD
:1009E00069636174696F6E204F4E2E000A53455241
:1009F00042415544203C626175643E0909097365B2
:100A00007474696E672073657269616C20626175C8
:100A10006420726174652E000A4C45444F464609B5
:100A2000090909737769746368206261636B6C6993
:100A3000676874204F46462E0A4C45444F4E0909BC
:100A40000909737769746368206261636B6C696715
:100A50006874204F4E2E000A494E464F0909090975
:100A6000746F67676C6573206164646974696F6E25
:100A7000616C207072696E74656420696E666F7354
:100A80002E000A48454C5009090909746869732009
:100A90006D6573736167652E000A4150434F46468A
:100AA0000909090973776974636820415043202854
:100AB0006175746F6D61746963207068617365201E
:100AC000636F6E74726F6C29206F66662E0A4150D8
:100AD000434F4E09090909737769746368204150CF
:100AE0004320286175746F6D61746963207068615B
:100AF000736520636F6E74726F6C29206F6E2E00A9
:100B00000A4146434F4646090909097377697463E8
:100B1000682041464320286175746F6D6174696374
:100B2000206672657175656E637920636F6E74728D
:100B30006F6C29206F66662E0A4146434F4E0909A5
:100B400009097377697463682041464320286175F9
:100B5000746F6D61746963206672657175656E632B
:100B60007920636F6E74726F6C29206F6E2E000A8D
:100B70003D3D3D2048454C50203D3D3D0A0A242046
:100B80003C4E4D45412D4D6573736167653E0909C6
:100B900073656E6473206D65737361676520746F30
:100BA0002074686520475053206D6F64756C652E06
:100BB000002A49444E3F00575249544554454D5030
:100BC00000575249544550574D0054455354005313
:100BD0005441434B005345524F4E005345524F46EC
:100BE000460053455242415544004C45444F4E0047
:100BF0004C45444F464600494E464F0048454C50F0
:100C0000004150434F4E004150434F46460041463D
:100C1000434F4E004146434F464600444634494107
:100C2000482031304D687A2D5265669AAB0000013C
:100C3000FFFFFFFFFFFFFF00000CB0A52C8F404817
:100C4000E18A3F0080AF4300A0873FFFFFFFFFFF27
:100C5000FFFFFFFFFFFFFF00001CB0CDCC94C05C86
:100C60008FC23FB81E053DFFFFFFFFFFFF713D8AAA
:100C70003F33331340780000002CB080250801007A
:100C8000000000FFFFFFFFFFFFFFFFFFFFFFFFFF71
:100C9000FFFFFFFFFFFFFF00003CB000000000FF70
:100CA000FFFFFFFFFFFFFFFFFFFFFFFFFFFFFFFF54
:100CB000FFFFFFFFFFFFFF00004CB009021900011A
:100CC000010080690904000001FF000000070581A0
:100CD0000308000A12011001FF000008C016DC051D
:100CE0000001010203011003500072006F00740044
:100CF0006F002D0031002A034400460034004900F3
:100D0000410048002D00310030004D0048007A00BD
:100D10002D005200650066002D004F007300630037
:100D20000E0344004600340049004100480004031B
:100D300009046364696E6F70737578585B656667E4
:100D400045464700616E006E66696E69747900CD34
:100D5000CCCC3D0AD7233C17B7D13877CC2B329572
:100D600095E6241FB14F0A000020410000C8420050
:100D7000401C4620BCBE4CCA1B0E5AAEC59D74001A
:100D800011241FBECFEFD8E0DEBFCDBF11E0A0E041
:100D9000B1E0EAE8FEE602C005900D92A831B10785
:100DA000D9F728E0A8E1B1E001C01D92A432B20752
:100DB000E1F70E944F1F0C94433722C9A82FB92F87
:100DC0008FEF9FEF1BC02D918227282F2295282778
:100DD000722F269526952727239526952170782F03
:100DE000892F82272195207C922F2227769527957F
:100DF000972782277695279597278227615018F79E
:100E0000809590950895DADF8D939D930895CF9303
:100E1000CFB7CF93DF93C395339BE9F7339B11C0D3
:100E2000339B0FC0339B0DC0339B0BC0339B09C05A
:100E3000339B07C0339B05C0339B03C0339B01C06A
:100E400083C06F93C0910708DD27C25FD74F2F93F0
:100E500020E400C065E0339B03C02F916F91DECF8B
:100E60000F931F934F9345E55F9355E53F933BE009
:100E700014E006B10C702EC06A95C9F03150D8F15B
:100E800006B10C7001130BC008942795299320E438
:100E9000555500F46A9569F701E066B10BC0102F53
:100EA00066E02695299320E4555518F3E2CF0FEF1D
:100EB00066B10000162F455500F0404066E01C70FA
:100EC0000030E2F221F0000006B10C7003C006B160
:100ED0000C70A9F0011309C00894279568F200C0AE
:100EE0006A95A9F700E066B1E5CF102F66E0269578
:100EF00028F20000ECCF11E01CBB002719C03B50CA
:100F00003195C31BD04011E01CBB0881033C09F1A3
:100F10000B34F9F0209105081981110F1213EDCF50
:100F20004A81441F093651F10D3211F0013E29F773
:100F300000930C083F915F914F911F910F912F915A
:100F40006F91CCB3C0FD67CFDF91CF91CFBFCF9171
:100F5000189520910C08222369F310910A08112397
:100F600081F5343082F130930A08209306081091FD
:100F700007083BE0311B3093070825C000910A08A1
:100F80000130FCF40AE54F7049F43091100134FD52
:100F90001BC000931001CAEFD7E01AC030918D0535
:100FA00034FD12C000938D05CEE8D5E011C00527B1
:100FB00010E000C008B919C0052710E0221F00C0CA
:100FC0001DC04AE502C032ED432FC4E1D0E032E05B
:100FD00017B11C60439A08B117B95CE020E869E4D6
:100FE00020FF052708B92795179500C000001C3F72
:100FF000F0F66695A8F7A1F720FF052708B9279511
:10100000179500001C3FC0F629913A9541F7037FE0
:1010100010910B08110F08B9C651D04011F0109370
:10102000050811E01CBB086017B1137F402F437FF8
:1010300055E05A95F1F708B917B948B97BCFE4E6FE
:10104000F0E080818E7F808310922805EFE7F0E04A
:1010500080818360808383E080937E00EBE7F0E013
:1010600080818F7B8083EAE7F0E0808187688083DE
:1010700080B787E180BF81E18093290581E4809377
:101080007C00808180658083808188608083089572
:10109000EAE7F0E080818064808308951F920F92D8
:1010A0000FB60F9211242F933F934F935F936F933B
:1010B0007F938F939F93AF93BF93EF93FF93809111
:1010C000780020917900789490E0922B2091290566
:1010D000283021F168F42223A1F0213019F59093F2
:1010E0008A038093890380E18093290580E41EC0F0
:1010F000213101F1283171F02031A1F4109229053C
:1011000017C0909388038093870388E18093290513
:1011100088EC0CC088E0809329050AC090938C036A
:1011200080938B0381E18093290581E480937C0087
:10113000AFDF08C081E080932905809128058F5F8B
:1011400080932805FF91EF91BF91AF919F918F916F
:101150007F916F915F914F913F912F910F900FBEB3
:101160000F901F901895E4E6F0E08081877F8083E0
:1011700010928500109284008EE4809389008FE1A4
:10118000809388001092800089E48093810082E23D
:1011900080936F0008951F920F920FB60F92112443
:1011A0002F933F938F939F93AF93BF938091350578
:1011B00090913605A0913705B09138050196A11D93
:1011C000B11D8093350590933605A0933705B093F4
:1011D000380578948091000186FF11C0F8948DB78E
:1011E0002EB7789490E0922B209106013091070160
:1011F0008217930720F49093070180930601BF9113
:10120000AF919F918F913F912F910F900FBE0F90B3
:101210001F9018951F920F920FB60F9211242F93C3
:101220004F935F936F937F938F939F93EF93FF936E
:1012300080918600209187004091350550913605B8
:1012400060913705709138057894EAE7F0E0908175
:1012500090649083F89490E0922B90933E05809355
:101260003D054093390550933A0560933B057093D3
:101270003C057894FF91EF919F918F917F916F91B1
:101280005F914F912F910F900FBE0F901F90189567
:10129000809164008F7D8093640016BC8AE588BDD0
:1012A00083E284BD81E085BD559A82E00E94EB20F7
:1012B0008823C9F04AE550E061E080E495E00E94AF
:1012C000C8204BE550E061E08FE395E00E94C82024
:1012D0008FB7F894909140059093340590913F0515
:1012E000909333058FBFA89A80916E0081608093A0
:1012F0006E0008951F920F920FB60F9211248F93D4
:101300009F93789480913205882361F0F8948091BE
:10131000310588BD8091300580932F057894109217
:10132000320509C0F8948091340588BD8091330559
:1013300080932F057894F89490912E0580912F0535
:10134000981718F488B58F5F88BD789480912E0522
:101350008F5F80932E059F918F910F900FBE0F90FE
:101360001F901895CF92DF92EF92FF92C090530595
:10137000D0905405E0905505F09056052FEFC21A15
:10138000D20AE20AF20AC701B60124E630E040E0E0
:1013900050E00E948B2F6C337105810591054CF054
:1013A000C61AD70AE80AF90A84E6C80ED11CE11C5D
:1013B000F11CC0925305D0925405E0925505F0926D
:1013C0005605C0905305D0905405E0905505F09017
:1013D0005605C701B60120E137E240E050E00E9427
:1013E0008B2F683427E172078105910594F0C61AA6
:1013F000D70AE80AF90A80E1C80E87E2D81EE11C84
:10140000F11CC0925305D0925405E0925505F0921C
:101410005605FF90EF90DF90CF900895EF92FF92E6
:101420001F93CF93DF9300D0CDB7DEB7182F7B018A
:101430000E9488209A838983A70162E0CE010196E9
:101440000E942421812F0E946D210F900F90DF9127
:10145000CF911F91FF90EF9008954F925F926F92FE
:101460007F928F929F92AF92BF92CF92DF92EF9234
:10147000FF920F931F93CF93DF934B015C016A019F
:101480007901FA01608170E080E090E00E94013112
:101490002B013C01F701608170E080E090E00E9448
:1014A000013120E030E040E85BE30E9408329B011C
:1014B000AC01C301B2010E94FE2FA50194010E945C
:1014C000FE2F8B01D82FC92F20E030E0A9010E9408
:1014D000623087FD1CC020E03FEF4EE753E4B801C7
:1014E0008D2F9C2F0E9404321816B4F420E03FEF99
:1014F0004EE753E4B8018D2F9C2F0E94FD2F8B01E6
:10150000D82FC92FB0E0AFEFFEE7E3E40CC0B0E0A6
:10151000A0E0F0E0E0E007C0B02FA12FFE0100E066
:1015200010E0D0E0C0E020E030E040E05BE36B2F73
:101530007A2F8F2F9E2F0E94FE2F4B015C010E945D
:10154000D330F6016083C501B4010E943C319B0198
:10155000AC01C501B4010E94FD2F20E030E040E85D
:1015600053E40E9408320E94D330F7016083B8012F
:101570008D2F9C2FDF91CF911F910F91FF90EF90B6
:10158000DF90CF90BF90AF909F908F907F906F90A3
:101590005F904F900895CF92DF92EF92FF92CF939A
:1015A0006B017C01C42F0E943C319B01AC01C7013F
:1015B000B6010E94FD2F6B017C016C2F70E080E072
:1015C00090E00E94FF309B01AC0160E070E080E29F
:1015D00091E40E946B329B01AC01C701B6010E94ED
:1015E00008320E943C310E94CE30CB01CF91FF9057
:1015F000EF90DF90CF9008950F931F93CF93DF93D9
:1016000000D0CDB7DEB7042F1FB7F8942091340572
:101610002A832091330529831FBF9E012F5F3F4FEF
:10162000AE014E5F5F4F19DFF8943A8129810111B5
:1016300005C0309334052093330507C0309331053E
:101640002093300521E0209332051FBF0F900F90AB
:10165000DF91CF911F910F91089518950F931F93CC
:10166000CF93DF938C01EA019A01AB016DE873E03F
:1016700081E00E946520AE016DE873E0C801DF9152
:10168000CF911F910F910C94F3330F931F93CF932E
:10169000DF938C01EA019A01AB016DE873E081E010
:1016A0000E946520AE016DE873E0C801DF91CF9123
:1016B0001F910F910C94DD338F929F92AF92BF9246
:1016C000CF92DF92EF92FF920F931F93CF93DF930E
:1016D00000D000D0CDB7DEB781E00E94BF218823C3
:1016E00009F44DC381E00E94FC22182F80E00E9483
:1016F000FC229091010196959F7009F093C210FF12
:1017000091C214FF04C081E00E94F22338C3107F0D
:1017100009F032C34FE76DE874E081E00E94742263
:1017200081E00E94D02146E050E061EB7BE08DE853
:1017300094E094DF892B41F52CE130E04BED51E052
:101740006DE873E081E00E9465208091C205909170
:10175000C3059C0133273F932F931F929F93809142
:10176000C5058F938091C4058F9386EC95E09F9378
:101770008F938DE893E09F938F938DE094E09F93F8
:101780008F930E946C3429C147E050E064E17CE013
:101790008DE894E063DF892B21F4809100018E7F36
:1017A0000CC046E050E06EE07CE08DE894E056DF4F
:1017B000892B31F480910001816080930001DFC2A8
:1017C00047E050E067E07CE08DE894E047DF892B5C
:1017D00021F4809100018D7FF0CF46E050E061E080
:1017E0007CE08DE894E03ADF892B21F480910001C0
:1017F0008260E3CF45E050E06CEF7BE08DE894E061
:101800002DDF892BE1F522E430E04AE258E06DE873
:1018100073E081E00E94652081E08F938AE98F93D5
:101820001F928AEA8F938DE893E09F938F931F9284
:101830008FE78F938DE094E09F938F930E943F34C6
:10184000282F4DE054E060E080E00E941F2322E456
:101850004FE65BE061E080E00E941F238091010180
:10186000817E826080930101809100018F7E809350
:1018700000010FB6F894DEBF0FBECDBF80C245E0B9
:1018800050E067EF7BE08DE894E0E8DE892BA9F477
:101890008091000182FB992790F981E0892790913E
:1018A000000180FB92F9909300018091000182FF7A
:1018B00066C280910001877F48C047E050E060EF3A
:1018C0007BE08DE894E0CADE892B29F419828091AF
:1018D00001018F710FC046E050E06AEE7BE08DE8B9
:1018E00094E0BCDE892B99F481E089838091010129
:1018F0008F7180628093010144E150E061E0CE018C
:1019000001960E9424216EE170E080E033C147E03F
:1019100050E06BED7BE08DE894E0A0DE892B21F4B4
:1019200080910001877F49CF46E050E065ED7BE084
:101930008DE894E093DE892B71F48091000188603A
:1019400080930001809100018B7F80930001809142
:1019500000018F7E32CF47E050E062EE7BE08DE801
:1019600094E093DE892B09F040C080E295E09F93DC
:101970008F9381E191E09F938F9384E994E09F930B
:101980008F930E948C3480912005909121050E94B4
:10199000762340E650E062E080E295E00E94242158
:1019A0006EE770E083E03ADD2AE230E041EB51E09F
:1019B0006DE873E081E00E946520809121058F939E
:1019C000809120058F938DE893E09F938F938DE016
:1019D00094E09F938F930E946C34282F4DE054E045
:1019E00060E080E00E941F2344CF46E050E06FECAF
:1019F0007BE08DE894E032DE892B71F48091000168
:101A000086FB992790F981E089279091000180FB5E
:101A100096F990930001B3C145E050E06AEC7BE099
:101A20008DE894E01BDE892BD1F48091000184FBCA
:101A3000992790F981E089279091000180FB94F922
:101A4000909300018091000184FF99C18091000171
:101A5000877F80930001809100018B7FAECE49E0AB
:101A600050E061EC7BE08DE894E0F8DD892BE9F44F
:101A70008FB7F89490913405909340059091330579
:101A800090933F058FBF4AE550E061E080E495E028
:101A90000E9424214BE550E061E08FE395E00E9435
:101AA00024216EE570E082E065C049E050E067EB1C
:101AB0007BE08DE894E0E9DD892B09F05DC01982B7
:101AC0001A821B821C82CE0101969F938F9384E120
:101AD00091E09F938F9386E994E09F938F930E9468
:101AE0008C34C980DA80EB80FC800F900F900F90CF
:101AF0000F900F900F9020E030E0A901C701B601D0
:101B00000E946230882309F43AC180918B0390913E
:101B10008C03BC0180E090E00E94FF304B015C012F
:101B200020E030E048EC51E4C701B6010E94FD2FEF
:101B30002091B2053091B3054091B4055091B5059F
:101B40000E9466309B01AC01C501B4010E94FD2FCB
:101B50006093B6057093B7058093B8059093B90567
:101B600048E250E064E086EB95E00E9424216EE3B9
:101B700070E081E053DC03C10DE814E080918D0436
:101B80008B3279F489E995E09F938F9384E191E01A
:101B90009F938F938EE894E09F938F930E948C3451
:101BA00021C08D3231F589E995E09F938F9384E1CF
:101BB00091E09F938F938EE894E09F938F930E9480
:101BC0008C348091990590919A05A0919B05B091D4
:101BD0009C05B0588093990590939A05A0939B0516
:101BE000B0939C050F900F900F900F900F900F9057
:101BF000C6C021E330E04CE658E06DE873E081E0D8
:101C00000E9465201F930F938DE893E09F938F931D
:101C10001F928FE78F938DE094E09F938F930E94A4
:101C20003F34DBCE9091010196959F7009F4A4C0DA
:101C300080FDA2C081E00E94D021E0910101E695E3
:101C4000EF70F0E03197ED30F10508F08FC0EC5CFB
:101C5000FF4F0C94A72F2FE640E05BE061E080E0AF
:101C60000E941F2380910101817E846082C027E64B
:101C700049E95AE061E080E00E941F238091010160
:101C8000817E886076C027E142E85AE061E080E02A
:101C90000E941F2380910101817E8A606AC02BE22D
:101CA00047E55AE061E080E00E941F238091010136
:101CB000817E8C605EC02FE348E15AE061E080E005
:101CC0000E941F2380910101817E8E6052C02CE210
:101CD0004CEE59E061E080E00E941F2380910101F9
:101CE000817E806146C025E547E959E061E080E0FA
:101CF0000E941F2380910101817E82613AC028E207
:101D00004FE659E061E080E00E941F2380910101CD
:101D1000817E84612EC02FE140E559E061E080E0E2
:101D20000E941F2380910101817E866122C024E7E9
:101D30004CED58E061E080E00E941F23809101019A
:101D4000817E886116C020E34CEA58E061E080E0C3
:101D50000E941F2380910101817E8A610AC02FE0C9
:101D60004DE958E061E080E00E941F23809101016D
:101D7000817E8093010103C081E00E94D0210F90F9
:101D80000F900F900F90DF91CF911F910F91FF90C7
:101D9000EF90DF90CF90BF90AF909F908F9008957D
:101DA0002F923F924F925F926F927F928F929F926B
:101DB000AF92BF92CF92DF92EF92FF920F931F9359
:101DC000CF93DF93CDB7DEB769970FB6F894DEBF38
:101DD0000FBECDBFA8950E94122A0E94CA286CDCB3
:101DE0009FB7F894209184002B87309185003F8322
:101DF000C0903505D0903605E0903705F090380555
:101E000080918600209187004091390550913A05D4
:101E100060913B0570913C059FBF909128053091E2
:101E20002C01391769F190932C0110922B018090AD
:101E3000890590908A05A0908B05B0908C058092C2
:101E4000830590928405A0928505B0928605E09165
:101E50008705F0918805F0938205E0938105662758
:101E600077274093890550938A0560938B0570937B
:101E70008C0590E0922B90938805809387052CC069
:101E80008091270190912801A0912901B0912A0108
:101E9000C816D906EA06FB0698F120912B012F5FA0
:101EA000253B08F024EB20932B0120912B012530BA
:101EB00050F010929D0510927D0510927E051092B3
:101EC0007F051092800588519C4FAF4FBF4FC816B9
:101ED000D906EA06FB0630F0D701C6018E519B4FAA
:101EE000AF4FBF4F8093270190932801A093290102
:101EF000B0932A0180910301882309F4C9C19FC1CD
:101F000080911805823009F071C12DE330E044E77B
:101F100051E06DE873E081E00E94652081E495E086
:101F20009F938F9383E495E09F938F938FE595E044
:101F30009F938F9387E695E09F938F938DE695E02F
:101F40009F938F9387E495E09F938F9388E495E028
:101F50009F938F938CE495E09F938F938DE495E00E
:101F60009F938F9381E595E09F938F9383E595E011
:101F70009F938F938DE8E82E83E0F82EFF92EF92E7
:101F80000FE012E01F930F930E948C342FE030E09B
:101F900045E651E0B70181E00E9465208FE695E0BB
:101FA0009F938F93FF92EF921F930F930E948C3415
:101FB0000FB6F894DEBF0FBECDBF181619060CF091
:101FC00057C0D0D980916F05909170050297029704
:101FD00020F01092700510926F0500911B0510E023
:101FE0000150110931F0F801E15FFD4F80818A3223
:101FF000B9F7C80120E030E0181619068CF4FC018E
:10200000E15FFD4F40814C3249F42F5F3F4F233059
:10201000310521F48C010F5F1F4F02C00197ECCFF7
:102020002CE030E049E551E06DE873E081E00E948A
:10203000652081E495E09F938F938BE595E09F93D6
:102040008F938FE595E09F938F9383E695E09F9321
:102050008F938DE893E09F938F93015F1D4F1F93A4
:102060000F930E948C340FB6F894DEBF0FBECDBF25
:1020700023E330E046E251E06DE873E081E00E9446
:10208000652081E495E09F938F9387E595E09F938A
:102090008F9387E495E09F938F9388E495E09F93D7
:1020A0008F938CE495E09F938F938DE495E09F93BD
:1020B0008F9381E595E09F938F9383E595E09F93C0
:1020C0008F938DE893E09F938F938FE092E09F939F
:1020D0008F930E948C340FB6F894DEBF0FBECDBF35
:1020E000181619060CF043C03DD9C0905705D09082
:1020F0005805E0905905F0905A05D701C601805463
:102100009041A109B109833C9F4AA440B10538F52B
:10211000C701B60124E630E040E050E00E948B2F7A
:102120004B015C01A7019601261B370B480B590B8D
:10213000A4E6B0E00E94AD2FDC01CB018053984FA4
:10214000AF4FBF4F880E991EAA1EBB1E8092570527
:1021500090925805A0925905B0925A0508C0109265
:102160005705109258051092590510925A0521E111
:1021700030E045E151E06DE873E081E00E946520C8
:102180008BE695E09F938F930DE8E02E03E0F02E11
:10219000FF92EF920FE012E01F930F930E948C3496
:1021A00021E130E044E051E0B70181E00E94652088
:1021B00089E695E09F938F93FF92EF921F930F9381
:1021C0000E948C34809100010FB6F894DEBF0FBEE0
:1021D000CDBF83FF07C020911B05A80160E080E010
:1021E0000E941F2310921B05109218058FB7F894B8
:1021F000109132058FBFC0902A05D0902B05E0903A
:102200002C05F0902D0520E030E0A901C701B601B2
:102210000E946230882311F40C94361F11110C9423
:10222000361F41E0C701B601E7D960932A057093D4
:102230002B0580932C0590932D050C94361F8F5FF2
:1022400080930301853021F44EE06CE178E005C015
:102250008A3039F442E16AE078E081E00E94E023CC
:1022600017C08B3021F442E168EF77E0F6CF8C3075
:1022700021F442E166EE77E0F0CF863449F442E1A2
:1022800066EE77E081E00E94E0238AE0809303011C
:10229000609187037091880380E090E00E94FF3096
:1022A00020E030E045E553E40E94663029E639E35A
:1022B00040E15DE30E94FE2F6093790570937A05FB
:1022C00080937B0590937C056091890370918A03CC
:1022D00080E090E00E94FF3020E030E045E553E4EC
:1022E0000E94663029E639E340E15DE30E94FE2F5B
:1022F00060937505709376058093770590937805C4
:1023000060918B0370918C0380E090E00E94FF301D
:102310002091B6053091B7054091B8055091B905A7
:102320000E94FD2F2091B2053091B3054091B40574
:102330005091B5050E94083220E030E048EC51E4AD
:102340000E94FE2F60937105709372058093730550
:10235000909374058091000182FFB3C221E130E0C7
:1023600046ED57E06DE074E081E00E94652021E1D8
:102370004DE054E060E080E00E941F2328E230E05E
:102380004EEA57E06DE873E081E00E94652080919D
:1023900052058F93809151058F93809156058F93AD
:1023A000809155058F93809154058F9380915305AB
:1023B0008F9380915A058F93809159058F938091C7
:1023C00058058F93809157058F931DE8212E13E0B8
:1023D000312E3F922F920DE014E01F930F930E9435
:1023E0006C34282FA80160E080E00E941F2325E2C2
:1023F00030E049E857E0B10181E00E94652080911A
:102400006E058F9380916D058F93809170058F93EA
:1024100080916F058F933F922F921F930F930E948D
:102420006C34282FA80160E080E00E941F2323E580
:1024300030E046E357E0B10181E00E9465208091E1
:102440006A058F93809169058F9380916C058F93B6
:1024500080916B058F93809168058F9380916705BC
:102460008F933F922F921F930F930E946C340FB65D
:10247000F894DEBF0FBECDBF282FA80160E080E03A
:102480000E941F2328E330E04EEF56E0B10181E0C7
:102490000E94652080915B0590915C05A0915D058F
:1024A000B0915E058B839C83AD83BE8342E0BC010B
:1024B000CD0171D88F87998B40905F055090600552
:1024C000609061057090620542E0C301B20163D87B
:1024D000382F292F8090630590906405A0906505A2
:1024E000B090660542E0C501B401288F3F8B53D8F8
:1024F000AC0199899F93AF85AF936B817C818D816E
:102500009E814E8B598F0E94CE307F936F93288D82
:102510002F933F893F93C301B2010E94CE307F9336
:102520006F93598D5F934E894F93C501B4010E94FB
:10253000CE307F936F933F922F921F930F930E9401
:102540006C34282FA80160E080E00E941F2323E460
:1025500030E04BEB56E0B10181E00E9465208090B5
:10256000430590904405A0904505B090460542E093
:10257000C501B40110D8382E292EC501B4010E941E
:10258000CE30562E472E8090480590904905A09059
:102590004A05B0904B0544E0C501B4010E94CB0A46
:1025A000782E692EC501B4010E94CE30362F572FE8
:1025B000009147050FB6F894DEBF0FBECDBF0023D4
:1025C00011F010E002C00DE210E080904D059090F7
:1025D0004E05A0904F05B090500544E0C501B401F0
:1025E0003F8B598F0E94CB0A282F492FC501B40178
:1025F000288F4E8B0E94CE3080914C05288D3F89CC
:102600004E89598D882311F090E002C08DE290E050
:102610002F923F924F925F926F927F925F933F9380
:102620001F930F934F932F937F936F939F938F934A
:10263000BDE8AB2EB3E0BB2EBF92AF920DE014E02D
:102640001F930F930E946C34282FA80160E080E054
:102650000E941F230FB6F894DEBF0FBECDBF80913E
:102660002B01811192C02FE130E04CE956E0B50119
:1026700081E00E9465204090790550907A05609035
:102680007B0570907C0543E0C301B2010E94CB0A38
:1026900080908703909088039F938F93C301B2012A
:1026A0000E94CE307F936F939F928F92BF92AF9292
:1026B0001F930F930E946C34282FA80160E080E0E4
:1026C0000E941F232FE130E04DE756E0B50181E085
:1026D0000E946520409075055090760560907705C2
:1026E0007090780543E0C301B2010E94CB0A80904C
:1026F000890390908A039F938F93C301B2010E9434
:10270000CE307F936F939F928F92BF92AF921F9321
:102710000F930E946C34282FA80160E080E00E9493
:102720001F232EE130E04FE556E0B50181E00E9425
:10273000652040907105509072056090730570900F
:10274000740541E0C301B2010E94CB0A80908B0363
:1027500090908C039F938F93C301B2010E94CE305F
:102760007F936F939F928F92BF92AF921F930F931D
:102770000E946C34282FA80160E080E00E941F2393
:102780000FB6F894DEBF0FBECDBF28E330E047E2BE
:1027900056E06DE873E081E00E9465203B8590E0A3
:1027A000AF819A2B9F933F93FF92EF92DF92CF924C
:1027B000ADE8EA2EA3E0FA2EFF92EF920DE014E0CE
:1027C0001F930F930E946C34282FA80160E080E0D3
:1027D0000E941F2324E730E043EB55E0B70181E07E
:1027E0000E946520809182058F93809181058F934F
:1027F000809186058F93809185058F9380918405C4
:102800008F93809183058F93809188058F9380911A
:1028100087058F9380918C058F9380918B058F9383
:1028200080918A058F93809189058F93FF92EF9213
:102830001F930F930E946C34282FA80160E080E062
:102840000E941F2324E230E04FE855E0B70181E009
:102850000E946520809133051F928F9380913405EB
:102860001F928F93FF92EF921F930F930E946C34ED
:102870000FB6F894DEBF0FBECDBF282FA80160E0D1
:1028800080E00E941F2320E230E04FE655E0B701D0
:1028900081E00E94652080919D051F928F93FF9299
:1028A000EF921F930F930E946C34282FA80160E0D1
:1028B00080E00E941F230F900F900F900F900F90B9
:1028C0000F9080912B018111F1C5409189055091A4
:1028D0008A0560918B0570918C058091830590919C
:1028E0008405A0918505B09186059A01AB01281B4E
:1028F000390B4A0B5B0BA0E2BEE40E94AD2F209186
:102900008705309188054901A12CB12C20918105C2
:1029100030918205821A930AA108B108860E971E8B
:10292000A81EB91ED501C4019D52A143B1408B839D
:102930009C83AD83BE83409023015090240160901E
:1029400025017090260120E030E040EA50E4C30108
:10295000B2010E9466306B017C019CE9891A9CE2FD
:10296000990A91E3A90A91E0B90AA9EC8A1691049F
:10297000A104B104D8F020E030E040E05FE3C701FB
:10298000B6010E9408322B013C0120E030E040EA11
:1029900051E4C701B6010E9466306B877C878D8742
:1029A0009E871B821C821D821E8258C08B819C8147
:1029B000AD81BE814396A11DB11D8797A105B105CB
:1029C00048F56B817C818D819E810E940131A70138
:1029D00096010E94FD2F9B01AC01C301B2010E9430
:1029E000FE2F60932301709324018093250190931F
:1029F000260120E030E040E05FE3C701B6010E941D
:102A000008322B013C0120E030E040EA51E4C701EC
:102A1000B6011EC0109223011092240110922501CC
:102A2000109226016B817C818D819E810E940131F3
:102A30004B015C0120E030E040E05FE30E9408329F
:102A40002B013C0120E030E040EA51E4C501B40133
:102A50000E9466306B877C878D879E8780910001FE
:102A600082FFC3C08091000180FDBFC02AE330E037
:102A70004FE554E06DE873E081E00E946520BE817F
:102A8000BF932D812F933C813F938B818F938DE852
:102A900093E09F938F938DE094E09F938F930E9498
:102AA0006C34282F4DE054E060E080E00E941F234A
:102AB00020E030E040E250E460917D0570917E05B9
:102AC00080917F05909180050E94FE2F4B015C0153
:102AD00024E730E04BEE53E06DE873E081E00E94C4
:102AE000652046E0C501B4010E94CB0A8F87998B0F
:102AF000C501B4010E94CE306A8B7B8B0FB6F8946F
:102B0000DEBF0FBECDBF20E030E0A901C501B4019A
:102B10000E94043287FF02C08DE201C08BE2282FA1
:102B200030E038872F8343E0C301B2010E94CB0A13
:102B30001C01C301B2010E94CE306C8B7D8B20E062
:102B400030E0A901C301B2010E94043287FF02C034
:102B50000DE201C00BE210E043E0C701B6010E94A4
:102B6000CB0A982E892EC701B6010E94CE30B62E10
:102B7000A72E20E030E0A901C701B6010E9404326F
:102B800087FF02C08DE201C08BE239893F939F85A8
:102B90009F93AB89AF93BA89BF9328852F933F81C9
:102BA0003F933F922F929D899F93AC89AF931F9340
:102BB0000F938F929F92AF92BF921F928F938DE847
:102BC00093E09F938F938DE094E09F938F930E9467
:102BD0006C34282F4DE054E060E080E00E941F2319
:102BE0000FB6F894DEBF0FBECDBF80919D05843037
:102BF00080F48091000181FF0CC02DEC3CEC4CEC8A
:102C00005DE3C701B6010E94FE2F6B017C0111E05C
:102C100001C010E020E030E04AE754ECC701B60103
:102C20000E94043218160CF018C220E030E04AE787
:102C300054E4C701B6010E94623087FF0EC2111131
:102C400004C020E030E0A90104C02AE037ED43EAE7
:102C50005BE36B857C858D859E850E94FD2F4B01F6
:102C60005C018B819C81AD81BE810396A11DB11D4C
:102C70000797A105B105F0F420E030E040EA51E407
:102C8000C701B60190580E9466302091A605309188
:102C9000A7054091A8055091A9050E94663020E043
:102CA00030E040E251E40E9466306F837887898784
:102CB0009A8729C06B817C818D819E8190958095BA
:102CC000709561957F4F8F4F9F4F0E94013120E09B
:102CD00030E040EA51E40E9466302091A605309130
:102CE000A7054091A8055091A9050E9466302DECDA
:102CF0003CEC4CE85FE30E9466306F8378878987FD
:102D00009A8710929D052FE832EC45E75CEBC501F0
:102D1000B4010E94043287FD16C02FE832EC45E76B
:102D20005CE3C501B4010E946230181664F0809122
:102D30009D05823041F480912201811162C083E0BF
:102D400080939D055EC02CEE31E548E35DEBC50147
:102D5000B4010E94043287FD14C02CEE31E548E333
:102D60005DE3C501B4010E946230181654F08091F1
:102D70009D05813031F480912201811142C082E0B1
:102D800031C02CE53FE842EC5DEBC501B4010E9487
:102D9000043287FD0EC02CE53FE842EC5DE3C5013F
:102DA000B4010E946230181624F080919D05823093
:102DB00040F520E030E048EC51ECC501B4010E9440
:102DC000043287FD19C020E030E048EC51E4C50131
:102DD000B4010E94623018167CF080919D0582300B
:102DE00020F081E080939D0509C081110AC0809187
:102DF00022018823B1F305C010929D0584E18093E0
:102E000022018091000180FF31C18FB7F894909129
:102E100034059A839091330599838FBF80919D05E6
:102E20008430A8F49E012F5F3F4FAE014E5F5F4F8D
:102E30006F81788589859A850E942D0A8FB7F894CD
:102E40009A81909334059981909333058FBF809137
:102E5000000182FF02C12AE330E04FE554E06DE853
:102E600073E081E00E9465203E813F938D818F93C6
:102E70009C819F93AB81AF938DE893E09F938F9359
:102E80008DE094E09F938F930E946C34282F4DE047
:102E900054E060E080E00E941F2324E730E04BEE26
:102EA00053E06DE873E081E00E94652046E0C501D3
:102EB000B4010E94CB0A8C01C501B4010E94CE303E
:102EC0001B010FB6F894DEBF0FBECDBF20E030E08F
:102ED000A901C501B4010E94043287FF02C08DE23E
:102EE00001C08BE2A82FB0E0BC83AB8343E0C301F9
:102EF000B2010E94CB0A5C01C301B2010E94CE3034
:102F00004B0120E030E0A901C301B2010E9404326C
:102F100087FF02C08DE201C08BE2282F30E0388BA2
:102F20002F8743E0C701B6010E94CB0A898B9A8B99
:102F3000C701B6010E94CE306B8B7C8B20E030E065
:102F4000A901C701B6010E94043287FF02C08DE2C9
:102F500001C08BE21F930F933F922F923C813F93CE
:102F60009B819F93BF92AF929F928F92A889AF93BC
:102F7000BF85BF932A892F9339893F939C899F935B
:102F8000AB89AF931F928F93FDE8EF2EF3E0FF2EF6
:102F9000FF92EF920DE014E01F930F930E946C34A8
:102FA000282FA80160E080E00E941F236A8170E062
:102FB00080E090E00E9401314B015C01698170E08A
:102FC00080E090E00E94013120E030E040E85BE3E7
:102FD0000E9408329B01AC01C501B4010E94FE2F82
:102FE0004B015C0127E430E044EA53E0B70181E0A3
:102FF0000E94652043E06F81788589859A850E94CB
:10300000CB0AC82E392E43E0C501B4010E94CB0A79
:10301000D82E292E3F92CF926F81788589859A8507
:103020000E94CE307F936F932F92DF92C501B4013F
:103030000E94CE307F936F93FF92EF921F930F9376
:103040000E946C340FB6F894DEBF0FBECDBF282FA0
:10305000A80160E080E00E941F238091220181503E
:1030600018F08093220102C01092220110919D0558
:10307000143060F48B859C85AD85BE8580937D057D
:1030800090937E05A0937F05B09380058091000109
:1030900081FF0CC26091890370918A036D50714069
:1030A000072E000C880B990B0E94013120E030E0C4
:1030B00045E553E40E94663023E333E343EB5FE3EB
:1030C0000E94663020E030E044EB52E40E94083277
:1030D0004B015C01133008F47EC020E030E040EA90
:1030E00052EC0E94043287FD66C020E030E040EAE6
:1030F00052E4C501B4010E94623018160CF45BC0A2
:10310000173078F487E080939D058FB7F89410927C
:103110002A0510922B0510922C0510922D058FBFB9
:103120002EC0173061F187E080939D0520E030E0EC
:103130004CE552ECC501B4010E94043287FF8AC6F7
:103140002AE939E949E95FE3C501B4019F770E94A3
:103150006B3220E030E048EC52E40E9408326B0110
:103160007C0120E030E0A901C501B4010E94623079
:1031700087FF3CC0F7FAF094F7F8F09437C020E0EE
:1031800030E04CE552ECC501B4010E94043287FDE9
:1031900022C020E030E04CE552E4C501B4010E94B9
:1031A00062301816C4F080919D058F30A0F48FE036
:1031B00080939D0510C0173070F081E080939D05CD
:1031C0008FB7F89410922A0510922B0510922C05B7
:1031D00010922D058FBF80919D05873008F0B0CFEC
:1031E000C12CD12C760126013701A8C020911E01E7
:1031F00030911F014091200150912101C701B6017A
:103200000E94FD2F2B013C0120E030E0A901C70105
:10321000B6010E940432181654F420E030E0A901EF
:10322000C301B2010E94043218160CF406C620E055
:1032300030E0A901C701B6010E94623087FFFFC5D7
:1032400020E030E0A901C301B2010E946230881F72
:103250008827881FC0921E01D0921F01E092200192
:10326000F09221018111EDC52DEB37E346E855E3DE
:10327000C701B6010E94083220E030E0A9010E9497
:10328000FE2F2B013C0180911A0190911B01A0910E
:103290001C01B0911D018B839C83AD83BE8320E014
:1032A00030E040EE50E4BC01CD010E9466306B87F7
:1032B0007C878D879E879B01AC016091A6057091EC
:1032C000A7058091A8059091A9050E9408326093F6
:1032D0007D0570937E0580937F059093800520E0A7
:1032E00030E0A901C301B2010E9404322B853C8564
:1032F0004D855E8587FDAAC5C301B2010E94FD2FE1
:103300009B01AC016B817C818D819E810E94FE2F8F
:1033100060931A0170931B0180931C0190931D010F
:1033200020E030E0A901C301B2010E94623088238D
:1033300029F040E0C301B2010E94FC0A8091000123
:1033400082FFB4C02BE630E049E353E06DE873E060
:1033500081E0BBD643E0C701B6010E94CB0A382EFC
:10336000292EC701B6010E94CE30162F072F20E06C
:1033700030E0A901C701B6010E94043287FF02C0F4
:103380008DE201C08BE2E82EF12C43E0C301B201D3
:103390000E94CB0AD82EC92EC301B2010E94CE30A2
:1033A0006B837B8720E030E0A901C301B2010E945A
:1033B000043287FF02C02DE201C02BE243E0C501C9
:1033C000B401288F0E94CB0A2F923F920F931F9334
:1033D000FF92EF92CF92DF92AB85AF93BB81BF9309
:1033E0001F92288D2F939F938F93C501B4010E9444
:1033F000CE307F936F938DE893E09F938F938DE012
:1034000094E09F938F930E946C34282F4DE054E0FA
:1034100060E080E00E941F2324E330E045E053E0B9
:103420006DE873E081E051D6C0902A05D0902B055D
:10343000E0902C05F0902D0543E0C701B6010E94F5
:10344000CB0AB82EA92EC701B6010E94CE30162F86
:10345000072F0FB6F894DEBF0FBECDBF20E030E0DF
:10346000A901C701B6010E94043287FF02C02DE204
:1034700001C02BE2AF92BF920F931F931F922F9325
:103480008DE893E09F938F938DE094E09F938F93CB
:103490000E946C34282F4DE054E060E080E00E94F0
:1034A0001F230FB6F894DEBF0FBECDBF8091000181
:1034B00086FF67C0EAEDF5E080E090E021912A35D3
:1034C00071F086529A4F20910401309105018217C4
:1034D000930750F4909305018093040105C0019671
:1034E0008032A2E09A0751F725E430E044E152E04F
:1034F0006DE873E081E0E9D5809107018F938091B9
:1035000006018F93809105018F93809104018F9321
:10351000EDE8EE2EE3E0FE2EFF92EF920DE014E0D8
:103520001F930F930E946C34282FA80160E080E065
:103530000E941F232DE130E047EF51E0B70181E009
:10354000C4D590913E019695917080913E01817015
:1035500020913D011F929F931F928F931F922F9353
:10356000FF92EF921F930F930E946C34282FA801B3
:1035700060E080E00E941F230FB6F894DEBF0FBE0C
:10358000CDBF8091000187FF37C02FB7F89480919D
:10359000350590913605A0913705B09138052FBFBC
:1035A00089389341A105B10580F521E130E044EF70
:1035B00052E06DE873E081E088D560E080E00E9431
:1035C000DE2760E18DE893E00E9407280E94122A1E
:1035D00021E130E043EE52E06DE873E081E075D523
:1035E00060E081E00E94DE2760E18DE893E00E94C8
:1035F00007280E94122AA9C10E9405270E94772746
:103600008091000187FDC1CFA0C160917D057091BF
:103610007E0580917F059091800520919D05222354
:10362000D9F120E030E04AE754E40E9408326B010F
:103630007C012BE130E048EC52E06DE873E081E082
:1036400044D5109167050091680543E0C701B601B4
:103650000E94CB0A0F931F931F9223EF2F93209169
:103660009D051F922F931F9220EE2F939F938F9370
:10367000C701B6010E94CE307F936F931F9282E6FE
:103680008F938DE893E09F938F938DE094E09F93C9
:103690008F930E946C3422C028E130E040EB52E06E
:1036A0006DE873E081E011D5809168058F9380917A
:1036B00067058F931F9283EF8F9380919D051F92D3
:1036C0008F931F9280EE8F938DE893E09F938F935B
:1036D0008DE094E09F938F930E946C34182F0FB667
:1036E000F894DEBF0FBECDBF60E080E00E94DE2711
:1036F000612F8DE094E00E9407280E94122A809199
:103700001901813009F45FC0823009F4A8C08090AB
:10371000570590905805A0905905B0905A054090D3
:1037200053055090540560905505709056052CE156
:1037300030E044E952E06DE873E081E0C6D474E61D
:10374000C72ED12CE12CF12CC301B201A7019601A7
:103750000E948B2F1F926F93CA01B901A701960196
:103760000E948B2F1F926F93C301B20120E137E2B9
:1037700040E050E00E948B2F1F922F93C501B401AF
:1037800020E137E240E050E00E948B2FCA01B901EE
:10379000A70196010E948B2F1F926F93C501B40160
:1037A00020E432E44FE050E00E948B2F1F922F93D1
:1037B0008DE893E09F938F938DE094E09F938F9398
:1037C0000E946C349FC022E230E042E752E06DE894
:1037D00073E081E07AD4B0906905A0906A051091F9
:1037E0006B0500916C05C0906305D0906405E09076
:1037F0006505F090660541E0C701B6010E94CB0A5D
:10380000AF92BF921F922BEE2F930F931F931F9295
:103810002FED2F939F938F93C701B6010E94CE3057
:103820007F936F9380916E058F9380916D058F9339
:103830001F9286E48F93809170058F9380916F051E
:103840008F931F928DE48F938DE893E09F938F93D6
:103850008DE094E09F938F930E946C3453C08FB798
:10386000F89460913405109133058FBF70E080E0CB
:1038700090E00E9401316B017C01612F70E080E0DB
:1038800090E00E94013120E030E040E85BE30E94DC
:1038900008329B01AC01C701B6010E94FE2F6B01EB
:1038A0007C0129E130E049E552E06DE873E081E018
:1038B0000CD41091790500917A05B0907B05A09009
:1038C0007C0543E0C701B6010E94CB0AAF92BF92CC
:1038D0000F931F931F922BEA2F939F938F93C701F0
:1038E000B6010E94CE307F936F931F9280E58F9335
:1038F0008DE893E09F938F938DE094E09F938F9357
:103900000E946C34182F60E081E00E94DE27612F56
:103910008DE094E00E9407280FB6F894DEBF0FBE3A
:10392000CDBF0E94122A809118018F5F833018F456
:10393000809318010AC010921801809119018F5FBD
:1039400063E00E94362F909319018091010180FF5E
:103950000E944E282FB7F89410919D05609175052F
:103960007091760580917705909178052FBF26E6B6
:1039700036E646EA5FE30E94FD2F2DEC3CEC4CE876
:103980005FE30E94663020E030E044EB52E40E94A6
:10399000083220E030E048EC52E40E9408320E94F5
:1039A000CE30812F0E944F288FB7F894C0905705D2
:1039B000D0905805E0905905F0905A058FBFC70187
:1039C000B60120E432E44FE050E00E948B2F122F2A
:1039D00090E1892E97E2992EA12CB12CC701B60156
:1039E000A50194010E948B2F2B013C0164E6C62E99
:1039F000D12CE12CF12CCA01B901A70196010E943A
:103A00008B2F412FC2010E9459288FB7F894409004
:103A100053055090540560905505709056058FBF22
:103A2000C301B201A70196010E948B2F062FCA0184
:103A3000B901A70196010E948B2F162FC301B20175
:103A4000A50194010E948B2F822F402F612F0E948D
:103A500064288FB7F894C0907D05D0907E05E090E3
:103A60007F05F09080058FBF20E030E0A901C701FD
:103A7000B6010E94043218162CF420E030E04AE728
:103A800054E404C020E030E04AE754ECC701B6013A
:103A90000E9408322B013C010E94CE304B015C0198
:103AA0008B01072E000C880B990B0E9401319B01A2
:103AB000AC01C301B2010E94FD2F20E030E04AE7D3
:103AC00054E40E9408320E94D3302B013C0120E0D4
:103AD00030E0A901C701B6010E94623087FF04C02F
:103AE0000027112708191909B201C8010E946E2880
:103AF0009FB7F89480913405609133059FBF0E9471
:103B000079288FB7F894C0907905D0907A05E09025
:103B10007B05F0907C058FBFC701B6010E94D330B2
:103B2000162F70E080E090E00E9401319B01AC0113
:103B3000C701B6010E94FD2F20E030E04AE754E4BF
:103B40000E9408320E94D330812F0E9482289FB7A2
:103B5000F89480916B0560916905409167059FBF5E
:103B60000E948C282FB7F8946091630570916405CA
:103B700080916505909166052FBF20E030E048EC0C
:103B800052E40E9408320E94D330CB010E94962852
:103B90009FB7F89480916D0560916F059FBF0E945B
:103BA0009F288FB7F89480904C0540904D05509019
:103BB0004E0560904F05709050058FBF20E030E0BB
:103BC00048EC52E4C301B2010E9466300E94D33037
:103BD000962EC301B2010E94CE3004E610E0CB0164
:103BE000B8010E94562F5C016C01DD24B4E69B9E57
:103BF000C00CD11C1124B601DD0C880B990B0E945E
:103C000001319B01AC01C301B2010E94FD2F20E0F4
:103C100030E04AE754E40E9408320E94D3309B010E
:103C20004A2D692D882D0E94A8288FB7F89470908E
:103C30004705C0904805D0904905E0904A05F090AE
:103C40004B058FBF20E030E048EC52E4C701B601DD
:103C50000E9466300E94D3304B015C01C701B6015F
:103C60000E94CE30CB01B8010E94562F682E84E608
:103C7000889D8001899D100D1124060D111DB8012C
:103C800080E090E00E94FF309B01AC01C701B601CB
:103C90000E94FD2F20E030E04AE754E40E94083201
:103CA0000E94D3309B01462D682D872D0E94B42899
:103CB0001FB7F894C0904305D0904405E0904505A7
:103CC000F0904605C701B6010E943C319B01AC0152
:103CD0001FBFC701B6010E94FD2F20E030E048EC75
:103CE00052E40E9408320E94CE30162FC701B6015E
:103CF0000E94CE30DC01CB01612F0E94C02820E061
:103D000030E0A9016091990570919A0580919B0519
:103D100090919C050E946230882309F4A7C0FFB6E9
:103D2000F8941091340500913305FFBE19830A837E
:103D30006091990570919A0580919B0590919C05E1
:103D40009E012E5F3F4FAE014F5F5F4F0E942D0AD5
:103D5000F8948981809334058A8180933305FFBE6E
:103D60002BE630E044E055E06DE873E081E0ADD152
:103D7000C0909905D0909A05E0909B05F0909C0525
:103D800047E0C701B6010E94CB0A1F920F931F9212
:103D90001F939F938F93C701B6010E94CE307F93EC
:103DA0006F938DE8A82E83E0B82EBF92AF920DE0FE
:103DB00014E01F930F930E946C34282FA80160E039
:103DC00080E03DD42BE630E049E954E0B50181E0E4
:103DD0007CD1C0909905D0909A05E0909B05F09019
:103DE0009C0547E0C701B6010E94CB0A2A811F92B9
:103DF0002F9329811F922F939F938F93C701B60111
:103E00000E94CE307F936F93BF92AF921F930F9318
:103E10000E946C34282FA80160E080E010D410923A
:103E2000990510929A0510929B0510929C050FB669
:103E3000F894DEBF0FBECDBF19C081E00BCA80E091
:103E400009CA22E838EA4BE757E312CAC301B201B4
:103E5000905854CA20E030E04CE552E4C501B4016A
:103E60000E94623018160CF0A2C9B5C969960FB647
:103E7000F894DEBF0FBECDBFDF91CF911F910F91A0
:103E8000FF90EF90DF90CF90BF90AF909F908F907A
:103E90007F906F905F904F903F902F900895F8948F
:103EA000F89481E085BF80E085BF0FB6F894A895AF
:103EB00080916000886180936000109260000FBE66
:103EC0008FEE8093640080B7806880BF80917F0010
:103ED000836080937F0085B78F7E85BF0E944809ED
:103EE000EAEFF7E08AE5829395E0EA3DF907D9F732
:103EF0000E94B3080E941F0819D40E94D328789406
:103F000081E08093160588D580D7F1D70E944E288E
:103F100027D260E08DE893E07AD1882339F180E1FF
:103F2000EDE8F3E0A6ECB5E001900D928A95E1F79B
:103F30001092D60580919F039091A0039093C505A0
:103F40008093C40580919D0390919E039093C30537
:103F50008093C2058091A103982F9295990F907E2E
:103F6000809101018F71892B8093010161E08DE8BF
:103F700093E04DD1882309F440C080918D03909146
:103F80008E03A0918F03B09190038093BE05909310
:103F9000BF05A093C005B093C10580919103909196
:103FA0009203A0919303B09194038093BA059093E8
:103FB000BB05A093BC05B093BD058091950390917E
:103FC0009603A0919703B09198038093B6059093C0
:103FD000B705A093B805B093B90580919903909166
:103FE0009A03A0919B03B0919C038093B205909398
:103FF000B305A093B405B093B50562E08DE893E0F6
:1040000006D1882309F450C080918D0390918E03CE
:10401000A0918F03B09190038093AE059093AF056C
:10402000A093B005B093B105809191039091920354
:10403000A0919303B09194038093AA059093AB054C
:10404000A093AC05B093AD05809195039091960334
:10405000A0919703B09198038093A6059093A7052C
:10406000A093A805B093A90580919F039091A00308
:10407000A091A103B091A2038093A2059093A30500
:10408000A093A405B093A5058091A3039091A403E8
:10409000A091A503B091A60380939E0590939F05E0
:1040A000A093A005B093A1058091000187FD0AC0EF
:1040B0008091010180FD06C025E04CEF5BE061E0EE
:1040C00081E0BDD20E94D00EFDCF1F93CF93DF932E
:1040D000162F972FBA01882329F0C12FD92FA0E0DE
:1040E000B0E007C0A901812FDF91CF911F910C94FF
:1040F000EA33A217B30739F0FB01EA0FFB1FE49183
:10410000E9931196F6CF812FDF91CF911F910895FA
:1041100020E1829FC00111248C60906B0895CF93A1
:10412000DF93FC01DC015E9625EA35EA60E1E901F6
:10413000CC0FDD1F922F9170832F881F8827881F37
:104140009827A901452F55274295469547704170FC
:10415000942733FB332730F9932727FB882780F9EF
:10416000982722FB222720F92927CE01822B9C01A8
:104170006150E9F681912827EA17FB07B9F6C901D2
:10418000DF91CF910895E0910801F0910901099420
:10419000EF92FF920F931F93CF93DF931F92CDB7B0
:1041A000DEB77C018A01081B190B662361F0C80188
:1041B0008E0D9F1D69830E942D37F70181937F012A
:1041C00069816150F2CF0F90DF91CF911F910F91D4
:1041D000FF90EF9008958830B8F490E2899FA00195
:1041E000112460E28DE893E0D3DF8DE893E097DF60
:1041F0002091AC0330E0322F22274091AB03242BD7
:1042000041E02817390709F040E0842F08950F9303
:104210001F93CF93683010F080E012C0C62F8C013E
:10422000862FD9DF8823C1F383E00D38180739F0D2
:1042300080E2C89FA001112460E2C801A9DF81E0EB
:10424000CF911F910F910895EF92FF921F93CF93FB
:10425000DF937C01C42FD52F162F140F1C1741F0AC
:10426000F70161917F01CE010E9435372196F6CF8B
:10427000DF91CF911F91FF90EF9008951F93CF93FF
:10428000DF93683018F5162FEC0149DF2F8D30E0F1
:10429000322F22274E8D242B28173907C9F08E8FF5
:1042A0009F8F8D8D90E0982F88272C8D822B0196E3
:1042B0008C8F9D8FCE0133DF8E8F9F8F80E2189F72
:1042C000A001112460E2CE01BFDF02C080E001C086
:1042D00081E0DF91CF911F9108951F93CF93DF93DA
:1042E000883010F080E038C0182F75DF8111FACFC8
:1042F000212F30E04091AC0350E0542F44278091AF
:10430000AB03482BC90174E0880F991F7A95E1F738
:104310008C60906B48175907D1F0C091AA03D0E088
:10432000DC2FCC278091A903C82B95E0220F331FE7
:104330009A95E1F7255E334F40E050E06CE18DE85F
:1043400093E021DF2196C093A903D093AA03612FA4
:104350008DE893E093DF81E0DF91CF911F91089585
:10436000CF93DF93C0E0D0E08C2FB7DF8111DF5F08
:10437000CF5FC830C9F78D2FDF91CF91089581119C
:1043800003C0E2E2F5E002C0E3E2F5E08FB7F894A3
:10439000908121E020838FBF81E0911180E008951A
:1043A000811103C0E2E2F5E002C0E3E2F5E08FB77D
:1043B000F89410828FBF08958F929F92AF92BF9210
:1043C000CF92DF92EF92FF920F931F93CF93DF93E1
:1043D000982F3FB7F894882329F070912705809192
:1043E000260504C070912505809124053FBFA72FA5
:1043F000B0E0C82FD0E0FD013196EC17FD0709F4BD
:1044000064C07F3719F4882309F45FC0911105C097
:10441000E7E8EE2EE2E0FE2E04C037E0E32E33E0C4
:10442000F32E30E0781728F4FE01EA1BFB0B3197DE
:104430000CC0E0E8F0E0EA1BFB0B01E010E0882391
:1044400011F000E010E0E01BF10B2E173F070CF419
:10445000F901DE2E8F011127201B310B781720F078
:10446000882311F0219702C0C0E0D0E02C173D074F
:104470000CF4E9015A01962E892ECC2EDD2031F064
:10448000B7016A0F7B1F9801892D1FDECC2049F0F0
:104490009E013327A501400F511FB701892D15DE5D
:1044A000DC0C9FB7882041F0F894809127058D0D92
:1044B0008F778093270507C0F894809125058D0D8F
:1044C0008F77809325059FBF01C0D12C8D2DDF9163
:1044D000CF911F910F91FF90EF90DF90CF90BF9001
:1044E000AF909F908F9008959F92AF92BF92CF927E
:1044F000DF92EF92FF920F931F93CF93DF932FB72B
:10450000F894882329F0C09127059091260504C0CE
:10451000C0912505909124052FBFC91709F45AC0F1
:10452000423008F457C0811103C007E812E002C00E
:1045300007E013E050E041505109E92FF0E09C17EB
:1045400018F42C2F30E002C020E830E02E1B3F0B87
:10455000421753070CF49A01B22E7901FF244E1929
:104560005F099C1710F0D0E002C0C0E0D0E04C170B
:104570005D070CF4EA016B01A82E9C2EBB2039F0DC
:10458000B8016E0F7F1FA701C6010E94EA33992070
:1045900049F0AE015527B801C6018E0D9F1D0E943E
:1045A000EA33B90CF601EB0DF11D10829FB7AA207A
:1045B00041F0F894809126058B0D8F778093260526
:1045C00007C0F894809124058B0D8F778093240584
:1045D0009FBF05C0411102C0FB011082B12C8B2D81
:1045E000DF91CF911F910F91FF90EF90DF90CF90CF
:1045F000BF90AF909F9008953FB7F894882329F01B
:10460000909127052091260504C0909125052091C1
:1046100024053FBF291779F0811103C087E892E094
:1046200002C087E093E0FC01E20FF11D808184323B
:1046300021F481E1089580E0089581E00895FF92DA
:104640000F931F93CF93DF93C82FD62F8A01F22E9B
:104650008C2F95DE8823A9F02FB7CC2331F0F89466
:10466000809127059091260505C0F8948091250535
:10467000909124052FBF981739F08C2F91DEA895C3
:10468000D1D6A895CFD6E4CF2F2DA8016D2F8C2F92
:1046900093DED82F8C2F84DE8D2FDF91CF911F9149
:1046A0000F91FF9008959FB7F894E0ECF0E08081BF
:1046B0008F7B8083E091190581E08E0F809319052F
:1046C000F0E0E953FE4F80818093C6009FBFE1EC8C
:1046D000F0E080818062808308959FB7F894E1ECD8
:1046E000F0E08081806880839FBF08959C01BC01B9
:1046F00076956795CB01A0E0B0E0BC01CD01605399
:104700007D4E8C4E9F4F40E050E00E94692FDA01B1
:10471000C9010197A109B109892F9A2FAB2FBB2796
:104720008093C50021502093C400089580916400B7
:104730008D7F8093640085B78F7E85BF589A63E034
:104740008DE893E064DD8823C1F080918D03909122
:104750008E03909321058093200580918F03909183
:10476000900390931F0580931E0580919103909173
:10477000920390931D0580931C05809120059091D4
:104780002105B4DF88E18093C10020911E0530919E
:104790001F0583E0820F8370880F932F9073892BFE
:1047A000222733709FEF930F9170990F990F990FF4
:1047B000892B8093C2008091C600109219058DCF7D
:1047C000CF93442369F0C42FAB012C2F30E067EC6A
:1047D00071E07BDC10921905C0931A05CF9163CF6D
:1047E000CF910895CF932FB7F8949091C0002FBF29
:1047F00020911A05211135C095FF33C0C82F4DE314
:1048000067EC71E071DE80931A058C2FC9DD809111
:10481000000183FF10921A051092190580911A0564
:10482000882309F1EFEFE80FE0931A05F0E0E95370
:10483000FE4F9081911180931A05E0911A05AE2FD9
:10484000B0E0A953BE4F8DE08C9382E08E0F809331
:104850001A05EF5FF0E0E953FE4F8AE08083CF91C5
:1048600022CFCF919DCDCF9108951F920F920FB679
:104870000F9211242F933F934F935F938F939F93A6
:10488000AF93BF93CF93DF93EF93FF939091C600C5
:1048900078948091180520911705811148C03091B6
:1048A0001B05353708F043C031E03093180522234B
:1048B000C1F02FB7F8943091170540911B05A7E080
:1048C000B2E0E82FE40F831739F05D91F0E0E15F8B
:1048D000FD4F50838F5FF5CFE0931B0510921705B6
:1048E0002FBFE0911B05A1E0AE0FA0931B05CE2FBB
:1048F000D0E0C15FDD4F9883A53780F0B0E0A15FC5
:10490000BD4F8DE08C9383E08E0F80931B05EE5F8F
:10491000F0E0E15FFD4F8AE0808302C09A3021F42D
:1049200082E08093180512C0109218050FC028303D
:1049300068F48FB7F894E091170521E02E0F2093CB
:104940001705F0E0E95FFD4F90838FBFFF91EF9176
:10495000DF91CF91BF91AF919F918F915F914F91D7
:104960003F912F910F900FBE0F901F9018951F929F
:104970000F920FB60F9211248F939F93EF93FF9393
:104980008091C1008F7D8093C1007894909119052A
:1049900080911A05981798F4F894E091190581E030
:1049A0008E0F80931905F0E0E953FE4F80818093CC
:1049B000C6008091C10080628093C100789490917C
:1049C000190580911A05981748F0F8948091C10054
:1049D0008F7D8093C100789410921A05FF91EF911A
:1049E0009F918F910F900FBE0F901F901895789404
:1049F0001F920F920FB60F9211240F900FBE0F90BF
:104A00001F901895A89580911605882321F00AD546
:104A1000C1D30C945C0B0895E4E6F0E080818F77BD
:104A200080839FB7F89487B18F7C87B988B1806302
:104A300088B91092B90081E18093B80084E880932E
:104A4000BC009FBF0895CF93DF93C82F80913E0194
:104A500080FF02C0D7DFFACF80913E0181FDFACFFF
:104A6000D0E0209719F0CEDF2197FBCFDF91CF91D7
:104A700008952FB7F89490913E0191FD04C0909154
:104A80003E0190FD06C090913E0191FF17C0662344
:104A9000A9F090910F05992389F090913E019260C1
:104AA00090933E0190913E019E7F90933E01109223
:104AB0000D05882319F085EA8093BC002FBF089567
:104AC000EF92FF921F93CF93DF9300D0CDB7DEB765
:104AD000182F7901823211F080E001C08AE04A8308
:104AE0006983B1DF9FB7F8941093100510920F05FA
:104AF000E0910F0581E08E0F80930F05F0E0E35DFC
:104B0000FE4F6981608380913E018B7F80933E01DF
:104B1000D7014A8150E09D012E193F09241735071E
:104B200064F4E0910F0581E08E0F80930F05F0E0B3
:104B30008D91E35DFE4F8083EECF80913E018160D9
:104B400080933E019FBF60E081E00F900F90DF9166
:104B5000CF911F91FF90EF908CCFCF93DF931F9257
:104B6000CDB7DEB749839E012F5F3F4F42E0A8DFFC
:104B70000F90DF91CF910895CF93DF9300D0CDB701
:104B8000DEB749832A839E012F5F3F4F42E098DFC3
:104B90000F900F90DF91CF9108951F93CF93DF93E4
:104BA0001F92CDB7DEB7182F823211F080E001C01E
:104BB0008AE0698348DF9FB7F8941093100510923C
:104BC0000F05E0910F0581E08E0F80930F05F0E057
:104BD000E35DFE4F6981608380913E018460809334
:104BE0003E0181E080930E0580913E0181608093BB
:104BF0003E019FBF60E081E03CDF80E024DF8091E8
:104C00002D010F90DF91CF911F9108959FB7F894D8
:104C1000882339F080913E0181FF03C085E98093AC
:104C2000BC0010920F0580913E018D7F80933E0164
:104C30009FBF08951F920F920FB60F9211242F93CA
:104C40003F934F935F936F937F938F939F93AF9314
:104C5000BF93CF93EF93FF938091B900887F90919A
:104C6000BB002091BC00C22FC57480933D018832E7
:104C700009F46FC080F48031F9F038F4883009F01D
:104C8000ACC080911005880F40C0883129F1803276
:104C900009F44AC0A2C0883409F446C030F4803315
:104CA00009F49BC08034C1F098C0803509F46CC011
:104CB000883509F480C091C080911005880F81600B
:104CC0008093BB0080913E018B7F80933E01809159
:104CD0000E0580930F0584C080911005803231F459
:104CE0008091000180688093000109C080911005C7
:104CF000823229F4809101018160809301018091C9
:104D00003D01883129F480912D018093BB0068C05A
:104D100080910D0540910F0590E0019650E08417B9
:104D200095070CF446C042C080911005803231F4E2
:104D3000809100018F77809300014FC08091100512
:104D4000823209F04AC0809101018E7F8093010177
:104D500044C080910D058F5F80930D0590910D05E6
:104D600080910F05981738F4E0910D05F0E0E35DB0
:104D7000FE4F8081CACF80913E0182FF2EC061E04C
:104D800080E077DEC0622CC0E0910D0581E08E0FDF
:104D900080930D05F0E08091BB00E35DFE4F8083C2
:104DA00090910D0580910F05981718F0C22FC570CE
:104DB00017C0C06415C090910D0580910F0598171C
:104DC00060F4E0910D0581E08E0F80930D05F0E019
:104DD0008091BB00E35DFE4F808380E017DFC06100
:104DE000C568C093BC00FF91EF91CF91BF91AF9187
:104DF0009F918F917F916F915F914F913F912F91F3
:104E00000F900FBE0F901F90189544E26AE080E269
:104E1000A4DE80E018DE8091000187FF28C02FEF1C
:104E20004FEF6CE080E2A8DE20E04FEF60E080E230
:104E3000A3DE20E040E062E080E29EDE20E040E091
:104E400062E180E299DE20E040E064E180E294DE0D
:104E500020E040E064E080E28FDE20E040E066E0B9
:104E600080E28ADE2FEF4FEF68E080E285CE089582
:104E7000882311F040E001C04FEF60E080E26DCE8A
:104E8000482F65E180E269CE462F90E8699F900146
:104E90001124282B64E180E26FCE62E180E27DCEB6
:104EA0001F93CF93DF938091010182958695877040
:104EB000813011F0C0E001C0C8E080E0D9DFDC2F14
:104EC000D260C3608D2FDCDF8C2FDADFE6DF182F96
:104ED0008D2FD6DF17FF07C082E48A95F1F700C057
:104EE000A895A0D2EFCFDF91CF911F910895809127
:104EF000000187FF62C0D4DF81E0BADF6CE380E0AD
:104F0000C3DF6CE381E0C0DF6CE380E0BDDF80E005
:104F1000AFDF8BE18A95F1F7000081E0A9DF6CE358
:104F200080E0B2DF6CE381E0AFDF6CE380E0ACDF18
:104F300080E09EDF83EF91E00197F1F700C0000071
:104F400081E096DF6CE380E09FDF6CE381E09CDF33
:104F50006CE380E099DFA4DF81E08ADF6CE380E02E
:104F600093DF6CE381E090DF6CE380E08DDF98DF1E
:104F700081E07EDF6CE080E087DF6CE081E084DF51
:104F80006CE080E081DF8CDF81E072DF61E080E057
:104F90007BDF61E081E078DF61E080E075DF80DF6A
:104FA00081E066DF66E080E06FDF66E081E06CDF75
:104FB00066E088E069DF80E05BCF0895CF93DF9300
:104FC00090910101929596959770913011F0D0E0F3
:104FD00001C0D8E0C62FCF70C068282F217030E004
:104FE00086E0220F331F8A95E1F7C22B59DF81E05B
:104FF0003FDF6C2F8D2F48DF6C2F8D2F816044DFBA
:105000006C2F8D2F41DF80E0DF91CF9131CFAF92B8
:10501000BF92CF92DF92EF92FF920F931F93CF93A5
:10502000DF936C0190910101929596959770913064
:1050300011F0C0E001C0C8E07601062F10E08C2F0F
:105040008460B82EEC2FE560AE2E97012C193D0937
:1050500020173107ACF4F701D1917F0121DF81E006
:1050600007DF6D2F8B2D10DF6D2F8A2D0DDF6D2F3C
:105070008B2D0ADF6D2F8C2F07DF80E0F9DEE5CF67
:10508000DF91CF911F910F91FF90EF90DF90CF9024
:10509000BF90AF90089561E082E27FCDFCCFEDE05C
:1050A000F4E08083618372839F0143E060E882E2E1
:1050B00007CDEDE0F4E080839183628343839F0119
:1050C00044E061E882E2FCCCEDE0F4E080836183BF
:1050D00042839F0143E062E882E2F2CCEDE0F4E03B
:1050E00080839183628373839F0144E063E882E25B
:1050F000E7CCEDE0F4E0808361839F0142E064E867
:1051000082E2DECCEDE0F4E08083618372839F0174
:1051100043E065E882E2D4CCEDE0F4E08083618393
:1051200042839F0143E068E882E2CACCEDE0F4E00C
:10513000808391839F0142E069E882E2C1CCEDE087
:10514000F4E0808361839F0142E06AE882E2B8CCA8
:10515000EDE0F4E0808361834283238334839F0105
:1051600045E06BE882E2ACCCEDE0F4E08083618363
:105170004283238334839F0145E06CE882E2A0CC24
:10518000EDE0F4E08083918362839F0142E06DE86B
:1051900082E296CC80918D0584FF04C065E08AE0B0
:1051A00091E01AC1089589D2E898219829988AEF48
:1051B000815041F0E7E8F3E13197F1F700C00000DA
:1051C000A895F6CF219A299AE89A0895FC01808142
:1051D000982F9076903459F58F7149F5818181111E
:1051E0000EC0828180933F0183818093400184813E
:1051F0008093410185818093420184E019C082300F
:1052000049F48FB7F89426813781309315052093A0
:1052100014050AC0813059F48FB7F894268137817C
:1052200030931305209312058FBF8FEF01C080E0EC
:105230002FE331E030930908209308080895CF92B6
:10524000DF92EF92FF921F93CF93DF937C01462F63
:105250008091000184FF37C080911405909115055D
:10526000892B89F12091D7053091D805C90168EEC5
:1052700073E008D6CB01EAE0F0E0BF0103D6805D21
:10528000D7018C93C90164E670E0FCD5CB01BF0166
:10529000F9D5805DD70111968C93C901BF01F2D574
:1052A000C82FCB01BF01EED5805DF70182832F5F50
:1052B0003F4F3093D8052093D705C05DC3838AE361
:1052C000848315E001C010E0C12ED12C809114051B
:1052D0009091150550E08417950708F4AC01EA0198
:1052E000CC19DD091C161D06ECF480E048D8882393
:1052F000E1F34C2F4F5FB7016C0D7D1D80E0F4D8BA
:10530000C82F80E04DD8CC0ED11C209114053091CF
:1053100015052C193D0930931505209314058C2F84
:10532000810F01C0812FDF91CF911F91FF90EF90EE
:10533000DF90CF9008951F93CF93DF93D62F2091C6
:10534000120530911305462F50E042175307C0F461
:10535000241B350B30931305209312051FB7F894C7
:10536000C09111052C2F30E0BC01C901895B9E4F13
:105370000E94EA33CD0FC09311051FBF80E028C003
:10538000232BA9F01FB7F894C09112055091130573
:10539000D09111052D2F30E04C2FBC01C901895B44
:1053A0009E4F0E94EA33CD0FC09311051FBF20917D
:1053B000110547E451E060E081E041D98FB7F894EE
:1053C0001092130510921205109211058FBF81E003
:1053D000DF91CF911F910895CF9320918D052E31AC
:1053E000F9F020918D0524FF07C030918E0528E843
:1053F000232720938E0503C02AE520938D05DC0129
:10540000EFE8F5E0862F8E0F9D9191938E13FCCFE0
:10541000C62F8FE895E00E940307CC5FC0938D05EF
:10542000CF910895CF93DF9360910A08635067FD91
:10543000E0C080910708CCE0D0E0C81BD109C25F72
:10544000D74F809106088D3209F0C2C0683009F04C
:10545000CEC083EC8093FA078AE580931001109206
:10546000D9052881822F807639F0CE01AFDE982FC2
:105470008F3F09F49CC0A2C09A813C81109203081E
:105480008981811113C02F71223051F4313841F4D8
:1054900090918D0581E09E3109F080E080930308B2
:1054A0001092040823E038E092E07CC0282F2D7F82
:1054B000213081F4911173C0313809F070C081300E
:1054C00011F08EE101C08AE580938D058BE4809315
:1054D0008E0565C0853019F490930B0860C0863046
:1054E00009F044C08B81813041F484ED9CE09093BD
:1054F00009088093080892E135C0823041F48BEBB3
:105500009CE0909309088093080899E12BC08330B0
:1055100041F5911108C08EE29DE0909309088093B7
:10552000080894E01FC0913041F480E29DE0909320
:105530000908809308089EE015C0923041F486EF78
:105540009CE090930908809308089AE20BC093307E
:1055500041F486EE9CE0909309088093080890E15E
:1055600001C090E080E48093D90528C0883081F0A4
:10557000893019F490930D0807C08A3061F08B30A0
:1055800071F48BE480938E058AE580938D0507C0C6
:105590002DE038E002C023E038E091E003C023E0D2
:1055A00038E090E0309309082093080807C088810C
:1055B00087FD9E8180E88093D90507C08F81811186
:1055C00004C08E81891708F4982F90930F010FC0A3
:1055D0008091D90587FF0BC0CE01ADDE8F3F21F44E
:1055E0008EE18093100103C0811110920F0110927F
:1055F0000A088091100184FF50C080910F018F3FF5
:1056000009F44BC0C82F893008F0C8E08C1B809388
:105610000F019091FA0788E889278093FA07CC2335
:1056200051F13091D90537FF08C06C2F8BEF97E00F
:1056300006DEC82F893058F51EC080910808909169
:1056400009082C2F280FABEFB7E0FC0136FF06C08E
:1056500034913D9331962E13FBCF04C031913D938D
:105660002E13FCCF01962FEF2C0F820F911D9093DC
:105670000908809308086C2F8BEF97E00E940307BE
:10568000CC5FCC3041F08FEF80930F0104C08FEFDF
:1056900080930F01CEE1C093100184E196B19C701C
:1056A00049F48150D9F710920B08109205088AE549
:1056B00080938D05DF91CF910895E9E6F0E0808138
:1056C00083608083E89AEDE8F5E08BE481838AE5E6
:1056D0008083089520FD09C0FC0123FD05C022FF41
:1056E00002C07383628351834083089544FD10C0D8
:1056F00046FD10C0DB01FC01AA0FBB1FEE1FFF1F00
:105700001094D1F76A0F7B1F8E1F9F1F31E003C0DB
:1057100033E001C034E0660F771F881F991F3150B6
:10572000D1F7620F711D811D911D08950F931F9375
:10573000CF93DF938C01C8010E940134EC0197FDE7
:1057400008C00E94C233892BB1F7B801CE010E9474
:10575000A234CE01DF91CF911F910F910895A0E067
:10576000B0E0E4EBFBE209C47C018B016A01D22FBB
:105770000E9401349C0133272B32310521F02D3258
:10578000310559F4D0680150110911F480E066C068
:10579000C7010E94013497FDF9CFCD2FCD7F2D2F6A
:1057A000207309F58033F9F4580181E0A81AB10893
:1057B00009F441C0C7010E94013497FD3CC0282F65
:1057C0002F7D283551F4C26402501109A1F1C7019F
:1057D0000E94013497FF07C02EC0D6FF02C0C260EE
:1057E00001C0C2618501812C912C540120ED280F4C
:1057F000283080F0C4FF04C0B7010E94A23418C052
:105800002A3040F0C6FFF8CF2F7D3FEE320F363002
:1058100098F727504C2FC501B40168DF4B015C019C
:10582000C2600150110951F0C701EBD797FFDECFDD
:10583000C1FD04C0ABCF812C912C5401C7FF08C01F
:10584000B094A09490948094811C911CA11CB11CD4
:105850002C2FB501A401C6013DDF81E0CDB7DEB735
:10586000ECE0A7C3A0E2B0E0E7E3FCE282C34C01B6
:105870005B017A018E010F5F1F4F680180E2F80122
:1058800011928A95E9F7F401638040E050E0712CB1
:10589000412C80E0A1E0B0E0F90163FC559063FE8B
:1058A00051908F01952D9F01511003C080E090E031
:1058B0007EC0FEE55F1203C04115510561F1682FFE
:1058C00070E0641775074CF46DE5561669F1EDE26A
:1058D0005E1203C0442009F103C0411001C0752CC1
:1058E000692F669566956695F601E60FF11D692F9D
:1058F00067708D0102C0000F111F6A95E2F7B801B1
:105900007081672B6083971559F0971510F49F5F8E
:10591000E7CF9150E5CF81E004C04424439401C017
:10592000412C4F5F5F4FB8CF442019F09E819062A9
:105930009E83811103C07724739418C0F6019E01E1
:105940002F5D3F4F808180958193E217F307D1F758
:10595000F2CFE114F10429F0F7018083C701019629
:105960007C0191E0A91AB108712CD9F0C40149D782
:1059700097FD15C0282F269526952695F601E20F4E
:10598000F11D208130E0AC014770552702C03595EC
:1059900027954A95E2F720FDDCCFB401D3D77110EB
:1059A00085CFE114F10411F0F7011082C801A0962F
:1059B000E0E1FBC2A6E0B0E0EFEDFCE2D8C25C01A2
:1059C0007B011A011ED79E838D8399278B32910507
:1059D00021F08D9781F410E801C010E021E0E21A77
:1059E000F10811F480E01EC1C5010BD79E838D83A1
:1059F00097FF02C0F7CF10E08D819E81CBD689360C
:105A0000910549F08E36910509F038C064E4862E80
:105A10006DE0962E04C077E4872E7DE0972EEFEFA1
:105A20008E1A9E0AF401319704910023B1F081E0AF
:105A3000E81AF10859F0C501E4D66C0197FD06C0DB
:105A4000A9D6081761F3B501C6017CD79AE4891677
:105A50009DE0990609F0C6CF05C0F7E48F16FDE07A
:105A60009F0629F080E090E0A0E8BFE704C080E056
:105A700090E0A0ECBFE7BC01CD01C4C0412C512C8B
:105A80003201C12CD12C2D8120532A3010F5012F49
:105A90000260812F887012FF06C0811120C02FEF95
:105AA000C21AD20A1CC0882319F081E0C81AD10892
:105AB00040E2C301B2011ADE2B013C0198E949160C
:105AC00099E95906690699E1790648F0012F0660BF
:105AD00006C02E3F89F413FD0FC0012F0860E1E0DE
