S02300004446344941485F31304D487A5F5265666572656E63655F4170706C2E73726563C8
S11300000C9453070C949B070C9470070C94700782
S11300100C9470070C9470070C948E0A0C9470075F
S11300200C9470070C9470070C94BA090C947B0917
S11300300C9470070C9470070C9470070C94700760
S11300400C94370A0C9470070C94D8210C945A22FF
S11300500C949A220C94F3080C9470070C94700777
S11300600C94E3230C947007B510C110CD10D91073
S1130070E510F110FD100911151121112D1139117F
S11300804511FA2406240C2421247824B824D824E5
S113009007634236B79BD8A71A39685618AEBAAB6D
S11300A0558C1D3CB7CC5763BD6DEDFD753EF61701
S11300B07231BF000000803F08000000BE92244956
S11300C0123EABAAAA2ABECDCCCC4C3E0000008086
S11300D0BEABAAAAAA3E00000000BF000000803FF9
S11300E00000000000084178D3BB4387D1133D19B9
S11300F00E3CC3BD4282AD2B3E68EC8276BED98FE6
S1130100E1A93E4C80EFFFBE01C4FF7F3F00000029
S113011000006E616E00696E660000407A10F35A4A
S113012000A0724E18090010A5D4E80000E8764833
S1130130170000E40B54020000CA9A3B000000E1DF
S1130140F505000080969800000040420F00000072
S1130150A08601000000102700000000E803000052
S113016000006400000000000A000000000001001C
S1130170000000002C76D888DC674F0823DFC1DF3D
S1130180AE59E1B1B796E5E3E453C63AE651997640
S113019096E8E6C28426EB898C9B62ED407C6FFC7A
S11301A0EFBC9C9F40F2BAA56FA5F490055A2AF7BC
S11301B05C936B6CF9676DC11BFCE0E40D47FEF5C5
S11301C020E6B500D0ED902E03009435770500802D
S11301D0841E080000204E0A000000C80C3333338C
S11301E0330F986E12831141EF8D2114893BE6552C
S11301F016CFFEE6DB18D1844B381BF77C1D901D0F
S1130200A4BBE424203284725E228100C9F124EC70
S1130210A1E53D2724474C4753562C252A642C310D
S11302202C25642C002447504753562C252A642C33
S1130230312C25642C00244750524D432C256C64EA
S11302402E25642C252A632C25662C25632C2566F3
S11302502C25632C252A662C252A662C256C642CD7
S11302602C2C252A632A25640025662C25662C253A
S1130270662A2564002447504753412C252A632CC1
S113028025642C002447504747412C256C642E25B7
S1130290642C25662C25632C25662C25632C25646B
S11302A02C25642C25662C25662C252A632C252ACE
S11302B0662C252A632C252A642C252A642A256485
S11302C000436F6D6D756E69636174696F6E206252
S11302D061756420726174652073657420746F2085
S11302E025357520626175642E0A004446344941FF
S11302F0482C25732C253035752C56323025303357
S113030075253033752E0023534330323A20733D24
S11303103078253032782C64533D25752C69503D56
S113032025752C65533D25752C61413D25752C6142
S113033041563D25752C64413D25752C6441563D3F
S113034025750A0023534330313A20537461636B9B
S11303502D436865636B3A206D756E672D77616C0C
S11303606C20616464726573733A2030782530348C
S1130370782C206C6F776573742D737461636B3A9A
S1130380203078253034780A0025632530372E3321
S11303906620256325352E336656200025632531D6
S11303A0752025632531752025332E31662025637C
S11303B0253032752563253032752000253034759B
S11303C0253032752530327520552530327525306B
S11303D0327525303275200062202D2D2D2E2D2DC5
S11303E02D202563253158202563253032752000C2
S11303F02563252030382E33662025632531582087
S1130400256325303275200031304D487A526566B7
S11304104F73632056327831002B3D3D3D204446D6
S113042034494148203D3D3D2B0023494131323A76
S1130430205048415345206661737450776D536969
S11304406E676C65446966665F7374657073203D9E
S113045020252B30332E33660A0023494131313AAB
S1130460205048415345207068617365457272207D
S1130470203D202530332E3366C2B02C2009207055
S11304806861736553746570734672657175656EE2
S11304906379203D20252B30332E33662C200970C0
S11304A06861736553746570735068617365203D4A
S11304B020252B30332E33660A0023494130333A4A
S11304C0205152472020206E657750776D56616C1D
S11304D0203D202530332E33662C200970776D4360
S11304E06F725374657073202020202020202020F8
S11304F03D20252B30332E33660A00234941303208
S11305003A20436C6F636B206C6F63616C4D656163
S11305106E466C6F6174436C6F636B4469666620EE
S11305203D20252B30332E3366487A204032304D1F
S1130530487A2C20097172674465765F487A203DB9
S113054020252B30332E3366487A204031304D48F5
S11305507A2C200970706D203D20252B30322E36E8
S1130560660A0023494130313A20436C6F636B20A3
S1130570696E7432304D487A436C6F636B446966BC
S113058066202020202020203D202020252B3034D0
S11305906C69487A204032304D487A0A0023494435
S11305A030323A202B2F2D204B455920096D61699B
S11305B06E50776D5465726D696E616C41646A202A
S11305C03D2025662C20096C6F63616C4661737451
S11305D050776D56616C4E657874203D202530331C
S11305E075202B206C6F63616C4661737450776D5A
S11305F0537562436D704E657874203D2025303309
S1130600750A0023494430313A202B2F2D204B45C5
S11306105920096D61696E50776D5465726D696E0C
S1130620616C41646A203D2025662C200970756C3C
S11306306C50776D56616C4265666F726520202040
S1130640203D2025303375202B206661737450774C
S11306506D537562436D704265666F72652020202C
S1130660203D20253033750A0023544131343A208B
S11306706D61696E526566436C6B53746174652079
S11306803D2030782531580A0023544131333A2033
S113069050574D203D20253033752C200953756269
S11306A02D50574D203D20253033750A00235441E9
S11306B031323A207070735374616D7043747231C7
S11306C06D7320203D202530396C752C2009707005
S11306D0735374616D70494352312020203D2025AD
S11306E03035752C20097070735374616D704374C8
S11306F072316D735F6C61737420203D2025303935
S11307006C752C20097070735374616D7049435279
S1130710315F6C6173742020203D20253035750ACB
S11307200023544131313A206C6F63616C4661732C
S113073074437472316D73203D202530396C752CEF
S113074020096C6F63616C4661737454434E543179
S1130750203D20253035750A0023544130333A209A
S113076054656D70203D2025303475202825302EA9
S1130770316643290A0023544130323A204144432C
S113078031203D2025303475202825302E336656FF
S1130790290A0023544130313A2041444330203D5A
S11307A02025303475202825302E336656290A003A
S11307B023475030353A204C6174203D2025632076
S11307C02530392E34662C204C6F6E203D20256355
S11307D020253031302E34662C20486569676874D2
S11307E0203D20252E3166206D0A002347503034E9
S11307F03A2050444F50203D20252E32662C20486C
S1130800444F50203D20252E32662C2056444F5014
S1130810203D20252E32662C0A0023475030333ADF
S1130820205361747355736564203D202530326410
S11308302C2053617473457068696D5F477073470A
S1130840616C696C656F517A7373203D2025303279
S1130850642C2053617473457068696D5F476C6FD5
S11308606E617373203D20253032640A00234750A3
S113087030323A204D6F646532203D202531642C9E
S113088020506F73466978496E64203D2025316499
S11308900A0023475030313A2044617465203D20DA
S11308A02530386C642C2054696D65203D2025303A
S11308B0366C642E253033640A000A2347503030E6
S11308C03A203D3D3D3D3D3D3D0024504D544B338C
S11308D035332C312C312A33370D0A0024504D5432
S11308E04B3335332C312C302A33360D0A00245047
S11308F04D544B3335332C302C302A33370D0A000A
S113090024504D544B3136312C302A32380D0A00E4
S113091024504D544B3130322A33310D0A000A3DF4
S11309203D3D20444634494148202D203130204D5E
S1130930487A205265666572656E6365204F7363FD
S1130940696C6C61746F72203D3D3D0A3D3D3D20F4
S11309505665723A203230253033642530336400D2
S11309600A2A3F2A2020756E6B6E6F776E20636FA4
S11309706D6D616E64202725732720726563656938
S11309807665642C207472792048454C502E0A3EBA
S1130990000A3D3D3D3D3D3D3D3D3D3D3D0A3E0062
S11309A00A2B2F2D203C50574D2076616C75653EE7
S11309B00909636F7272656374696F6E2076616C86
S11309C0756520746F2062652061646465642E001F
S11309D00A575249544550574D09090973746F72A7
S11309E0652063757272656E742050574D20617373
S11309F02064656661756C742076616C75652E0A79
S1130A00575249544554454D50203C54454D50206F
S1130A1076616C75653E0909777269746520637542
S1130A207272656E742074656D706572617475722E
S1130A30652061732064656661756C742076616CF1
S1130A4075652E000A5445535409090909746F67E2
S1130A50676C657320636F756E746572207465735B
S1130A60742E000A535441434B09090909746F67F2
S1130A70676C657320737461636B206D756E672D8D
S1130A8077616C6C20746573742E000A5345524F61
S1130A9046460909090973776974636820736572A6
S1130AA069616C20636F6D6D756E69636174696FE4
S1130AB06E204F46462E0A5345524F4E09090909E6
S1130AC07377697463682073657269616C20636FFE
S1130AD06D6D756E69636174696F6E204F4E2E0083
S1130AE00A53455242415544203C626175643E09B3
S1130AF0090973657474696E672073657269616C42
S1130B00206261756420726174652E000A4C45444C
S1130B104F4646090909097377697463682062615D
S1130B20636B6C69676874204F46462E0A4C4544D3
S1130B304F4E090909097377697463682062616318
S1130B406B6C69676874204F4E2E000A494E464FFD
S1130B5009090909746F67676C65732061646469C6
S1130B6074696F6E616C207072696E74656420695B
S1130B706E666F732E000A48454C500909090974C2
S1130B80686973206D6573736167652E000A484157
S1130B904C5409090909706F77657273207468658C
S1130BA02064657669636520646F776E2028736CB2
S1130BB0656570206D6F6465292E000A4150434FAE
S1130BC046460909090973776974636820415043EB
S1130BD020286175746F6D61746963207068617336
S1130BE06520636F6E74726F6C29206F66662E0ABF
S1130BF04150434F4E0909090973776974636820AA
S1130C0041504320286175746F6D6174696320706D
S1130C106861736520636F6E74726F6C29206F6EE8
S1130C202E000A4146434F4646090909097377696C
S1130C307463682041464320286175746F6D617444
S1130C406963206672657175656E637920636F6E82
S1130C5074726F6C29206F66662E0A4146434F4EAC
S1130C600909090973776974636820414643202898
S1130C706175746F6D617469632066726571756501
S1130C806E637920636F6E74726F6C29206F6E2EA1
S1130C90000A3D3D3D2048454C50203D3D3D0A0A5B
S1130CA024203C4E4D45412D4D6573736167653E6F
S1130CB0090973656E6473206D65737361676520DC
S1130CC0746F2074686520475053206D6F64756C91
S1130CD0652E002A49444E3F005752495445544515
S1130CE04D5000575249544550574D0054455354A4
S1130CF000535441434B005345524F4E0053455209
S1130D004F46460053455242415544004C45444FDA
S1130D104E004C45444F464600494E464F00484518
S1130D204C500048414C54004150434F4E004150F8
S1130D30434F4646004146434F4E004146434F46CB
S1130D4046004446344941482031304D687A2D529A
S1130D50656643AB000001FFFFFFFFFFFFFF0000DC
S1130D600CB0A52C8F4048E18A3F0080AF4300A01F
S1130D70873FFFFFFFFFFFFFFFFFFFFFFFFF0000B5
S1130D801CB0CDCC94C05C8FC23F508D173DFFFF8B
S1130D90FFFFFFFF713D8A3F3333134078000000AB
S1130DA02CB08025080100000000FFFFFFFFFFFFBB
S1130DB0FFFFFFFFFFFFFFFFFFFFFFFFFFFF00003D
S1130DC03CB000000000FFFFFFFFFFFFFFFFFFFF3D
S1130DD0FFFFFFFFFFFFFFFFFFFFFFFFFFFF00001D
S1130DE04CB00902190001010080690904000001E6
S1130DF0FF0000000705810308000A12011001FF2B
S1130E00000008C016DC05000101020301100350B4
S1130E100072006F0074006F002D0031002A03443B
S1130E2000460034004900410048002D00310030E4
S1130E30004D0048007A002D005200650066002D28
S1130E40004F00730063000E034400460034004961
S1130E500041004800040309046364696E6F707301
S1130E607578585B65666745464700616E006E6637
S1130E70696E69747900CDCCCC3D0AD7233C17B791
S1130E80D13877CC2B329595E6241FB14F0A000058
S1130E9020410000C84200401C4620BCBE4CCA1B76
S1130EA00E5AAEC59D7411241FBECFEFD8E0DEBF2D
S1130EB0CDBF11E0A0E0B1E0E4EAF0E702C00590A4
S1130EC00D92A431B107D9F728E0A4E1B1E001C043
S1130ED01D92A531B207E1F70E947B1C0C94503897
S1130EE00C940000A82FB92F8FEF9FEF1BC02D91FA
S1130EF08227282F22952827722F26952695272783
S1130F00239526952170782F892F82272195207C7F
S1130F10922F2227769527959727822776952795CE
S1130F2097278227615018F7809590950895DADF06
S1130F308D939D930895CF93CFB7CF93DF93C395AC
S1130F40339BE9F7339B11C0339B0FC0339B0DC018
S1130F50339B0BC0339B09C0339B07C0339B05C035
S1130F60339B03C0339B01C083C06F93C091F807C8
S1130F70DD27C150D84F2F9320E400C065E0339B98
S1130F8003C02F916F91DECF0F931F934F9345E5CD
S1130F905F9355E53F933BE014E006B10C702EC01F
S1130FA06A95C9F03150D8F106B10C7001130BC029
S1130FB008942795299320E4555500F46A9569F718
S1130FC001E066B10BC0102F66E02695299320E45A
S1130FD0555518F3E2CF0FEF66B10000162F4555B3
S1130FE000F0404066E01C700030E2F221F00000A6
S1130FF006B10C7003C006B10C70A9F0011309C04E
S11310000894279568F200C06A95A9F700E066B1D4
S1131010E5CF102F66E0269528F20000ECCF11E012
S11310201CBB002719C03B503195C31BD04011E0B5
S11310301CBB0881033C09F10B34F9F02091F6073D
S11310401981110F1213EDCF4A81441F093651F152
S11310500D3211F0013E29F70093FD073F915F9196
S11310604F911F910F912F916F91CCB3C0FD67CF1A
S1131070DF91CF91CFBFCF9118952091FD07222307
S113108069F31091FB07112381F5343082F1309319
S1131090FB072093F7071091F8073BE0311B3093CF
S11310A0F80725C00091FB070130FCF40AE54F70F6
S11310B049F430910D0134FD1BC000930D01CBEEBA
S11310C0D7E01AC030917E0534FD12C000937E052E
S11310D0CFE7D5E011C0052710E000C008B919C05A
S11310E0052710E0221F00C01DC04AE502C032EDF2
S11310F0432FC4E1D0E032E017B11C60439A08B139
S113110017B95CE020E869E420FF052708B92795B2
S1131110179500C000001C3FF0F66695A8F7A1F7EC
S113112020FF052708B92795179500001C3FC0F636
S113113029913A9541F7037F1091FC07110F08B9E3
S1131140C651D04011F01093F60711E01CBB0860A3
S113115017B1137F402F437F55E05A95F1F708B933
S113116017B948B97BCFE4E6F0E080818E7F8083B5
S113117010921905EFE7F0E080818360808383E0BB
S113118080937E00EBE7F0E080818F7B8083EAE749
S1131190F0E080818768808380B787E180BF81E148
S11311A080931A0581E480937C008081806580832C
S11311B0808188608083089580B78777806880BF46
S11311C087E080937A0010927B0010927C00E4E622
S11311D0F0E08081816080830895EAE7F0E0808117
S11311E08064808308951F920F920FB60F9211248A
S11311F02F933F934F935F936F937F938F939F931B
S1131200AF93BF93EF93FF9380917800209179007F
S1131210789490E0922B20911A05283021F168F4FB
S11312202223A1F0213019F590937B0380937A0354
S113123080E180931A0580E41EC0213109F1283130
S113124071F02031A1F410921A0517C0909379031C
S11312508093780388E180931A0588EC0CC088E0B9
S113126080931A050AC090937D0380937C0381E1E7
S113127080931A0581E480937C000E94ED0808C0E5
S113128081E080931A05809119058F5F8093190579
S1131290FF91EF91BF91AF919F918F917F916F914A
S11312A05F914F913F912F910F900FBE0F901F9020
S11312B01895E4E6F0E08081877F808310928500B2
S11312C0109284008EE4809389008FE180938800DB
S11312D01092800089E48093810082E280936F0001
S11312E0089510926F0010928100E4E6F0E080818E
S11312F08860808308951F920F920FB60F92112475
S11313002F933F938F939F93AF93BF938091260521
S113131090912705A0912805B09129050196A11D5A
S1131320B11D8093260590932705A0932805B093BB
S1131330290578948091000186FF11C0F8948DB737
S11313402EB7789490E0922B2091050130910601FC
S11313508217930720F49093060180930501BF91AF
S1131360AF919F918F913F912F910F900FBE0F904E
S11313701F9018951F920F920FB60F9211242F935E
S11313804F935F936F937F938F939F93EF93FF9309
S11313908091860020918700409126055091270571
S11313A060912805709129057894EAE7F0E090812E
S11313B090649083F89490E0922B90932F058093FF
S11313C02E0540932A0550932B0560932C057093AA
S11313D02D057894FF91EF919F918F917F916F915B
S11313E05F914F912F910F900FBE0F901F90189502
S11313F0809164008F7D8093640016BC8AE588BD6B
S113140083E284BD81E085BD559A82E00E944E1E30
S11314108823C9F04AE550E061E081E395E00E9449
S11314202B1E4BE550E061E080E395E00E942B1E0B
S11314308FB7F894909131059093250590913005DC
S1131440909324058FBFA89A80916E008160809349
S11314506E00089510926E00559815BC14BC18BC0B
S113146016BCE4E6F0E080818062808308951F92D8
S11314700F920FB60F9211248F939F9378948091BB
S11314802305882361F0F8948091220588BD80911A
S113149021058093200578941092230509C0F894BF
S11314A08091250588BD809124058093200578943A
S11314B0F89490911F0580912005981718F488B529
S11314C08F5F88BD789480911F058F5F80931F057F
S11314D09F918F910F900FBE0F901F901895EF92D0
S11314E0FF921F93CF93DF9300D0CDB7DEB7182FB1
S11314F07B010E94F01D9A838983A70162E0CE01DB
S113150001960E948B1E812F0E94D71E0F900F9070
S1131510DF91CF911F91FF90EF90089518954F920E
S11315205F926F927F928F929F92AF92BF92CF926F
S1131530DF92EF92FF920F931F93CF93DF934B01B0
S11315405C016A017901FA01608170E080E090E059
S11315500E94BF322B013C01F701608170E080E002
S113156090E00E94BF3220E030E040E85BE30E945C
S1131570CC339B01AC01C301B2010E94AB31A50184
S113158094010E94AB318B01D82FC92F20E030E0A9
S1131590A9010E94173287FD1CC020E03FEF4EE7EF
S11315A053E4B8018D2F9C2F0E94C7331816B4F44E
S11315B020E03FEF4EE753E4B8018D2F9C2F0E94AB
S11315C0AA318B01D82FC92FB0E0AFEFFEE7E3E4D7
S11315D00CC0B0E0A0E0F0E0E0E007C0B02FA12F25
S11315E0FE0100E010E0D0E0C0E020E030E040E0A8
S11315F05BE36B2F7A2F8F2F9E2F0E94AB314B0111
S11316005C010E948E32F6016083C501B4010E9420
S1131610FA329B01AC01C501B4010E94AA3120E059
S113162030E040E853E40E94CC330E948E32F7014C
S11316306083B8018D2F9C2FDF91CF911F910F9163
S1131640FF90EF90DF90CF90BF90AF909F908F90DE
S11316507F906F905F904F9008951F93CF93DF9387
S113166000D0CDB7DEB78FB7F894109123058FBFA4
S113167020E030E0A90160911B0570911C05809168
S11316801D0590911E050E941732882379F11111CE
S11316902DC08FB7F894909125059A8390912405D5
S11316A099838FBF60911B0570911C0580911D0566
S11316B090911E059E012F5F3F4FAE014E5F5F4F1D
S11316C00E948F0A60931B0570931C0580931D056F
S11316D090931E058FB7F8949A819093220599816F
S11316E09093210591E0909323058FBF0F900F9065
S11316F0DF91CF911F9108950F931F93CF93DF93A1
S11317008C01EA019A01AB016EE773E081E00E946B
S1131710CD1DAE016EE773E0C801DF91CF911F913B
S11317200F910C94C5360F931F93CF93DF938C01C5
S1131730EA019A01AB016EE773E081E00E94CD1DDE
S1131740AE016EE773E0C801DF91CF911F910F9155
S11317500C94AF36CF92DF92EF92FF92C090440583
S1131760D0904505E0904605F09047052FEFC21A4A
S1131770D20AE20AF20AC701B60124E630E040E0E8
S113178050E00E9434316C337105810591054CF0B1
S1131790C61AD70AE80AF90A84E6C80ED11CE11C65
S11317A0F11CC0924405D0924505E0924605F092A2
S11317B04705C0904405D0904505E0904605F0905B
S11317C04705C701B60120E137E240E050E00E943E
S11317D03431683427E172078105910594F0C61A03
S11317E0D70AE80AF90A80E1C80E87E2D81EE11C8C
S11317F0F11CC0924405D0924505E0924605F09252
S11318004705FF90EF90DF90CF9008958F929F92BD
S1131810AF92BF92CF92DF92EF92FF920F931F93FA
S1131820CF93DF932DE330E044E852E06EE773E0BA
S113183081E00E94CD1D82E395E09F938F9384E322
S113184095E09F938F9380E595E09F938F9388E530
S113185095E09F938F938EE595E09F938F9388E314
S113186095E09F938F9389E395E09F938F938DE306
S113187095E09F938F938EE395E09F938F9382E4FB
S113188095E09F938F9384E495E09F938F930EE765
S113189013E01F930F93C0E0D2E0DF93CF930E9435
S11318A0A7372FE030E045E752E0B80181E00E941D
S11318B0CD1D80E695E09F938F931F930F93DF9345
S11318C0CF930E94A7372DB73EB7205E3F4F0FB688
S11318D0F8943EBF0FBE2DBF181619060CF04FC06A
S11318E00E94AA0BC0910C05D0E0219731F0FE01B3
S11318F0E050FE4F80818A32C1F7CE0120E030E013
S11319001816190684F4FC01E050FE4F40814C3255
S113191041F42F5F3F4F2330310519F4EC01219638
S113192002C00197EDCF2CE030E049E652E06EE7CB
S113193073E081E00E94CD1D82E395E09F938F9335
S11319408CE495E09F938F9380E595E09F938F932C
S113195084E595E09F938F938EE793E09F938F9315
S1131960C050DE4FDF93CF930E94A7372DB73EB709
S1131970245F3F4F0FB6F8943EBF0FBE2DBF23E345
S113198030E046E352E06EE773E081E00E94CD1D53
S113199082E395E09F938F9388E495E09F938F93E0
S11319A088E395E09F938F9389E395E09F938F93CA
S11319B08DE395E09F938F938EE395E09F938F93B0
S11319C082E495E09F938F9384E495E09F938F93B3
S11319D08EE793E09F938F9380E092E09F938F93A1
S11319E00E94A7372DB73EB72C5E3F4F0FB6F89431
S11319F03EBF0FBE2DBF181619060CF044C00E943E
S1131A00AA0BC0904805D0904905E0904A05F09093
S1131A104B05D701C60180549041A109B109833C0B
S1131A209F4AA440B10538F5C701B60124E630E069
S1131A3040E050E00E9434314B015C01A701960163
S1131A40261B370B480B590BA4E6B0E00E94593112
S1131A50DC01CB018053984FAF4FBF4F880E991EC6
S1131A60AA1EBB1E8092480590924905A0924A0581
S1131A70B0924B0508C01092480510924905109287
S1131A804A0510924B0521E130E045E252E06EE751
S1131A9073E081E00E94CD1D8CE595E09F938F93C8
S1131AA00EE713E01F930F93C0E0D2E0DF93CF93D0
S1131AB00E94A73721E130E044E152E0B80181E01F
S1131AC00E94CD1D8AE595E09F938F931F930F93FA
S1131AD0DF93CF930E94A7378DB79EB70C960FB6AE
S1131AE0F8949EBF0FBE8DBFDF91CF911F910F91D0
S1131AF0FF90EF90DF90CF90BF90AF909F908F902A
S1131B00089525E04EE15DE061E081E00C94B320AE
S1131B102F923F924F925F926F927F928F929F92F9
S1131B20AF92BF92CF92DF92EF92FF920F931F93E7
S1131B30CF93DF93CDB7DEB764970FB6F894DEBFCB
S1131B400FBECDBFA8950E9424280E94CC2681E018
S1131B500E942D1F882309F4A4C381E00E946C20F5
S1131B60182F80E00E946C20909101019F7009F071
S1131B70E2C210FFE0C214FF04C081E00E94912180
S1131B8090C3107F11F00C945D1C4FE76EE774E076
S1131B9081E00E94E41F81E00E943E1F46E050E085
S1131BA063ED7CE08EE794E00E947C0B892B41F589
S1131BB02CE130E04BEE52E06EE773E081E00E94EE
S1131BC0CD1D8091B3059091B4059C0133273F93BB
S1131BD02F931F929F938091B6058F938091B505A3
S1131BE08F9387EB95E09F938F938EE793E09F937A
S1131BF08F938EEF93E09F938F930E9484378EC2CE
S1131C0047E050E06BE37DE08EE794E00E947C0BBC
S1131C10892B21F4809100018E7F0DC046E050E0B5
S1131C2065E37DE08EE794E00E947C0B892B31F420
S1131C308091000181608093000133C347E050E04C
S1131C406EE27DE08EE794E00E947C0B892B21F408
S1131C50809100018D7FEFCF46E050E068E27DE0A7
S1131C608EE794E00E947C0B892B21F48091000183
S1131C708260E1CF45E050E063E27DE08EE794E0EE
S1131C800E947C0B892B99F5809100018B7F8093B6
S1131C900001809100018F7E8093000180910001FA
S1131CA088608093000140E160E079E081E00E9477
S1131CB07D210E947621882321F0A8950E94242862
S1131CC0F8CF1AEF115051F0A8950E94242887E804
S1131CD093E10197F1F700C00000F4CF8091000177
S1131CE0877F80930001809100018062A4CF45E04A
S1131CF050E06EE17DE08EE794E00E947C0B892B3E
S1131D00B9F522E430E04EE159E06EE773E081E09A
S1131D100E94CD1D81E08F9383E48F931F928AEA02
S1131D208F938EE793E09F938F931F928FE78F9308
S1131D308EEF93E09F938F930E945437282F4EEF9A
S1131D4053E060E080E00E94B32022E441E95CE0DB
S1131D5061E080E00E94B32080910101807F816076
S1131D6080930101809100018F7E80930001DDC189
S1131D7045E050E069E17DE08EE794E00E947C0B51
S1131D80892BA9F48091000182FB992790F981E0C5
S1131D9089279091000180FB92F990930001809132
S1131DA0000182FF7EC280910001877F4CC047E022
S1131DB050E062E17DE08EE794E00E947C0B892B89
S1131DC029F41982809101018F7810C046E050E017
S1131DD06CE07DE08EE794E00E947C0B892B99F403
S1131DE081E08983809101018F7880618093010172
S1131DF044E150E061E0CE0101960E948B1E6EE149
S1131E0070E080E033C147E050E06DEF7CE08EE7A6
S1131E1094E00E947C0B892B21F480910001877F40
S1131E200ACF46E050E067EF7CE08EE794E00E9442
S1131E307C0B892B71F480910001886080930001F0
S1131E40809100018B7F80930001809100018F7E3F
S1131E50F2CE47E050E064E07DE08EE794E00E943B
S1131E60930B892BD1F581E195E09F938F938EE0BD
S1131E7091E09F938F9385E894E09F938F930E94C2
S1131E80A73780911105909112050E94092140E61F
S1131E9050E062E081E195E00E948B1E6EE770E005
S1131EA083E00E946F0A2AE230E041EC52E06EE7E0
S1131EB073E081E00E94CD1D809112058F93809183
S1131EC011058F938EE793E09F938F938EEF93E0AA
S1131ED09F938F930E94843721C146E050E061EFC5
S1131EE07CE08EE794E00E947C0B892B71F4809156
S1131EF0000186FB992790F981E0892790910001E0
S1131F0080FB96F990930001CCC145E050E06CEE63
S1131F107CE08EE794E00E947C0B892BD1F48091C5
S1131F20000184FB992790F981E0892790910001B1
S1131F3080FB94F9909300018091000184FFB1C16A
S1131F4080910001877F80930001809100018B7F45
S1131F5072CE49E050E063EE7CE08EE794E00E94AC
S1131F607C0B892BE9F48FB7F89490912505909315
S1131F70310590912405909330058FBF4AE550E0D8
S1131F8061E081E395E00E948B1E4BE550E061E047
S1131F9080E395E00E948B1E6EE570E082E066C0EF
S1131FA049E050E069ED7CE08EE794E00E94930BF9
S1131FB0892B09F05EC019821A821B821C82CE0111
S1131FC001969F938F9381E191E09F938F9387E88C
S1131FD094E09F938F930E94A737C980DA80EB80A7
S1131FE0FC800F900F900F900F900F900F9020E0B7
S1131FF030E0A901C701B6010E941732882309F411
S113200050C180917C0390917D03BC0180E090E0FD
S11320100E94BD324B015C0120E030E048EC51E409
S1132020C701B6010E94AA312091A3053091A405ED
S11320304091A5055091A6050E941C329B01AC015C
S1132040C501B4010E94AA316093A7057093A80545
S11320508093A9059093AA0548E250E064E087EADA
S113206095E00E948B1E6EE370E081E00E946F0A8F
S113207018C10EE714E080917E048B3279F48AE86B
S113208095E09F938F9381E191E09F938F938FE7E6
S113209094E09F938F930E94A73721C08D3231F52E
S11320A08AE895E09F938F9381E191E09F938F93CA
S11320B08FE794E09F938F930E94A73780918A05BE
S11320C090918B05A0918C05B0918D05B0588093AB
S11320D08A0590938B05A0938C05B0938D050F9082
S11320E00F900F900F900F900F90DBC021E330E022
S11320F040E659E06EE773E081E00E94CD1D1F9336
S11321000F938EE793E09F938F931F928FE78F93A4
S11321108EEF93E09F938F930E945437282F4EEFB6
S113212053E060E080E00E94B3200FB6F894DEBF75
S11321300FBECDBFB6C0909101019F7011F40C94F5
S11321405D1C80FF02C00C945D1C81E00E943E1F58
S1132150E0910101EF70F0E03197ED30F10508F006
S11321609BC0EC5CFF4F0C9453312FE642E25CE0E1
S113217061E080E00E94B32080910101807F826051
S11321808EC027E64BEB5BE061E080E00E94B32069
S113219080910101807F836082C02EE24DE85BE084
S11321A061E080E00E94B32080910101807F84601F
S11321B076C027E146E75BE061E080E00E94B3205F
S11321C080910101807F85606AC02BE24BE45BE073
S11321D061E080E00E94B32080910101807F8660ED
S11321E05EC02FE34CE05BE061E080E00E94B3203E
S11321F080910101807F876052C02CE240EE5AE05A
S113220061E080E00E94B32080910101807F8860BA
S113221046C025E54BE85AE061E080E00E94B32027
S113222080910101807F89603AC028E243E65AE048
S113223061E080E00E94B32080910101807F8A6088
S11322402EC02FE144E45AE061E080E00E94B32014
S113225080910101807F8B6022C024E740ED59E02A
S113226061E080E00E94B32080910101807F8C6056
S113227016C020E340EA59E061E080E00E94B32008
S113228080910101807F8D600AC02FE041E959E00F
S113229061E080E00E94B32080910101807F8093FF
S11322A001019FB7F8948090840090908500C090BD
S11322B02605D0902705E0902805F0902905809107
S11322C086002091870040912A0550912B0560914A
S11322D02C0570912D059FBF90911905309128010F
S11322E0391769F1909328011092270140907A05DB
S11322F050907B0560907C0570907D05409274053C
S1132300509275056092760570927705E091780594
S1132310F0917905F0937305E093720566277727AA
S113232040937A0550937B0560937C0570937D05FB
S113233090E0922B90937905809378052CC080913E
S1132340230190912401A0912501B0912601C81682
S1132350D906EA06FB0698F1209127012F5F253B59
S113236008F024EB2093270120912701253050F019
S113237010928E0510926E0510926F0510927005E2
S11323801092710588519C4FAF4FBF4FC816D906A4
S1132390EA06FB0630F0D701C6018E519B4FAF4FC2
S11323A0BF4F8093230190932401A0932501B09300
S11323B0260180910201882309F444C01AC0809147
S11323C00905823091F40E94060C8091000183FF7C
S11323D008C020910C0540E052E060E080E00E94DB
S11323E0B32010920C05109209050E942D0B0C9439
S11323F0621C8F5F80930201853021F44EE060E11E
S113240079E005C08A3039F442E16EEE78E081E08B
S11324100E947D2117C08B3021F442E16CED78E0FD
S1132420F6CF8C3021F442E16AEC78E0F0CF8634C8
S113243049F442E16AEC78E081E00E947D218AE07F
S11324408093020160917803709179034090AF0505
S11324505090B0056090B1057090B20580E090E0B6
S11324600E94BD32A30192010E94CC3320E030E0EF
S113247040E85AE30E94CC3360936A0570936B057D
S113248080936C0590936D0560917A0370917B0342
S113249080E090E00E94BD32A30192010E94CC33FF
S11324A020E030E040E85AE30E94CC3360936605B4
S11324B070936705809368059093690560917C0328
S11324C070917D0380E090E00E94BD322091A705C9
S11324D03091A8054091A9055091AA050E94AA31FE
S11324E02091A3053091A4054091A5055091A6051E
S11324F00E94CC3320E030E048EC51E40E94AB3140
S113250060936205709363058093640590936505F9
S11325108091000182FF3DC221E130E04AEB58E0A6
S11325206EEF73E081E00E94CD1D21E14EEF53E098
S113253060E080E00E94B32028E230E042E958E005
S11325406EE773E081E00E94CD1D809143058F9377
S1132550809142058F93809147058F938091460522
S11325608F93809145058F93809144058F9380913B
S11325704B058F9380914A058F93809149058F93E2
S1132580809148058F93EEE7AE2EE3E0BE2EBF9216
S1132590AF920EEF13E01F930F930E948437282FFE
S11325A0A80160E080E00E94B32025E230E04DE61F
S11325B058E0B50181E00E94CD1D80915F058F93A5
S11325C080915E058F93809161058F938091600562
S11325D08F93BF92AF921F930F930E948437282F3B
S11325E0A80160E080E00E94B32023E530E04AE1E6
S11325F058E0B50181E00E94CD1D80915B058F9369
S113260080915A058F9380915D058F9380915C052D
S11326108F93809159058F93809158058F93BF9222
S1132620AF921F930F930E9484370FB6F894DEBFC6
S11326300FBECDBF282FA80160E080E00E94B32028
S11326402FE230E04BEE57E0B50181E00E94CD1D52
S113265080914F058F9380914E058F9380914D0506
S11326608F9380914C058F93809153058F93809124
S113267052058F93809151058F93809150058F93CC
S1132680809157058F93809156058F9380915505BE
S11326908F93809154058F93BF92AF921F930F93A2
S11326A00E948437282FA80160E080E00E94B320B4
S11326B02BE330E040EB57E0B50181E00E94CD1DF3
S11326C01091340500913505B0903605A09037057A
S11326D0E0913905F0913A05A0913B05B0913C0594
S11326E0209138050FB6F894DEBF0FBECDBF22236C
S11326F011F030E002C02DE230E040913E055091EF
S11327003F05609140057091410580913D05882306
S113271011F090E002C08DE290E0AF92BF920F936F
S11327201F93BF93AF93FF93EF933F932F937F93A5
S11327306F935F934F939F938F937EE7A72E73E0DE
S1132740B72EBF92AF920EEF13E01F930F930E9428
S11327508437282FA80160E080E00E94B3200FB6E0
S1132760F894DEBF0FBECDBF80912701811177C0E1
S11327702DE130E043E957E0B50181E00E94CD1D31
S1132780809178039091790320916D052F93209186
S11327906C052F9320916B052F9320916A052F933D
S11327A09F938F93BF92AF921F930F930E9484378E
S11327B0282FA80160E080E00E94B3202DE130E0E2
S11327C046E757E0B50181E00E94CD1D80917A0370
S11327D090917B03209169052F93209168052F9395
S11327E0209167052F93209166052F939F938F93D4
S11327F0BF92AF921F930F930E948437282FA80192
S113280060E080E00E94B3202DE130E049E557E02C
S1132810B50181E00E94CD1D80917C0390917D03E0
S1132820209165052F93209164052F9320916305D2
S11328302F93209162052F939F938F93BF92AF9212
S11328401F930F930E948437282FA80160E080E033
S11328500E94B3200FB6F894DEBF0FBECDBF28E3AD
S113286030E041E257E06EE773E081E00E94CD1D65
S113287090E099299F938F92FF92EF92DF92CF92EB
S11328806EE7E62E63E0F62EFF92EF920EEF13E072
S11328901F930F930E948437282FA80160E080E0E3
S11328A00E94B32024E730E04DEA56E0B70181E00E
S11328B00E94CD1D809173058F93809172058F9333
S11328C0809177058F93809176058F93809175051C
S11328D08F93809174058F93809179058F93809164
S11328E078058F9380917D058F9380917C058F93DC
S11328F080917B058F9380917A058F93FF92EF925D
S11329001F930F930E948437282FA80160E080E072
S11329100E94B32024E230E049E856E0B70181E0A8
S11329200E94CD1D809124051F928F9380912505CF
S11329301F928F93FF92EF921F930F930E948437FD
S11329400FB6F894DEBF0FBECDBF282FA80160E0FC
S113295080E00E94B32020E230E049E656E0B7016F
S113296081E00E94CD1D80918E051F928F93FF926E
S1132970EF921F930F930E948437282FA80160E0E1
S113298080E00E94B3200F900F900F900F900F9053
S11329900F90809127018111BAC440917A0550911A
S11329A07B0560917C0570917D0580917405909103
S11329B07505A0917605B09177059A01AB01281BA6
S11329C0390B4A0B5B0BA0E2BEE40E945931209103
S11329D07805309179054901A12CB12C209172051B
S11329E030917305821A930AA108B108860E971EC6
S11329F0A81EB91E24013501BDE25B1AB1E36B0ABE
S1132A00B1E07B0A80911F0190912001A0912101E6
S1132A10B09122018E839F83A887B98720E030E09C
S1132A2040EA50E4BC01CD010E941C326B017C01E0
S1132A309CE9891A9CE2990A91E3A90A91E0B90AEE
S1132A40A9EC8A169104A104B104E0F020E030E07E
S1132A5040E05FE3C701B6010E94CC336A877E87FA
S1132A60888B998B20E030E040EA51E4C701B6013D
S1132A700E941C326E837F8388879987412C512C56
S1132A80320158C0D301C2014396A11DB11D8797DD
S1132A90A105B10558F5C301B2010E94BF32A701D7
S1132AA096010E94AA319B01AC016E817F818885C9
S1132AB099850E94AB3160931F017093200180932C
S1132AC021019093220120E030E040E05FE3C70160
S1132AD0B6010E94CC336A877E87888B998B20E06D
S1132AE030E040EA51E4C701B6011EC010921F0154
S1132AF0109220011092210110922201C301B2010F
S1132B000E94BF324B015C0120E030E040E05FE313
S1132B100E94CC336A877E87888B998B20E030E0D3
S1132B2040EA51E4C501B4010E941C326E837F83E4
S1132B30888799878091000182FF54C080910001A9
S1132B4080FD50C02AE330E043E655E06EE773E0D1
S1132B5081E00E94CD1D7F926F925F924F925EE75B
S1132B60A52E53E0B52EBF92AF920EEF13E01F9344
S1132B700F930E948437282FA80160E080E00E9410
S1132B80B32028E630E04BEF54E0B50181E00E9429
S1132B90CD1D809171058F93809170058F938091E5
S1132BA06F058F9380916E058F93B989BF932889A0
S1132BB02F933E853F938A858F93FF92EF92DF9206
S1132BC0CF92BF92AF921F930F930E948437282F06
S1132BD0A80160E080E00E94B3200FB6F894DEBF45
S1132BE00FBECDBF8091000180FFE9C180918E05A9
S1132BF0843060F42DEC3CEC4CEC5DE3C701B60191
S1132C000E94AB316B017C0111E001C010E020E0B7
S1132C1030E04AE754ECC701B6010E94C7331816E6
S1132C200CF0B4C120E030E04AE754E4C701B60137
S1132C300E94173287FFAAC1111104C020E030E0BE
S1132C40A90104C02AE037ED43EA5BE36E817F818A
S1132C50888599850E94AA31962E872E382E292E92
S1132C60D301C2010396A11DB11D0797A105B105AA
S1132C70F0F420E030E040EA51E4C701B601905896
S1132C800E941C3220919705309198054091990536
S1132C9050919A050E941C3220E030E040E251E459
S1132CA00E941C326F877A8B8B8B9C8B25C0662786
S1132CB07727CB0164197509860997090E94BF32E9
S1132CC020E030E040EA51E40E941C322091970554
S1132CD0309198054091990550919A050E941C32B3
S1132CE02DEC3CEC4CE85FE30E941C326F877A8B3E
S1132CF08B8B9C8B10928E052FE832EC45E75CEBB6
S1132D00D401F1016B2F782D8F2F922D0E94C733A0
S1132D1087FD1AC02FE832EC45E75CE3D401F101EA
S1132D206B2F782D8F2F922D0E941732181664F076
S1132D3080918E05823041F480911C0181117AC00A
S1132D4083E080938E0576C02CEE31E548E35DEB9D
S1132D50D401F1016B2F782D8F2F922D0E94C73350
S1132D6087FD18C02CEE31E548E35DE3D401F101A1
S1132D706B2F782D8F2F922D0E941732181654F036
S1132D8080918E05813031F480911C01811152C0F3
S1132D9082E041C02CE53FE842EC5DEBD401F10157
S1132DA06B2F782D8F2F922D0E94C73387FD12C071
S1132DB02CE53FE842EC5DE3D401F1016B2F782D63
S1132DC08F2F922D0E941732181624F080918E05B1
S1132DD0823080F520E030E048EC51ECD401F10180
S1132DE06B2F782D8F2F922D0E94C73387FD1DC026
S1132DF020E030E048EC51E4D401F1016B2F782D50
S1132E008F2F922D0E94173218167CF080918E0518
S1132E10823020F081E080938E0509C081110AC0C0
S1132E2080911C018823B1F305C010928E0584E1C2
S1132E3080931C018FB7F894909125059D83909100
S1132E40240599838FBF80918E058430C8F49E0138
S1132E502F5F3F4FAE014B5F5F4FBF85AA89FB8950
S1132E60EC896B2F7A2F8F2F9E2F0E948F0A8FB79A
S1132E70F8949D81909325059981909324058FBFA3
S1132E808091000182FF82C02AE330E043E655E0EE
S1132E906EE773E081E00E94CD1D7F926F925F9296
S1132EA04F924EE7A42E43E0B42EBF92AF920EEFA2
S1132EB013E01F930F930E948437282FA80160E02A
S1132EC080E00E94B32028E630E04BEF54E0B501E7
S1132ED081E00E94CD1D2F923F928F929F92B989DB
S1132EE0BF9328892F933E853F938A858F93FF92C2
S1132EF0EF92DF92CF92BF92AF921F930F930E94F3
S1132F008437282FA80160E080E00E94B32021E4E8
S1132F1030E04AEB54E0B50181E00E94CD1D9C896C
S1132F209F93AB89AF93BA89BF932F852F936D81FC
S1132F3070E080E090E00E94BF326B017C01698107
S1132F4070E080E090E00E94BF3220E030E040E892
S1132F505BE30E94CC339B01AC01C701B6010E9424
S1132F60AB319F938F937F936F93BF92AF921F93D5
S1132F700F930E9484370FB6F894DEBF0FBECDBF07
S1132F80282FA80160E080E00E94B32080911C01FA
S1132F90815018F080931C0102C010921C01809192
S1132FA08E05843060F48E819F81A885B9858093D5
S1132FB06E0590936F05A0937005B0937105809191
S1132FC0000181FFA4C160917A0370917B03809119
S1132FD08E05833008F446C09CEE960F9E3D50F556
S1132FE08730B8F487E080938E0510921801109210
S1132FF0190110921A0110921B018FB7F8941092C4
S11330001B0510921C0510921D0510921E058FBF02
S113301005C0873019F087E080938E0580EB860F1A
S1133020843700F580918E058F30E0F48FE0809333
S11330308E0518C08730B0F081E080938E05109221
S113304018011092190110921A0110921B018FB7E6
S1133050F89410921B0510921C0510921D051092F5
S11330601E058FBF772769587109072E000C880B3E
S1133070990B0E94BF3226E131E542E050E40E9400
S1133080CC336E837F838887998780918E058730C0
S113309008F445C020E030E044E352E46E817F81CF
S11330A0888599859F770E94CC332AE939E949E9D3
S11330B05FE30E9439346B017C0120E030E0A90118
S11330C06E817F81888599850E94173287FF04C0AD
S11330D0F7FAF094F7F8F09420E030E0A901C70182
S11330E0B6010E9417328823E9F01FB7F894A701AC
S11330F0960160911B0570911C0580911D059091AE
S11331001E050E94AB3160931B0570931C058093D0
S11331101D0590931E051FBF0E942D0B03C0C12CDB
S1133120D12C760180918E05873008F499C0809067
S1133130180190901901A0901A01B0901B0120E091
S113314030E040E450E4C501B4010E941C329B010C
S1133150AC01C701B6010E94AA319B01AC01C501B3
S1133160B4010E94AB3160931801709319018093EC
S11331701A0190931B0125E93FEB46ED53E30E94AE
S1133180CC334B015C0140901401509015016090C8
S113319016017090170120E030E040EE50E4C301C6
S11331A0B2010E941C326A877B878C879D8720E04E
S11331B030E0A901C501B4010E94C7332A853B85CB
S11331C04C855D8587FD03C0C501B40103C0C501FD
S11331D0B40190580E94AA319B01AC01C301B20111
S11331E00E94AB3160931401709315018093160112
S11331F090931701609197057091980580919905B6
S113320090919A059B01AC010E94AB312A853B85C4
S11332104C855D850E94CC3360936E0570936F0579
S113322080937005909371051FB7F89480912505DC
S11332308D838091240589831FBF9E012F5F3F4F9B
S1133240AE014B5F5F4FC501B4010E948F0AF89431
S11332508D81809325058981809324051FBF03C038
S1133260812C912C54018091000182FF50C020E6F2
S113327030E04AE554E06EE773E081E00E94CD1D42
S1133280FF92EF92DF92CF92BF92AF929F928F9272
S113329099859F93A885AF93BF81BF932E812F9368
S11332A03EE7E32E33E0F32EFF92EF920EEF13E0AE
S11332B01F930F930E948437282FA80160E080E0B9
S11332C00E94B32020E330E04AE254E0B70181E0F9
S11332D00E94CD1D80911E058F9380911D058F93B3
S11332E080911C058F9380911B058F93FF92EF9221
S11332F01F930F930E948437282FA80160E080E079
S11333000E94B3200FB6F894DEBF0FBECDBF8091EC
S1133310000186FF8EC0EBECF5E080E090E02191A7
S11333202A3571F085539A4F20910301309104019D
S11333308217930750F4909304018093030105C00E
S113334001968032A2E09A0751F725E430E044E484
S113335053E06EE773E081E00E94CD1D8091060189
S11333608F93809105018F93809104018F938091B5
S113337003018F932EE7E22E23E0F22EFF92EF92C9
S11333800EEF13E01F930F930E948437282FA80198
S113339060E080E00E94B3202DE330E047E053E09A
S11333A0B70181E00E94CD1D70912E0173FB772738
S11333B070F960912E016295617050912E015695BD
S11333C0517040912E0142FB442740F930912D0168
S11333D036FB332730F920912D01269521709091E9
S11333E02D01917080912D01869586958695877023
S11333F01F927F931F926F931F925F931F924F931D
S11334001F923F931F922F931F929F931F928F930C
S1133410FF92EF921F930F930E948437282FA801E5
S113342060E080E00E94B3200FB6F894DEBF0FBEC8
S1133430CDBF8091000187FFB0C12FB7F894809170
S1133440260590912705A0912805B09129052FBF45
S113345089389341A105B10528F521E130E049E11E
S113346054E06EE773E081E00E94CD1D60E080E0EF
S11334700E94542660E18EE793E00E94822621E1B7
S113348030E048E054E06EE773E081E00E94CD1D37
S113349060E081E00E94542660E18EE793E00E94A0
S11334A082267BC180918E0528E130E08823B9F122
S11334B040EF53E06EE773E081E00E94CD1D809100
S11334C059058F93809158058F931F9283EF8F93A3
S11334D080918E051F928F931F9280EE8F9320E030
S11334E030E04AE754E460916E0570916F05809175
S11334F07005909171050E94CC339F938F937F93B5
S11335006F931F9282E68F938EE793E09F938F933E
S11335108EEF93E09F938F930E94843721C048EDF0
S113352053E06EE773E081E00E94CD1D8091590560
S11335308F93809158058F931F9283EF8F9380917F
S11335408E051F928F931F9280EE8F938EE793E0E8
S11335509F938F938EEF93E09F938F930E94843772
S1133560182F0FB6F894DEBF0FBECDBF60E080E029
S11335700E945426612F8EEF93E00E948226809150
S11335801E01813009F45AC0823009F49BC0809036
S1133590480590904905A0904A05B0904B0540908D
S11335A044055090450560904605709047052CE110
S11335B030E04CEB53E06EE773E081E00E94CD1DF8
S11335C094E6C92ED12CE12CF12CC301B201A70140
S11335D096010E9434311F926F93CA01B901A70169
S11335E096010E9434311F926F93C301B20120E10E
S11335F037E240E050E00E9434311F922F93C5011E
S1133600B40120E432E44FE050E00E9434311F92D0
S11336102F93C501B40120E137E240E050E00E945D
S11336203431162F072FCA01B901A70196010E9450
S113363034311F926F930F931F9384C020E230E0C4
S11336404CE953E06EE773E081E00E94CD1D809168
S11336505B058F9380915A058F931F928BEE8F9306
S113366080915D058F9380915C058F931F928FED00
S11336708F93809157058F93809156058F938091F6
S113368055058F93809154058F9380915F058F9397
S113369080915E058F931F9286E48F9380916105DC
S11336A08F93809160058F931F928DE48F938EE7A3
S11336B093E09F938F938EEF93E09F938F930E9459
S11336C084374AC08FB7F8940091250510912405DA
S11336D08FBF23E130E049E853E06EE773E081E017
S11336E00E94CD1D80916D058F9380916C058F9301
S11336F080916B058F9380916A058F931F928BEA5B
S11337008F93602F70E080E090E00E94BF326B01E5
S11337107C01612F70E080E090E00E94BF3220E0E5
S113372030E040E85BE30E94CC339B01AC01C7016D
S1133730B6010E94AB319F938F937F936F931F9237
S113374080E58F938EE793E09F938F938EEF93E0C2
S11337509F938F930E948437182F60E081E00E942A
S11337605426612F8EEF93E00E9482260FB6F894C0
S1133770DEBF0FBECDBF80911D018F5F833018F473
S113378080931D010AC010921D0180911E018F5F5C
S113379063E00E94F23090931E0120E030E0A90122
S11337A060918A0570918B0580918C0590918D05AF
S11337B00E941732882309F485C0FFB6F89410914B
S11337C0250500912405FFBE19830D8360918A05A8
S11337D070918B0580918C0590918D059E012B5FD6
S11337E03F4FAE014F5F5F4F0E948F0AF89489816B
S11337F0809325058D8180932405FFBE26E630E065
S113380043E056E06EE773E081E00E94CD1D1F9215
S11338100F931F921F9380918D058F9380918C0538
S11338208F9380918B058F9380918A058F938EE778
S1133830E82E83E0F82EFF92EF920EEF13E01F9331
S11338400F930E948437282FA80160E080E00E9433
S1133850B32026E630E04DE955E0B70181E00E944F
S1133860CD1D8D811F928F9389811F928F9380919B
S11338708D058F9380918C058F9380918B058F9309
S113388080918A058F93FF92EF921F930F930E946A
S11338908437282FA80160E080E00E94B3201092B2
S11338A08A0510928B0510928C0510928D050FB627
S11338B0F894DEBF0FBECDBF05C081E00E943E1F5D
S11338C00C94511164960FB6F894DEBF0FBECDBFB1
S11338D0DF91CF911F910F91FF90EF90DF90CF90E8
S11338E0BF90AF909F908F907F906F905F904F901C
S11338F03F902F900895F894F89481E085BF80E07C
S113390085BF0FB6F894A895809160008861809374
S11339106000109260000FBE8FEE8093640080B749
S1133920806880BF80917F00836080937F0085B72B
S11339308F7E85BF0E94F809EBEEF7E08AE582935B
S113394095E0EB3CF907D9F70E9459090E94B308A6
S11339500E9429210E94D626789481E0809307054D
S11339600E94B2220E940F250E949E250E941D1FC4
S113397060E08EE793E00E946C1E882339F180E1B9
S1133980EEE7F3E0A7EBB5E001900D928A95E1F73D
S11339901092C70580919003909191039093B6057E
S11339A08093B50580918E0390918F039093B40515
S11339B08093B305809192038770982F9295907F9E
S11339C0809101018F78892B8093010161E08EE75A
S11339D093E00E946C1E882309F440C080917E030A
S11339E090917F03A0918003B09181038093AF05F0
S11339F09093B005A093B105B093B2058091820372
S1133A0090918303A0918403B09185038093AB05C7
S1133A109093AC05A093AD05B093AE058091860359
S1133A2090918703A0918803B09189038093A7059F
S1133A309093A805A093A905B093AA0580918A0341
S1133A4090918B03A0918C03B0918D038093A30577
S1133A509093A405A093A505B093A60562E08EE714
S1133A6093E00E946C1E882309F450C080917E0369
S1133A7090917F03A0918003B091810380939F056F
S1133A809093A005A093A105B093A2058091820311
S1133A9090918303A0918403B091850380939B0547
S1133AA090939C05A0939D05B0939E0580918603F9
S1133AB090918703A0918803B0918903809397051F
S1133AC090939805A0939905B0939A0580919003DB
S1133AD090919103A0919203B091930380939305E5
S1133AE090939405A0939505B093960580919403C3
S1133AF090919503A0919603B091970380938F05BD
S1133B0090939005A0939105B09392058091000144
S1133B1087FF0E94810D8091000185FD03C00E94F2
S1133B20880DF9CF0FB6F894A8958091600088614C
S1133B3080936000109260000FBE0E9429260E94AC
S1133B4044250E94C92210920705F8940E94EA268F
S1133B500E94FA200E94DC080E9471090E942A0A2D
S1133B6014B817B81AB815B818B81BB885B78F7E2B
S1133B7085BF83B7817F846083BF9FB7F89483B781
S1133B80816083BF85B7806685BF8F7D85BF88953B
S1133B9083B78E7F83BF9FBFECCF1F93CF93DF93F9
S1133BA0162F972FBA01882329F0C12FD92FA0E00F
S1133BB0B0E007C0A901812FDF91CF911F910C9430
S1133BC0BC36A217B30739F0FB01EA0FFB1FE491DF
S1133BD0E9931196F6CF812FDF91CF911F9108952C
S1133BE020E1829FC00111248C60906B0895CF93D3
S1133BF0DF93FC01DC015E9625EA35EA60E1E90128
S1133C00CC0FDD1F922F9170832F881F8827881F68
S1133C109827A901452F552742954695477041702D
S1133C20942733FB332730F9932727FB882780F920
S1133C30982722FB222720F92927CE01822B9C01D9
S1133C406150E9F681912827EA17FB07B9F6C90103
S1133C50DF91CF910895EF92FF920F931F93CF932B
S1133C60DF931F92CDB7DEB77C018A01081B190BC5
S1133C70662361F0C8018E0D9F1D69830E943A3846
S1133C80F70181937F0169816150F2CF0F90DF9139
S1133C90CF911F910F91FF90EF9008958830C8F451
S1133CA090E2899FA001112460E28EE793E00E94D4
S1133CB02B1E8EE793E00E94F71D20919D0330E0B8
S1133CC0322F222740919C03242B41E028173907E7
S1133CD009F040E0842F08950F931F93CF93683029
S1133CE010F080E014C0C62F8C01862F0E944E1E57
S1133CF08823B9F383E00E37180741F080E2C89FA8
S1133D00A001112460E2C8010E942B1E81E0CF9122
S1133D101F910F910895EF92FF921F93CF93DF931A
S1133D207C01C42FD52F162F140F1C1741F0F70157
S1133D3061917F01CE010E9442382196F6CFDF9136
S1133D40CF911F91FF90EF9008951F93CF93DF932E
S1133D50683030F5162FEC010E94F71D2F8D30E0EE
S1133D60322F22274E8D242B28173907D9F08E8F16
S1133D709F8F8D8D90E0982F88272C8D822B019614
S1133D808C8F9D8FCE010E94F71D8E8F9F8F80E2B6
S1133D90189FA001112460E2CE010E948B1E02C074
S1133DA080E001C081E0DF91CF911F9108951F93BE
S1133DB0CF93DF93883010F080E03BC0182F0E942F
S1133DC04E1E8111F9CF212F30E040919D0350E028
S1133DD0542F442780919C03482BC90174E0880F19
S1133DE0991F7A95E1F78C60906B48175907D9F0C1
S1133DF0C0919B03D0E0DC2FCC2780919A03C82B81
S1133E0095E0220F331F9A95E1F72E5B324F40E085
S1133E1050E06CE18EE793E00E94943C2196C093BD
S1133E209A03D0939B03612F8EE793E00E94A51E13
S1133E3081E0DF91CF911F910895CF93DF93C0E08C
S1133E40D0E08C2F0E94D71E8111DF5FCF5FC83076
S1133E50C1F78D2FDF91CF910895811103C0E3E164
S1133E60F5E002C0E4E1F5E08FB7F894908121E039
S1133E7020838FBF81E0911180E00895811103C0F8
S1133E80E3E1F5E002C0E4E1F5E08FB7F8941082D5
S1133E908FBF08958F929F92AF92BF92CF92DF927D
S1133EA0EF92FF920F931F93CF93DF93982F3FB717
S1133EB0F894882329F0709118058091170504C09F
S1133EC070911605809115053FBFA72FB0E0C82F4C
S1133ED0D0E0FD013196EC17FD0709F466C07F3789
S1133EE019F4882309F461C0911105C0E8E7EE2EA6
S1133EF0E2E0FE2E04C038EFE32E32E0F32E30E091
S1133F00781728F4FE01EA1BFB0B31970CC0E0E89C
S1133F10F0E0EA1BFB0B01E010E0882311F000E065
S1133F2010E0E01BF10B2E173F070CF4F901DE2E15
S1133F308F011127201B310B781720F0882311F0F3
S1133F40219702C0C0E0D0E02C173D070CF4E90132
S1133F505A01962E892ECC2EDD2039F0B7016A0F36
S1133F607B1F9801892D0E94CD1DCC2051F09E010C
S1133F703327A501400F511FB701892D0E94CD1D84
S1133F80DC0C9FB7882041F0F894809118058D0DC2
S1133F908F778093180507C0F894809116058D0DCE
S1133FA08F77809316059FBF01C0D12C8D2DDF9193
S1133FB0CF911F910F91FF90EF90DF90CF90BF9022
S1133FC0AF909F908F9008959F92AF92BF92CF929F
S1133FD0DF92EF92FF920F931F93CF93DF932FB74C
S1133FE0F894882329F0C09118059091170504C00E
S1133FF0C0911605909115052FBFC91709F45AC031
S1134000423008F457C0811103C008E712E002C02F
S113401008EF12E050E041505109E92FF0E09C17FD
S113402018F42C2F30E002C020E830E02E1B3F0BA8
S1134030421753070CF49A01B22E7901FF244E194A
S11340405F099C1710F0D0E002C0C0E0D0E04C172C
S11340505D070CF4EA016B01A82E9C2EBB2039F0FD
S1134060B8016E0F7F1FA701C6010E94BC369920BC
S113407049F0AE015527B801C6018E0D9F1D0E945F
S1134080BC36B90CF601EB0DF11D10829FB7AA20C6
S113409041F0F894809117058B0D8F778093170565
S11340A007C0F894809115058B0D8F7780931505C3
S11340B09FBF05C0411102C0FB011082B12C8B2DA2
S11340C0DF91CF911F910F91FF90EF90DF90CF90F0
S11340D0BF90AF909F9008953FB7F894882329F03C
S11340E0909118052091170504C090911605209110
S11340F015053FBF291779F0811103C088E792E0C5
S113410002C088EF92E0FC01E20FF11D808184324D
S113411021F481E1089580E0089581E00895CF932A
S1134120C82F8C2F0E942D1F8823B9F02FB7CC23C2
S113413031F0F894809118059091170505C0F89412
S113414080911605909115052FBF981751F08C2F6B
S11341500E943E1FA8950E942428A8950E94242806
S1134160E0CFCF9108950F931F93CF93DF9300D0A7
S113417000D0CDB7DEB7082F2C834A835B836983D5
S11341800E948F202C814A815B816981802F0E944B
S11341904A1F182F802F0E943E1F812F0F900F90CF
S11341A00F900F90DF91CF911F910F9108959FB7BA
S11341B0F894E0ECF0E080818F7B8083E0910A0545
S11341C081E08E0F80930A05F0E0E854FE4F808171
S11341D08093C6009FBFE1ECF0E080818062808321
S11341E008959FB7F894E1ECF0E0808180688083C3
S11341F09FBF08959FB7F894E1ECF0E08081877049
S113420080839FBF5898E4E6F0E0808182608083D9
S113421008959C01BC0176956795CB01A0E0B0E0C0
S1134220BC01CD0160537D4E8C4E9F4F40E050E069
S11342300E941231DA01C9010197A109B109892F3C
S11342409A2FAB2FBB278093C50021502093C40025
S11342500895809164008D7F8093640085B78F7E7C
S113426085BF589A63E08EE793E00E946C1E882312
S1134270C1F080917E0390917F0390931205809307
S11342801105809180039091810390931005809390
S11342900F05809182039091830390930E05809380
S11342A00D0580911105909112050E94092188E164
S11342B08093C10020910F053091100583E0820F97
S11342C08370880F932F9073892B222733709FEF6D
S11342D0930F9170990F990F990F892B8093C200B6
S11342E08091C60010920A050C94F12081E090910F
S11342F00B05911101C080E00895CF93442379F018
S1134300C42FAB012C2F30E068EB71E00E94CD1D6F
S113431010920A05C0930B05CF910C94D720CF912E
S11343200895CF932FB7F8949091C0002FBF209198
S11343300B05211138C095FF36C0C82F4DE368EB3B
S113434071E00E94E41F80930B058C2F0E943E1F96
S11343508091000183FF10920B0510920A05809151
S11343600B05882319F1EFEFE80FE0930B05F0E05C
S1134370E854FE4F9081911180930B05E0910B0559
S1134380AE2FB0E0A854BE4F8DE08C9382E08E0F28
S113439080930B05EF5FF0E0E854FE4F8AE08083E2
S11343A0CF910C94D720CF910C943E1FCF910895B8
S11343B01F920F920FB60F9211242F933F934F9396
S11343C05F938F939F93AF93BF93CF93DF93EF93B9
S11343D0FF939091C6007894809109052091080577
S11343E0811148C030910C05353708F043C031E0E5
S11343F0309309052223C1F02FB7F89430910805B2
S113440040910C05A8EFB1E0E82FE40F831739F0D1
S11344105D91F0E0E050FE4F50838F5FF5CFE09365
S11344200C05109208052FBFE0910C05A1E0AE0F1A
S1134430A0930C05CE2FD0E0C050DE4F9883A53753
S113444080F0B0E0A050BE4F8DE08C9383E08E0FDF
S113445080930C05EE5FF0E0E050FE4F8AE080832D
S113446002C09A3021F482E08093090512C01092B0
S113447009050FC0283068F48FB7F894E091080557
S113448021E02E0F20930805F0E0E850FE4F9083C2
S11344908FBFFF91EF91DF91CF91BF91AF919F912A
S11344A08F915F914F913F912F910F900FBE0F907D
S11344B01F9018951F920F920FB60F9211248F938D
S11344C09F93EF93FF938091C1008F7D8093C100F0
S11344D0789490910A0580910B05981798F4F894B4
S11344E0E0910A0581E08E0F80930A05F0E0E8541C
S11344F0FE4F80818093C6008091C10080628093CA
S1134500C100789490910A0580910B05981748F0A2
S1134510F8948091C1008F7D8093C10078941092AB
S11345200B05FF91EF919F918F910F900FBE0F900C
S11345301F90189578941F920F920FB60F92112422
S11345400F900FBE0F901F901895909107058091C2
S11345502D0181FF06C0A8959923C9F30E94242840
S1134560F4CF0895E4E6F0E080818F7780839FB7ED
S1134570F89487B18F7C87B988B1806388B9109229
S1134580B90081E18093B80084E88093BC009FBFA8
S113459008951092BC0088B18F6C88B9E4E6F0E00D
S11345A0808180688083089590912D0190FD02C0E0
S11345B08823D9F1909100059923B9F1F894909149
S11345C02D01926090932D0190912D019E7F9093E7
S11345D02D0190912D019F7B90932D0190912E019F
S11345E09B7F90932E0190912E019D7F90932E019D
S11345F090912E019F7E90932E0190912E01977F92
S113460090932E011092FE04882329F080912D01AD
S1134610877C806104C080912D01877C88608093B1
S11346202D0185EA8093BC0078940895CF93DF939D
S113463000D01F92CDB7DEB74B836A8389830E9473
S1134640A5229FB7F89489818093010510920005F3
S1134650E091000581E08E0F80930005F0E0E75DB6
S1134660FE4F6A816083E091000581E08E0F8093A4
S11346700005F0E0E75DFE4F4B814083EDE2F1E0A1
S11346808081816080839FBF80E00E94D4228091DA
S11346902E01829581700F900F900F90DF91CF9132
S11346A00895CF93DF9300D000D0CDB7DEB72C832D
S11346B04B836A8389830E94A5229FB7F8948981DA
S11346C08093010510920005E091000581E08E0FB2
S11346D080930005F0E0E75DFE4F6A816083E0911E
S11346E0000581E08E0F80930005F0E0E75DFE4F4A
S11346F04B814083E091000581E08E0F809300059B
S1134700F0E0E75DFE4F2C812083EDE2F1E0808153
S1134710816080839FBF80E00E94D42280912E011B
S1134720829581700F900F900F900F90DF91CF9131
S11347300895CF93DF9300D0CDB7DEB76A83898322
S11347400E94A5229FB7F894898180930105109255
S11347500005E091000581E08E0F80930005F0E0F4
S1134760E75DFE4F6A816083EDE2F1E08081846061
S1134770808384E08093FF048081816080839FBF75
S113478080E00E94D4220E94A522809129010F90EA
S11347900F90DF91CF9108952FB7F89410920005F0
S11347A090912D01977C90932D0190912D019D7FE7
S11347B090932D01882311F084E901C084E880934B
S11347C0BC002FBF08951F920F920FB60F921124B1
S11347D02F933F934F935F936F937F938F939F9305
S11347E0AF93BF93EF93FF938091B900887FE091DB
S11347F02D01E695E695E695E770F0E0E730F105E2
S113480008F0F4C0EF5BFF4F0C945331883099F4F7
S113481080910105880F06C0803169F480910105FB
S1134820880F81608093BB0080912D01877C886113
S113483080932D0190C080912D01806480932D017F
S1134840D5C0883179F580912E01846080932E0142
S113485080912E01826080932E0180910105803227
S113486029F4809100018068809300018091000503
S1134870823078F480912D0182FD02C087E001C06E
S113488086E0880F880F880F90912D01977C892BE3
S113489004C080912D01877C806280932D018091DA
S11348A0290157C0803479F480912E01846080936B
S11348B02E0180912E01826080932E0180912D0122
S11348C0877C8862B5CF80912E018B7F80932E01E7
S11348D080912E01826080932E01809101058032A7
S11348E009F084C0809100018F77809300017EC01D
S11348F0883299F58091FE048F5F8093FE04809145
S11349002E01806180932E0180912E018860809316
S11349102E018091FE042091000590E0019630E084
S11349208217930784F080912D0182FD02C087E0F5
S113493001C086E0880F880F880F90912D01977C25
S1134940892B80932D01E091FE04F0E0E75DFE4F9A
S113495080818093BB0085E84EC080912E018F7EBC
S113496080932E0180912E01886080932E013EC099
S1134970E091FE0491E09E0F9093FE04F0E090918C
S1134980BB00E75DFE4F908390912E019061909360
S11349902E0190912E01986090932E01883531F16B
S11349A09091FE0480910005981700F585EC23C0D2
S11349B090912D019B7F90932D019AEA9093290168
S11349C090932A0190932B0190932C01883241F407
S11349D08091FF048093000581E00E94D4220EC0E0
S11349E01092000581E00E94CC2308C081E00E945F
S11349F0CC2303C084E88093BC007894FF91EF91AA
S1134A00BF91AF919F918F917F916F915F914F91E2
S1134A103F912F910F900FBE0F901F90189544E275
S1134A206AE080E20E9416232FEF4FEF6CE080E2F1
S1134A300E94512320E04FEF60E080E20E94512366
S1134A4020E040E062E080E20E94512320E040E068
S1134A5062E180E20E94512320E040E064E180E2D0
S1134A600E94512320E040E064E080E20E94512350
S1134A7020E040E066E080E20E9451232FEF4FEFF8
S1134A8068E080E20C94512320E040E064E080E29E
S1134A900E9451232FEF4FEF6CE080E20E945123DC
S1134AA02FEF4FEF60E080E20C945123882311F044
S1134AB040E001C04FEF60E080E20C941623482FE1
S1134AC065E180E20C941623462F90E8699F9001DB
S1134AD01124282B64E180E20C94512362E180E2EA
S1134AE00C9499231F93CF93DF93809101018295B6
S1134AF08770813011F0C0E001C0C8E080E00E94FE
S1134B005625DC2FD260C3608D2F0E945F258C2F29
S1134B100E945F250E946E25182F8D2F0E945F250D
S1134B2017FF08C082E48A95F1F700C0A8950E9497
S1134B302428EACFDF91CF911F9108950E94722516
S1134B408091000187FF84C081E00E9456256CE3B8
S1134B5080E00E9464256CE381E00E9464256CE39C
S1134B6080E00E94642580E00E9456258BE18A95AE
S1134B70F1F7000081E00E9456256CE380E00E947A
S1134B8064256CE381E00E9464256CE380E00E946C
S1134B90642580E00E94562583EF91E00197F1F7A8
S1134BA000C0000081E00E9456256CE380E00E9472
S1134BB064256CE381E00E9464256CE380E00E943C
S1134BC064250E94722581E00E9456256CE380E0F2
S1134BD00E9464256CE381E00E9464256CE380E01C
S1134BE00E9464250E94722581E00E9456256CE093
S1134BF080E00E9464256CE081E00E9464256CE002
S1134C0080E00E9464250E94722581E00E9456255E
S1134C1061E080E00E94642561E081E00E946425F7
S1134C2061E080E00E9464250E94722581E00E9478
S1134C30562566E080E00E94642566E081E00E94DB
S1134C40642566E088E00E94642580E00C94562583
S1134C5008958091000187FF26C081E00E945625B7
S1134C6061E080E00E94642561E081E00E946425A7
S1134C7061E080E00E94642580E00E9456250E9445
S1134C80722581E00E94562568E080E00E94642538
S1134C9068E081E00E94642568E080E00E94642569
S1134CA080E00C9456250895CF93DF9390910101F1
S1134CB092959770913011F0D0E001C0D8E0C62FE2
S1134CC0CF70C068282F217030E086E0220F331F98
S1134CD08A95E1F7C22B0E94722581E00E94562535
S1134CE06C2F8D2F0E9464256C2F8D2F81600E9464
S1134CF064256C2F8D2F0E94642580E0DF91CF9175
S1134D000C945625AF92BF92CF92DF92EF92FF920E
S1134D100F931F93CF93DF936C01909101019295B0
S1134D209770913011F0C0E001C0C8E07601062F01
S1134D3010E08C2F8460B82EEC2FE560AE2E970126
S1134D402C193D0920173107E4F4F701D1917F01B3
S1134D500E94722581E00E9456256D2F8B2D0E94A2
S1134D6064256D2F8A2D0E9464256D2F8B2D0E9442
S1134D7064256D2F8C2F0E94642580E00E945625A7
S1134D80DECFDF91CF911F910F91FF90EF90DF90D5
S1134D90CF90BF90AF90089580917E0584FF05C0A9
S1134DA065E087E091E00C94FE2708950E94722943
S1134DB0E898219829988AEF815041F0E7E8F3E1D7
S1134DC03197F1F700C00000A895F6CF219A299AEF
S1134DD0E89A0895E898219829980895FC0180811B
S1134DE0982F9076903459F58F7149F5818181110E
S1134DF00EC082818093300183818093310184814C
S1134E008093320185818093330184E019C082301C
S1134E1049F48FB7F894268137813093060520939F
S1134E2005050AC0813059F48FB7F894268137817B
S1134E3030930405209303058FBF8FEF01C080E0FA
S1134E4020E331E03093FA072093F9070895CF92D5
S1134E50DF92EF92FF921F93CF93DF937C01462F53
S1134E608091000184FF3DC0809105059091060565
S1134E70892BB9F12091C8053091C905C90168EEA3
S1134E8073E00E94FE30CB01EAE0F0E0BF010E9433
S1134E90FE30805DD7018C93C90164E670E00E9406
S1134EA0FE30CB01BF010E94FE30805DD701119618
S1134EB08C93C901BF010E94FE30C82FCB01BF01F2
S1134EC00E94FE30805DF70182832F5F3F4F309355
S1134ED0C9052093C805C05DC3838AE3848315E0B4
S1134EE001C010E0C12ED12C8091050590910605DA
S1134EF050E08417950708F4AC01EA01CC19DD09E8
S1134F001C161D0604F580E00E942D1F8823D9F38A
S1134F104C2F4F5FB7016C0D7D1D80E00E94E41F94
S1134F20C82F80E00E943E1FCC0ED11C20910505A5
S1134F30309106052C193D0930930605209305058B
S1134F408C2F810F01C0812FDF91CF911F91FF9092
S1134F50EF90DF90CF9008951F93CF93DF93D62FD8
S1134F602091030530910405462F50E04217530762
S1134F70C0F4241B350B30930405209303051FB79D
S1134F80F894C09102052C2F30E0BC01C901885C63
S1134F909E4F0E94BC36CD0FC09302051FBF80E018
S1134FA029C0232BA9F01FB7F894C0910305509191
S1134FB00405D09102052D2F30E04C2FBC01C9010E
S1134FC0885C9E4F0E94BC36CD0FC09302051FBF64
S1134FD02091020548E351E060E081E00E94B320A3
S1134FE08FB7F894109204051092030510920205ED
S1134FF08FBF81E0DF91CF911F910895CF932091CE
S11350007E052E31F9F020917E0524FF07C03091F2
S11350107F0528E8232720937F0503C02AE52093F2
S11350207E05DC01E0E8F5E0862F8E0F9D919193DB
S11350308E13FCCFC62F80E895E00E949707CC5FC3
S1135040C0937E05CF910895CF93DF936091FB07C2
S1135050635067FDE2C08091F807CCE0D0E0C81B44
S1135060D109C150D84F8091F7078D3209F0C3C0E0
S1135070683009F0D0C083EC8093EB078AE5809315
S11350800D011092CA052881822F807641F0CE014D
S11350900E94EE26982F8F3F09F49CC0A2C09A81EB
S11350A03C811092F4078981811113C02F71223041
S11350B051F4313841F490917E0581E09E3109F03C
S11350C080E08093F4071092F50724EF37E092E034
S11350D07CC0282F2D7F213081F4911173C0313889
S11350E009F070C0813011F08EE101C08AE580932F
S11350F07E058BE480937F0565C0853019F4909319
S1135100FC0760C0863009F044C08B81813041F4D3
S11351108BEF9DE09093FA078093F90792E135C0F5
S1135120823041F482EE9DE09093FA078093F90770
S113513099E12BC0833041F5911108C085E59EE0CB
S11351409093FA078093F90794E01FC0913041F4DB
S113515087E49EE09093FA078093F9079EE015C0D8
S1135160923041F48DE19EE09093FA078093F90721
S11351709AE20BC0933041F48DE09EE09093FA07DD
S11351808093F90790E101C090E080E48093CA0520
S113519028C0883081F0893019F49093FE0707C045
S11351A08A3061F08B3071F48BE480937F058AE55B
S11351B080937E0507C02EEF37E002C024EF37E06E
S11351C091E003C024EF37E090E03093FA07209396
S11351D0F90707C0888187FD9E8180E88093CA050E
S11351E007C08F81811104C08E81891708F4982F1C
S11351F090930C0110C08091CA0587FF0CC0CE01AA
S11352000E94AC278F3F21F48EE180930D0103C0EF
S1135210811110920C011092FB0780910D0184FF03
S113522051C080910C018F3F09F44CC0C82F8930C4
S113523008F0C8E08C1B80930C019091EB0788E880
S113524089278093EB07CC2359F13091CA0537FFA6
S113525009C06C2F8CEE97E00E942727C82F893055
S113526058F51EC08091F9079091FA072C2F280F4A
S1135270ACEEB7E0FC0136FF06C034913D933196A5
S11352802E13FBCF04C031913D932E13FCCF019616
S11352902FEF2C0F820F911D9093FA078093F9073B
S11352A06C2F8CEE97E00E949707CC5FCC3041F0D6
S11352B08FEF80930C0104C08FEF80930C01CEE13B
S11352C0C0930D0184E196B19C7049F48150D9F7E3
S11352D01092FC071092F6078AE580937E05DF9111
S11352E0CF910895E9E6F0E0808183608083E89AB5
S11352F0EEE7F5E08BE481838AE580830895A3E1FA
S1135300B0E0E5E8F9E20C9464316C014B012A0148
S1135310FC0117821682838181FF43C3AE014F5F74
S11353205F4F3A01F6019381F40193FD859193FF58
S113533081914F01882309F430C3853239F493FDF8
S1135340859193FF81914F01853239F4B60190E044
S11353500E941C3752012501E5CF10E0F12C20E01A
S11353602032A0F48B3269F030F4803259F0833269
S113537069F420612CC08D3239F0803339F4216016
S113538026C02260246023C0286021C027FD27C0D6
S113539030ED380F3A3078F426FF06C0FAE01F9F4C
S11353A0300D1124132F13C04AE0F49E300D112444
S11353B0F32E20620CC08E3221F426FDEEC220644E
S11353C006C08C3611F4206802C0883641F4F4011A
S11353D093FD859193FF81914F018111C1CF9BEB87
S11353E0980F933018F42061805E06C09BE9980FF3
S11353F0933008F071C12F7E26FF16E02F73322EF2
S1135400853619F42064322E08C0863621F4F22F32
S1135410F0683F2E02C01111115037FE07C01C3333
S113542050F4EE24E394E10E27E00BC0183038F07A
S113543027E017E005C027E04CE3E42E02C0212F4B
S1135440E12C520144E0A40EB11CF201608171818F
S1135450828193810E2DA3010E94B0352C01098114
S113546000FF02C003FF07C031FC08C032FE09C0C0
S113547030E2232E07C02DE2222E04C09BE2292E07
S113548001C0212C802F8C7019F0211068C2A8C291
S113549037FE0FC0E40C04FF04C08A81813309F491
S11354A0EA941E1474F5F8E0FE1578F588E0E82E09
S11354B02CC036FC2AC0812F90E0841595059CF001
S11354C02CEF42162FEF520674F0432D4068342E11
S11354D00AC0E2E0F0E0EC0FFD1FE10FF11D808156
S11354E0803319F411501111F4CF37FE0EC0EE249D
S11354F0E394E10E812F90E0481659062CF4141918
S113550004C0EE24E39401C010E037FE06C0141476
S1135510150434F4C201019605C085E090E002C090
S113552081E090E021100196112331F0212F30E029
S11355302F5F3F4F820F931F2F2D30E08217930769
S113554014F4F81A01C0F12C832D897049F4FF205A
S113555039F0B60180E290E00E941C37FA94F7CF4C
S1135560222029F0B601822D90E00E941C3733FCE2
S113557009C0FF2039F0B60180E390E00E941C3797
S1135580FA94F7CF37FE5AC0942D852D57FE02C0EA
S113559090E080E0292E382E20E030E0A2014E1960
S11355A051095D874C87A201421953095F874E87D1
S11355B0612F70E044275527461B570B598B488BA6
S11355C05FEF2516350649F4B6018EE290E02A8B8A
S11355D03B8B0E941C373B892A89421453046CF08C
S11355E04C855D854215530544F4EE85FF85E20F35
S11355F0F31FE60DF71D818101C080E351E0251AF8
S113560031082F5F3F4F48895989241635064CF0DD
S1135610B60190E02A8B3B8B0E941C372A893B8978
S1135620CFCF2414350439F49A81963318F4953382
S113563011F404FF81E3B60190E04BC08A81813309
S113564009F00F7EB60190E00E941C37111105C0CD
S113565034FC18C085E690E017C0B6018EE290E0F5
S11356600E941C3782E0EE24E394E80EF301E80F75
S1135670F11D8081B60190E00E941C3711508E2DDF
S113568091F7E6CF85E490E0B6010E941C3757FC01
S113569005C04114510439F404FF05C051944194E8
S11356A051088DE201C08BE2B60190E00E941C37E4
S11356B080E39AE0491651042CF08F5F5AE0451AB2
S11356C05108F7CFB60190E00E941C37B601C20121
S11356D0C0960E941C3757C1833631F0833779F066
S11356E0833509F058C021C05201E2E0AE0EB11C6E
S11356F0F2018081898301E010E0230114C052018A
S1135700F2E0AF0EB11CF2014080518026FF03C0CD
S1135710612F70E002C06FEF7FEFC2012A8B0E94FD
S1135720D3368C012A892F7715C05201F2E0AF0ECF
S1135730B11CF2014080518026FF03C0612F70E04C
S113574002C06FEF7FEFC2012A8B0E94A4368C0146
S11357502A892068322E23FD1AC08F2D90E0081765
S11357601907A8F4B60180E290E00E941C37FA946D
S1135770F4CFF20137FC859137FE81912F01B601F8
S113578090E00E941C37F110FA94015011090115A0
S1135790110579F7F8C0843611F0893659F55201AC
S11357A027FF09C0F4E0AF0EB11CF20160817181E2
S11357B0828193810AC0F2E0AF0EB11CF2016081D4
S11357C07181072E000C880B990B2F76322E97FFD0
S11357D009C090958095709561957F4F8F4F9F4F2D
S11357E02068322E2AE030E0A3010E94D937E82E47
S11357F0E6183FC0022F853721F40F7E2AE030E0FF
S11358001DC0097F8F3691F018F4883559F0C5C052
S1135810803719F0883711F0C0C0006104FF09C057
S1135820046007C024FF08C0066006C028E030E01A
S113583005C020E130E002C020E132E0520107FF60
S113584009C0F4E0AF0EB11CF20160817181828164
S1135850938108C0F2E0AF0EB11CF2016081718146
S113586080E090E0A3010E94D937E82EE6180F7774
S1135870302E36FE0BC0332D3E7FE11650F434FE3D
S11358800AC032FC08C0332D3E7E05C00E2D332DD8
S113589003C00E2D01C0012F34FF0CC0FE01EE0D1C
S11358A0F11D8081803311F4397E08C032FF05C0B8
S11358B00E5F04C0832F867809F00F5F33FD13C099
S11358C030FF06C01E2D0F1518F41F0D101B0F2DD1
S11358D00F1568F4B60180E290E03B8B0E941C3700
S11358E00F5F3B89F5CF0F1510F4F01A01C0F12CAE
S11358F034FF12C0B60180E390E03B8B0E941C375A
S11359003B8932FF17C031FD03C088E790E002C035
S113591088E590E0B6010CC0832F867859F031FFFA
S113592002C08BE201C080E237FD8DE2B60190E057
S11359300E941C37E11638F4B60180E390E00E941F
S11359401C371150F7CFEA94F301EE0DF11D80815D
S1135950B60190E00E941C37E110F5CF14C0F4E0CA
S1135960FF1558F584E0F81A33FE1EC0211026C036
S113597003FF2AC002E111E0F32DF0713F2EF8017C
S11359808491811124C0FF2009F4E5CCB60180E2A2
S113599090E00E941C37FA94F6CFF6018681978135
S11359A026C08FEF9FEF23C0B60180E290E00E94F3
S11359B01C37FA94F110F8CFD9CFF12CB601822D0F
S11359C090E00E941C37D4CF06E111E0D5CF31100E
S11359D08052B60190E00E941C370F5F1F4FCFCF5B
S11359E023E02F1510F483E0BECFF12CC1CF6396D2
S11359F0E2E10C94803120FD09C0FC0123FD05C0C7
S1135A0022FF02C07383628351834083089544FD5F
S1135A1010C046FD10C0DB01FC01AA0FBB1FEE1F26
S1135A20FF1F1094D1F76A0F7B1F8E1F9F1F31E059
S1135A3003C033E001C034E0660F771F881F991F4D
S1135A403150D1F7620F711D811D911D08950F937F
S1135A501F93CF93DF938C01C8010E94DE36EC01C3
S1135A6097FD08C00E948836892BB1F7B801CE0192
S1135A700E94C037CE01DF91CF911F910F910895FD
S1135A80A0E0B0E0E6E4FDE20C946A317C018B0115
S1135A906A01D22F0E94DE369C0133272B32310556
S1135AA021F02D32310559F4D0680150110911F457
S1135AB080E069C0C7010E94DE3697FDF9CFCD2F83
S1135AC0CD7F2D2F207309F58033F9F4580181E03F
S1135AD0A81AB10809F443C0C7010E94DE3697FD35
S1135AE03EC0282F2F7D283551F4C264025011097D
S1135AF0B1F1C7010E94DE3697FF07C030C0D6FF60
S1135B0002C0C26001C0C2618501812C912C540184
S1135B1020ED280F283080F0C4FF04C0B7010E9494
S1135B20C0371AC02A3040F0C6FFF8CF2F7D3FEEB1
S1135B30320F363098F727504C2FC501B4010E941C
S1135B40072D4B015C01C2600150110959F0C701D6
S1135B500E94DE3697FFDCCFC1FD04C0A9CF812CA3
S1135B60912C5401C7FF08C0B094A09490948094E1
S1135B70811C911CA11CB11C2C2FB501A401C601D0
S1135B800E94FB2C81E0CDB7DEB7ECE00C948631AB
S1135B90A0E2B0E0EEECFDE20C9466314C015B0156
S1135BA07A018E010F5F1F4F680180E2F8011192A4
S1135BB08A95E9F7F401638040E050E0712C412CB0
S1135BC080E0A1E0B0E0F90163FC559063FE5190E0
S1135BD08F01952D9F01511003C080E090E080C09B
S1135BE0FEE55F1203C04115510561F1682F70E0B5
S1135BF0641775074CF46DE5561669F1EDE25E1213
S1135C0003C0442009F103C0411001C0752C692F61
S1135C10669566956695F601E60FF11D692F677026
S1135C208D0102C0000F111F6A95E2F7B80170815F
S1135C30672B6083971559F0971510F49F5FE7CF92
S1135C409150E5CF81E004C04424439401C0412C29
S1135C504F5F5F4FB8CF442019F09E8190629E83BE
S1135C60811103C07724739418C0F6019E012F5D3F
S1135C703F4F808180958193E217F307D1F7F2CFEC
S1135C80E114F10429F0F7018083C70101967C0136
S1135C9091E0A91AB108712CE9F0C4010E94DE3622
S1135CA097FD16C0282F269526952695F601E20F16
S1135CB0F11D208130E0AC014770552702C03595B5
S1135CC027954A95E2F720FDDBCFB4010E94C03747
S1135CD0711083CFE114F10411F0F7011082C801AF
