:100000000C9453070C949B070C9470070C94700786
:100010000C9470070C9470070C948E0A0C94700763
:100020000C9470070C9470070C94BA090C947B091B
:100030000C9470070C9470070C9470070C94700764
:100040000C94370A0C9470070C94EC230C946E24D7
:100050000C94AE240C94F3080C9470070C94700765
:100060000C9441260C947007751481148D14991406
:10007000A514B114BD14C914D514E114ED14F91468
:1000800005156C2764266A267F26EA262A274A2732
:1000900007634236B79BD8A71A39685618AEBAAB71
:1000A000558C1D3CB7CC5763BD6DEDFD753EF61705
:1000B0007231BF000000803F08000000BE9224495A
:1000C000123EABAAAA2ABECDCCCC4C3E000000808A
:1000D000BEABAAAAAA3E00000000BF000000803FFD
:1000E0000000000000084178D3BB4387D1133D19BD
:1000F0000E3CC3BD4282AD2B3E68EC8276BED98FEA
:10010000E1A93E4C80EFFFBE01C4FF7F3F0000002D
:1001100000006E616E00696E660000407A10F35A4E
:1001200000A0724E18090010A5D4E80000E8764837
:10013000170000E40B54020000CA9A3B000000E1E3
:10014000F505000080969800000040420F00000076
:10015000A08601000000102700000000E803000056
:1001600000006400000000000A0000000000010020
:10017000000000002C76D888DC674F0823DFC1DF41
:10018000AE59E1B1B796E5E3E453C63AE651997644
:1001900096E8E6C28426EB898C9B62ED407C6FFC7E
:1001A000EFBC9C9F40F2BAA56FA5F490055A2AF7C0
:1001B0005C936B6CF9676DC11BFCE0E40D47FEF5C9
:1001C00020E6B500D0ED902E030094357705008031
:1001D000841E080000204E0A000000C80C33333390
:1001E000330F986E12831141EF8D2114893BE65530
:1001F00016CFFEE6DB18D1844B381BF77C1D901D13
:10020000A4BBE424203284725E228100C9F124EC74
:10021000A1E53D2724474C4753562C252A642C3111
:100220002C25642C002447504753562C252A642C37
:10023000312C25642C00244750524D432C256C64EE
:100240002E25642C252A632C25662C25632C2566F7
:100250002C25632C252A662C252A662C256C642CDB
:100260002C2C252A632A25640025662C25662C253E
:10027000662A2564002447504753412C252A632CC5
:1002800025642C002447504747412C256C642E25BB
:10029000642C25662C25632C25662C25632C25646F
:1002A0002C25642C25662C25662C252A632C252AD2
:1002B000662C252A632C252A642C252A642A256489
:1002C00000436F6D6D756E69636174696F6E206256
:1002D00061756420726174652073657420746F2089
:1002E00025357520626175642E0A00444634494103
:1002F000482C25732C253035752C5632302530335B
:1003000075253033752E0023534330323A20733D28
:100310003078253032782C64533D25752C69503D5A
:1003200025752C65533D25752C61413D25752C6146
:1003300041563D25752C64413D25752C6441563D43
:1003400025750A0023534330313A20537461636B9F
:100350002D436865636B3A206D756E672D77616C10
:100360006C20616464726573733A20307825303490
:10037000782C206C6F776573742D737461636B3A9E
:10038000203078253034780A0025632530372E3325
:100390006620256325352E336656200025632531DA
:1003A000752025632531752025332E316620256380
:1003B00025303275256325303275200025303275A1
:1003C0002E253032752E2055253032753A253032A3
:1003D000753A25303275200062202D2D2D2E2D2DC1
:1003E0002D202563253158202563253032752000C6
:1003F0002563252030382E3366202563253158208B
:10040000256325303275200031304D487A526566BB
:100410004F73632056327831002B3D3D3D204446DA
:1004200034494148203D3D3D2B0023494131323A7A
:10043000205048415345206661737450776D53696D
:100440006E676C65446966665F7374657073203DA2
:1004500020252B30332E33660A0023494131313AAF
:100460002050484153452070686173654572722081
:10047000203D202530332E3366C2B02C2009207059
:100480006861736553746570734672657175656EE6
:100490006379203D20252B30332E33662C200970C4
:1004A0006861736553746570735068617365203D4E
:1004B00020252B30332E33660A0023494130333A4E
:1004C000205152472020206E657750776D56616C21
:1004D000203D202530332E33662C200970776D4364
:1004E0006F725374657073202020202020202020FC
:1004F0003D20252B30332E33660A0023494130320C
:100500003A20436C6F636B206C6F63616C4D656167
:100510006E466C6F6174436C6F636B4469666620F2
:100520003D20252B30332E3366487A204032304D23
:10053000487A2C20097172674465765F487A203DBD
:1005400020252B30332E3366487A204031304D48F9
:100550007A2C200970706D203D20252B30322E36EC
:10056000660A0023494130313A20436C6F636B20A7
:10057000696E7432304D487A436C6F636B446966C0
:1005800066202020202020203D202020252B3034D4
:100590006C69487A204032304D487A0A0023494439
:1005A00030323A202B2F2D204B455920096D61699F
:1005B0006E50776D5465726D696E616C41646A202E
:1005C0003D2025662C20096C6F63616C4661737455
:1005D00050776D56616C4E657874203D2025303320
:1005E00075202B206C6F63616C4661737450776D5E
:1005F000537562436D704E657874203D202530330D
:10060000750A0023494430313A202B2F2D204B45C9
:100610005920096D61696E50776D5465726D696E10
:10062000616C41646A203D2025662C200970756C40
:100630006C50776D56616C4265666F726520202044
:10064000203D2025303375202B2066617374507750
:100650006D537562436D704265666F726520202030
:10066000203D20253033750A0023544131343A208F
:100670006D61696E526566436C6B5374617465207D
:100680003D2030782531580A0023544131333A2037
:1006900050574D203D20253033752C20095375626D
:1006A0002D50574D203D20253033750A00235441ED
:1006B00031323A207070735374616D7043747231CB
:1006C0006D7320203D202530396C752C2009707009
:1006D000735374616D70494352312020203D2025B1
:1006E0003035752C20097070735374616D704374CC
:1006F00072316D735F6C61737420203D2025303939
:100700006C752C20097070735374616D704943527D
:10071000315F6C6173742020203D20253035750ACF
:100720000023544131313A206C6F63616C46617330
:1007300074437472316D73203D202530396C752CF3
:1007400020096C6F63616C4661737454434E54317D
:10075000203D20253035750A0023544130333A209E
:1007600054656D70203D2025303475202825302EAD
:10077000316643290A0023544130323A2041444330
:1007800031203D2025303475202825302E33665603
:10079000290A0023544130313A2041444330203D5E
:1007A0002025303475202825302E336656290A003E
:1007B00023475030353A204C6174203D202563207A
:1007C0002530392E34662C204C6F6E203D20256359
:1007D00020253031302E34662C20486569676874D6
:1007E000203D20252E3166206D0A002347503034ED
:1007F0003A2050444F50203D20252E32662C204870
:10080000444F50203D20252E32662C2056444F5018
:10081000203D20252E32662C0A0023475030333AE3
:10082000205361747355736564203D202530326414
:100830002C2053617473457068696D5F477073470E
:10084000616C696C656F517A7373203D202530327D
:10085000642C2053617473457068696D5F476C6FD9
:100860006E617373203D20253032640A00234750A7
:1008700030323A204D6F646532203D202531642CA2
:1008800020506F73466978496E64203D202531649D
:100890000A0023475030313A2044617465203D20DE
:1008A0002530386C642C2054696D65203D2025303E
:1008B000366C642E253033640A000A2347503030EA
:1008C0003A203D3D3D3D3D3D3D0024504D544B3390
:1008D00035332C312C312A33370D0A0024504D5436
:1008E0004B3335332C312C302A33360D0A0024504B
:1008F0004D544B3335332C302C302A33370D0A000E
:1009000024504D544B3136312C302A32380D0A00E8
:1009100024504D544B3130322A33310D0A000A3DF8
:100920003D3D20444634494148202D203130204D62
:10093000487A205265666572656E6365204F736301
:10094000696C6C61746F72203D3D3D0A3D3D3D20F8
:100950005665723A203230253033642530336400D6
:100960000A2A3F2A2020756E6B6E6F776E20636FA8
:100970006D6D616E6420272573272072656365693C
:100980007665642C207472792048454C502E0A3EBE
:10099000000A3D3D3D3D3D3D3D3D3D3D3D0A3E0066
:1009A0000A2B2F2D203C50574D2076616C75653EEB
:1009B0000909636F7272656374696F6E2076616C8A
:1009C000756520746F2062652061646465642E0023
:1009D0000A575249544550574D09090973746F72AB
:1009E000652063757272656E742050574D20617377
:1009F0002064656661756C742076616C75652E0A7D
:100A0000575249544554454D50203C54454D502073
:100A100076616C75653E0909777269746520637546
:100A20007272656E742074656D7065726174757232
:100A3000652061732064656661756C742076616CF5
:100A400075652E000A5445535409090909746F67E6
:100A5000676C657320636F756E746572207465735F
:100A6000742E000A535441434B09090909746F67F6
:100A7000676C657320737461636B206D756E672D91
:100A800077616C6C20746573742E000A5345524F65
:100A900046460909090973776974636820736572AA
:100AA00069616C20636F6D6D756E69636174696FE8
:100AB0006E204F46462E0A5345524F4E09090909EA
:100AC0007377697463682073657269616C20636F02
:100AD0006D6D756E69636174696F6E204F4E2E0087
:100AE0000A53455242415544203C626175643E09B7
:100AF000090973657474696E672073657269616C46
:100B0000206261756420726174652E000A4C454450
:100B10004F46460909090973776974636820626161
:100B2000636B6C69676874204F46462E0A4C4544D7
:100B30004F4E09090909737769746368206261631C
:100B40006B6C69676874204F4E2E000A494E464F01
:100B500009090909746F67676C65732061646469CA
:100B600074696F6E616C207072696E74656420695F
:100B70006E666F732E000A48454C500909090974C6
:100B8000686973206D6573736167652E000A48415B
:100B90004C5409090909706F776572732074686590
:100BA0002064657669636520646F776E2028736CB6
:100BB000656570206D6F6465292E000A4150434FB2
:100BC00046460909090973776974636820415043EF
:100BD00020286175746F6D6174696320706861733A
:100BE0006520636F6E74726F6C29206F66662E0AC3
:100BF0004150434F4E0909090973776974636820AE
:100C000041504320286175746F6D61746963207071
:100C10006861736520636F6E74726F6C29206F6EEC
:100C20002E000A4146434F46460909090973776970
:100C30007463682041464320286175746F6D617448
:100C40006963206672657175656E637920636F6E86
:100C500074726F6C29206F66662E0A4146434F4EB0
:100C6000090909097377697463682041464320289C
:100C70006175746F6D617469632066726571756505
:100C80006E637920636F6E74726F6C29206F6E2EA5
:100C9000000A3D3D3D2048454C50203D3D3D0A0A5F
:100CA00024203C4E4D45412D4D6573736167653E73
:100CB000090973656E6473206D65737361676520E0
:100CC000746F2074686520475053206D6F64756C95
:100CD000652E002A49444E3F005752495445544519
:100CE0004D5000575249544550574D0054455354A8
:100CF00000535441434B005345524F4E005345520D
:100D00004F46460053455242415544004C45444FDE
:100D10004E004C45444F464600494E464F0048451C
:100D20004C500048414C54004150434F4E004150FC
:100D3000434F4646004146434F4E004146434F46CF
:100D400046004446344941482031304D687A2D529E
:100D5000656643AB000001FFFFFFFFFFFFFF0000E0
:100D60000CB0A52C8F4048E18A3F0080AF4300A023
:100D7000873FFFFFFFFFFFFFFFFFFFFFFFFF0000B9
:100D80001CB0CDCC94C05C8FC23F508D173DFFFF8F
:100D9000FFFFFFFF713D8A3F3333134078000000AF
:100DA0002CB08025080100000000FFFFFFFFFFFFBF
:100DB000FFFFFFFFFFFFFFFFFFFFFFFFFFFF000041
:100DC0003CB000000000FFFFFFFFFFFFFFFFFFFF41
:100DD000FFFFFFFFFFFFFFFFFFFFFFFFFFFF000021
:100DE0004CB00902190001010080690904000001EA
:100DF000FF0000000705810308000A12011001FF2F
:100E0000000008C016DC05000101020301100350B8
:100E10000072006F0074006F002D0031002A03443F
:100E200000460034004900410048002D00310030E8
:100E3000004D0048007A002D005200650066002D2C
:100E4000004F00730063000E034400460034004965
:100E50000041004800040309046364696E6F707305
:100E60007578585B65666745464700616E006E663B
:100E7000696E69747900CDCCCC3D0AD7233C17B795
:100E8000D13877CC2B329595E6241FB14F0A00005C
:100E900020410000C84200401C4620BCBE4CCA1B7A
:100EA0000E5AAEC59D7411241FBECFEFD8E0DEBF31
:100EB000CDBF11E0A0E0B1E0EEEAF5E702C0059099
:100EC0000D92A631B107D9F728E0A6E1B1E001C043
:100ED0001D92A731B207E1F70E948B1E0C94D53A00
:100EE0000C940000A82FB92F8FEF9FEF1BC02D91FE
:100EF0008227282F22952827722F26952695272787
:100F0000239526952170782F892F82272195207C83
:100F1000922F2227769527959727822776952795D2
:100F200097278227615018F7809590950895DADF0A
:100F30008D939D930895CF93CFB7CF93DF93C395B0
:100F4000339BE9F7339B11C0339B0FC0339B0DC01C
:100F5000339B0BC0339B09C0339B07C0339B05C039
:100F6000339B03C0339B01C083C06F93C091FA07CA
:100F7000DD27CF5FD74F2F9320E400C065E0339B80
:100F800003C02F916F91DECF0F931F934F9345E5D1
:100F90005F9355E53F933BE014E006B10C702EC023
:100FA0006A95C9F03150D8F106B10C7001130BC02D
:100FB00008942795299320E4555500F46A9569F71C
:100FC00001E066B10BC0102F66E02695299320E45E
:100FD000555518F3E2CF0FEF66B10000162F4555B7
:100FE00000F0404066E01C700030E2F221F00000AA
:100FF00006B10C7003C006B10C70A9F0011309C052
:101000000894279568F200C06A95A9F700E066B1D8
:10101000E5CF102F66E0269528F20000ECCF11E016
:101020001CBB002719C03B503195C31BD04011E0B9
:101030001CBB0881033C09F10B34F9F02091F8073F
:101040001981110F1213EDCF4A81441F093651F156
:101050000D3211F0013E29F70093FF073F915F9198
:101060004F911F910F912F916F91CCB3C0FD67CF1E
:10107000DF91CF91CFBFCF9118952091FF07222309
:1010800069F31091FD07112381F5343082F130931B
:10109000FD072093F9071091FA073BE0311B3093CD
:1010A000FA0725C00091FD070130FCF40AE54F70F6
:1010B00049F430910E0134FD1BC000930E01CDEEBA
:1010C000D7E01AC03091800534FD12C0009380052E
:1010D000C1E8D5E011C0052710E000C008B919C06B
:1010E000052710E0221F00C01DC04AE502C032EDF6
:1010F000432FC4E1D0E032E017B11C60439A08B13D
:1011000017B95CE020E869E420FF052708B92795B6
:10111000179500C000001C3FF0F66695A8F7A1F7F0
:1011200020FF052708B92795179500001C3FC0F63A
:1011300029913A9541F7037F1091FE07110F08B9E5
:10114000C651D04011F01093F80711E01CBB0860A5
:1011500017B1137F402F437F55E05A95F1F708B937
:1011600017B948B97BCFE4E6F0E080818E7F8083B9
:1011700010921B05EFE7F0E080818360808383E0BD
:1011800080937E00EBE7F0E080818F7B8083EAE74D
:10119000F0E080818768808380B787E180BF81E14C
:1011A00080931C0581E480937C008081806580832E
:1011B000808188608083089580B78777806880BF4A
:1011C00087E080937A0010927B0010927C00E4E626
:1011D000F0E08081816080830895EAE7F0E080811B
:1011E0008064808308951F920F920FB60F9211248E
:1011F0002F933F934F935F936F937F938F939F931F
:10120000AF93BF93EF93FF93809178002091790083
:10121000789490E0922B20911C05283021F168F4FD
:101220002223A1F0213019F590937D0380937C0354
:1012300080E180931C0580E41EC0213109F1283132
:1012400071F02031A1F410921C0517C090937B031C
:1012500080937A0388E180931C0588EC0CC088E0B9
:1012600080931C050AC090937F0380937E0381E1E5
:1012700080931C0581E480937C000E94ED0808C0E7
:1012800081E080931C0580911B058F5F80931B0577
:10129000FF91EF91BF91AF919F918F917F916F914E
:1012A0005F914F913F912F910F900FBE0F901F9024
:1012B0001895E4E6F0E08081877F808310928500B6
:1012C000109284008EE4809389008FE180938800DF
:1012D0001092800089E48093810082E280936F0005
:1012E000089510926F0010928100E4E6F0E0808192
:1012F0008860808308951F920F920FB60F92112479
:101300002F933F938F939F93AF93BF938091280523
:1013100090912905A0912A05B0912B050196A11D58
:10132000B11D8093280590932905A0932A05B093B9
:101330002B0578948091000186FF11C0F8948DB739
:101340002EB7789490E0922B2091060130910701FE
:101350008217930720F49093070180930601BF91B1
:10136000AF919F918F913F912F910F900FBE0F9052
:101370001F9018951F920F920FB60F9211242F9362
:101380004F935F936F937F938F939F93EF93FF930D
:101390008091860020918700409128055091290571
:1013A00060912A0570912B057894EAE7F0E090812E
:1013B00090649083F89490E0922B90933105809301
:1013C000300540932C0550932D0560932E057093A6
:1013D0002F057894FF91EF919F918F917F916F915D
:1013E0005F914F912F910F900FBE0F901F90189506
:1013F000809164008F7D8093640016BC8AE588BD6F
:1014000083E284BD81E085BD559A82E00E9462201E
:101410008823C9F04AE550E061E083E395E00E944B
:101420003F204BE550E061E082E395E00E943F20E1
:101430008FB7F894909133059093270590913205DA
:10144000909326058FBFA89A80916E00816080934B
:101450006E00089510926E00559815BC14BC18BC0F
:1014600016BCE4E6F0E080818062808308951F92DC
:101470000F920FB60F9211248F939F9378948091BF
:101480002505882361F0F8948091240588BD80911A
:1014900023058093220578941092250509C0F894BD
:1014A0008091270588BD8091260580932205789438
:1014B000F8949091210580912205981718F488B529
:1014C0008F5F88BD7894809121058F5F809321057F
:1014D0009F918F910F900FBE0F901F901895EF92D4
:1014E000FF921F93CF93DF9300D0CDB7DEB7182FB5
:1014F0007B010E9404209A838983A70162E0CE01C8
:1015000001960E949F20812F0E94EB200F900F9048
:10151000DF91CF911F91FF90EF90089518954F9212
:101520005F926F927F928F929F92AF92BF92CF9273
:10153000DF92EF92FF920F931F93CF93DF934B01B4
:101540005C016A017901FA01608170E080E090E05D
:101550000E9444352B013C01F701608170E080E07E
:1015600090E00E94443520E030E040E85BE30E94D8
:1015700051369B01AC01C301B2010E942934A5017F
:1015800094010E9429348B01D82FC92F20E030E02C
:10159000A9010E94953487FD1CC020E03FEF4EE773
:1015A00053E4B8018D2F9C2F0E944C361816B4F4CA
:1015B00020E03FEF4EE753E4B8018D2F9C2F0E94AF
:1015C00028348B01D82FC92FB0E0AFEFFEE7E3E45A
:1015D0000CC0B0E0A0E0F0E0E0E007C0B02FA12F29
:1015E000FE0100E010E0D0E0C0E020E030E040E0AC
:1015F0005BE36B2F7A2F8F2F9E2F0E9429344B0194
:101600005C010E941335F6016083C501B4010E949C
:101610007F359B01AC01C501B4010E94283420E054
:1016200030E040E853E40E9451360E941335F70140
:101630006083B8018D2F9C2FDF91CF911F910F9167
:10164000FF90EF90DF90CF90BF90AF909F908F90E2
:101650007F906F905F904F9008951F93CF93DF938B
:1016600000D0CDB7DEB78FB7F894109125058FBFA6
:1016700020E030E0A90160911D0570911E05809168
:101680001F05909120050E949534882379F111114E
:101690002DC08FB7F894909127059A8390912605D5
:1016A00099838FBF60911D0570911E0580911F0564
:1016B000909120059E012F5F3F4FAE014E5F5F4F1F
:1016C0000E948F0A60931D0570931E0580931F056D
:1016D000909320058FB7F8949A819093240599816F
:1016E0009093230591E0909325058FBF0F900F9065
:1016F000DF91CF911F9108950F931F93CF93DF93A5
:101700008C01EA019A01AB0160E873E081E00E947C
:10171000E11FAE0160E873E0C801DF91CF911F9136
:101720000F910C944A390F931F93CF93DF938C0141
:10173000EA019A01AB0160E873E081E00E94E11FD9
:10174000AE0160E873E0C801DF91CF911F910F9166
:101750000C943439CF92DF92EF92FF92C0904605FD
:10176000D0904705E0904805F09049052FEFC21A48
:10177000D20AE20AF20AC701B60124E630E040E0EC
:1017800050E00E94B2336C337105810591054CF035
:10179000C61AD70AE80AF90A84E6C80ED11CE11C69
:1017A000F11CC0924605D0924705E0924805F092A0
:1017B0004905C0904605D0904705E0904805F09057
:1017C0004905C701B60120E137E240E050E00E9440
:1017D000B233683427E172078105910594F0C61A87
:1017E000D70AE80AF90A80E1C80E87E2D81EE11C90
:1017F000F11CC0924605D0924705E0924805F09250
:101800004905FF90EF90DF90CF9008958F929F92BF
:10181000AF92BF92CF92DF92EF92FF920F931F93FE
:10182000CF93DF932DE330E044E852E060E873E0CB
:1018300081E00E94E11F84E395E09F938F9386E30C
:1018400095E09F938F9382E595E09F938F938AE530
:1018500095E09F938F9380E695E09F938F938AE323
:1018600095E09F938F938BE395E09F938F938FE306
:1018700095E09F938F9380E495E09F938F9384E40A
:1018800095E09F938F9386E495E09F938F9300E874
:1018900013E01F930F93C2E0D2E0DF93CF930E9437
:1018A0002C3A2FE030E045E752E0B80181E00E9499
:1018B000E11F82E695E09F938F931F930F93DF9331
:1018C000CF930E942C3A2DB73EB7205E3F4F0FB604
:1018D000F8943EBF0FBE2DBF181619060CF04FC06E
:1018E0000E94AA0BC0910E05D0E0219731F0FE01B5
:1018F000EE5FFD4F80818A32C1F7CE0120E030E0FB
:101900001816190684F4FC01EE5FFD4F40814C323D
:1019100041F42F5F3F4F2330310519F4EC0121963C
:1019200002C00197EDCF2CE030E049E652E060E8DC
:1019300073E081E00E94E11F84E395E09F938F9321
:101940008EE495E09F938F9382E595E09F938F932C
:1019500086E595E09F938F9380E893E09F938F9324
:10196000CE5FDD4FDF93CF930E942C3A2DB73EB769
:10197000245F3F4F0FB6F8943EBF0FBE2DBF23E349
:1019800030E046E352E060E873E081E00E94E11F4E
:1019900084E395E09F938F938AE495E09F938F93E0
:1019A0008AE395E09F938F938BE395E09F938F93CA
:1019B0008FE395E09F938F9380E495E09F938F93BF
:1019C00084E495E09F938F9386E495E09F938F93B3
:1019D00080E893E09F938F9382E092E09F938F93B0
:1019E0000E942C3A2DB73EB72C5E3F4F0FB6F894AD
:1019F0003EBF0FBE2DBF181619060CF044C00E9442
:101A0000AA0BC0904A05D0904B05E0904C05F09091
:101A10004D05D701C60180549041A109B109833C0D
:101A20009F4AA440B10538F5C701B60124E630E06D
:101A300040E050E00E94B2334B015C01A7019601E7
:101A4000261B370B480B590BA4E6B0E00E94D73396
:101A5000DC01CB018053984FAF4FBF4F880E991ECA
:101A6000AA1EBB1E80924A0590924B05A0924C057F
:101A7000B0924D0508C010924A0510924B05109285
:101A80004C0510924D0521E130E045E252E060E85E
:101A900073E081E00E94E11F8EE595E09F938F93B4
:101AA00000E813E01F930F93C2E0D2E0DF93CF93DF
:101AB0000E942C3A21E130E044E152E0B80181E09B
:101AC0000E94E11F8CE595E09F938F931F930F93E6
:101AD000DF93CF930E942C3A8DB79EB70C960FB62A
:101AE000F8949EBF0FBE8DBFDF91CF911F910F91D4
:101AF000FF90EF90DF90CF90BF90AF909F908F902E
:101B000008954F925F926F927F928F929F92AF92C1
:101B1000BF92CF92DF92EF92FF92CF93DF938091AB
:101B2000000187FFF7C12FB7F894809128059091A5
:101B30002905A0912A05B0912B052FBF8938934123
:101B4000A105B10590F521E130E049E154E060E8FC
:101B500073E081E00E94E11F60E080E00E94C728FE
:101B600060E180E893E00E94F62821E130E048E05F
:101B700054E060E873E081E00E94E11F60E081E0F2
:101B80000E94C72860E180E893E0DF91CF91FF9049
:101B9000EF90DF90CF90BF90AF909F908F907F900D
:101BA0006F905F904F900C94F6288091900528E1FB
:101BB00030E0882309F440C040EF53E060E873E070
:101BC00081E00E94E11F80915B058F9380915A050F
:101BD0008F931F9283EF8F93809190051F928F9325
:101BE0001F9280EE8F9320E030E04AE754E460914A
:101BF00070057091710580917205909173050E9436
:101C000051369F938F937F936F931F9282E68F93AA
:101C100080E893E09F938F9380E094E09F938F936D
:101C20000E94093AC82F8DB79EB742960FB6F89416
:101C30009EBF0FBE8DBF2AC048ED53E060E873E041
:101C400081E00E94E11F80915B058F9380915A058E
:101C50008F931F9283EF8F93809190051F928F93A4
:101C60001F9280EE8F9380E893E09F938F9380E0A4
:101C700094E09F938F930E94093AC82F8DB79EB727
:101C80000C960FB6F8949EBF0FBE8DBF60E080E04B
:101C90000E94C7286C2F80E094E00E94F628809173
:101CA0002A01813009F472C0823009F4C5C08090E5
:101CB0004A0590904B05A0904C05B0904D05409082
:101CC00046055090470560904805709049052CE105
:101CD00030E04CEB53E060E873E081E00E94E11FEC
:101CE00084E6C82ED12CE12CF12CC301B201A7014E
:101CF00096010E94B2331F926F93CA01B901A701E6
:101D000096010E94B2331F926F93C301B20120E18A
:101D100037E240E050E00E94B2331F922F93C5019A
:101D2000B40120E137E240E050E00E94B233CA0142
:101D3000B901A70196010E94B2331F926F93C501AA
:101D4000B40120E432E44FE050E00E94B2331F922D
:101D50002F9380E893E09F938F9380E094E09F938C
:101D60008F930E94093AC82F60E081E00E94C72843
:101D70006C2F80E094E00E94F6288DB79EB70E96F7
:101D80000FB6F8949EBF0FBE8DBFB2C020E230E008
:101D90004CE953E060E873E081E00E94E11F80912C
:101DA0005D058F9380915C058F931F928BEE8F93CF
:101DB00080915F058F9380915E058F931F928FEDC9
:101DC0008F93809159058F93809158058F938091BF
:101DD00057058F93809156058F93809161058F935E
:101DE000809160058F931F9286E48F9380916305A5
:101DF0008F93809162058F931F928DE48F9380E87B
:101E000093E09F938F9380E094E09F938F930E9441
:101E1000093AC82F60E081E00E94C7286C2F80E05B
:101E200094E00E94F6288DB79EB748960FB6F894B6
:101E30009EBF0FBE8DBF5CC08FB7F894D0912705B1
:101E4000C09126058FBF23E130E049E853E060E808
:101E500073E081E00E94E11F80916F058F93809174
:101E60006E058F9380916D058F9380916C058F9394
:101E70001F928BEA8F936D2F70E080E090E00E94BC
:101E800044356B017C016C2F70E080E090E00E9493
:101E9000443520E030E040E85BE30E9451369B018E
:101EA000AC01C701B6010E9429349F938F937F93A1
:101EB0006F931F9280E58F9380E893E09F938F93B9
:101EC00080E094E09F938F930E94093AC82F60E0CE
:101ED00081E00E94C7286C2F80E094E00E94F628E1
:101EE0008DB79EB740960FB6F8949EBF0FBE8DBFBC
:101EF000809129018F5F833018F4809329010AC0F3
:101F00001092290180912A018F5F63E00E94703353
:101F100090932A01DF91CF91FF90EF90DF90CF90C7
:101F2000BF90AF909F908F907F906F905F904F90F9
:101F300008954F925F926F927F928F929F92AF928D
:101F4000BF92CF92DF92EF92FF92CF93DF9300D0B8
:101F500000D01F92CDB7DEB78091010180FF7AC11A
:101F60008091900589839E012F5F3F4F41E060E89B
:101F700082E20E94AD2580904A0590904B05A0908A
:101F80004C05B0904D0580E1482E87E2582E612C1B
:101F9000712CC501B401A30192010E94B2337A836E
:101FA000698394E6C92ED12CE12CF12CCA01B90128
:101FB000A70196010E94B2336B83C501B40120E4EE
:101FC00032E44FE050E00E94B2332C839E012F5F39
:101FD0003F4F44E061E882E20E94AD2580904605D3
:101FE00090904705A0904805B0904905C501B401FF
:101FF000A30192010E94B2332983C501B401A70154
:1020000096010E94B233B62ECA01B901A70196010A
:102010000E94B2336A83BB829E012F5F3F4F43E031
:1020200062E882E20E94AD25C0907005D0907105F3
:10203000E0907205F0907305C701B6010E94133558
:102040007A83698380E090E00E9442359B01AC0175
:10205000C701B6010E94283420E030E04AE754E48A
:102060000E9451360E9413357C836B839E012F5F43
:102070003F4F44E063E882E20E94AD258FB7F894B9
:10208000909127059983909126059A838FBF9E0191
:102090002F5F3F4F42E064E882E20E94AD25C0908E
:1020A0006C05D0906D05E0906E05F0906F05C7014E
:1020B000B6010E941335698370E080E090E00E94D1
:1020C00044359B01AC01C701B6010E94283420E0D1
:1020D00030E04AE754E40E9451360E9413357B8376
:1020E0006A839E012F5F3F4F43E065E882E20E94D2
:1020F000AD2580915E05898380915C058A838091FE
:102100005A058B839E012F5F3F4F43E068E882E2D0
:102110000E94AD2560915605709157058091580534
:10212000909159050E94133580E090E00E9442355D
:1021300020E030E048EC52E40E9451360E94133512
:102140007A8369839E012F5F3F4F42E069E882E214
:102150000E94AD25809160058983809162058A8304
:102160009E012F5F3F4F42E06AE882E20E94AD2568
:1021700080913F058983C0904005D0904105E09053
:102180004205F0904305C701B6010E9413356A83EA
:10219000062E000C770B880B990B0E9444359B018F
:1021A000AC01C701B6010E94283420E030E44CE1C4
:1021B00056E40E9451360E9413357C836B839E0146
:1021C0002F5F3F4F47E06BE882E20E94AD25809190
:1021D0003A058983C0903B05D0903C05E0903D05D1
:1021E000F0903E05C701B6010E9413357B836A83D8
:1021F000072E000C880B990B0E9444359B01AC0103
:10220000C701B6010E94283420E030E44CE156E4D6
:102210000E9451360E9413357D836C839E012F5F8F
:102220003F4F47E06CE882E20E94AD2560913605A1
:102230007091370580913805909139050E940C35D1
:102240007A8369839E012F5F3F4F42E06DE882E20F
:102250000E94AD250F900F900F900F900F90DF917F
:10226000CF91FF90EF90DF90CF90BF90AF909F9075
:102270008F907F906F905F904F90089525E04EE192
:102280005DE061E081E00C94C7222F923F924F9273
:102290005F926F927F928F929F92AF92BF92CF92F6
:1022A000DF92EF92FF920F931F93CF93DF93CDB7FF
:1022B000DEB764970FB6F894DEBF0FBECDBFA8950A
:1022C0000E94A22A0E944A2981E00E94412188237B
:1022D00009F4A7C381E00E948022182F80E00E94A9
:1022E00080229091010196959F7009F0E2C210FF43
:1022F000E0C214FF04C081E00E94A52392C3107FB6
:1023000011F00C946D1E4FE760E874E081E00E94CC
:10231000F82181E00E94522146E050E063ED7CE02C
:1023200080E894E00E947C0B892B41F52CE130E0A1
:102330004BEE52E060E873E081E00E94E11F809183
:10234000B5059091B6059C0133273F932F931F92BB
:102350009F938091B8058F938091B7058F9389EBF8
:1023600095E09F938F9380E893E09F938F9380E015
:1023700094E09F938F930E94093A8EC247E050E009
:102380006BE37DE080E894E00E947C0B892B21F4D4
:10239000809100018E7F0DC046E050E065E37DE056
:1023A00080E894E00E947C0B892B31F4809100013D
:1023B00081608093000135C347E050E06EE27DE02C
:1023C00080E894E00E947C0B892B21F4809100012D
:1023D0008D7FEFCF46E050E068E27DE080E894E05A
:1023E0000E947C0B892B21F4809100018260E1CF57
:1023F00045E050E063E27DE080E894E00E947C0BE1
:10240000892B99F5809100018B7F80930001809149
:1024100000018F7E8093000180910001886080938D
:10242000000140E160E079E081E00E9491230E9498
:102430008A23882321F0A8950E94A22AF8CF1AEFB8
:10244000115051F0A8950E94A22A87E893E10197C4
:10245000F1F700C00000F4CF80910001877F8093E6
:102460000001809100018062A4CF45E050E06EE160
:102470007DE080E894E00E947C0B892BB9F522E492
:1024800030E04EE159E060E873E081E00E94E11F36
:1024900081E08F9383E48F931F928AEA8F9380E881
:1024A00093E09F938F931F928FE78F9380E094E048
:1024B0009F938F930E94D939282F40E054E060E029
:1024C00080E00E94C72222E441E95CE061E080E014
:1024D0000E94C72280910101817E82608093010168
:1024E000809100018F7E80930001DDC145E050E0C6
:1024F00069E17DE080E894E00E947C0B892BA9F4DF
:102500008091000182FB992790F981E089279091C1
:10251000000180FB92F9909300018091000182FFFD
:1025200080C280910001877F4CC047E050E062E1AB
:102530007DE080E894E00E947C0B892B29F41982CD
:10254000809101018F7110C046E050E06CE07DE0A9
:1025500080E894E00E947C0B892B99F481E08983C8
:10256000809101018F7180628093010144E150E00C
:1025700061E0CE0101960E949F206EE170E080E054
:1025800033C147E050E06DEF7CE080E894E00E94CA
:102590007C0B892B21F480910001877F0ACF46E0D4
:1025A00050E067EF7CE080E894E00E947C0B892B90
:1025B00071F4809100018860809300018091000196
:1025C0008B7F80930001809100018F7EF2CE47E0E7
:1025D00050E064E07DE080E894E00E94930B892B5A
:1025E000D1F583E195E09F938F938FE091E09F93E6
:1025F0008F9387E894E09F938F930E942C3A809169
:102600001305909114050E941D2340E650E062E0FE
:1026100083E195E00E949F206EE770E083E00E94D6
:102620006F0A2AE230E041EC52E060E873E081E0BA
:102630000E94E11F809114058F93809113058F9361
:1026400080E893E09F938F9380E094E09F938F9333
:102650000E94093A21C146E050E061EF7CE080E849
:1026600094E00E947C0B892B71F48091000186FB21
:10267000992790F981E089279091000180FB96F9D4
:1026800090930001CEC145E050E06CEE7CE080E824
:1026900094E00E947C0B892BD1F48091000184FB93
:1026A000992790F981E089279091000180FB94F9A6
:1026B000909300018091000184FFB3C180910001DB
:1026C000877F80930001809100018B7F72CE49E06B
:1026D00050E063EE7CE080E894E00E947C0B892B64
:1026E000E9F48FB7F8949091270590933305909172
:1026F0002605909332058FBF4AE550E061E083E301
:1027000095E00E949F204BE550E061E082E395E078
:102710000E949F206EE570E082E066C049E050E0D4
:1027200069ED7CE080E894E00E94930B892B09F02E
:102730005EC019821A821B821C82CE0101969F9371
:102740008F9382E191E09F938F9389E894E09F9328
:102750008F930E942C3AC980DA80EB80FC800F9026
:102760000F900F900F900F900F9020E030E0A90194
:10277000C701B6010E949534882309F452C18091A3
:102780007E0390917F03BC0180E090E00E9442357F
:102790004B015C0120E030E048EC51E4C701B60198
:1027A0000E9428342091A5053091A6054091A705E7
:1027B0005091A8050E949A349B01AC01C501B40157
:1027C0000E9428346093A9057093AA058093AB05F5
:1027D0009093AC0548E250E064E089EA95E00E94FD
:1027E0009F206EE370E081E00E946F0A1AC100E84A
:1027F00014E0809180048B3279F48CE895E09F930B
:102800008F9382E191E09F938F9381E894E09F936F
:102810008F930E942C3A21C08D3231F58CE895E0DF
:102820009F938F9382E191E09F938F9381E894E04F
:102830009F938F930E942C3A80918C0590918D05E7
:10284000A0918E05B0918F05B05880938C05909320
:102850008D05A0938E05B0938F050F900F900F906C
:102860000F900F900F90DDC021E330E040E659E07B
:1028700060E873E081E00E94E11F1F930F9380E8FE
:1028800093E09F938F931F928FE78F9380E094E064
:102890009F938F930E94D939282F40E054E060E045
:1028A00080E00E94C7220FB6F894DEBF0FBECDBFF6
:1028B000B8C09091010196959F7011F40C946D1E13
:1028C00080FF02C00C946D1E81E00E945221E091B5
:1028D0000101E695EF70F0E03197ED30F10508F079
:1028E0009BC0EC5CFF4F0C94D1332FE642E25CE0DE
:1028F00061E080E00E94C72280910101817E8460B6
:102900008EC027E64BEB5BE061E080E00E94C722CF
:1029100080910101817E866082C02EE24DE85BE0FD
:1029200061E080E00E94C72280910101817E886081
:1029300076C027E146E75BE061E080E00E94C722C5
:1029400080910101817E8A606AC02BE24BE45BE0EA
:1029500061E080E00E94C72280910101817E8C604D
:102960005EC02FE34CE05BE061E080E00E94C722A4
:1029700080910101817E8E6052C02CE240EE5AE0CF
:1029800061E080E00E94C72280910101817E806128
:1029900046C025E54BE85AE061E080E00E94C7228E
:1029A00080910101817E82613AC028E243E65AE0CB
:1029B00061E080E00E94C72280910101817E8461F4
:1029C0002EC02FE144E45AE061E080E00E94C7227B
:1029D00080910101817E866122C024E740ED59E0AB
:1029E00061E080E00E94C72280910101817E8861C0
:1029F00016C020E340EA59E061E080E00E94C7226F
:102A000080910101817E8A610AC02FE041E959E08D
:102A100061E080E00E94C72280910101817E809365
:102A200001019FB7F8948090840090908500C09039
:102A30002805D0902905E0902A05F0902B0580917B
:102A400086002091870040912C0550912D056091C2
:102A50002E0570912F059FBF90911B053091280185
:102A6000391769F1909328011092270140907C0555
:102A700050907D0560907E0570907F0540927605B0
:102A8000509277056092780570927905E0917A0509
:102A9000F0917B05F0937505E09374056627772721
:102AA00040937C0550937D0560937E0570937F0570
:102AB00090E0922B90937B0580937A052CC08091B7
:102AC000230190912401A0912501B0912601C816FF
:102AD000D906EA06FB0698F1209127012F5F253BD6
:102AE00008F024EB2093270120912701253050F096
:102AF0001092900510927005109271051092720557
:102B00001092730588519C4FAF4FBF4FC816D9061E
:102B1000EA06FB0630F0D701C6018E519B4FAF4F3E
:102B2000BF4F8093230190932401A0932501B0937C
:102B3000260180910301882309F444C01AC08091C2
:102B40000B05823091F40E94060C8091000183FFF6
:102B500008C020910E0542E052E060E080E00E9453
:102B6000C72210920E0510920B050E942D0B0C949B
:102B7000721E8F5F80930301853021F44EE060E187
:102B800079E005C08A3039F442E16EEE78E081E008
:102B90000E94912317C08B3021F442E16CED78E064
:102BA000F6CF8C3021F442E16AEC78E0F0CF863445
:102BB00049F442E16AEC78E081E00E9491238AE0E6
:102BC0008093030160917A0370917B034090B1057B
:102BD0005090B2056090B3057090B40580E090E02D
:102BE0000E944235A30192010E94513620E030E05C
:102BF00040E85AE30E94513660936C0570936D056E
:102C000080936E0590936F0560917C0370917D03B6
:102C100080E090E00E944235A30192010E9451366B
:102C200020E030E040E85AE30E94513660936805A6
:102C30007093690580936A0590936B0560917E039C
:102C400070917F0380E090E00E9442352091A905B9
:102C50003091AA054091AB055091AC050E942834F3
:102C60002091A5053091A6054091A7055091A80592
:102C70000E94513620E030E048EC51E40E942934B3
:102C8000609364057093650580936605909367056E
:102C90008091000182FF3DC221E130E04AEB58E023
:102CA00060E074E081E00E94E11F21E140E054E037
:102CB00060E080E00E94C72228E230E042E958E06C
:102CC00060E873E081E00E94E11F809145058F93E9
:102CD000809144058F93809149058F938091480599
:102CE0008F93809147058F93809146058F938091B4
:102CF0004D058F9380914C058F9380914B058F9359
:102D000080914A058F9370E8A72E73E0B72EBF928B
:102D1000AF9200E014E01F930F930E94093A282F0E
:102D2000A80160E080E00E94C72225E230E04DE685
:102D300058E0B50181E00E94E11F809161058F9309
:102D4000809160058F93809163058F9380916205D8
:102D50008F93BF92AF921F930F930E94093A282F2F
:102D6000A80160E080E00E94C72223E530E04AE14C
:102D700058E0B50181E00E94E11F80915D058F93CD
:102D800080915C058F9380915F058F9380915E05A4
:102D90008F9380915B058F9380915A058F93BF929B
:102DA000AF921F930F930E94093A0FB6F894DEBFBB
:102DB0000FBECDBF282FA80160E080E00E94C7228F
:102DC0002FE230E04BEE57E0B50181E00E94E11FB9
:102DD000809151058F93809150058F9380914F057D
:102DE0008F9380914E058F93809155058F9380919D
:102DF00054058F93809153058F93809152058F9343
:102E0000809159058F93809158058F938091570534
:102E10008F93809156058F93BF92AF921F930F931C
:102E20000E94093A282FA80160E080E00E94C72292
:102E30002BE330E040EB57E0B50181E00E94E11F59
:102E40001091360500913705B0903805A0903905EE
:102E5000E0913B05F0913C05A0913D05B0913E0508
:102E600020913A050FB6F894DEBF0FBECDBF2223E6
:102E700011F030E002C02DE230E040914005509169
:102E80004105609142057091430580913F0588237B
:102E900011F090E002C08DE290E0AF92BF920F93EC
:102EA0001F93BF93AF93FF93EF933F932F937F9322
:102EB0006F935F934F939F938F9360E8A62E63E089
:102EC000B62EBF92AF9200E014E01F930F930E94C2
:102ED000093A282FA80160E080E00E94C7220FB6BF
:102EE000F894DEBF0FBECDBF80912701811177C05E
:102EF0002DE130E043E957E0B50181E00E94E11F98
:102F000080917A0390917B0320916F052F932091FC
:102F10006E052F9320916D052F9320916C052F93B3
:102F20009F938F93BF92AF921F930F930E94093A82
:102F3000282FA80160E080E00E94C7222DE130E048
:102F400046E757E0B50181E00E94E11F80917C03D4
:102F500090917D0320916B052F9320916A052F930B
:102F6000209169052F93209168052F939F938F934C
:102F7000BF92AF921F930F930E94093A282FA80186
:102F800060E080E00E94C7222DE130E049E557E093
:102F9000B50181E00E94E11F80917E0390917F0343
:102FA000209167052F93209166052F932091650549
:102FB0002F93209164052F939F938F93BF92AF928D
:102FC0001F930F930E94093A282FA80160E080E028
:102FD0000E94C7220FB6F894DEBF0FBECDBF28E314
:102FE00030E041E257E060E873E081E00E94E11FD9
:102FF00090E099299F938F92FF92EF92DF92CF9268
:1030000050E8E52E53E0F52EFF92EF9200E014E039
:103010001F930F930E94093A282FA80160E080E0D7
:103020000E94C72224E730E04DEA56E0B70181E074
:103030000E94E11F809175058F93809174058F9395
:10304000809179058F93809178058F938091770592
:103050008F93809176058F9380917B058F938091DC
:103060007A058F9380917F058F9380917E058F9352
:1030700080917D058F9380917C058F93FF92EF92D5
:103080001F930F930E94093A282FA80160E080E067
:103090000E94C72224E230E049E856E0B70181E00F
:1030A0000E94E11F809126051F928F938091270532
:1030B0001F928F93FF92EF921F930F930E94093AF2
:1030C0000FB6F894DEBF0FBECDBF282FA80160E079
:1030D00080E00E94C72220E230E049E656E0B701D6
:1030E00081E00E94E11F809190051F928F93FF92D3
:1030F000EF921F930F930E94093A282FA80160E0D6
:1031000080E00E94C7220F900F900F900F900F90B9
:103110000F90809127018111BAC440917C05509194
:103120007D0560917E0570917F0580917605909177
:103130007705A0917805B09179059A01AB01281B1C
:10314000390B4A0B5B0BA0E2BEE40E94D7332091FF
:103150007A0530917B054901A12CB12C2091740591
:1031600030917505821A930AA108B108860E971E40
:10317000A81EB91E24013501BDE25B1AB1E36B0A3A
:10318000B1E07B0A80911F0190912001A091210163
:10319000B09122018E839F83A887B98720E030E019
:1031A00040EA50E4BC01CD010E949A346B017C01DD
:1031B0009CE9891A9CE2990A91E3A90A91E0B90A6B
:1031C000A9EC8A169104A104B104E0F020E030E0FB
:1031D00040E05FE3C701B6010E9451366A877E87EF
:1031E000888B998B20E030E040EA51E4C701B601BA
:1031F0000E949A346E837F8388879987412C512C53
:10320000320158C0D301C2014396A11DB11D879759
:10321000A105B10558F5C301B2010E944435A701CB
:1032200096010E9428349B01AC016E817F818885C4
:1032300099850E94293460931F0170932001809327
:1032400021019093220120E030E040E05FE3C701DC
:10325000B6010E9451366A877E87888B998B20E061
:1032600030E040EA51E4C701B6011EC010921F01D0
:10327000109220011092210110922201C301B2018B
:103280000E9444354B015C0120E030E040E05FE308
:103290000E9451366A877E87888B998B20E030E0C8
:1032A00040EA51E4C501B4010E949A346E837F83E1
:1032B000888799878091000182FF54C08091000126
:1032C00080FD50C02AE330E043E655E060E873E05B
:1032D00081E00E94E11F7F926F925F924F9240E8DF
:1032E000A42E43E0B42EBF92AF9200E014E01F93EF
:1032F0000F930E94093A282FA80160E080E00E9405
:10330000C72228E630E04BEF54E0B50181E00E948F
:10331000E11F809173058F93809172058F93809147
:1033200071058F93809170058F93B989BF93288918
:103330002F933E853F938A858F93FF92EF92DF9282
:10334000CF92BF92AF921F930F930E94093A282FFA
:10335000A80160E080E00E94C7220FB6F894DEBFAB
:103360000FBECDBF8091000180FFE9C18091900523
:10337000843060F42DEC3CEC4CEC5DE3C701B6010D
:103380000E9429346B017C0111E001C010E020E0B3
:1033900030E04AE754ECC701B6010E944C361816DB
:1033A0000CF0B4C120E030E04AE754E4C701B601B4
:1033B0000E94953487FFAAC1111104C020E030E0BB
:1033C000A90104C02AE037ED43EA5BE36E817F8107
:1033D000888599850E942834962E872E382E292E8E
:1033E000D301C2010396A11DB11D0797A105B10527
:1033F000F0F420E030E040EA51E4C701B601905813
:103400000E949A342091990530919A0540919B052C
:1034100050919C050E949A3420E030E040E251E453
:103420000E949A346F877A8B8B8B9C8B25C0662782
:103430007727CB0164197509860997090E944435DD
:1034400020E030E040EA51E40E949A34209199054E
:1034500030919A0540919B0550919C050E949A34A9
:103460002DEC3CEC4CE85FE30E949A346F877A8B3A
:103470008B8B9C8B109290052FE832EC45E75CEB30
:10348000D401F1016B2F782D8F2F922D0E944C3695
:1034900087FD1AC02FE832EC45E75CE3D401F10167
:1034A0006B2F782D8F2F922D0E949534181664F073
:1034B00080919005823041F480911E0181117AC083
:1034C00083E08093900576C02CEE31E548E35DEB18
:1034D000D401F1016B2F782D8F2F922D0E944C3645
:1034E00087FD18C02CEE31E548E35DE3D401F1011E
:1034F0006B2F782D8F2F922D0E949534181654F033
:1035000080919005813031F480911E01811152C06B
:1035100082E041C02CE53FE842EC5DEBD401F101D3
:103520006B2F782D8F2F922D0E944C3687FD12C065
:103530002CE53FE842EC5DE3D401F1016B2F782DDF
:103540008F2F922D0E949534181624F080919005AB
:10355000823080F520E030E048EC51ECD401F101FC
:103560006B2F782D8F2F922D0E944C3687FD1DC01A
:1035700020E030E048EC51E4D401F1016B2F782DCC
:103580008F2F922D0E94953418167CF08091900513
:10359000823020F081E08093900509C081110AC03B
:1035A00080911E018823B1F305C01092900584E13B
:1035B00080931E018FB7F894909127059D83909179
:1035C000260599838FBF809190058430C8F49E01B1
:1035D0002F5F3F4FAE014B5F5F4FBF85AA89FB89CD
:1035E000EC896B2F7A2F8F2F9E2F0E948F0A8FB717
:1035F000F8949D81909327059981909326058FBF1C
:103600008091000182FF82C02AE330E043E655E06A
:1036100060E873E081E00E94E11F7F926F925F9209
:103620004F9230E8A32E33E0B32EBF92AF9200E06A
:1036300014E01F930F930E94093A282FA80160E01D
:1036400080E00E94C72228E630E04BEF54E0B5014D
:1036500081E00E94E11F2F923F928F929F92B98941
:10366000BF9328892F933E853F938A858F93FF923E
:10367000EF92DF92CF92BF92AF921F930F930E946F
:10368000093A282FA80160E080E00E94C72221E4C7
:1036900030E04AEB54E0B50181E00E94E11F9C89D3
:1036A0009F93AB89AF93BA89BF932F852F936D8179
:1036B00070E080E090E00E9444356B017C016981FC
:1036C00070E080E090E00E94443520E030E040E887
:1036D0005BE30E9451369B01AC01C701B6010E9419
:1036E00029349F938F937F936F93BF92AF921F93D1
:1036F0000F930E94093A0FB6F894DEBF0FBECDBFFC
:10370000282FA80160E080E00E94C72280911E015E
:10371000815018F080931E0102C010921E0180910A
:103720009005843060F48E819F81A885B98580934F
:10373000700590937105A0937205B0937305809105
:10374000000181FFA4C160917C0370917D03809191
:103750009005833008F446C09CEE960F9E3D50F5D0
:103760008730B8F487E08093900510921A01109288
:103770001B0110921C0110921D018FB7F89410923A
:103780001D0510921E0510921F05109220058FBF77
:1037900005C0873019F087E08093900580EB860F95
:1037A000843700F5809190058F30E0F48FE08093AE
:1037B000900518C08730B0F081E08093900510929A
:1037C0001A0110921B0110921C0110921D018FB75B
:1037D000F89410921D0510921E0510921F0510926C
:1037E00020058FBF772769587109072E000C880BB9
:1037F000990B0E94443526E131E542E050E40E94F5
:1038000051366E837F8388879987809190058730B2
:1038100008F445C020E030E044E352E46E817F814B
:10382000888599859F770E9451362AE939E949E9C7
:103830005FE30E94BE366B017C0120E030E0A9010D
:103840006E817F81888599850E94953487FF04C0A9
:10385000F7FAF094F7F8F09420E030E0A901C701FE
:10386000B6010E9495348823E9F01FB7F894A701A8
:10387000960160911D0570911E0580911F05909124
:1038800020050E94293460931D0570931E058093C6
:103890001F05909320051FBF0E942D0B03C0C12C54
:1038A000D12C760180919005873008F499C08090E2
:1038B0001A0190901B01A0901C01B0901D0120E006
:1038C00030E040E450E4C501B4010E949A349B0109
:1038D000AC01C701B6010E9428349B01AC01C501AF
:1038E000B4010E94293460931A0170931B018093E4
:1038F0001C0190931D0125E93FEB46ED53E30E9427
:1039000051364B015C0140901601509017016090B8
:1039100018017090190120E030E040EE50E4C3013E
:10392000B2010E949A346A877B878C879D8720E04A
:1039300030E0A901C501B4010E944C362A853B85BF
:103940004C855D8587FD03C0C501B40103C0C50179
:10395000B40190580E9428349B01AC01C301B2010C
:103960000E94293460931601709317018093180107
:10397000909319016091990570919A0580919B052A
:1039800090919C059B01AC010E9429342A853B85BE
:103990004C855D850E94513660937005709371056A
:1039A00080937205909373051FB7F8948091270553
:1039B0008D838091260589831FBF9E012F5F3F4F16
:1039C000AE014B5F5F4FC501B4010E948F0AF894AE
:1039D0008D81809327058981809326051FBF03C0B1
:1039E000812C912C54018091000182FF50C020E66F
:1039F00030E04AE554E060E873E081E00E94E11FB6
:103A0000FF92EF92DF92CF92BF92AF929F928F92EE
:103A100099859F93A885AF93BF81BF932E812F93E4
:103A200020E8E22E23E0F22EFF92EF9200E014E075
:103A30001F930F930E94093A282FA80160E080E0AD
:103A40000E94C72220E330E04AE254E0B70181E05F
:103A50000E94E11F809120058F9380911F058F9315
:103A600080911E058F9380911D058F93FF92EF9299
:103A70001F930F930E94093A282FA80160E080E06D
:103A80000E94C7220FB6F894DEBF0FBECDBF809153
:103A9000000186FF8EC0EDECF5E080E090E0219122
:103AA0002A3571F083539A4F20910401309105011A
:103AB0008217930750F4909305018093040105C089
:103AC00001968032A2E09A0751F725E430E044E401
:103AD00053E060E873E081E00E94E11F80910701FC
:103AE0008F93809106018F93809105018F93809130
:103AF00004018F9390E8E92E93E0F92EFF92EF9264
:103B000000E014E01F930F930E94093A282FA801A8
:103B100060E080E00E94C7222DE330E047E053E000
:103B2000B70181E00E94E11F7091300173FB77279C
:103B300070F9609130016295617050913001569535
:103B400051704091300142FB442740F930912F01E0
:103B500036FB332730F920912F0126952170909163
:103B60002F01917080912F0186958695869587709B
:103B70001F927F931F926F931F925F931F924F9399
:103B80001F923F931F922F931F929F931F928F9389
:103B9000FF92EF921F930F930E94093A282FA801DA
:103BA00060E080E00E94C7220FB6F894DEBF0FBE2F
:103BB000CDBF0E94810D0E94990F20E030E0A90145
:103BC00060918C0570918D0580918E0590918F0587
:103BD0000E949534882309F485C0FFB6F8941091AB
:103BE000270500912605FFBE19830D8360918C0582
:103BF00070918D0580918E0590918F059E012B5FB0
:103C00003F4FAE014F5F5F4F0E948F0AF89489814A
:103C1000809327058D8180932605FFBE26E630E040
:103C200043E056E060E873E081E00E94E11F1F92EC
:103C30000F931F921F9380918F058F9380918E0514
:103C40008F9380918D058F9380918C058F9380E861
:103C5000E82E83E0F82EFF92EF9200E014E01F932D
:103C60000F930E94093A282FA80160E080E00E948B
:103C7000C72226E630E04DE955E0B70181E00E9419
:103C8000E11F8D811F928F9389811F928F93809165
:103C90008F058F9380918E058F9380918D058F93E3
:103CA00080918C058F93FF92EF921F930F930E9448
:103CB000093A282FA80160E080E00E94C7221092F4
:103CC0008C0510928D0510928E0510928F050FB6FF
:103CD000F894DEBF0FBECDBF05C081E00E94522127
:103CE0000C94111564960FB6F894DEBF0FBECDBFCD
:103CF000DF91CF911F910F91FF90EF90DF90CF90C8
:103D0000BF90AF909F908F907F906F905F904F90FB
:103D10003F902F900895F894F89481E085BF80E05B
:103D200085BF0FB6F894A895809160008861809354
:103D30006000109260000FBE8FEE8093640080B729
:103D4000806880BF80917F00836080937F0085B70B
:103D50008F7E85BF0E94F809EDEEF7E08AE5829339
:103D600095E0ED3CF907D9F70E9459090E94B30884
:103D70000E943D230E945429789481E08093090594
:103D80000E94C6240E9481270E9411280E941128A7
:103D90000E9445290E94312160E080E893E00E9462
:103DA0008020882339F180E1E0E8F3E0A9EBB5E079
:103DB00001900D928A95E1F71092C90580919203C6
:103DC000909193039093B8058093B70580919003E9
:103DD000909191039093B6058093B50580919403DB
:103DE000982F9295990F907E809101018F71892B68
:103DF0008093010161E080E893E00E9480208823A5
:103E000009F440C08091800390918103A0918203C6
:103E1000B09183038093B1059093B205A093B3054D
:103E2000B093B4058091840390918503A09186039B
:103E3000B09187038093AD059093AE05A093AF0535
:103E4000B093B0058091880390918903A0918A0373
:103E5000B0918B038093A9059093AA05A093AB051D
:103E6000B093AC0580918C0390918D03A0918E034B
:103E7000B0918F038093A5059093A605A093A70505
:103E8000B093A80562E080E893E00E948020882338
:103E900009F450C08091800390918103A091820326
:103EA000B09183038093A1059093A205A093A305ED
:103EB000B093A4058091840390918503A09186031B
:103EC000B091870380939D0590939E05A0939F05D5
:103ED000B093A0058091880390918903A0918A03F3
:103EE000B0918B038093990590939A05A0939B05BD
:103EF000B0939C058091920390919303A0919403B9
:103F0000B09195038093950590939605A09397059E
:103F1000B09398058091960390919703A091980390
:103F2000B09199038093910590939205A093930586
:103F3000B09394058091000187FF0E943E1180910B
:103F4000000185FD03C00E944511F9CF0FB6F8941A
:103F5000A895809160008861809360001092600055
:103F60000FBE0E949C280E94B6270E94DD2410925A
:103F70000905F8940E9468290E940E230E94DC081B
:103F80000E9471090E942A0A14B817B81AB815B805
:103F900018B81BB885B78F7E85BF83B7817F8460D3
:103FA00083BF9FB7F89483B7816083BF85B780666E
:103FB00085BF8F7D85BF889583B78E7F83BF9FBF69
:103FC000ECCF1F93CF93DF93162F972FBA0188233F
:103FD00029F0C12FD92FA0E0B0E007C0A901812F9F
:103FE000DF91CF911F910C944139A217B30739F09B
:103FF000FB01EA0FFB1FE491E9931196F6CF812FA5
:10400000DF91CF911F91089520E1829FC00111247B
:104010008C60906B0895CF93DF93FC01DC015E967A
:1040200025EA35EA60E1E901CC0FDD1F922F91709E
:10403000832F881F8827881F9827A901452F552778
:104040004295469547704170942733FB332730F9EA
:10405000932727FB882780F9982722FB222720F91E
:104060002927CE01822B9C016150E9F681912827F6
:10407000EA17FB07B9F6C901DF91CF910895EF92D6
:10408000FF920F931F93CF93DF931F92CDB7DEB7AD
:104090007C018A01081B190B662361F0C8018E0D93
:1040A0009F1D69830E94BF3AF70181937F01698157
:1040B0006150F2CF0F90DF91CF911F910F91FF9040
:1040C000EF9008958830C8F490E2899FA0011124F0
:1040D00060E280E893E00E943F2080E893E00E9445
:1040E0000B2020919F0330E0322F222740919E0326
:1040F000242B41E02817390709F040E0842F089568
:104100000F931F93CF93683010F080E014C0C62F38
:104110008C01862F0E9462208823B9F383E0003847
:10412000180741F080E2C89FA001112460E2C80195
:104130000E943F2081E0CF911F910F910895EF924F
:10414000FF921F93CF93DF937C01C42FD52F162F9F
:10415000140F1C1741F0F70161917F01CE010E94FD
:10416000C73A2196F6CFDF91CF911F91FF90EF9044
:1041700008951F93CF93DF93683030F5162FEC012D
:104180000E940B202F8D30E0322F22274E8D242BC2
:1041900028173907D9F08E8F9F8F8D8D90E0982F3B
:1041A00088272C8D822B01968C8F9D8FCE010E94AB
:1041B0000B208E8F9F8F80E2189FA001112460E258
:1041C000CE010E949F2002C080E001C081E0DF910B
:1041D000CF911F9108951F93CF93DF93883010F0F4
:1041E00080E03BC0182F0E9462208111F9CF212F5F
:1041F00030E040919F0350E0542F442780919E036C
:10420000482BC90174E0880F991F7A95E1F78C60FB
:10421000906B48175907D9F0C0919D03D0E0DC2F6F
:10422000CC2780919C03C82B95E0220F331F9A95D1
:10423000E1F72E5B324F40E050E06CE180E893E024
:104240000E94943C2196C0939C03D0939D03612FC0
:1042500080E893E00E94B92081E0DF91CF911F9127
:104260000895CF93DF93C0E0D0E08C2F0E94EB2025
:104270008111DF5FCF5FC830C1F78D2FDF91CF9104
:104280000895811103C0E5E1F5E002C0E6E1F5E043
:104290008FB7F894908121E020838FBF81E0911146
:1042A00080E00895811103C0E5E1F5E002C0E6E198
:1042B000F5E08FB7F89410828FBF08958F929F9288
:1042C000AF92BF92CF92DF92EF92FF920F931F9324
:1042D000CF93DF93982F3FB7F894882329F07091FC
:1042E0001A058091190504C0709118058091170571
:1042F0003FBFA72FB0E0C82FD0E0FD013196EC17EB
:10430000FD0709F466C07F3719F4882309F461C0FA
:10431000911105C0EAE7EE2EE2E0FE2E04C03AEF6E
:10432000E32E32E0F32E30E0781728F4FE01EA1B8A
:10433000FB0B31970CC0E0E8F0E0EA1BFB0B01E05F
:1043400010E0882311F000E010E0E01BF10B2E17C5
:104350003F070CF4F901DE2E8F011127201B310BD2
:10436000781720F0882311F0219702C0C0E0D0E038
:104370002C173D070CF4E9015A01962E892ECC2EFC
:10438000DD2039F0B7016A0F7B1F9801892D0E944B
:10439000E11FCC2051F09E013327A501400F511F92
:1043A000B701892D0E94E11FDC0C9FB7882041F0E6
:1043B000F89480911A058D0D8F7780931A0507C0A8
:1043C000F894809118058D0D8F77809318059FBF05
:1043D00001C0D12C8D2DDF91CF911F910F91FF90B6
:1043E000EF90DF90CF90BF90AF909F908F90089507
:1043F0009F92AF92BF92CF92DF92EF92FF920F9374
:104400001F93CF93DF932FB7F894882329F0C0919F
:104410001A059091190504C0C091180590911705CF
:104420002FBFC91709F45AC0423008F457C0811190
:1044300003C00AE712E002C00AEF12E050E0415068
:104440005109E92FF0E09C1718F42C2F30E002C03E
:1044500020E830E02E1B3F0B421753070CF49A0163
:10446000B22E7901FF244E195F099C1710F0D0E09D
:1044700002C0C0E0D0E04C175D070CF4EA016B010C
:10448000A82E9C2EBB2039F0B8016E0F7F1FA7010C
:10449000C6010E944139992049F0AE015527B80163
:1044A000C6018E0D9F1D0E944139B90CF601EB0D1E
:1044B000F11D10829FB7AA2041F0F8948091190550
:1044C0008B0D8F778093190507C0F894809117059D
:1044D0008B0D8F77809317059FBF05C0411102C0D8
:1044E000FB011082B12C8B2DDF91CF911F910F9189
:1044F000FF90EF90DF90CF90BF90AF909F90089586
:104500003FB7F894882329F090911A052091190556
:1045100004C090911805209117053FBF291779F025
:10452000811103C08AE792E002C08AEF92E0FC01A9
:10453000E20FF11D8081843221F481E1089580E051
:10454000089581E00895CF93C82F8C2F0E944121B8
:104550008823B9F02FB7CC2331F0F89480911A0555
:104560009091190505C0F894809118059091170550
:104570002FBF981751F08C2F0E945221A8950E94AE
:10458000A22AA8950E94A22AE0CFCF9108950F9366
:104590001F93CF93DF9300D000D0CDB7DEB7082FA5
:1045A0002C834A835B8369830E94A3222C814A81E6
:1045B0005B816981802F0E945E21182F802F0E94CD
:1045C0005221812F0F900F900F900F90DF91CF917C
:1045D0001F910F9108959FB7F894E0ECF0E080816F
:1045E0008F7B8083E0910C0581E08E0F80930C051A
:1045F000F0E0E654FE4F80818093C6009FBFE1EC5F
:10460000F0E080818062808308959FB7F894E1ECA8
:10461000F0E08081806880839FBF08959FB7F89401
:10462000E1ECF0E08081877080839FBF5898E4E6DA
:10463000F0E080818260808308959C01BC017695C2
:104640006795CB01A0E0B0E0BC01CD0160537D4E89
:104650008C4E9F4F40E050E00E949033DA01C90138
:104660000197A109B109892F9A2FAB2FBB278093FE
:10467000C50021502093C4000895809164008D7F6F
:104680008093640085B78F7E85BF589A63E080E889
:1046900093E00E9480208823C1F080918003909154
:1046A0008103909314058093130580918203909168
:1046B0008303909312058093110580918403909158
:1046C00085039093100580930F05809113059091B9
:1046D00014050E941D2388E18093C10020911105DB
:1046E0003091120583E0820F8370880F932F9073AF
:1046F000892B222733709FEF930F9170990F990F99
:10470000990F892B8093C2008091C60010920C05EE
:104710000C94052381E090910D05911101C080E07A
:104720000895CF93442379F0C42FAB012C2F30E0B0
:104730006AEB71E00E94E11F10920C05C0930D0519
:10474000CF910C94EB22CF910895CF932FB7F8948B
:104750009091C0002FBF20910D05211138C095FF09
:1047600036C0C82F4DE36AEB71E00E94F8218093B8
:104770000D058C2F0E9452218091000183FF109221
:104780000D0510920C0580910D05882319F1EFEFAE
:10479000E80FE0930D05F0E0E654FE4F9081911193
:1047A00080930D05E0910D05AE2FB0E0A654BE4FED
:1047B0008DE08C9382E08E0F80930D05EF5FF0E02B
:1047C000E654FE4F8AE08083CF910C94EB22CF9188
:1047D0000C945221CF9108951F920F920FB60F9211
:1047E00011242F933F934F935F938F939F93AF9396
:1047F000BF93CF93DF93EF93FF939091C60078948C
:1048000080910B0520910A05811148C030910E0559
:10481000353708F043C031E030930B052223C1F057
:104820002FB7F89430910A0540910E05AAEFB1E038
:10483000E82FE40F831739F05D91F0E0EE5FFD4F54
:1048400050838F5FF5CFE0930E0510920A052FBFBE
:10485000E0910E05A1E0AE0FA0930E05CE2FD0E0A3
:10486000CE5FDD4F9883A53780F0B0E0AE5FBD4FDF
:104870008DE08C9383E08E0F80930E05EE5FF0E069
:10488000EE5FFD4F8AE0808302C09A3021F482E01F
:1048900080930B0512C010920B050FC0283068F4EE
:1048A0008FB7F894E0910A0521E02E0F20930A05B6
:1048B000F0E0E650FE4F90838FBFFF91EF91DF91C4
:1048C000CF91BF91AF919F918F915F914F913F9108
:1048D0002F910F900FBE0F901F9018951F920F925F
:1048E0000FB60F9211248F939F93EF93FF938091B4
:1048F000C1008F7D8093C100789490910C058091C8
:104900000D05981798F4F894E0910C0581E08E0F4E
:1049100080930C05F0E0E654FE4F80818093C60042
:104920008091C10080628093C100789490910C05C1
:1049300080910D05981748F0F8948091C1008F7D03
:104940008093C100789410920D05FF91EF919F9193
:104950008F910F900FBE0F901F90189578941F9213
:104960000F920FB60F9211240F900FBE0F901F9051
:1049700018959091090580912F0181FF06C0A89597
:104980009923C9F30E94A22AF4CF0895E4E6F0E047
:1049900080818F7780839FB7F89487B18F7C87B9A8
:1049A00088B1806388B91092B90081E18093B80022
:1049B00084E88093BC009FBF08951092BC0088B12A
:1049C0008F6C88B9E4E6F0E0808180688083089588
:1049D00090912F0190FD02C08823D9F1909102059A
:1049E0009923B9F1F89490912F01926090932F013F
:1049F00090912F019E7F90932F0190912F019F7B8B
:104A000090932F01909130019B7F90933001909172
:104A100030019D7F90933001909130019F7E909363
:104A2000300190913001977F9093300110920005F2
:104A3000882329F080912F01877C806104C08091B8
:104A40002F01877C886080932F0185EA8093BC00CA
:104A500078940895CF93DF9300D01F92CDB7DEB73F
:104A60004B836A8389830E94B9249FB7F894898114
:104A70008093030510920205E091020581E08E0FFC
:104A800080930205F0E0E55DFE4F6A816083E0916E
:104A9000020581E08E0F80930205F0E0E55DFE4F98
:104AA0004B814083EFE2F1E08081816080839FBF92
:104AB00080E00E94E82480913001829581700F90FF
:104AC0000F900F90DF91CF910895CF93DF9300D097
:104AD00000D0CDB7DEB72C834B836A8389830E94D5
:104AE000B9249FB7F8948981809303051092020539
:104AF000E091020581E08E0F80930205F0E0E55D14
:104B0000FE4F6A816083E091020581E08E0F809301
:104B10000205F0E0E55DFE4F4B814083E091020528
:104B200081E08E0F80930205F0E0E55DFE4F2C8161
:104B30002083EFE2F1E08081816080839FBF80E08D
:104B40000E94E82480913001829581700F900F902F
:104B50000F900F90DF91CF9108950F931F93CF93F4
:104B6000DF9300D01F92CDB7DEB789014B836A83F4
:104B700089830E94B9249FB7F894898180930305A3
:104B800010920205E091020581E08E0F80930205EC
:104B9000F0E0E55DFE4F6A816083D8014B8150E013
:104BA0009D01201B310B2417350764F4E0910205A9
:104BB00081E08E0F80930205F0E08D91E55DFE4F60
:104BC0008083EECF80912F01816080932F019FBF62
:104BD00080E00E94E82480913001829581700F90DE
:104BE0000F900F90DF91CF911F910F910895CF9368
:104BF000DF9300D0CDB7DEB76A8389830E94B924E2
:104C00009FB7F89489818093030510920205E09183
:104C1000020581E08E0F80930205F0E0E55DFE4F16
:104C20006A816083EFE2F1E080818460808384E0C8
:104C3000809301058081816080839FBF80E00E9416
:104C4000E8240E94B92480912B010F900F90DF91EE
:104C5000CF9108952FB7F8941092020590912F01EB
:104C6000977C90932F0190912F019D7F90932F011E
:104C7000882311F084E901C084E88093BC002FBF31
:104C800008951F920F920FB60F9211242F933F9306
:104C90004F935F936F937F938F939F93AF93BF9344
:104CA000EF93FF938091B900887FE0912F01E69503
:104CB000E695E695E770F0E0E730F10508F008C109
:104CC000EF5BFF4F0C94D133883099F4809103054A
:104CD000880F06C0803169F480910305880F8160D8
:104CE0008093BB0080912F01877C886180932F0186
:104CF000A4C080912F01806480932F01E9C0883186
:104D0000C9F5809130018460809330018091300139
:104D100082608093300180910305803231F480916C
:104D2000000180688093000109C0809103058232F0
:104D300029F4809101018160809301018091020535
:104D4000823078F480912F0182FD02C087E001C09B
:104D500086E0880F880F880F90912F01977C892B10
:104D600004C080912F01877C806280932F01809105
:104D70002B0161C0803479F480913001846080938C
:104D800030018091300182608093300180912F0149
:104D9000877C8862ABCF809130018B7F809330011C
:104DA00080913001826080933001809103058032D0
:104DB00031F4809100018F778093000189C0809148
:104DC0000305823209F084C0809101018E7F8093B7
:104DD00001017EC0883299F5809100058F5F809334
:104DE0000005809130018061809330018091300115
:104DF000886080933001809100052091020590E049
:104E0000019630E08217930784F080912F0182FD94
:104E100002C087E001C086E0880F880F880F90915C
:104E20002F01977C892B80932F01E0910005F0E002
:104E3000E55DFE4F80818093BB0085E84EC0809188
:104E400030018F7E809330018091300188608093A3
:104E500030013EC0E091000591E09E0F9093000567
:104E6000F0E09091BB00E55DFE4F908390913001A2
:104E7000906190933001909130019860909330014F
:104E8000883531F19091000580910205981700F561
:104E900085EC23C090912F019B7F90932F019AEA7C
:104EA00090932B0190932C0190932D0190932E01C0
:104EB000883241F4809101058093020581E00E94CF
:104EC000E8240EC01092020581E00E942A2608C044
:104ED00081E00E942A2603C084E88093BC00789475
:104EE000FF91EF91BF91AF919F918F917F916F91C2
:104EF0005F914F913F912F910F900FBE0F901F9098
:104F0000189544E26AE080E20E942A252FEF4FEFD5
:104F10006CE080E20E94652520E04FEF60E080E2D7
:104F20000E94652520E040E062E080E20E94652565
:104F300020E040E062E180E20E94652520E040E060
:104F400064E180E20E94652520E040E064E080E2C8
:104F50000E94652520E040E066E080E20E94652531
:104F60002FEF4FEF68E080E20C94652520E040E0F1
:104F700064E080E20E9465252FEF4FEF6CE080E255
:104F80000E9465252FEF4FEF60E080E20C946525CD
:104F9000882311F040E001C04FEF60E080E20C9404
:104FA0002A25482F65E180E20C942A25462F90E8B7
:104FB000699F90011124282B64E180E20C946525FF
:104FC00062E180E20C94F7251F93CF93DF938091E9
:104FD0000101829586958770813011F0C0E001C093
:104FE000C8E080E00E94C827DC2FD260C3608D2F0C
:104FF0000E94D1278C2F0E94D1270E94E027182FD2
:105000008D2F0E94D12717FF08C082E48A95F1F7FF
:1050100000C0A8950E94A22AEACFDF91CF911F91EC
:1050200008950E94E4278091000187FF84C081E0F9
:105030000E94C8276CE380E00E94D6276CE381E0E1
:105040000E94D6276CE380E00E94D62780E00E9471
:10505000C8278BE18A95F1F7000081E00E94C827FC
:105060006CE380E00E94D6276CE381E00E94D627A3
:105070006CE380E00E94D62780E00E94C82783EF7F
:1050800091E00197F1F700C0000081E00E94C8277D
:105090006CE380E00E94D6276CE381E00E94D62773
:1050A0006CE380E00E94D6270E94E42781E00E9402
:1050B000C8276CE380E00E94D6276CE381E00E9461
:1050C000D6276CE380E00E94D6270E94E42781E087
:1050D0000E94C8276CE080E00E94D6276CE081E047
:1050E0000E94D6276CE080E00E94D6270E94E42729
:1050F00081E00E94C82761E080E00E94D62761E03D
:1051000081E00E94D62761E080E00E94D6270E94BD
:10511000E42781E00E94C82766E080E00E94D6274D
:1051200066E081E00E94D62766E088E00E94D627EC
:1051300080E00C94C82708958091000187FF26C065
:1051400081E00E94C82761E080E00E94D62761E0EC
:1051500081E00E94D62761E080E00E94D62780E0AF
:105160000E94C8270E94E42781E00E94C82768E0C7
:1051700080E00E94D62768E081E00E94D62768E0A0
:1051800080E00E94D62780E00C94C8270895CF9332
:10519000DF9390910101929596959770913011F05F
:1051A000D0E001C0D8E0C62FCF70C068282F217092
:1051B00030E086E0220F331F8A95E1F7C22B0E9470
:1051C000E42781E00E94C8276C2F8D2F0E94D627EC
:1051D0006C2F8D2F81600E94D6276C2F8D2F0E94FF
:1051E000D62780E0DF91CF910C94C827AF92BF9271
:1051F000CF92DF92EF92FF920F931F93CF93DF93A3
:105200006C0190910101929596959770913011F0F3
:10521000C0E001C0C8E07601062F10E08C2F84604A
:10522000B82EEC2FE560AE2E97012C193D09201702
:105230003107E4F4F701D1917F010E94E42781E076
:105240000E94C8276D2F8B2D0E94D6276D2F8A2D87
:105250000E94D6276D2F8B2D0E94D6276D2F8C2F65
:105260000E94D62780E00E94C827DECFDF91CF9131
:105270001F910F91FF90EF90DF90CF90BF90AF9074
:10528000089561E082E20C94F7250E944129809103
:10529000010108958091800584FF05C065E088E0E4
:1052A00091E00C947C2A08950E94F02BE8982198B4
:1052B00029988AEF815041F0E7E8F3E13197F1F75F
:1052C00000C00000A895F6CF219A299AE89A08957F
:1052D000E898219829980895FC018081982F90766C
:1052E000903459F58F7149F5818181110EC0828109
:1052F00080933201838180933301848180933401D0
:1053000085818093350184E019C0823049F48FB7DC
:10531000F8942681378130930805209307050AC049
:10532000813059F48FB7F894268137813093060580
:10533000209305058FBF8FEF01C080E022E331E0AD
:105340003093FC072093FB070895CF92DF92EF92F2
:10535000FF921F93CF93DF937C01462F8091000132
:1053600084FF3DC08091070590910805892BB9F114
:105370002091CA053091CB05C90168EE73E00E9407
:105380007C33CB01EAE0F0E0BF010E947C33805D1A
:10539000D7018C93C90164E670E00E947C33CB0195
:1053A000BF010E947C33805DD70111968C93C901A7
:1053B000BF010E947C33C82FCB01BF010E947C3308
:1053C000805DF70182832F5F3F4F3093CB052093A1
:1053D000CA05C05DC3838AE3848315E001C010E081
:1053E000C12ED12C809107059091080550E08417BB
:1053F000950708F4AC01EA01CC19DD091C161D065D
:1054000004F580E00E9441218823D9F34C2F4F5F9F
:10541000B7016C0D7D1D80E00E94F821C82F80E04F
:105420000E945221CC0ED11C209107053091080515
:105430002C193D0930930805209307058C2F810F07
:1054400001C0812FDF91CF911F91FF90EF90DF90EE
:10545000CF9008951F93CF93DF93D62F209105050A
:1054600030910605462F50E042175307C0F4241B25
:10547000350B30930605209305051FB7F894C091AE
:1054800004052C2F30E0BC01C901865C9E4F0E94B0
:105490004139CD0FC09304051FBF80E029C0232BE5
:1054A000A9F01FB7F894C091050550910605D09159
:1054B00004052D2F30E04C2FBC01C901865C9E4FA6
:1054C0000E944139CD0FC09304051FBF20910405F0
:1054D0004AE351E060E081E00E94C7228FB7F89470
:1054E0001092060510920505109204058FBF81E009
:1054F000DF91CF911F910895CF93209180052E3198
:10550000F9F02091800524FF07C03091810528E83B
:1055100023272093810503C02AE520938005DC0121
:10552000E2E8F5E0862F8E0F9D9191938E13FCCFCC
:10553000C62F82E895E00E949707CC5FC093800554
:10554000CF910895CF93DF936091FD07635067FD7E
:10555000E2C08091FA07CCE0D0E0C81BD109CF5F50
:10556000D74F8091F9078D3209F0C3C0683009F038
:10557000D0C083EC8093ED078AE580930E011092F2
:10558000CC052881822F807641F0CE010E946C29C3
:10559000982F8F3F09F49CC0A2C09A813C81109241
:1055A000F6078981811113C02F71223051F43138EF
:1055B00041F49091800581E09E3109F080E0809374
:1055C000F6071092F70726EF37E092E07CC0282F0D
:1055D0002D7F213081F4911173C0313809F070C0F2
:1055E000813011F08EE101C08AE5809380058BE463
:1055F0008093810565C0853019F49093FE0760C0E3
:10560000863009F044C08B81813041F48BEF9DE0FE
:105610009093FC078093FB0792E135C0823041F400
:1056200082EE9DE09093FC078093FB0799E12BC0ED
:10563000833041F5911108C085E59EE09093FC0709
:105640008093FB0794E01FC0913041F487E49EE013
:105650009093FC078093FB079EE015C0923041F4C5
:105660008DE19EE09093FC078093FB079AE20BC0CC
:10567000933041F48DE09EE09093FC078093FB070C
:1056800090E101C090E080E48093CC0528C0883090
:1056900081F0893019F49093000807C08A3061F0D6
:1056A0008B3071F48BE4809381058AE580938005CB
:1056B00007C020E038E002C026EF37E091E003C0E9
:1056C00026EF37E090E03093FC072093FB0707C0FC
:1056D000888187FD9E8180E88093CC0507C08F81FB
:1056E000811104C08E81891708F4982F90930D01C1
:1056F00010C08091CC0587FF0CC0CE010E942A2AE1
:105700008F3F21F48EE180930E0103C0811110922E
:105710000D011092FD0780910E0184FF51C0809110
:105720000D018F3F09F44CC0C82F893008F0C8E044
:105730008C1B80930D019091ED0788E88927809359
:10574000ED07CC2359F13091CC0537FF09C06C2F00
:105750008EEE97E00E94A529C82F893058F51EC00B
:105760008091FB079091FC072C2F280FAEEEB7E03D
:10577000FC0136FF06C034913D9331962E13FBCFCA
:1057800004C031913D932E13FCCF01962FEF2C0FC7
:10579000820F911D9093FC078093FB076C2F8EEE78
:1057A00097E00E949707CC5FCC3041F08FEF809359
:1057B0000D0104C08FEF80930D01CEE1C0930E0167
:1057C00084E196B19C7049F48150D9F71092FE079C
:1057D0001092F8078AE580938005DF91CF910895B4
:1057E000E9E6F0E0808183608083E89AE0E8F5E014
:1057F0008BE481838AE580830895A3E1B0E0E3E050
:10580000FCE20C94E2336C014B012A01FC0117828B
:105810001682838181FF43C3AE014F5F5F4F3A0120
:10582000F6019381F40193FD859193FF81914F01DE
:10583000882309F430C3853239F493FD859193FFB1
:1058400081914F01853239F4B60190E00E94A1396F
:1058500052012501E5CF10E0F12C20E02032A0F428
:105860008B3269F030F4803259F0833269F4206170
:105870002CC08D3239F0803339F4216026C022608B
:10588000246023C0286021C027FD27C030ED380FD9
:105890003A3078F426FF06C0FAE01F9F300D11243D
:1058A000132F13C04AE0F49E300D1124F32E206212
:1058B0000CC08E3221F426FDEEC2206406C08C3668
:1058C00011F4206802C0883641F4F40193FD8591FB
:1058D00093FF81914F018111C1CF9BEB980F9330C2
:1058E00018F42061805E06C09BE9980F933008F0A1
:1058F00071C12F7E26FF16E02F73322E853619F4E4
:105900002064322E08C0863621F4F22FF0683F2E34
:1059100002C01111115037FE07C01C3350F4EE24A1
:10592000E394E10E27E00BC0183038F027E017E0D1
:1059300005C027E04CE3E42E02C0212FE12C5201E8
:1059400044E0A40EB11CF2016081718182819381D7
:105950000E2DA3010E9435382C01098100FF02C0E1
:1059600003FF07C031FC08C032FE09C030E2232E1D
:1059700007C02DE2222E04C09BE2292E01C0212C5B
:10598000802F8C7019F0211068C2A8C237FE0FC09A
:10599000E40C04FF04C08A81813309F4EA941E14E4
:1059A00074F5F8E0FE1578F588E0E82E2CC036FC9A
:1059B0002AC0812F90E0841595059CF02CEF4216AB
:1059C0002FEF520674F0432D4068342E0AC0E2E0F7
:1059D000F0E0EC0FFD1FE10FF11D8081803319F421
:1059E00011501111F4CF37FE0EC0EE24E394E10EF6
:1059F000812F90E0481659062CF4141904C0EE24A7
:105A0000E39401C010E037FE06C01414150434F40A
:105A1000C201019605C085E090E002C081E090E0FF
:105A200021100196112331F0212F30E02F5F3F4FDD
:105A3000820F931F2F2D30E08217930714F4F81A6A
:105A400001C0F12C832D897049F4FF2039F0B60193
:105A500080E290E00E94A139FA94F7CF222029F049
:105A6000B601822D90E00E94A13933FC09C0FF20CD
:105A700039F0B60180E390E00E94A139FA94F7CFA3
:105A800037FE5AC0942D852D57FE02C090E080E06D
:105A9000292E382E20E030E0A2014E1951095D87F1
:105AA0004C87A201421953095F874E87612F70E02E
:105AB00044275527461B570B598B488B5FEF2516FC
:105AC000350649F4B6018EE290E02A8B3B8B0E94AA
:105AD000A1393B892A89421453046CF04C855D85B9
