:10000000BFC6000004C70000D8C60000D6C6000066
:10001000D4C60000D2C600000C945C0BCEC6000013
:10002000CCC60000CAC600000C940A090C94CB0888
:10003000C4C60000C2C60000C0C60000BEC60000A4
:100040000C947A09BAC600000C9468240C94EA2433
:100050000C942A250C944E08B0C60000AEC60000D1
:100060000C944D26AAC600005A0E660EE50E720EBE
:100070007E0E8A0E960EA20EAE0EBA0EC60ED20ED0
:10008000DE0E07634236B79BD8A71A39685618AEFA
:10009000BAAB558C1D3CB7CC5763BD6DEDFD753EBD
:1000A000F6177231BF000000803F08000000BE92CA
:1000B0002449123EABAAAA2ABECDCCCC4C3E0000AD
:1000C0000080BEABAAAAAA3E00000000BF0000004C
:1000D000803F0000000000084178D3BB4387D11364
:1000E0003D190E3CC3BD4282AD2B3E68EC8276BE0C
:1000F000D98FE1A93E4C80EFFFBE01C4FF7F3F00D6
:100100000000000024474C4753562C252A642C310C
:100110002C25642C002447504753562C252A642C48
:10012000312C25642C00244750524D432C256C64FF
:100130002E25642C252A632C25662C25632C256608
:100140002C25632C252A662C252A662C256C642CEC
:100150002C2C252A632A25640025662C25662C254F
:10016000662A2564002447504753412C252A632CD6
:1001700025642C002447504747412C256C642E25CC
:10018000642C25662C25632C25662C25632C256480
:100190002C25642C25662C25662C252A632C252AE3
:1001A000662C252A632C252A642C252A642A25649A
:1001B00000436F6D6D756E69636174696F6E206267
:1001C00061756420726174652073657420746F209A
:1001D00025357520626175642E0A00444634494114
:1001E000482C25732C253035752C5632302530336C
:1001F00075253033752E0023534330323A20733D3A
:100200003078253032782C64533D25752C69503D6B
:1002100025750A0023534330313A20537461636BD0
:100220002D436865636B3A206D756E672D77616C41
:100230006C20616464726573733A203078253034C1
:10024000782C206C6F776573742D737461636B3ACF
:10025000203078253034780A002563253037642E25
:10026000253033642025632535642E2530336456CC
:100270002000256325317520256325317520253320
:10028000642E2531642025632530327525632530A1
:1002900032752000253032752E253032752E2055CE
:1002A000253032753A253032753A253032752000C6
:1002B00062202D2D2D2E2D2D2D202563253158200A
:1002C0002563253032752000256320253038642EC3
:1002D00025303364202563253158202563253032AD
:1002E00075200031304D487A5265664F7363205651
:1002F000327831002B3D3D3D204446344941482071
:100300003D3D3D2B0023494131323A205048415375
:1003100045206661737450776D53696E676C6544F0
:100320006966665F7374657073203D2025632530B0
:1003300033642E253033640A0023494131313A2099
:1003400050484153452070686173654572722020A2
:100350003D20253033642E25303364C2B02C200973
:10036000207068617365537465707346726571754A
:10037000656E6379203D202563253033642E25305A
:1003800033642C2009706861736553746570735011
:1003900068617365203D202563253033642E253048
:1003A00033640A0023494130333A20515247202018
:1003B000206E657750776D56616C203D2025303377
:1003C000642E253033642C200970776D436F72538F
:1003D000746570732020202020202020203D2025BF
:1003E0002B3033642E253033640A002349413032E8
:1003F0003A20436C6F636B206C6F63616C4D656179
:100400006E466C6F6174436C6F636B446966662003
:100410003D202563253033642E25303364487A200F
:100420004032304D487A2C20097172674465765FFE
:10043000487A203D202563253033642E25303364EF
:10044000487A204031304D487A2C200970706D2058
:100450003D202563253032642E253036640A002382
:10046000494130313A20436C6F636B20696E7432BE
:10047000304D487A436C6F636B4469666620202078
:10048000202020203D202020252B30346C69487A04
:10049000204032304D487A0A0023494430323A2015
:1004A0002B2F2D204B455920096D61696E50776DBA
:1004B0005465726D696E616C41646A203D202564EB
:1004C0002E253037642C20096C6F63616C46617394
:1004D0007450776D56616C4E657874203D202530E0
:1004E0003375202B206C6F63616C46617374507799
:1004F0006D537562436D704E657874203D202530D4
:1005000033750A0023494430313A202B2F2D204BDC
:10051000455920096D61696E50776D5465726D693A
:100520006E616C41646A203D2025642E253037645D
:100530002C200970756C6C50776D56616C42656645
:100540006F7265202020203D2025303375202B2020
:100550006661737450776D537562436D7042656662
:100560006F7265202020203D20253033750A00233E
:10057000544131343A206D61696E526566436C6B4B
:100580005374617465203D2030782531580A00236A
:10059000544131333A2050574D203D20253033759A
:1005A0002C20095375622D50574D203D20253033A6
:1005B000750A0023544131323A20707073537461CC
:1005C0006D70437472316D7320203D202530396C7D
:1005D000752C20097070735374616D7049435231EA
:1005E0002020203D20253035752C20097070735354
:1005F00074616D70437472316D735F6C61737420DC
:10060000203D202530396C752C200970707353748F
:10061000616D70494352315F6C6173742020203DDD
:1006200020253035750A0023544131313A206C6F52
:1006300063616C46617374437472316D73203D2045
:100640002530396C752C20096C6F63616C466173C1
:100650007454434E5431203D20253035750A002313
:10066000544130333A2054656D70203D202530349C
:1006700075202825642E25316443290A002354411E
:1006800030323A2041444331203D2025303475201A
:100690002825642E2530336456290A00235441301E
:1006A000313A2041444330203D2025303475202804
:1006B00025642E2530336456290A002347503035EF
:1006C0003A204C6174203D20256320253034642E6F
:1006D000253034642C204C6F6E203D20256320256E
:1006E0003035642E253034642C2048656967687481
:1006F000203D2025642E25303264206D0A002347DA
:100700005030343A2050444F50203D2025642E254F
:100710003032642C2048444F50203D2025642E2543
:100720003032642C2056444F50203D2025642E2525
:100730003032642C0A0023475030333A205361741E
:100740007355736564203D20253032642C2053613D
:100750007473457068696D5F47707347616C696C4D
:10076000656F517A7373203D20253032642C2053FD
:10077000617473457068696D5F476C6F6E61737308
:10078000203D20253032640A0023475030323A2081
:100790004D6F646532203D202531642C20506F73ED
:1007A000466978496E64203D202531640A0023475C
:1007B0005030313A2044617465203D202530386C3A
:1007C000642C2054696D65203D202530366C642EE4
:1007D000253033640A000A23475030303A203D3D2B
:1007E0003D3D3D3D3D0024504D544B3335332C3180
:1007F0002C312A33370D0A0024504D544B333533F6
:100800002C312C302A33360D0A0024504D544B33F2
:1008100035332C302C302A33370D0A0024504D54F8
:100820004B3130322A33310D0A000A3D3D3D204420
:100830004634494148202D203130204D487A2052FD
:1008400065666572656E6365204F7363696C6C6184
:10085000746F72203D3D3D0A3D3D3D205665723A24
:100860002032302530336425303364000A2A3F2A91
:100870002020756E6B6E6F776E20636F6D6D616E8D
:100880006420272573272072656365697665642C6B
:10089000207472792048454C502E0A3E000A3D3D96
:1008A0003D3D3D3D3D3D3D3D3D0A3E000A2B2F2D4A
:1008B000203C50574D2076616C75653E0909636F89
:1008C0007272656374696F6E2076616C75652074F1
:1008D0006F2062652061646465642E000A57524986
:1008E000544550574D09090973746F72652063753B
:1008F0007272656E742050574D2061732064656676
:1009000061756C742076616C75652E0A5752495476
:100910004554454D50203C54454D502076616C75F2
:10092000653E090977726974652063757272656E38
:10093000742074656D706572617475726520617381
:100940002064656661756C742076616C75652E0037
:100950000A5445535409090909746F67676C657334
:1009600020636F756E74657220746573742E000A4F
:10097000535441434B09090909746F67676C6573E8
:1009800020737461636B206D756E672D77616C6C7D
:1009900020746573742E000A5345524F4646090968
:1009A00009097377697463682073657269616C20E3
:1009B000636F6D6D756E69636174696F6E204F460C
:1009C000462E0A5345524F4E090909097377697437
:1009D00063682073657269616C20636F6D6D756EFD
:1009E00069636174696F6E204F4E2E000A53455241
:1009F00042415544203C626175643E0909097365B2
:100A00007474696E672073657269616C20626175C8
:100A10006420726174652E000A4C45444F464609B5
:100A2000090909737769746368206261636B6C6993
:100A3000676874204F46462E0A4C45444F4E0909BC
:100A40000909737769746368206261636B6C696715
:100A50006874204F4E2E000A494E464F0909090975
:100A6000746F67676C6573206164646974696F6E25
:100A7000616C207072696E74656420696E666F7354
:100A80002E000A48454C5009090909746869732009
:100A90006D6573736167652E000A4150434F46468A
:100AA0000909090973776974636820415043202854
:100AB0006175746F6D61746963207068617365201E
:100AC000636F6E74726F6C29206F66662E0A4150D8
:100AD000434F4E09090909737769746368204150CF
:100AE0004320286175746F6D61746963207068615B
:100AF000736520636F6E74726F6C29206F6E2E00A9
:100B00000A4146434F4646090909097377697463E8
:100B1000682041464320286175746F6D6174696374
:100B2000206672657175656E637920636F6E74728D
:100B30006F6C29206F66662E0A4146434F4E0909A5
:100B400009097377697463682041464320286175F9
:100B5000746F6D61746963206672657175656E632B
:100B60007920636F6E74726F6C29206F6E2E000A8D
:100B70003D3D3D2048454C50203D3D3D0A0A242046
:100B80003C4E4D45412D4D6573736167653E0909C6
:100B900073656E6473206D65737361676520746F30
:100BA0002074686520475053206D6F64756C652E06
:100BB000002A49444E3F00575249544554454D5030
:100BC00000575249544550574D0054455354005313
:100BD0005441434B005345524F4E005345524F46EC
:100BE000460053455242415544004C45444F4E0047
:100BF0004C45444F464600494E464F0048454C50F0
:100C0000004150434F4E004150434F46460041463D
:100C1000434F4E004146434F464600444634494107
:100C2000482031304D687A2D5265669AAB0000013C
:100C3000FFFFFFFFFFFFFF00000CB0A52C8F404817
:100C4000E18A3F0080AF4300A0873FFFFFFFFFFF27
:100C5000FFFFFFFFFFFFFF00001CB0CDCC94C05C86
:100C60008FC23FB81E053DFFFFFFFFFFFF713D8AAA
:100C70003F33331340780000002CB080250801007A
:100C8000000000FFFFFFFFFFFFFFFFFFFFFFFFFF71
:100C9000FFFFFFFFFFFFFF00003CB000000000FF70
:100CA000FFFFFFFFFFFFFFFFFFFFFFFFFFFFFFFF54
:100CB000FFFFFFFFFFFFFF00004CB009021900011A
:100CC000010080690904000001FF000000070581A0
:100CD0000308000A12011001FF000008C016DC051D
:100CE0000001010203011003500072006F00740044
:100CF0006F002D0031002A034400460034004900F3
:100D0000410048002D00310030004D0048007A00BD
:100D10002D005200650066002D004F007300630037
:100D20000E0344004600340049004100480004031B
:100D300009046364696E6F70737578585B656667E4
:100D400045464700616E006E66696E69747900CD34
:100D5000CCCC3D0AD7233C17B7D13877CC2B329572
:100D600095E6241FB14F0A000020410000C8420050
:100D7000401C4620BCBE4CCA1B0E5AAEC59D74001A
:100D800011241FBECFEFD8E0DEBFCDBF11E0A0E041
:100D9000B1E0E0EFFEE602C005900D92A831B10788
:100DA000D9F728E0A8E1B1E001C01D92A832B2074E
:100DB000E1F70E94821F0C94763722C9A82FB92F21
:100DC0008FEF9FEF1BC02D918227282F2295282778
:100DD000722F269526952727239526952170782F03
:100DE000892F82272195207C922F2227769527957F
:100DF000972782277695279597278227615018F79E
:100E0000809590950895DADF8D939D930895CF9303
:100E1000CFB7CF93DF93C395339BE9F7339B11C0D3
:100E2000339B0FC0339B0DC0339B0BC0339B09C05A
:100E3000339B07C0339B05C0339B03C0339B01C06A
:100E400083C06F93C0910B08DD27CE5ED74F2F93E1
:100E500020E400C065E0339B03C02F916F91DECF8B
:100E60000F931F934F9345E55F9355E53F933BE009
:100E700014E006B10C702EC06A95C9F03150D8F15B
:100E800006B10C7001130BC008942795299320E438
:100E9000555500F46A9569F701E066B10BC0102F53
:100EA00066E02695299320E4555518F3E2CF0FEF1D
:100EB00066B10000162F455500F0404066E01C70FA
:100EC0000030E2F221F0000006B10C7003C006B160
:100ED0000C70A9F0011309C00894279568F200C0AE
:100EE0006A95A9F700E066B1E5CF102F66E0269578
:100EF00028F20000ECCF11E01CBB002719C03B50CA
:100F00003195C31BD04011E01CBB0881033C09F1A3
:100F10000B34F9F0209109081981110F1213EDCF4C
:100F20004A81441F093651F10D3211F0013E29F773
:100F3000009310083F915F914F911F910F912F9156
:100F40006F91CCB3C0FD67CFDF91CF91CFBFCF9171
:100F5000189520911008222369F310910E0811238F
:100F600081F5343082F130930E0820930A081091F5
:100F70000B083BE0311B30930B0825C000910E0895
:100F80000130FCF40AE54F7049F43091100134FD52
:100F90001BC000931001CEEFD7E01AC0309191052D
:100FA00034FD12C000939105C2E9D5E011C00527B8
:100FB00010E000C008B919C0052710E0221F00C0CA
:100FC0001DC04AE502C032ED432FC4E1D0E032E05B
:100FD00017B11C60439A08B117B95CE020E869E4D6
:100FE00020FF052708B92795179500C000001C3F72
:100FF000F0F66695A8F7A1F720FF052708B9279511
:10100000179500001C3FC0F629913A9541F7037FE0
:1010100010910F08110F08B9C651D04011F010936C
:10102000090811E01CBB086017B1137F402F437FF4
:1010300055E05A95F1F708B917B948B97BCFE4E6FE
:10104000F0E080818E7F808310922C05EFE7F0E046
:1010500080818360808383E080937E00EBE7F0E013
:1010600080818F7B8083EAE7F0E0808187688083DE
:1010700080B787E180BF81E180932D0581E4809373
:101080007C00808180658083808188608083089572
:10109000EAE7F0E080818064808308951F920F92D8
:1010A0000FB60F9211242F933F934F935F936F933B
:1010B0007F938F939F93AF93BF93EF93FF93809111
:1010C000780020917900789490E0922B20912D0562
:1010D000283021F168F42223A1F0213019F59093F2
:1010E0008E0380938D0380E180932D0580E41EC0E4
:1010F000213101F1283171F02031A1F410922D0538
:1011000017C090938C0380938B0388E180932D0507
:1011100088EC0CC088E080932D050AC09093900362
:1011200080938F0381E180932D0581E480937C007F
:10113000AFDF08C081E080932D0580912C058F5F83
:1011400080932C05FF91EF91BF91AF919F918F916B
:101150007F916F915F914F913F912F910F900FBEB3
:101160000F901F901895E4E6F0E08081877F8083E0
:1011700010928500109284008EE4809389008FE1A4
:10118000809388001092800089E48093810082E23D
:1011900080936F0008951F920F920FB60F92112443
:1011A0002F933F938F939F93AF93BF938091390574
:1011B00090913A05A0913B05B0913C050196A11D87
:1011C000B11D8093390590933A05A0933B05B093E8
:1011D0003C0578948091000186FF11C0F8948DB78A
:1011E0002EB7789490E0922B209106013091070160
:1011F0008217930720F49093070180930601BF9113
:10120000AF919F918F913F912F910F900FBE0F90B3
:101210001F9018951F920F920FB60F9211242F93C3
:101220004F935F936F937F938F939F93EF93FF936E
:1012300080918600209187004091390550913A05B0
:1012400060913B0570913C057894EAE7F0E090816D
:1012500090649083F89490E0922B90934205809351
:10126000410540933D0550933E0560933F057093C3
:1012700040057894FF91EF919F918F917F916F91AD
:101280005F914F912F910F900FBE0F901F90189567
:10129000809164008F7D8093640016BC8AE588BDD0
:1012A00083E284BD81E085BD559A82E00E941E21C3
:1012B0008823C9F04AE550E061E084E495E00E94AB
:1012C000FB204BE550E061E083E495E00E94FB20C9
:1012D0008FB7F89490914405909338059091430509
:1012E000909337058FBFA89A80916E00816080939C
:1012F0006E0008951F920F920FB60F9211248F93D4
:101300009F93789480913605882361F0F8948091BA
:10131000350588BD8091340580933305789410920B
:10132000360509C0F8948091380588BD809137054D
:10133000809333057894F894909132058091330529
:10134000981718F488B58F5F88BD7894809132051E
:101350008F5F809332059F918F910F900FBE0F90FA
:101360001F901895CF92DF92EF92FF92C090570591
:10137000D0905805E0905905F0905A052FEFC21A09
:10138000D20AE20AF20AC701B60124E630E040E0E0
:1013900050E00E94BE2F6C337105810591054CF021
:1013A000C61AD70AE80AF90A84E6C80ED11CE11C5D
:1013B000F11CC0925705D0925805E0925905F09261
:1013C0005A05C0905705D0905805E0905905F09007
:1013D0005A05C701B60120E137E240E050E00E9423
:1013E000BE2F683427E172078105910594F0C61A73
:1013F000D70AE80AF90A80E1C80E87E2D81EE11C84
:10140000F11CC0925705D0925805E0925905F09210
:101410005A05FF90EF90DF90CF900895EF92FF92E2
:101420001F93CF93DF9300D0CDB7DEB7182F7B018A
:101430000E94BB209A838983A70162E0CE010196B6
:101440000E945721812F0E94A0210F900F90DF91C1
:10145000CF911F91FF90EF9008954F925F926F92FE
:101460007F928F929F92AF92BF92CF92DF92EF9234
:10147000FF920F931F93CF93DF934B015C016A019F
:101480007901FA01608170E080E090E00E943431DF
:101490002B013C01F701608170E080E090E00E9448
:1014A000343120E030E040E85BE30E943B329B01B6
:1014B000AC01C301B2010E943130A50194010E9428
:1014C00031308B01D82FC92F20E030E0A9010E94D4
:1014D000953087FD1CC020E03FEF4EE753E4B80194
:1014E0008D2F9C2F0E9437321816B4F420E03FEF66
:1014F0004EE753E4B8018D2F9C2F0E9430308B01B2
:10150000D82FC92FB0E0AFEFFEE7E3E40CC0B0E0A6
:10151000A0E0F0E0E0E007C0B02FA12FFE0100E066
:1015200010E0D0E0C0E020E030E040E05BE36B2F73
:101530007A2F8F2F9E2F0E9431304B015C010E9429
:101540000631F6016083C501B4010E946F319B0131
:10155000AC01C501B4010E94303020E030E040E829
:1015600053E40E943B320E940631F7016083B801C8
:101570008D2F9C2FDF91CF911F910F91FF90EF90B6
:10158000DF90CF90BF90AF909F908F907F906F90A3
:101590005F904F900895CF92DF92EF92FF92CF939A
:1015A0006B017C01C42F0E946F319B01AC01C7010C
:1015B000B6010E9430306B017C016C2F70E080E03E
:1015C00090E00E9432319B01AC0160E070E080E26B
:1015D00091E40E949E329B01AC01C701B6010E94BA
:1015E0003B320E946F310E940131CB01CF91FF90BD
:1015F000EF90DF90CF9008950F931F93CF93DF93D9
:1016000000D0CDB7DEB7042F1FB7F894209138056E
:101610002A832091370529831FBF9E012F5F3F4FEB
:10162000AE014E5F5F4F19DFF8943A8129810111B5
:1016300005C0309338052093370507C03093350532
:101640002093340521E0209336051FBF0F900F90A3
:10165000DF91CF911F910F910895CF92DF92EF927A
:10166000FF92CF938FB7F894C09136058FBFC0908B
:101670002E05D0902F05E0903005F090310520E048
:1016800030E0A901C701B6010E949530882371F0AE
:10169000C1110CC041E0C701B601AEDF60932E0559
:1016A00070932F058093300590933105CF91FF9073
:1016B000EF90DF90CF90089518950F931F93CF93DD
:1016C000DF938C01EA019A01AB0161E973E081E0EB
:1016D0000E949820AE0161E973E0C801DF91CF91CB
:1016E0001F910F910C9426340F931F93CF93DF9388
:1016F0008C01EA019A01AB0161E973E081E00E948B
:101700009820AE0161E973E0C801DF91CF911F918C
:101710000F910C9410348F929F92AF92BF92CF9200
:10172000DF92EF92FF920F931F93CF93DF9300D03E
:1017300000D0CDB7DEB781E00E94F221882309F402
:101740004DC381E00E942F23182F80E00E942F2399
:101750009091010196959F7009F093C210FF91C27C
:1017600014FF04C081E00E94252438C3107F09F0D3
:1017700032C34FE761E974E081E00E94A72281E073
:101780000E94032246E050E061EB7BE081E994E0B7
:1017900094DF892B41F52CE130E04BED51E061E91C
:1017A00073E081E00E9498208091C6059091C70562
:1017B0009C0133273F932F931F929F938091C905DC
:1017C0008F938091C8058F938AEC95E09F938F93B8
:1017D00081E993E09F938F9381E194E09F938F93AE
:1017E0000E949F3429C147E050E064E17CE081E938
:1017F00094E063DF892B21F4809100018E7F0CC07F
:1018000046E050E06EE07CE081E994E056DF892B11
:1018100031F480910001816080930001DFC247E0D4
:1018200050E067E07CE081E994E047DF892B21F418
:10183000809100018D7FF0CF46E050E061E07CE0D8
:1018400081E994E03ADF892B21F4809100018260E4
:10185000E3CF45E050E06CEF7BE081E994E02DDFE1
:10186000892BE1F522E430E04AE258E061E973E0D7
:1018700081E00E94982081E08F938AE98F931F92E4
:101880008AEA8F9381E993E09F938F931F928FE76A
:101890008F9381E194E09F938F930E947234282F5D
:1018A00041E154E060E080E00E94522322E44FE6F0
:1018B0005BE061E080E00E94522380910101817E23
:1018C000826080930101809100018F7E80930001EE
:1018D0000FB6F894DEBF0FBECDBF80C245E050E02A
:1018E00067EF7BE081E994E0E8DE892BA9F4809141
:1018F000000182FB992790F981E0892790910001EE
:1019000080FB92F9909300018091000182FF66C2F2
:1019100080910001877F48C047E050E060EF7BE0A6
:1019200081E994E0CADE892B29F4198280910101B2
:101930008F710FC046E050E06AEE7BE081E994E0F1
:10194000BCDE892B99F481E08983809101018F713C
:1019500080628093010144E150E061E0CE01019694
:101960000E9457216EE170E080E033C147E050E013
:101970006BED7BE081E994E0A0DE892B21F480917E
:101980000001877F49CF46E050E065ED7BE081E9CB
:1019900094E093DE892B71F480910001886080933C
:1019A0000001809100018B7F8093000180910001F4
:1019B0008F7E32CF47E050E062EE7BE081E994E039
:1019C00093DE892B09F040C084E295E09F938F93CA
:1019D00081E191E09F938F9388E994E09F938F93A7
:1019E0000E94BF3480912405909125050E94A9236F
:1019F00040E650E062E084E295E00E9457216EE705
:101A000070E083E00BDD2AE230E041EB51E061E978
:101A100073E081E00E949820809125058F9380914A
:101A200024058F9381E993E09F938F9381E194E064
:101A30009F938F930E949F34282F41E154E060E0F0
:101A400080E00E94522344CF46E050E06FEC7BE000
:101A500081E994E032DE892B71F48091000186FBEC
:101A6000992790F981E089279091000180FB96F9F0
:101A700090930001B3C145E050E06AEC7BE081E95E
:101A800094E01BDE892BD1F48091000184FB99271F
:101A900090F981E089279091000180FB94F990935F
:101AA00000018091000184FF99C180910001877F2E
:101AB00080930001809100018B7FAECE49E050E021
:101AC00061EC7BE081E994E0F8DD892BE9F48FB7E4
:101AD000F894909138059093440590913705909330
:101AE00043058FBF4AE550E061E084E495E00E9441
:101AF00057214BE550E061E083E495E00E945721D7
:101B00006EE570E082E065C049E050E067EB7BE0A5
:101B100081E994E0E9DD892B09F05DC019821A8220
:101B20001B821C82CE0101969F938F9384E191E0EA
:101B30009F938F938AE994E09F938F930E94BF3481
:101B4000C980DA80EB80FC800F900F900F900F908F
:101B50000F900F9020E030E0A901C701B6010E946C
:101B60009530882309F43AC180918F0390919003B6
:101B7000BC0180E090E00E9432314B015C0120E02A
:101B800030E048EC51E4C701B6010E9430302091AA
:101B9000B6053091B7054091B8055091B9050E943E
:101BA00099309B01AC01C501B4010E9430306093B3
:101BB000BA057093BB058093BC059093BD0548E2C0
:101BC00050E064E08AEB95E00E9457216EE370E0FC
:101BD00081E024DC03C101E914E0809191048B329F
:101BE00079F48DE995E09F938F9384E191E09F9341
:101BF0008F9382E994E09F938F930E94BF3421C01A
:101C00008D3231F58DE995E09F938F9384E191E0DA
:101C10009F938F9382E994E09F938F930E94BF34A8
:101C200080919D0590919E05A0919F05B091A00582
:101C3000B05880939D0590939E05A0939F05B09307
:101C4000A0050F900F900F900F900F900F90C6C0AF
:101C500021E330E04CE658E061E973E081E00E9466
:101C600098201F930F9381E993E09F938F931F9286
:101C70008FE78F9381E194E09F938F930E9472345A
:101C8000DBCE9091010196959F7009F4A4C080FD70
:101C9000A2C081E00E940322E0910101E695EF706D
:101CA000F0E03197ED30F10508F08FC0EC5CFF4FAC
:101CB0000C94DA2F2FE640E05BE061E080E00E94C8
:101CC000522380910101817E846082C027E649E928
:101CD0005AE061E080E00E94522380910101817E00
:101CE000886076C027E142E85AE061E080E00E9427
:101CF000522380910101817E8A606AC02BE247E510
:101D00005AE061E080E00E94522380910101817ECF
:101D10008C605EC02FE348E15AE061E080E00E9401
:101D2000522380910101817E8E6052C02CE24CEEE4
:101D300059E061E080E00E94522380910101817EA0
:101D4000806146C025E547E959E061E080E00E94F6
:101D5000522380910101817E82613AC028E24FE6E0
:101D600059E061E080E00E94522380910101817E70
:101D700084612EC02FE140E559E061E080E00E94DF
:101D8000522380910101817E866122C024E74CEDBF
:101D900058E061E080E00E94522380910101817E41
:101DA000886116C020E34CEA58E061E080E00E94C0
:101DB000522380910101817E8A610AC02FE04DE9A2
:101DC00058E061E080E00E94522380910101817E11
:101DD0008093010103C081E00E9403220F900F90C5
:101DE0000F900F90DF91CF911F910F91FF90EF9087
:101DF000DF90CF90BF90AF909F908F9008952F92DB
:101E00003F924F925F926F927F928F929F92AF928A
:101E1000BF92CF92DF92EF92FF920F931F93CF93D7
:101E2000DF93CDB7DEB769970FB6F894DEBF0FBE6C
:101E3000CDBFA8950E94452A0E94FD286CDC9FB763
:101E4000F894209184002B87309185003F83C090C7
:101E50003905D0903A05E0903B05F0903C05809123
:101E600086002091870040913D0550913E0560918C
:101E70003F05709140059FBF90912C053091300136
:101E8000391769F19093300110922F0180908D05E0
:101E900090908E05A0908F05B09090058092870558
:101EA00090928805A0928905B0928A05E0918B05F1
:101EB000F0918C05F0938605E093850566277727DA
:101EC00040938D0550938E0560938F057093900518
:101ED00090E0922B90938C0580938B052CC0809181
:101EE0002B0190912C01A0912D01B0912E01C816CB
:101EF000D906EA06FB0698F120912F012F5F253BBA
:101F000008F024EB20932F0120912F01253050F071
:101F10001092A105109281051092820510928305FE
:101F20001092840588519C4FAF4FBF4FC816D906F9
:101F3000EA06FB0630F0D701C6018E519B4FAF4F2A
:101F4000BF4F80932B0190932C01A0932D01B09350
:101F50002E0180910301882309F4A3C179C18091E6
:101F60001C05823009F071C12DE330E044E751E0F7
:101F700061E973E081E00E94982085E495E09F93F9
:101F80008F9387E495E09F938F9383E695E09F93EB
:101F90008F938BE695E09F938F9381E795E09F93D6
:101FA0008F938BE495E09F938F938CE495E09F93C0
:101FB0008F9380E595E09F938F9381E595E09F93C4
:101FC0008F9385E595E09F938F9387E595E09F93A9
:101FD0008F9381E9E82E83E0F82EFF92EF9203E1E0
:101FE00012E01F930F930E94BF342FE030E045E6CC
:101FF00051E0B70181E00E94982083E795E09F932C
:102000008F93FF92EF921F930F930E94BF340FB6EE
:10201000F894DEBF0FBECDBF181619060CF057C0DE
:10202000A1D980917305909174050297029720F0D1
:10203000109274051092730500911F0510E0015075
:10204000110931F0F801ED5EFD4F80818A32B9F758
:10205000C80120E030E0181619068CF4FC01ED5E92
:10206000FD4F40814C3249F42F5F3F4F2330310503
:1020700021F48C010F5F1F4F02C00197ECCF2CE0C1
:1020800030E049E551E061E973E081E00E94982089
:1020900085E495E09F938F938FE595E09F938F93D1
:1020A00083E695E09F938F9387E695E09F938F93C8
:1020B00081E993E09F938F930D5E1D4F1F930F93C4
:1020C0000E94BF340FB6F894DEBF0FBECDBF23E32E
:1020D00030E046E251E061E973E081E00E9498203F
:1020E00085E495E09F938F938BE595E09F938F9385
:1020F0008BE495E09F938F938CE495E09F938F936F
:1021000080E595E09F938F9381E595E09F938F9372
:1021100085E595E09F938F9387E595E09F938F9357
:1021200081E993E09F938F9383E192E09F938F9354
:102130000E94BF340FB6F894DEBF0FBECDBF181695
:1021400019060CF043C00ED9C0905B05D0905C0519
:10215000E0905D05F0905E05D701C6018054904186
:10216000A109B109833C9F4AA440B10538F5C701D4
:10217000B60124E630E040E050E00E94BE2F4B0163
:102180005C01A7019601261B370B480B590BA4E6EF
:10219000B0E00E94E02FDC01CB018053984FAF4F9D
:1021A000BF4F880E991EAA1EBB1E80925B0590929F
:1021B0005C05A0925D05B0925E0508C010925B05BB
:1021C00010925C0510925D0510925E0521E130E0F1
:1021D00045E151E061E973E081E00E9498208FE6DB
:1021E00095E09F938F9301E9E02E03E0F02EFF929C
:1021F000EF9203E112E01F930F930E94BF3421E19D
:1022000030E044E051E0B70181E00E9498208DE683
:1022100095E09F938F93FF92EF921F930F930E94ED
:10222000BF34809100010FB6F894DEBF0FBECDBF62
:1022300083FF07C020911F05A80160E080E00E9495
:10224000522310921F0510921C0507DA0C94691F87
:102250008F5F80930301853021F44EE06CE178E0DC
:1022600005C08A3039F442E16AE078E081E00E94FA
:10227000132417C08B3021F442E168EF77E0F6CFEA
:102280008C3021F442E166EE77E0F0CF863449F4F9
:1022900042E166EE77E081E00E9413248AE08093B9
:1022A000030160918B0370918C038090C205909024
:1022B000C305A090C405B090C50580E090E00E94E1
:1022C0003231A50194010E943B3220E030E040E829
:1022D0005AE30E943B322FED3FE44DE05EE30E9463
:1022E000313060937D0570937E0580937F059093D8
:1022F000800560918D0370918E0380E090E00E94D4
:102300003231A50194010E943B3220E030E040E8E8
:102310005AE30E943B326093790570937A0580936B
:102320007B0590937C0560918F037091900380E012
:1023300090E00E9432312091BA053091BB05409166
:10234000BC055091BD050E9430302091B6053091FA
:10235000B7054091B8055091B9050E943B3220E085
:1023600030E048EC51E40E94313060937505709381
:10237000760580937705909378058091000182FF20
:10238000B6C221E130E046ED57E061E174E081E062
:102390000E94982021E141E154E060E080E00E9449
:1023A000522328E230E04EEA57E061E973E081E031
:1023B0000E949820809156058F93809155058F93A8
:1023C00080915A058F93809159058F93809158057C
:1023D0008F93809157058F9380915E058F938091A5
:1023E0005D058F9380915C058F9380915B058F9342
:1023F00011E9212E13E0312E3F922F9201E114E0DA
:102400001F930F930E949F34282FA80160E080E063
:102410000E94522325E230E049E857E0B10181E013
:102420000E949820809172058F93809171058F93FF
:10243000809174058F93809173058F933F922F92B3
:102440001F930F930E949F34282FA80160E080E023
:102450000E94522323E530E046E357E0B10181E0DA
:102460000E94982080916E058F9380916D058F93C7
:10247000809170058F9380916F058F9380916C058B
:102480008F9380916B058F933F922F921F930F93A1
:102490000E949F340FB6F894DEBF0FBECDBF282F29
:1024A000A80160E080E00E94522328E330E04EEF74
:1024B00056E0B10181E00E94982020915F053091A3
:1024C000600540916105509162052B833C834D83EB
:1024D0005E8342E06B817C818D819E815CD88F8799
:1024E000998B4090630550906405609065057090ED
:1024F000660542E0C301B2014ED8382F292F8090E3
:10250000670590906805A0906905B0906A0542E063
:10251000C501B401288F3F8B3ED8AC0189898F93C8
:102520009F859F936B817C818D819E814E8B598F7E
:102530000E9401317F936F93288D2F933F893F93A2
:10254000C301B2010E9401317F936F93598D5F9354
:102550004E894F93C501B4010E9401317F936F935F
:102560003F922F921F930F930E949F34282FA80110
:1025700060E080E00E94522323E430E04BEB56E021
:10258000B10181E00E949820809047059090480515
:10259000A0904905B0904A0542E0C501B4010E94EF
:1025A000CB0A382E292EC501B4010E940131562EC6
:1025B000472E80904C0590904D05A0904E05B09010
:1025C0004F0544E0C501B4010E94CB0A782E692E64
:1025D000C501B4010E940131362F572F00914B05E0
:1025E0000FB6F894DEBF0FBECDBF002311F010E090
:1025F00002C00DE210E08090510590905205A0902D
:102600005305B090540544E0C501B4013F8B598F88
:102610000E94CB0A282F492FC501B401288F4E8B69
:102620000E94013180915005288D3F894E89598D36
:10263000882311F090E002C08DE290E02F923F924B
:102640004F925F926F927F925F933F931F930F938E
:102650004F932F937F936F939F938F93B1E9AB2EFB
:10266000B3E0BB2EBF92AF9201E114E01F930F9332
:102670000E949F34282FA80160E080E00E9452232E
:102680000FB6F894DEBF0FBECDBF80912F01811130
:1026900092C02FE130E04CE956E0B50181E00E94A4
:1026A000982040907D0550907E0560907F05709049
:1026B000800543E0C301B2010E94CB0A80908B03E6
:1026C00090908C039F938F93C301B2010E940131BC
:1026D0007F936F939F928F92BF92AF921F930F93AE
:1026E0000E949F34282FA80160E080E00E945223BE
:1026F0002FE130E04DE756E0B50181E00E949820DF
:102700004090790550907A0560907B0570907C052B
:1027100043E0C301B2010E94CB0A80908D039090E8
:102720008E039F938F93C301B2010E9401317F9367
:102730006F939F928F92BF92AF921F930F930E94BD
:102740009F34282FA80160E080E00E9452232EE1F0
:1027500030E04FE556E0B50181E00E9498204090BE
:10276000750550907605609077057090780541E08A
:10277000C301B2010E94CB0A80908F039090900316
:102780009F938F93C301B2010E9401317F936F9396
:102790009F928F92BF92AF921F930F930E949F348C
:1027A000282FA80160E080E00E9452230FB6F89421
:1027B000DEBF0FBECDBF28E330E047E256E061E95F
:1027C00073E081E00E9498205B8590E0AF819A2BB6
:1027D0009F935F93FF92EF92DF92CF92A1E9EA2E4F
:1027E000A3E0FA2EFF92EF9201E114E01F930F9302
:1027F0000E949F34282FA80160E080E00E945223AD
:1028000024E730E043EB55E0B70181E00E949820D7
:10281000809186058F93809185058F9380918A059D
:102820008F93809189058F93809188058F938091F4
:1028300087058F9380918C058F9380918B058F9363
:10284000809190058F9380918F058F9380918E0555
:102850008F9380918D058F93FF92EF921F930F932B
:102860000E949F34282FA80160E080E00E9452233C
:1028700024E230E04FE855E0B70181E00E94982063
:10288000809137051F928F93809138051F928F9307
:10289000FF92EF921F930F930E949F340FB6F8940C
:1028A000DEBF0FBECDBF282FA80160E080E00E94F0
:1028B000522320E230E04FE655E0B70181E00E946C
:1028C00098208091A1051F928F93FF92EF921F9302
:1028D0000F930E949F34282FA80160E080E00E949F
:1028E00052230F900F900F900F900F900F908091A8
:1028F0002F01811128C640918D0550918E05609160
:102900008F05709190058091870590918805A09121
:102910008905B0918A059A01AB01281B390B4A0B36
:102920005B0BA0E2BEE40E94E02F20918B0530916A
:102930008C054901A12CB12C20918505309186058B
:10294000821A930AA108B108860E971EA81EB91E06
:10295000D501C4019D52A143B1408B839C83AD83BB
:10296000BE8340902701509028016090290170900B
:102970002A0120E030E040EA50E4C301B2010E94A5
:1029800099306B017C019CE9891A9CE2990A91E3D8
:10299000A90A91E0B90AA9EC8A169104A104B1042C
:1029A000D8F020E030E040E05FE3C701B6010E94CC
:1029B0003B322B013C0120E030E040EA51E4C7010A
:1029C000B6010E9499306B877C878D879E871B821A
:1029D0001C821D821E8258C08B819C81AD81BE816C
:1029E0004396A11DB11D8797A105B10548F56B81DF
:1029F0007C818D819E810E943431A70196010E94C5
:102A000030309B01AC01C301B2010E9431306093B0
:102A10002701709328018093290190932A0120E0D7
:102A200030E040E05FE3C701B6010E943B322B017A
:102A30003C0120E030E040EA51E4C701B6011EC08D
:102A400010922701109228011092290110922A0158
:102A50006B817C818D819E810E9434314B015C01B0
:102A600020E030E040E05FE30E943B322B013C017C
:102A700020E030E040EA51E4C501B4010E94993001
:102A80006B877C878D879E878091000182FFC3C002
:102A90008091000180FDBFC02AE330E04FE554E0A3
:102AA00061E973E081E00E949820BE81BF932D818F
:102AB0002F933C813F934B814F9381E993E09F9308
:102AC0008F9381E194E09F938F930E949F34282FEE
:102AD00041E154E060E080E00E94522320E030E0D9
:102AE00040E250E4609181057091820580918305F8
:102AF000909184050E9431304B015C0124E730E065
:102B00004BEE53E061E973E081E00E94982046E0DB
:102B1000C501B4010E94CB0A8F87998BC501B4010E
:102B20000E9401316A8B7B8B0FB6F894DEBF0FBE1B
:102B3000CDBF20E030E0A901C501B4010E943732C9
:102B400087FF02C08DE201C08BE2A82FB0E0B887FA
:102B5000AF8343E0C301B2010E94CB0A1C01C30151
:102B6000B2010E9401316C8B7D8B20E030E0A90125
:102B7000C301B2010E94373287FF02C00DE201C0DB
:102B80000BE210E043E0C701B6010E94CB0A982E89
:102B9000892EC701B6010E940131B62EA72E20E072
:102BA00030E0A901C701B6010E94373287FF02C099
:102BB0008DE201C08BE2B989BF932F852F933B89AA
:102BC0003F934A894F9358855F939F819F933F928C
:102BD0002F92AD89AF93BC89BF931F930F938F92B0
:102BE0009F92AF92BF921F928F9381E993E09F9340
:102BF0008F9381E194E09F938F930E949F34282FBD
:102C000041E154E060E080E00E9452230FB6F89466
:102C1000DEBF0FBECDBF8091A105843080F48091CE
:102C2000000181FF0CC02DEC3CEC4CEC5DE3C701D6
:102C3000B6010E9431306B017C0111E001C010E04F
:102C400020E030E04AE754ECC701B6010E94373279
:102C500018160CF018C220E030E04AE754E4C7012F
:102C6000B6010E94953087FF0EC2111104C020E00A
:102C700030E0A90104C02AE037ED43EA5BE36B854D
:102C80007C858D859E850E9430304B015C018B8157
:102C90009C81AD81BE810396A11DB11D0797A10541
:102CA000B105F0F420E030E040EA51E4C701B6019C
:102CB00090580E9499302091AA053091AB0540911F
:102CC000AC055091AD050E94993020E030E040E223
:102CD00051E40E9499306F83788789879A8729C049
:102CE0006B817C818D819E81909580957095619599
:102CF0007F4F8F4F9F4F0E94343120E030E040EAF9
:102D000051E40E9499302091AA053091AB05409181
:102D1000AC055091AD050E9499302DEC3CEC4CE88F
:102D20005FE30E9499306F83788789879A87109232
:102D3000A1052FE832EC45E75CEBC501B4010E9428
:102D4000373287FD16C02FE832EC45E75CE3C5015A
:102D5000B4010E949530181664F08091A10582306C
:102D600041F480912601811162C083E08093A10526
:102D70005EC02CEE31E548E35DEBC501B4010E9475
:102D8000373287FD14C02CEE31E548E35DE3C50121
:102D9000B4010E949530181654F08091A10581303D
:102DA00031F480912601811142C082E031C02CE5CE
:102DB0003FE842EC5DEBC501B4010E94373287FD6C
:102DC0000EC02CE53FE842EC5DE3C501B4010E9472
:102DD0009530181624F08091A105823040F520E04E
:102DE00030E048EC51ECC501B4010E94373287FD58
:102DF00019C020E030E048EC51E4C501B4010E9464
:102E0000953018167CF08091A105823020F081E089
:102E10008093A10509C081110AC0809126018823F1
:102E2000B1F305C01092A10584E180932601809141
:102E3000000180FF31C18FB7F894909138059A83D3
:102E40009091370599838FBF8091A1058430A8F4B4
:102E50009E012F5F3F4FAE014E5F5F4F6F817885C0
:102E600089859A850E942D0A8FB7F8949A8190934C
:102E700038059981909337058FBF8091000182FFBB
:102E800002C12AE330E04FE554E061E973E081E0FC
:102E90000E9498203E813F934D814F935C815F93C8
:102EA0008B818F9381E993E09F938F9381E194E0ED
:102EB0009F938F930E949F34282F41E154E060E05C
:102EC00080E00E94522324E730E04BEE53E061E9BA
:102ED00073E081E00E94982046E0C501B4010E94A1
:102EE000CB0A8C01C501B4010E9401311B010FB650
:102EF000F894DEBF0FBECDBF20E030E0A901C501D0
:102F0000B4010E94373287FF02C08DE201C08BE21C
:102F1000282F30E03C832B8343E0C301B2010E94A1
:102F2000CB0A5C01C301B2010E9401314B0120E0D8
:102F300030E0A901C301B2010E94373287FF02C00D
:102F40008DE201C08BE2482F50E0588B4F8743E061
:102F5000C701B6010E94CB0A898B9A8BC701B601C3
:102F60000E9401316B8B7C8B20E030E0A901C7010E
:102F7000B6010E94373287FF02C08DE201C08BE2AA
:102F80001F930F933F922F925C815F939B819F933E
:102F9000BF92AF929F928F92A889AF93BF85BF9344
:102FA0002A892F9339893F934C894F935B895F938B
:102FB0001F928F93F1E9EF2EF3E0FF2EFF92EF9235
:102FC00001E114E01F930F930E949F34282FA80162
:102FD00060E080E00E9452236A8170E080E090E02F
:102FE0000E9434314B015C01698170E080E090E027
:102FF0000E94343120E030E040E85BE30E943B3245
:103000009B01AC01C501B4010E9431304B015C0150
:1030100027E430E044EA53E0B70181E00E949820C1
:1030200043E06F81788589859A850E94CB0AC82EF6
:10303000392E43E0C501B4010E94CB0AD82E292EB7
:103040003F92CF926F81788589859A850E94013160
:103050007F936F932F92DF92C501B4010E940131DB
:103060007F936F93FF92EF921F930F930E949F3471
:103070000FB6F894DEBF0FBECDBF282FA80160E0C9
:1030800080E00E94522380912601815018F08093A5
:10309000260102C0109226018091A105843060F4BF
:1030A0002B853C854D855E85209381053093820577
:1030B00040938305509384059091000191FF43C292
:1030C00060918D0370918E03833008F446C09CEEAE
:1030D000960F9E3D50F58730B8F487E08093A105A8
:1030E00010922201109223011092240110922501C6
:1030F0008FB7F89410922E0510922F05109230057C
:10310000109231058FBF05C0873019F087E080939A
:10311000A10580EB860F843700F58091A1058F30E3
:10312000E0F48FE08093A10518C08730B0F081E013
:103130008093A10510922201109223011092240184
:10314000109225018FB7F89410922E0510922F053A
:1031500010923005109231058FBF77276958710999
:10316000072E000C880B990B0E94343126E131E5C3
:1031700042E050E40E943B322B013C011091A1053A
:10318000173008F45FC020E030E044E352E49F775A
:103190000E943B322AE939E949E95FE30E949E3205
:1031A0004B015C0120E030E0A901C301B2010E94A3
:1031B000953087FF04C0B7FAB094B7F8B0941F30C9
:1031C00008F046C020E030E0A901C501B4010E942A
:1031D00095308823E9F11FB7F894A5019401609117
:1031E0002E0570912F0580913005909131050E9438
:1031F000313060932E0570932F05809330059093A6
:1032000031051FBF0E942D0B2CE933E549EC55E336
:1032100060912201709123018091240190912501F8
:103220000E943B3220E030E0A9010E9431306B0166
:103230007C0110922201109223011092240110921D
:10324000250109C0812C912C54017501640103C032
:10325000C12CD12C76018091A105873008F4BBC028
:1032600020911E0130911F014091200150912101B8
:10327000C501B4010E9430306B837C838D839E83B3
:1032800020E030E0A901C501B4010E9437321816D0
:103290005CF420E030E0A9016B817C818D819E810E
:1032A0000E9437321816B4F020E030E0A901C501C1
:1032B000B4010E94953087FF0FC020E030E0A901E3
:1032C0006B817C818D819E810E949530881F88272B
:1032D000881F03C081E001C080E080921E019092AF
:1032E0001F01A0922001B0922101811105C02DEB98
:1032F00037E346E056E304C022E838EA4BE757E3F9
:10330000C501B4010E943B329B01AC01C701B6016B
:103310000E9431306B017C0180911A0190911B0158
:10332000A0911C01B0911D018B839C83AD83BE8352
:1033300020E030E040EE50E4BC01CD010E94993025
:103340006B877C878D879E879B01AC016091AA0566
:103350007091AB058091AC059091AD050E943B3218
:103360006093810570938205809383059093840513
:1033700020E030E0A901C701B6010E9437322B8559
:103380003C854D855E8587FD03C0C701B60103C03E
:10339000C701B60190580E9430309B01AC016B818F
:1033A0007C818D819E810E94313060931A017093DF
:1033B0001B0180931C0190931D0120E030E0A901C6
:1033C000C701B6010E949530882329F040E0C7016B
:1033D000B6010E94FC0A8091000182FFB4C02BE676
:1033E00030E049E353E061E973E081E0A1D643E0D6
:1033F000C501B4010E94CB0A382E292EC501B401A3
:103400000E940131162F072F20E030E0A901C501ED
:10341000B4010E94373287FF02C08DE201C08BE207
:10342000A82EB12C43E0C701B6010E94CB0A982E0A
:10343000892EC701B6010E9401316B837B8720E092
:1034400030E0A901C701B6010E94373287FF02C0F0
:103450002DE201C02BE243E0C301B201288F0E949C
:10346000CB0A2F923F920F931F93BF92AF928F92EE
:103470009F92AB85AF93BB81BF931F92288D2F93F3
:103480009F938F93C301B2010E9401317F936F9389
:1034900081E993E09F938F9381E194E09F938F93D1
:1034A0000E949F34282F41E154E060E080E00E94B8
:1034B000522324E330E045E053E061E973E081E02A
:1034C00037D6C0902E05D0902F05E0903005F090B3
:1034D000310543E0C701B6010E94CB0AB82EA92EE0
:1034E000C701B6010E940131162F072F0FB6F894BD
:1034F000DEBF0FBECDBF20E030E0A901C701B6019D
:103500000E94373287FF02C02DE201C02BE2AF924A
:10351000BF920F931F931F922F9381E993E09F9384
:103520008F9381E194E09F938F930E949F34282F83
:1035300041E154E060E080E00E9452230FB6F8942D
:10354000DEBF0FBECDBF8091000186FF67C0EEEDEC
:10355000F5E080E090E021912A3571F082529A4F97
:1035600020910401309105018217930750F4909344
:1035700005018093040105C00196803252E0950751
:1035800051F725E430E044E152E061E973E081E085
:10359000CFD5809107018F93809106018F93809101
:1035A00005018F93809104018F93E1E9EE2EE3E012
:1035B000FE2EFF92EF9201E114E01F930F930E9401
:1035C0009F34282FA80160E080E00E9452232DE163
:1035D00030E047EF51E0B70181E0AAD59091420178
:1035E00096959170809142018170209141011F92C6
:1035F0009F931F928F931F922F93FF92EF921F938F
:103600000F930E949F34282FA80160E080E00E9461
:1036100052230FB6F894DEBF0FBECDBF80910001DC
:1036200087FF37C02FB7F8948091390590913A05FC
:10363000A0913B05B0913C052FBF89389341A1056E
:10364000B10580F521E130E044EF52E061E973E03B
:1036500081E06ED560E080E00E94112860E181E9A0
:1036600093E00E943A280E94452A21E130E043EE8F
:1036700052E061E973E081E05BD560E081E00E94A7
:10368000112860E181E993E00E943A280E94452ACE
:10369000A9C10E9438270E94AA278091000187FDB6
:1036A000C1CFA0C160918105709182058091830591
:1036B000909184052091A1052223D9F120E030E0EA
:1036C0004AE754E40E943B326B017C012BE130E07D
:1036D00048EC52E061E973E081E02AD510916B0576
:1036E00000916C0543E0C701B6010E94CB0A0F931D
:1036F0001F931F9223EF2F932091A1051F922F93C9
:103700001F9220EE2F939F938F93C701B6010E94C3
:1037100001317F936F931F9282E68F9381E993E04B
:103720009F938F9381E194E09F938F930E949F34A6
:1037300022C028E130E040EB52E061E973E081E033
:10374000F7D480916C058F9380916B058F931F92B6
:1037500083EF8F938091A1051F928F931F9280EE2C
:103760008F9381E993E09F938F9381E194E09F93FE
:103770008F930E949F34182F0FB6F894DEBF0FBEB0
:10378000CDBF60E080E00E941128612F81E194E0CC
:103790000E943A280E94452A80911901813009F43B
:1037A0005FC0823009F4A8C080905B0590905C05F2
:1037B000A0905D05B0905E0540905705509058056B
:1037C0006090590570905A052CE130E044E952E0D0
:1037D00061E973E081E0ACD474E6C72ED12CE12C12
:1037E000F12CC301B201A70196010E94BE2F1F92C6
:1037F0006F93CA01B901A70196010E94BE2F1F92C3
:103800006F93C301B20120E137E240E050E00E9433
:10381000BE2F1F922F93C501B40120E137E240E093
:1038200050E00E94BE2FCA01B901A70196010E9473
:10383000BE2F1F926F93C501B40120E432E44FE024
:1038400050E00E94BE2F1F922F9381E993E09F9337
:103850008F9381E194E09F938F930E949F349FC048
:1038600022E230E042E752E061E973E081E060D4B7
:10387000B0906D05A0906E0510916F0500917005D8
:10388000C0906705D0906805E0906905F0906A05E2
:1038900041E0C701B6010E94CB0AAF92BF921F92CE
:1038A0002BEE2F930F931F931F922FED2F939F9328
:1038B0008F93C701B6010E9401317F936F9380916E
:1038C00072058F93809171058F931F9286E48F9379
:1038D000809174058F93809173058F931F928DE46F
:1038E0008F9381E993E09F938F9381E194E09F937D
:1038F0008F930E949F3453C08FB7F894609138051E
:10390000109137058FBF70E080E090E00E94343165
:103910006B017C01612F70E080E090E00E94343107
:1039200020E030E040E85BE30E943B329B01AC01C9
:10393000C701B6010E9431306B017C0129E130E002
:1039400049E552E061E973E081E0F2D310917D0531
:1039500000917E05B0907F05A090800543E0C701EF
:10396000B6010E94CB0AAF92BF920F931F931F9292
:103970002BEA2F939F938F93C701B6010E940131C9
:103980007F936F931F9280E58F9381E993E09F93DC
:103990008F9381E194E09F938F930E949F34182F1F
:1039A00060E081E00E941128612F81E194E00E9493
:1039B0003A280FB6F894DEBF0FBECDBF0E94452A4D
:1039C000809118018F5F833018F4809318010AC02A
:1039D00010921801809119018F5F63E00E94692F96
:1039E000909319018091010180FF0E9481282FB7D7
:1039F000F8941091A1056091790570917A058091F4
:103A00007B0590917C052FBF2AE939E949E15FE305
:103A10000E94303020E030E044E353E40E943B3227
:103A200020E030E040E850E40E943B3220E030E00B
:103A300048EC52E40E943B320E940131812F0E94E7
:103A400082288FB7F894C0905B05D0905C05E09019
:103A50005D05F0905E058FBFC701B60120E432E43A
:103A60004FE050E00E94BE2F122F90E1892E97E286
:103A7000992EA12CB12CC701B601A50194010E9479
:103A8000BE2F2B013C0164E6C62ED12CE12CF12C7B
:103A9000CA01B901A70196010E94BE2F412FC201A0
:103AA0000E948C288FB7F894409057055090580585
:103AB0006090590570905A058FBFC301B201A701EC
:103AC00096010E94BE2F062FCA01B901A7019601D7
:103AD0000E94BE2F162FC301B201A50194010E94BE
:103AE000BE2F822F402F612F0E9497288FB7F89406
:103AF000C0908105D0908205E0908305F090840508
:103B00008FBF20E030E0A901C701B6010E94373223
:103B100018162CF420E030E04AE754E404C020E01A
:103B200030E04AE754ECC701B6010E943B322B015A
:103B30003C010E9401314B015C018B01072E000CFE
:103B4000880B990B0E9434319B01AC01C301B20177
:103B50000E94303020E030E04AE754E40E943B32DB
:103B60000E9406312B013C0120E030E0A901C70191
:103B7000B6010E94953087FF04C00027112708195D
:103B80001909B201C8010E94A1289FB7F894809139
:103B90003805609137059FBF0E94AC288FB7F89415
:103BA000C0907D05D0907E05E0907F05F090800567
:103BB0008FBFC701B6010E940631162F70E080E06A
:103BC00090E00E9434319B01AC01C701B6010E9414
:103BD000303020E030E04AE754E40E943B320E945B
:103BE0000631812F0E94B5289FB7F89480916F0508
:103BF00060916D0540916B059FBF0E94BF282FB754
:103C0000F8946091670570916805809169059091BD
:103C10006A052FBF20E030E048EC52E40E943B32BE
:103C20000E940631CB010E94C9289FB7F894809169
:103C30007105609173059FBF0E94D2288FB7F894D9
:103C4000809050054090510550905205609053056A
:103C5000709054058FBF20E030E048EC52E4C3017F
:103C6000B2010E9499300E940631962EC301B20122
:103C70000E94013104E610E0CB01B8010E94892FB7
:103C80005C016C01DD2454E6959EC00CD11C11240E
:103C9000B601DD0C880B990B0E9434319B01AC01FD
:103CA000C301B2010E94303020E030E04AE754E422
:103CB0000E943B320E9406319B014A2D692D882DBE
:103CC0000E94DB288FB7F89470904B05C0904C058C
:103CD000D0904D05E0904E05F0904F058FBF20E04D
:103CE00030E048EC52E4C701B6010E9499300E94CE
:103CF00006314B015C01C701B6010E940131CB01C5
:103D0000B8010E94892F682E84E6889D8001899DD4
:103D1000100D1124060D111DB80180E090E00E94E5
:103D200032319B01AC01C701B6010E94303020E066
:103D300030E04AE754E40E943B320E9406319B0186
:103D4000462D682D872D0E94E7281FB7F894C09054
:103D50004705D0904805E0904905F0904A05C70115
:103D6000B6010E946F319B01AC011FBFC701B601B4
:103D70000E94303020E030E048EC52E40E943B32B8
:103D80000E940131162FC701B6010E940131DC01EA
:103D9000CB01612F0E94F32820E030E0A90160915F
:103DA0009D0570919E0580919F059091A0050E94B0
:103DB0009530882309F48DC0FFB6F894109138052A
:103DC00000913705FFBE19830A8360919D057091AC
:103DD0009E0580919F059091A0059E012E5F3F4F0B
:103DE000AE014F5F5F4F0E942D0AF8948981809346
:103DF00038058A8180933705FFBE2BE630E044E02A
:103E000055E061E973E081E093D1C0909D05D090C9
:103E10009E05E0909F05F090A00547E0C701B60120
:103E20000E94CB0A1F920F931F921F939F938F9311
:103E3000C701B6010E9401317F936F9381E9A82EDB
:103E400083E0B82EBF92AF9201E114E01F930F936D
:103E50000E949F34282FA80160E080E023D42BE645
:103E600030E049E954E0B50181E062D1C0909D05A0
:103E7000D0909E05E0909F05F090A00547E0C70117
:103E8000B6010E94CB0A2A811F922F9329811F928B
:103E90002F939F938F93C701B6010E9401317F93A7
:103EA0006F93BF92AF921F930F930E949F34282F5E
:103EB000A80160E080E0F6D310929D0510929E0567
:103EC00010929F051092A0050FB6F894DEBF0FBEAA
:103ED000CDBF69960FB6F894DEBF0FBECDBFDF91A0
:103EE000CF911F910F91FF90EF90DF90CF90BF90F7
:103EF000AF909F908F907F906F905F904F903F908A
:103F00002F900895F894F89481E085BF80E085BFF4
:103F10000FB6F894A8958091600088618093600046
:103F2000109260000FBE8FEE8093640080B78068AF
:103F300080BF80917F00836080937F0085B78F7EF4
:103F400085BF0E944809EEEFF7E08AE5829395E08D
:103F5000EE3DF907D9F70E94B3080E941F0819D453
:103F60000E940629789481E080931A0588D580D72D
:103F7000F1D70E94812827D260E081E993E07AD1CD
:103F8000882339F180E1E1E9F3E0AAECB5E00190A2
:103F90000D928A95E1F71092DA058091A303909132
:103FA000A4039093C9058093C8058091A1039091C3
:103FB000A2039093C7058093C6058091A503982F0F
:103FC0009295990F907E809101018F71892B80933A
:103FD000010161E081E993E04DD1882309F440C0FB
:103FE0008091910390919203A0919303B0919403D7
:103FF0008093C2059093C305A093C405B093C505F3
:104000008091950390919603A0919703B0919803A6
:104010008093BE059093BF05A093C005B093C105E2
:104020008091990390919A03A0919B03B0919C0376
:104030008093BA059093BB05A093BC05B093BD05D2
:1040400080919D0390919E03A0919F03B091A00346
:104050008093B6059093B705A093B805B093B905C2
:1040600062E081E993E006D1882309F450C0809191
:10407000910390919203A0919303B0919403809344
:10408000B2059093B305A093B405B093B5058091A4
:10409000950390919603A0919703B0919803809314
:1040A000AE059093AF05A093B005B093B105809194
:1040B000990390919A03A0919B03B0919C038093E4
:1040C000AA059093AB05A093AC05B093AD05809184
:1040D000A3039091A403A091A503B091A60380939C
:1040E000A6059093A705A093A805B093A905809174
:1040F000A7039091A803A091A903B091AA0380936C
:10410000A2059093A305A093A405B093A505809163
:10411000000187FD0AC08091010180FD06C025E0F5
:104120004CEF5BE061E081E0BDD20E94FF0EFDCF6D
:104130001F93CF93DF93162F972FBA01882329F06F
:10414000C12FD92FA0E0B0E007C0A901812FDF91D6
:10415000CF911F910C941D34A217B30739F0FB01C6
:10416000EA0FFB1FE491E9931196F6CF812FDF91BF
:10417000CF911F91089520E1829FC00111248C608E
:10418000906B0895CF93DF93FC01DC015E9625EAE6
:1041900035EA60E1E901CC0FDD1F922F9170832F8A
:1041A000881F8827881F9827A901452F55274295E2
:1041B000469547704170942733FB332730F9932796
:1041C00027FB882780F9982722FB222720F9292717
:1041D000CE01822B9C016150E9F681912827EA17D4
:1041E000FB07B9F6C901DF91CF910895E09108016D
:1041F000F09109010994EF92FF920F931F93CF93CF
:10420000DF931F92CDB7DEB77C018A01081B190B23
:10421000662361F0C8018E0D9F1D69830E9460377F
:10422000F70181937F0169816150F2CF0F90DF9197
:10423000CF911F910F91FF90EF9008958830B8F4BF
:1042400090E2899FA001112460E281E993E0D3DF2D
:1042500081E993E097DF2091B00330E0322F2227ED
:104260004091AF03242B41E02817390709F040E0C3
:10427000842F08950F931F93CF93683010F080E040
:1042800012C0C62F8C01862FD9DF8823C1F383E0AB
:104290000139180739F080E2C89FA001112460E2BB
:1042A000C801A9DF81E0CF911F910F910895EF928E
:1042B000FF921F93CF93DF937C01C42FD52F162F2E
:1042C000140F1C1741F0F70161917F01CE010E948C
:1042D00068372196F6CFDF91CF911F91FF90EF9035
:1042E00008951F93CF93DF93683018F5162FEC01D4
:1042F00049DF2F8D30E0322F22274E8D242B2817B7
:104300003907C9F08E8F9F8F8D8D90E0982F882769
:104310002C8D822B01968C8F9D8FCE0133DF8E8F5B
:104320009F8F80E2189FA001112460E2CE01BFDFC1
:1043300002C080E001C081E0DF91CF911F9108951C
:104340001F93CF93DF93883010F080E038C0182F90
:1043500075DF8111FACF212F30E04091B00350E09A
:10436000542F44278091AF03482BC90174E0880F74
:10437000991F7A95E1F78C60906B48175907D1F037
:10438000C091AE03D0E0DC2FCC278091AD03C82BC9
:1043900095E0220F331F9A95E1F7255E334F40E0F9
:1043A00050E06CE181E993E021DF2196C093AD03F9
:1043B000D093AE03612F81E993E093DF81E0DF9139
:1043C000CF911F910895CF93DF93C0E0D0E08C2F61
:1043D000B7DF8111DF5FCF5FC830C9F78D2FDF9165
:1043E000CF910895811103C0E6E2F5E002C0E7E253
:1043F000F5E08FB7F894908121E020838FBF81E0B2
:10440000911180E00895811103C0E6E2F5E002C059
:10441000E7E2F5E08FB7F89410828FBF08958F928E
:104420009F92AF92BF92CF92DF92EF92FF920F9343
:104430001F93CF93DF93982F3FB7F894882329F0E9
:1044400070912B0580912A0504C0709129058091F7
:1044500028053FBFA72FB0E0C82FD0E0FD0131965F
:10446000EC17FD0709F464C07F3719F4882309F4B9
:104470005FC0911105C0EBE8EE2EE2E0FE2E04C015
:104480003BE0E32E33E0F32E30E0781728F4FE0112
:10449000EA1BFB0B31970CC0E0E8F0E0EA1BFB0BDA
:1044A00001E010E0882311F000E010E0E01BF10BC8
:1044B0002E173F070CF4F901DE2E8F011127201B68
:1044C000310B781720F0882311F0219702C0C0E04B
:1044D000D0E02C173D070CF4E9015A01962E892EE5
:1044E000CC2EDD2031F0B7016A0F7B1F9801892D9A
:1044F0001FDECC2049F09E013327A501400F511F3C
:10450000B701892D15DEDC0C9FB7882041F0F894A7
:1045100080912B058D0D8F7780932B0507C0F89424
:10452000809129058D0D8F77809329059FBF01C04C
:10453000D12C8D2DDF91CF911F910F91FF90EF9096
:10454000DF90CF90BF90AF909F908F9008959F92F3
:10455000AF92BF92CF92DF92EF92FF920F931F9391
:10456000CF93DF932FB7F894882329F0C0912B05C0
:1045700090912A0504C0C0912905909128052FBF6C
:10458000C91709F45AC0423008F457C0811103C05A
:104590000BE812E002C00BE013E050E0415051097B
:1045A000E92FF0E09C1718F42C2F30E002C020E82F
:1045B00030E02E1B3F0B421753070CF49A01B22E2A
:1045C0007901FF244E195F099C1710F0D0E002C05A
:1045D000C0E0D0E04C175D070CF4EA016B01A82E97
:1045E0009C2EBB2039F0B8016E0F7F1FA701C601BA
:1045F0000E941D34992049F0AE015527B801C6012B
:104600008E0D9F1D0E941D34B90CF601EB0DF11D9E
:1046100010829FB7AA2041F0F89480912A058B0D53
:104620008F7780932A0507C0F894809128058B0D19
:104630008F77809328059FBF05C0411102C0FB0101
:104640001082B12C8B2DDF91CF911F910F91FF9094
:10465000EF90DF90CF90BF90AF909F9008953FB7BD
:10466000F894882329F090912B0520912A0504C005
:1046700090912905209128053FBF291779F08111D4
:1046800003C08BE892E002C08BE093E0FC01E20FF4
:10469000F11D8081843221F481E1089580E0089544
:1046A00081E00895FF920F931F93CF93DF93C82F5C
:1046B000D62F8A01F22E8C2F95DE8823A9F02FB7F2
:1046C000CC2331F0F89480912B0590912A0505C0F8
:1046D000F89480912905909128052FBF981739F0FB
:1046E0008C2F91DEA895D1D6A895CFD6E4CF2F2DCB
:1046F000A8016D2F8C2F93DED82F8C2F84DE8D2F69
:10470000DF91CF911F910F91FF9008959FB7F8947B
:10471000E0ECF0E080818F7B8083E0911D0581E0FB
:104720008E0F80931D05F0E0E553FE4F808180934E
:10473000C6009FBFE1ECF0E0808180628083089535
:104740009FB7F894E1ECF0E08081806880839FBFA0
:1047500008959C01BC0176956795CB01A0E0B0E07F
:10476000BC01CD0160537D4E8C4E9F4F40E050E028
:104770000E949C2FDA01C9010197A109B109892F73
:104780009A2FAB2FBB278093C50021502093C400E4
:104790000895809164008D7F8093640085B78F7E3B
:1047A00085BF589A63E081E993E064DD8823C1F016
:1047B0008091910390919203909325058093240515
:1047C0008091930390919403909323058093220505
:1047D00080919503909196039093210580932005F5
:1047E0008091240590912505B4DF88E18093C10074
:1047F000209122053091230583E0820F8370880F7A
:10480000932F9073892B222733709FEF930F917012
:10481000990F990F990F892B8093C2008091C60040
:1048200010921D058DCFCF93442369F0C42FAB01A7
:104830002C2F30E06BEC71E07BDC10921D05C093F7
:104840001E05CF9163CFCF910895CF932FB7F894E2
:104850009091C0002FBF20911E05211135C095FFFA
:1048600033C0C82F4DE36BEC71E071DE80931E0501
:104870008C2FC9DD8091000183FF10921E051092DC
:104880001D0580911E05882309F1EFEFE80FE093E5
:104890001E05F0E0E553FE4F9081911180931E05B7
:1048A000E0911E05AE2FB0E0A553BE4F8DE08C9376
:1048B00082E08E0F80931E05EF5FF0E0E553FE4F20
:1048C0008AE08083CF9122CFCF919DCDCF91089563
:1048D0001F920F920FB60F9211242F933F934F9375
:1048E0005F938F939F93AF93BF93CF93DF93EF9398
:1048F000FF939091C600789480911C0520911B0530
:10490000811148C030911F05353708F043C031E0B0
:1049100030931C052223C1F02FB7F89430911B056A
:1049200040911F05ABE0B2E0E82FE40F831739F0A8
:104930005D91F0E0ED5EFD4F50838F5FF5CFE0932A
:104940001F0510921B052FBFE0911F05A1E0AE0FC0
:10495000A0931F05CE2FD0E0CD5EDD4F9883A53705
:1049600080F0B0E0AD5EBD4F8DE08C9383E08E0FA4
:1049700080931F05EE5FF0E0ED5EFD4F8AE08083DF
:1049800002C09A3021F482E080931C0512C010927C
:104990001C050FC0283068F48FB7F894E0911B0510
:1049A00021E02E0F20931B05F0E0E55FFD4F908383
:1049B0008FBFFF91EF91DF91CF91BF91AF919F9109
:1049C0008F915F914F913F912F910F900FBE0F905C
:1049D0001F9018951F920F920FB60F9211248F936C
:1049E0009F93EF93FF938091C1008F7D8093C100CF
:1049F000789490911D0580911E05981798F4F8946D
:104A0000E0911D0581E08E0F80931D05F0E0E553D8
:104A1000FE4F80818093C6008091C10080628093A8
:104A2000C100789490911D0580911E05981748F05B
:104A3000F8948091C1008F7D8093C100789410928A
:104A40001E05FF91EF919F918F910F900FBE0F90D8
:104A50001F90189578941F920F920FB60F92112401
:104A60000F900FBE0F901F901895A89580911A0572
:104A7000882321F00AD5C1D30C948B0B0895E4E66A
:104A8000F0E080818F7780839FB7F89487B18F7C27
:104A900087B988B1806388B91092B90081E18093A9
:104AA000B80084E88093BC009FBF0895CF93DF9344
:104AB000C82F8091420180FF02C0D7DFFACF8091DA
:104AC000420181FDFACFD0E0209719F0CEDF219787
:104AD000FBCFDF91CF9108952FB7F89490914201C9
:104AE00091FD04C09091420190FD06C09091420159
:104AF00091FF17C06623A9F090911305992389F0BF
:104B000090914201926090934201909142019E7F68
:104B10009093420110921105882319F085EA809341
:104B2000BC002FBF0895EF92FF921F93CF93DF93A6
:104B300000D0CDB7DEB7182F7901823211F080E0B6
:104B400001C08AE04A836983B1DF9FB7F89410936C
:104B5000140510921305E091130581E08E0F8093E8
:104B60001305F0E0EF5CFE4F6981608380914201A4
:104B70008B7F80934201D7014A8150E09D012E191D
:104B80003F092417350764F4E091130581E08E0F87
:104B900080931305F0E08D91EF5CFE4F8083EECFA4
:104BA000809142018160809342019FBF60E081E07B
:104BB0000F900F90DF91CF911F91FF90EF908CCFCE
:104BC000CF93DF931F92CDB7DEB749839E012F5F4E
:104BD0003F4F42E0A8DF0F90DF91CF910895CF9330
:104BE000DF9300D0CDB7DEB749832A839E012F5FC4
:104BF0003F4F42E098DF0F900F90DF91CF910895E3
:104C00001F93CF93DF931F92CDB7DEB7182F823259
:104C100011F080E001C08AE0698348DF9FB7F89413
:104C20001093140510921305E091130581E08E0F87
:104C300080931305F0E0EF5CFE4F69816083809103
:104C4000420184608093420181E08093120580914B
:104C500042018160809342019FBF60E081E03CDFC0
:104C600080E024DF809131010F90DF91CF911F917F
:104C700008959FB7F894882339F08091420181FF0D
:104C800003C085E98093BC00109213058091420116
:104C90008D7F809342019FBF08951F920F920FB6A0
:104CA0000F9211242F933F934F935F936F937F93B2
:104CB0008F939F93AF93BF93CF93EF93FF93809185
:104CC000B900887F9091BB002091BC00C22FC574B1
:104CD00080934101883209F46FC080F48031F9F08B
:104CE00038F4883009F0ACC080911405880F40C0BA
:104CF000883129F1803209F44AC0A2C0883409F40D
:104D000046C030F4803309F49BC08034C1F098C0B1
:104D1000803509F46CC0883509F480C091C0809159
:104D20001405880F81608093BB00809142018B7FC6
:104D300080934201809112058093130584C0809175
:104D40001405803231F48091000180688093000165
:104D500009C080911405823229F48091010181609B
:104D60008093010180914101883129F480913101C2
:104D70008093BB0068C0809111054091130590E0BD
:104D8000019650E0841795070CF446C042C080910C
:104D90001405803231F4809100018F7780930001F7
:104DA0004FC080911405823209F04AC08091010100
:104DB0008E7F8093010144C0809111058F5F8093A5
:104DC00011059091110580911305981738F4E09121
:104DD0001105F0E0EF5CFE4F8081CACF8091420167
:104DE00082FF2EC061E080E077DEC0622CC0E091DF
:104DF000110581E08E0F80931105F0E08091BB00DA
:104E0000EF5CFE4F808390911105809113059817F8
:104E100018F0C22FC57017C0C06415C0909111055D
:104E200080911305981760F4E091110581E08E0FD1
:104E300080931105F0E08091BB00EF5CFE4F808312
:104E400080E017DFC061C568C093BC00FF91EF919F
:104E5000CF91BF91AF919F918F917F916F915F9112
:104E60004F913F912F910F900FBE0F901F9018956B
:104E700044E26AE080E2A4DE80E018DE8091000176
:104E800087FF28C02FEF4FEF6CE080E2A8DE20E024
:104E90004FEF60E080E2A3DE20E040E062E080E2ED
:104EA0009EDE20E040E062E180E299DE20E040E02A
:104EB00064E180E294DE20E040E064E080E28FDEA6
:104EC00020E040E066E080E28ADE2FEF4FEF68E00E
:104ED00080E285CE0895882311F040E001C04FEFB5
:104EE00060E080E26DCE482F65E180E269CE462F1A
:104EF00090E8699F90011124282B64E180E26FCE35
:104F000062E180E27DCE1F93CF93DF938091010118
:104F1000829586958770813011F0C0E001C0C8E0AD
:104F200080E0D9DFDC2FD260C3608D2FDCDF8C2FD7
:104F3000DADFE6DF182F8D2FD6DF17FF07C082E4F8
:104F40008A95F1F700C0A895A0D2EFCFDF91CF915D
:104F50001F9108958091000187FF62C0D4DF81E036
:104F6000BADF6CE380E0C3DF6CE381E0C0DF6CE3B9
:104F700080E0BDDF80E0AFDF8BE18A95F1F70000D4
:104F800081E0A9DF6CE380E0B2DF6CE381E0AFDFBA
:104F90006CE380E0ACDF80E09EDF83EF91E001977F
:104FA000F1F700C0000081E096DF6CE380E09FDF56
:104FB0006CE381E09CDF6CE380E099DFA4DF81E0BB
:104FC0008ADF6CE380E093DF6CE381E090DF6CE3E9
:104FD00080E08DDF98DF81E07EDF6CE080E087DFBE
:104FE0006CE081E084DF6CE080E081DF8CDF81E0D9
:104FF00072DF61E080E07BDF61E081E078DF61E02B
:1050000080E075DF80DF81E066DF66E080E06FDFF3
:1050100066E081E06CDF66E088E069DF80E05BCF1E
:105020000895CF93DF939091010192959695977093
:10503000913011F0D0E001C0D8E0C62FCF70C06829
:10504000282F217030E086E0220F331F8A95E1F788
:10505000C22B59DF81E03FDF6C2F8D2F48DF6C2F93
:105060008D2F816044DF6C2F8D2F41DF80E0DF9139
:10507000CF9131CFAF92BF92CF92DF92EF92FF925A
:105080000F931F93CF93DF936C0190910101929541
:1050900096959770913011F0C0E001C0C8E076019C
:1050A000062F10E08C2F8460B82EEC2FE560AE2E1A
:1050B00097012C193D0920173107ACF4F701D19164
:1050C0007F0121DF81E007DF6D2F8B2D10DF6D2F3A
:1050D0008A2D0DDF6D2F8B2D0ADF6D2F8C2F07DFB3
:1050E00080E0F9DEE5CFDF91CF911F910F91FF9026
:1050F000EF90DF90CF90BF90AF90089561E082E293
:105100007FCDFCCFE1E1F4E08083618372839F0176
:1051100043E060E882E207CDE1E1F4E0808391833F
:10512000628343839F0144E061E882E2FCCCE1E1D9
:10513000F4E08083618342839F0143E062E882E27E
:10514000F2CCE1E1F4E080839183628373839F0179
:1051500044E063E882E2E7CCE1E1F4E0808361834C
:105160009F0142E064E882E2DECCE1E1F4E080838A
:10517000618372839F0143E065E882E2D4CCE1E180
:10518000F4E08083618342839F0143E068E882E228
:10519000CACCE1E1F4E0808391839F0142E069E8B9
:1051A00082E2C1CCE1E1F4E0808361839F0142E0CF
:1051B0006AE882E2B8CCE1E1F4E080836183428373
:1051C000238334839F0145E06BE882E2ACCCE1E1CC
:1051D000F4E0808361834283238334839F0145E02D
:1051E0006CE882E2A0CCE1E1F4E080839183628309
:1051F0009F0142E06DE882E296CC8091910584FFA8
:1052000004C065E08AE091E01AC1089589D2E89867
:10521000219829988AEF815041F0E7E8F3E131972E
:10522000F1F700C00000A895F6CF219A299AE89AD4
:105230000895FC018081982F9076903459F58F71F4
:1052400049F5818181110EC0828180934301838160
:105250008093440184818093450185818093460138
:1052600084E019C0823049F48FB7F89426813781E1
:1052700030931905209318050AC0813059F48FB76F
:10528000F8942681378130931705209316058FBF38
:105290008FEF01C080E023E431E030930D082093CC
:1052A0000C080895CF92DF92EF92FF921F93CF9355
:1052B000DF937C01462F8091000184FF37C08091ED
:1052C000180590911905892B89F12091DB05309102
:1052D000DC05C90168EE73E008D6CB01EAE0F0E036
:1052E000BF0103D6805DD7018C93C90164E670E0ED
:1052F000FCD5CB01BF01F9D5805DD70111968C9308
:10530000C901BF01F2D5C82FCB01BF01EED5805D29
:10531000F70182832F5F3F4F3093DC052093DB053D
:10532000C05DC3838AE3848315E001C010E0C12E11
:10533000D12C809118059091190550E0841795079C
:1053400008F4AC01EA01CC19DD091C161D06ECF4C9
:1053500080E048D88823E1F34C2F4F5FB7016C0DF4
:105360007D1D80E0F4D8C82F80E04DD8CC0ED11C34
:1053700020911805309119052C193D093093190514
:10538000209318058C2F810F01C0812FDF91CF91C1
:105390001F91FF90EF90DF90CF9008951F93CF93D0
:1053A000DF93D62F2091160530911705462F50E038
:1053B00042175307C0F4241B350B30931705209375
:1053C00016051FB7F894C09115052C2F30E0BC01CD
:1053D000C901855B9E4F0E941D34CD0FC0931505FA
:1053E0001FBF80E028C0232BA9F01FB7F894C091FD
:1053F000160550911705D09115052D2F30E04C2F33
:10540000BC01C901855B9E4F0E941D34CD0FC09326
:1054100015051FBF209115054BE451E060E081E0C8
:1054200041D98FB7F8941092170510921605109273
:1054300015058FBF81E0DF91CF911F910895CF9324
:10544000209191052E31F9F02091910524FF07C09C
:105450003091920528E823272093920503C02AE57E
:1054600020939105DC01E3E9F5E0862F8E0F9D91F5
:1054700091938E13FCCFC62F83E995E00E9403071A
:10548000CC5FC0939105CF910895CF93DF93609146
:105490000E08635067FDE0C080910B08CCE0D0E0BF
:1054A000C81BD109CE5ED74F80910A088D3209F012
:1054B000C2C0683009F0CEC083EC8093FE078AE555
:1054C000809310011092DD052881822F807639F0BB
:1054D000CE01AFDE982F8F3F09F49CC0A2C09A8105
:1054E0003C81109207088981811113C02F712230ED
:1054F00051F4313841F49091910581E09E3109F0E9
:1055000080E0809307081092080827E038E092E0D6
:105510007CC0282F2D7F213081F4911173C0313848
:1055200009F070C0813011F08EE101C08AE58093EE
:1055300091058BE48093920565C0853019F49093B2
:105540000F0860C0863009F044C08B81813041F47F
:1055500084ED9CE090930D0880930C0892E135C097
:10556000823041F48BEB9CE090930D0880930C0803
:1055700099E12BC0833041F5911108C08EE29DE086
:1055800090930D0880930C0894E01FC0913041F473
:1055900080E29DE090930D0880930C089EE015C07A
:1055A000923041F486EF9CE090930D0880930C08B4
:1055B0009AE20BC0933041F486EE9CE090930D0884
:1055C00080930C0890E101C090E080E48093DD05B9
:1055D00028C0883081F0893019F49093110807C0F1
:1055E0008A3061F08B3071F48BE4809392058AE508
:1055F0008093910507C021E138E002C027E038E040
:1056000091E003C027E038E090E030930D0820934C
:105610000C0807C0888187FD9E8180E88093DD05A6
:1056200007C08F81811104C08E81891708F4982FDB
:1056300090930F010FC08091DD0587FF0BC0CE0155
:10564000ADDE8F3F21F48EE18093100103C0811104
:1056500010920F0110920E088091100184FF50C02B
:1056600080910F018F3F09F44BC0C82F893008F09B
:10567000C8E08C1B80930F019091FE0788E8892772
:105680008093FE07CC2351F13091DD0537FF08C030
:105690006C2F8FEF97E006DEC82F893058F51EC0BB
:1056A00080910C0890910D082C2F280FAFEFB7E0D8
:1056B000FC0136FF06C034913D9331962E13FBCF8B
:1056C00004C031913D932E13FCCF01962FEF2C0F88
:1056D000820F911D90930D0880930C086C2F8FEF13
:1056E00097E00E940307CC5FCC3041F08FEF8093AE
:1056F0000F0104C08FEF80930F01CEE1C093100122
:1057000084E196B19C7049F48150D9F710920F084A
:10571000109209088AE580939105DF91CF91089551
:10572000E9E6F0E0808183608083E89AE1E9F5E0D2
:105730008BE481838AE58083089520FD09C0FC0104
:1057400023FD05C022FF02C073836283518340831F
:10575000089544FD10C046FD10C0DB01FC01AA0FF6
:10576000BB1FEE1FFF1F1094D1F76A0F7B1F8E1F08
:105770009F1F31E003C033E001C034E0660F771FA4
:10578000881F991F3150D1F7620F711D811D911D26
:1057900008950F931F93CF93DF938C01C8010E944C
:1057A0003434EC0197FD08C00E94F533892BB1F722
:1057B000B801CE010E94D534CE01DF91CF911F9167
:1057C0000F910895A0E0B0E0E7EEFBE209C47C0190
:1057D0008B016A01D22F0E9434349C0133272B3273
:1057E000310521F02D32310559F4D06801501109ED
:1057F00011F480E066C0C7010E94343497FDF9CFF0
:10580000CD2FCD7F2D2F207309F58033F9F458016A
:1058100081E0A81AB10809F441C0C7010E943434DC
:1058200097FD3CC0282F2F7D283551F4C2640250CB
:105830001109A1F1C7010E94343497FF07C02EC09F
:10584000D6FF02C0C26001C0C2618501812C912CCB
:10585000540120ED280F283080F0C4FF04C0B701A8
:105860000E94D53418C02A3040F0C6FFF8CF2F7DF3
:105870003FEE320F363098F727504C2FC501B40158
:1058800068DF4B015C01C2600150110951F0C70192
:10589000EBD797FFDECFC1FD04C0ABCF812C912C9D
:1058A0005401C7FF08C0B094A09490948094811CC8
:1058B000911CA11CB11C2C2FB501A401C6013DDF18
:1058C00081E0CDB7DEB7ECE0A7C3A0E2B0E0EAE646
:1058D000FCE282C34C015B017A018E010F5F1F4F16
:1058E000680180E2F80111928A95E9F7F40163807A
:1058F00040E050E0712C412C80E0A1E0B0E0F901E3
:1059000063FC559063FE51908F01952D9F015110BE
:1059100003C080E090E07EC0FEE55F1203C0411549
:10592000510561F1682F70E0641775074CF46DE55F
:10593000561669F1EDE25E1203C0442009F103C07E
:10594000411001C0752C692F669566956695F60124
:10595000E60FF11D692F67708D0102C0000F111F46
:105960006A95E2F7B8017081672B6083971559F04B
:10597000971510F49F5FE7CF9150E5CF81E004C009
:105980004424439401C0412C4F5F5F4FB8CF442063
:1059900019F09E8190629E83811103C077247394D5
:1059A00018C0F6019E012F5D3F4F80818095819345
:1059B000E217F307D1F7F2CFE114F10429F0F70170
:1059C0008083C70101967C0191E0A91AB108712C6E
:1059D000D9F0C40149D797FD15C0282F26952695E3
:1059E0002695F601E20FF11D208130E0AC014770F1
:1059F000552702C0359527954A95E2F720FDDCCF63
:105A0000B401D3D7711085CFE114F10411F0F7017F
:105A10001082C801A096E0E1FBC2A6E0B0E0E2E19E
:105A2000FDE2D8C25C017B011A011ED79E838D83E3
:105A300099278B32910521F08D9781F410E801C0F0
:105A400010E021E0E21AF10811F480E01EC1C50166
:105A50000BD79E838D8397FF02C0F7CF10E08D8117
:105A60009E81CBD68936910549F08E36910509F095
:105A700038C064E4862E6DE0962E04C077E4872E4D
:105A80007DE0972EEFEF8E1A9E0AF4013197049174
:105A90000023B1F081E0E81AF10859F0C501E4D61D
:105AA0006C0197FD06C0A9D6081761F3B501C601C0
:105AB0007CD79AE489169DE0990609F0C6CF05C007
:105AC000F7E48F16FDE09F0629F080E090E0A0E863
:105AD000BFE704C080E090E0A0ECBFE7BC01CD01CF
