:100000000C949D070C94E5070C94BA070C94BA075E
:100010000C94BA070C94BA070C94110B0C94BA0701
:100020000C94BA070C94BA070C943D0A0C94FE0980
:100030000C94BA070C94BA070C94BA070C94BA073C
:100040000C94BA0A0C94BA070C94B2260C9441276B
:100050000C9481270C9468090C94BA070C94BA0785
:100060000C94EF280C94BA07DD15EB15F91507165B
:100070001516231631163F164D165B1669167716A0
:1000800085161929DB29DB29DB29DB29DB29DB297B
:10009000DB291F29DB29DB29DB29DB29DB29DB29FC
:1000A000DB293329DB29DB29DB29DB29DB29DB29D8
:1000B000DB295929DB29DB29DB29DB29DB29DB29A2
:1000C000DB297929DB29DB29DB29DB29DB29DB2972
:1000D000DB29A429DB29DB29DB29DB29DB29DB2937
:1000E000DB29DB29DB29DB29DB29DB29DB29DB29F0
:1000F000DB293329DB29DB29DB29DB29DB29DB2988
:10010000DB295929DB29DB29DB29DB29DB29DB2951
:10011000DB29A929DB29DB29DB29DB29DB29DB29F1
:10012000DB29A92907634236B79BD8A71A39685635
:1001300018AEBAAB558C1D3CB7CC5763BD6DEDFD09
:10014000753EF6177231BF000000803F08000000C6
:10015000BE922449123EABAAAA2ABECDCCCC4C3EBC
:1001600000000080BEABAAAAAA3E00000000BF00AB
:100170000000803F0000000000084178D3BB4387A7
:10018000D1133D190E3CC3BD4282AD2B3E68EC82BB
:1001900076BED98FE1A93E4C80EFFFBE01C4FF7F40
:1001A0003F00000000006E616E00696E6600004056
:1001B0007A10F35A00A0724E18090010A5D4E80076
:1001C00000E87648170000E40B54020000CA9A3B8E
:1001D000000000E1F5050000809698000000404214
:1001E0000F000000A08601000000102700000000A2
:1001F000E803000000006400000000000A000000A6
:1002000000000100000000002C76D888DC674F0851
:1002100023DFC1DFAE59E1B1B796E5E3E453C63A57
:10022000E651997696E8E6C28426EB898C9B62EDCE
:10023000407C6FFCEFBC9C9F40F2BAA56FA5F49088
:10024000055A2AF75C936B6CF9676DC11BFCE0E4FF
:100250000D47FEF520E6B500D0ED902E0300943555
:1002600077050080841E080000204E0A000000C8A8
:100270000C333333330F986E12831141EF8D2114F9
:10028000893BE65516CFFEE6DB18D1844B381BF7C9
:100290007C1D901DA4BBE424203284725E22810068
:1002A000C9F124ECA1E53D2724474C4753562C25A2
:1002B0002A642C312C25642C002447504753562C9B
:1002C000252A642C312C25642C00244750524D43A0
:1002D0002C256C642E25642C252A632C25662C2560
:1002E000632C25662C25632C252A662C252A662C52
:1002F000256C642C2C2C252A632A25640025662C69
:1003000025662C25662A2564002447504753412C36
:10031000252A632C25642C002447504747412C256F
:100320006C642E25642C25662C25632C25662C25D3
:10033000632C25642C25642C25662C25662C252A07
:10034000632C252A662C252A632C252A642C252A31
:10035000642A256400436F6D6D756E69636174690D
:100360006F6E2062617564207261746520736574BC
:1003700020746F2025357520626175642E0A004453
:1003800046344941482C25732C253035752C56327E
:100390003025303375253033752E002353433032EA
:1003A0003A20733D3078253032782C64533D2575E2
:1003B0002C69503D25752C65533D25752C61413DBB
:1003C00025752C6141563D25752C64413D25752CC4
:1003D0006441563D25750A0023534330313A20537A
:1003E0007461636B2D436865636B3A206D756E674E
:1003F0002D77616C6C20616464726573733A203090
:1004000078253034782C206C6F776573742D737475
:1004100061636B3A203078253034780A00256325F3
:1004200030372E336620256325352E33665620005F
:1004300025632531752025632531752025332E311F
:1004400066202563253032752563253032752000FE
:10045000253032752E253032752E205525303275D7
:100460003A253032753A25303275200062202D2D24
:100470002D2E2D2D2D202563253158202563253047
:10048000327520002563252030382E336620256301
:1004900025315820256325303275200031304D48F4
:1004A0007A5265664F73632056327831002B3D3D9A
:1004B0003D20444634494148203D3D3D2B002349E1
:1004C0004131323A2050484153452066617374509F
:1004D000776D53696E676C65446966665F737465B2
:1004E0007073203D20252B30332E33660A002349BC
:1004F0004131313A2050484153452070686173655D
:1005000045727220203D202530332E3366C2B02C38
:100510002009207068617365537465707346726555
:100520007175656E6379203D20252B30332E33663F
:100530002C2009706861736553746570735068612D
:100540007365203D20252B30332E33660A00234966
:100550004130333A205152472020206E6577507742
:100560006D56616C203D202530332E33662C2009DA
:1005700070776D436F725374657073202020202054
:10058000202020203D20252B30332E33660A0023E7
:10059000494130323A20436C6F636B206C6F63616A
:1005A0006C4D65616E466C6F6174436C6F636B4438
:1005B000696666203D20252B30332E3366487A202D
:1005C0004032304D487A2C20097172674465765F5D
:1005D000487A203D20252B30332E3366487A204040
:1005E00031304D487A2C200970706D203D20252B2C
:1005F00030322E36660A0023494130313A20436CAE
:100600006F636B20696E7432304D487A436C6F6350
:100610006B44696666202020202020203D20202079
:10062000252B30346C69487A204032304D487A0AA4
:100630000023494430323A202B2F2D204B4559209E
:10064000096D61696E50776D5465726D696E616C8C
:1006500041646A203D2025662C20096C6F63616C23
:100660004661737450776D56616C4E657874203DA9
:100670002025303375202B206C6F63616C466173CD
:100680007450776D537562436D704E657874203D7C
:1006900020253033750A0023494430313A202B2F6E
:1006A0002D204B455920096D61696E50776D546559
:1006B000726D696E616C41646A203D2025662C2054
:1006C0000970756C6C50776D56616C4265666F721F
:1006D00065202020203D2025303375202B206661A9
:1006E000737450776D537562436D704265666F72B7
:1006F00065202020203D20253033750A00235441F9
:1007000031343A206D61696E526566436C6B537487
:10071000617465203D2030782531580A002354410A
:1007200031333A2050574D203D20253033752C2051
:10073000095375622D50574D203D20253033750AE1
:100740000023544131323A207070735374616D70DC
:10075000437472316D7320203D202530396C752C27
:1007600020097070735374616D70494352312020B9
:10077000203D20253035752C20097070735374612D
:100780006D70437472316D735F6C61737420203DC2
:10079000202530396C752C20097070735374616D8D
:1007A00070494352315F6C6173742020203D2025D5
:1007B0003035750A0023544131313A206C6F636142
:1007C0006C46617374437472316D73203D20253023
:1007D000396C752C20096C6F63616C4661737454BD
:1007E000434E5431203D20253035750A00235441B5
:1007F00030333A2054656D70203D2025303475200B
:100800002825302E316643290A0023544130323ADC
:100810002041444331203D202530347520282530A7
:100820002E336656290A0023544130313A20414480
:100830004330203D2025303475202825302E336666
:1008400056290A0023475030353A204C6174203D28
:10085000202563202530392E34662C204C6F6E20E5
:100860003D20256320253031302E34662C2048650C
:1008700069676874203D20252E3166206D0A0023AB
:10088000475030343A2050444F50203D20252E32DE
:10089000662C2048444F50203D20252E32662C20C7
:1008A00056444F50203D20252E32662C0A00234707
:1008B0005030333A205361747355736564203D2082
:1008C000253032642C2053617473457068696D5F04
:1008D00047707347616C696C656F517A7373203D23
:1008E00020253032642C2053617473457068696D23
:1008F0005F476C6F6E617373203D20253032640A50
:100900000023475030323A204D6F646532203D203D
:100910002531642C20506F73466978496E64203D00
:10092000202531640A0023475030313A2044617455
:1009300065203D202530386C642C2054696D65207D
:100940003D202530366C642E253033640A000A239E
:10095000475030303A203D3D3D3D3D3D3D00245027
:100960004D544B3335332C312C312A33370D0A009B
:1009700024504D544B3335332C312C302A33360D23
:100980000A0024504D544B3335332C302C302A334D
:10099000370D0A0024504D544B3136312C302A3259
:1009A000380D0A0024504D544B3130322A33310D6A
:1009B0000A000A3D3D3D20444634494148202D204F
:1009C0003130204D487A205265666572656E6365E8
:1009D000204F7363696C6C61746F72203D3D3D0AFA
:1009E0003D3D3D205665723A203230253033642536
:1009F000303364000A2A3F2A2020756E6B6E6F77B1
:100A00006E20636F6D6D616E6420272573272072E1
:100A1000656365697665642C207472792048454C5D
:100A2000502E0A3E000A3D3D3D3D3D3D3D3D3D3D94
:100A30003D0A3E000A2B2F2D203C50574D20766159
:100A40006C75653E0909636F7272656374696F6ED8
:100A50002076616C756520746F2062652061646426
:100A600065642E000A575249544550574D090909EB
:100A700073746F72652063757272656E742050575F
:100A80004D2061732064656661756C742076616CBD
:100A900075652E0A575249544554454D50203C54D3
:100AA000454D502076616C75653E09097772697411
:100AB000652063757272656E742074656D70657201
:100AC00061747572652061732064656661756C740C
:100AD0002076616C75652E000A5445535409090946
:100AE00009746F67676C657320636F756E746572E8
:100AF00020746573742E000A535441434B0909094D
:100B000009746F67676C657320737461636B206D24
:100B1000756E672D77616C6C20746573742E000A96
:100B20005345524F4646090909097377697463684A
:100B30002073657269616C20636F6D6D756E69639A
:100B40006174696F6E204F46462E0A5345524F4ED0
:100B500009090909737769746368207365726961AB
:100B60006C20636F6D6D756E69636174696F6E2063
:100B70004F4E2E000A53455242415544203C62617B
:100B800075643E09090973657474696E672073653D
:100B90007269616C206261756420726174652E00F7
:100BA0000A4C45444F46460909090973776974633D
:100BB00068206261636B6C69676874204F46462EDB
:100BC0000A4C45444F4E09090909737769746368F3
:100BD000206261636B6C69676874204F4E2E000A57
:100BE000494E464F09090909746F67676C657320A0
:100BF0006164646974696F6E616C207072696E748F
:100C0000656420696E666F732E000A48454C500972
:100C100009090974686973206D6573736167652ECE
:100C2000000A48414C5409090909706F77657273CD
:100C3000207468652064657669636520646F776EEB
:100C40002028736C656570206D6F6465292E000A1D
:100C50004150434F4646090909097377697463682F
:100C60002041504320286175746F6D617469632061
:100C7000706861736520636F6E74726F6C29206F8A
:100C800066662E0A4150434F4E0909090973776978
:100C90007463682041504320286175746F6D6174DE
:100CA000696320706861736520636F6E74726F6C26
:100CB00029206F6E2E000A4146434F464609090916
:100CC000097377697463682041464320286175740D
:100CD0006F6D61746963206672657175656E6379A5
:100CE00020636F6E74726F6C29206F66662E0A41E6
:100CF00046434F4E090909097377697463682041B7
:100D0000464320286175746F6D6174696320667253
:100D1000657175656E637920636F6E74726F6C298F
:100D2000206F6E2E000A3D3D3D2048454C50203D31
:100D30003D3D0A0A24203C4E4D45412D4D657373BF
:100D40006167653E090973656E6473206D65737331
:100D500061676520746F2074686520475053206D6B
:100D60006F64756C652E002A49444E3F0057524906
:100D7000544554454D5000575249544550574D0025
:100D80005445535400535441434B005345524F4E26
:100D9000005345524F464600534552424155440088
:100DA0004C45444F4E004C45444F464600494E4644
:100DB0004F0048454C500048414C54004150434F6F
:100DC0004E004150434F4646004146434F4E00417E
:100DD00046434F4646004446344941482031304D51
:100DE000687A2D52656646AB000001FFFFFFFFFFEA
:100DF000FFFF00000CB0A52C8F4048E18A3F008027
:100E0000AF4300A0873FFFFFFFFFFFFFFFFFFFFF94
:100E1000FFFF00001CB0CDCC94C05C8FC23FB81E59
:100E2000053DFFFFFFFFFFFF713D8A3F3333134056
:100E3000780000002CB08025080100000000FFFFB2
:100E4000FFFFFFFFFFFFFFFFFFFFFFFFFFFFFFFFB2
:100E5000FFFF00003CB000000000FFFFFFFFFFFFAE
:100E6000FFFFFFFFFFFFFFFFFFFFFFFFFFFFFFFF92
:100E7000FFFF00004CB00902190001010080690960
:100E800004000001FF0000000705810308000A12AA
:100E9000011001FF000008C016DC0500010102037B
:100EA000011003500072006F0074006F002D0031BC
:100EB000002A034400460034004900410048002D48
:100EC00000310030004D0048007A002D00520065CE
:100ED0000066002D004F00730063000E03440046BF
:100EE00000340049004100480004030904636469B8
:100EF0006E6F70737578585B65666745464700612D
:100F00006E006E66696E69747900CDCCCC3D0AD7EF
:100F1000233C17B7D13877CC2B329595E6241FB1F7
:100F20004F0A000020410000C84200401C4620BC7F
:100F3000BE4CCA1B0E5AAEC59D7411241FBECFEF06
:100F4000D8E0DEBFCDBF11E0A0E0B1E0E8E2FDE710
:100F500002C005900D92A631B107D9F728E0A6E1AD
:100F6000B1E001C01D92A632B207E1F70E94332121
:100F70000C94923E0C940000A82FB92F8FEF9FEF96
:100F80001BC02D918227282F22952827722F269566
:100F900026952727239526952170782F892F82273C
:100FA0002195207C922F22277695279597278227B7
:100FB0007695279597278227615018F78095909509
:100FC0000895DADF8D939D930895CF93CFB7CF9394
:100FD000DF93C395339BE9F7339B11C0339B0FC05D
:100FE000339B0DC0339B0BC0339B09C0339B07C0A1
:100FF000339B05C0339B03C0339B01C083C06F93F9
:10100000C0910908DD27C05FD74F2F9320E400C0AF
:1010100065E0339B03C02F916F91DECF0F931F9339
:101020004F9345E55F9355E53F933BE014E006B1F0
:101030000C702EC06A95C9F03150D8F106B10C7011
:1010400001130BC008942795299320E4555500F40B
:101050006A9569F701E066B10BC0102F66E026952E
:10106000299320E4555518F3E2CF0FEF66B1000045
:10107000162F455500F0404066E01C700030E2F24B
:1010800021F0000006B10C7003C006B10C70A9F08D
:10109000011309C00894279568F200C06A95A9F762
:1010A00000E066B1E5CF102F66E0269528F200003B
:1010B000ECCF11E01CBB002719C03B503195C31B7E
:1010C000D04011E01CBB0881033C09F10B34F9F05E
:1010D000209107081981110F1213EDCF4A81441F87
:1010E000093651F10D3211F0013E29F700930E0837
:1010F0003F915F914F911F910F912F916F91CCB3C1
:10110000C0FD67CFDF91CF91CFBFCF9118952091D0
:101110000E08222369F310910C08112381F5343055
:1011200082F130930C0820930808109109083BE0E5
:10113000311B3093090825C000910C080130FCF4E4
:101140000AE54F7049F430910E0134FD1BC0009345
:101150000E01CCEFD7E01AC030918F0534FD12C0DC
:1011600000938F05C0E9D5E011C0052710E000C04D
:1011700008B919C0052710E0221F00C01DC04AE5AC
:1011800002C032ED432FC4E1D0E032E017B11C6061
:10119000439A08B117B95CE020E869E420FF05270D
:1011A00008B92795179500C000001C3FF0F666951A
:1011B000A8F7A1F720FF052708B927951795000084
:1011C0001C3FC0F629913A9541F7037F10910D0815
:1011D000110F08B9C651D04011F01093070811E063
:1011E0001CBB086017B1137F402F437F55E05A9511
:1011F000F1F708B917B948B97BCFCF93DF93EC016A
:1012000080E07FEF20C02F3F9FE639074105510561
:1012100030F4F901A591B4919A2FAB2F02C0972F0A
:10122000A72FFE01E80FF11D9083613071F091E06E
:10123000980FFE01E90FF11DA0832E5F3F4F4F4F26
:101240005F4F62508E5F6111DECFDF91CF910895C5
:10125000E4E6F0E080818E7F808310922A05EFE73C
:10126000F0E080818360808383E080937E00EBE701
:10127000F0E080818F7B8083EAE7F0E080818768FF
:10128000808380B787E180BF81E180932B0581E473
:1012900080937C00808180658083808188608083EA
:1012A000089580B78777806880BF87E080937A0051
:1012B00010927B0010927C00E4E6F0E08081816077
:1012C00080830895EAE7F0E0808180648083089558
:1012D0001F920F920FB60F9211242F933F934F93AB
:1012E0005F936F937F938F939F93AF93BF93EF938E
:1012F000FF938091780020917900789490E0922B70
:1013000020912B05283091F128F42223E1F021309F
:1013100041F030C02131B9F1283111F1203151F5BE
:101320000DC090938C0380938B0380E180932B05F9
:1013300080E480937C000E9462092DC010922B05EE
:101340000E94620928C090938A038093890388E1F0
:1013500080932B0588EC80937C000E9462091BC05F
:1013600088E080932B050E94620915C090938E033C
:1013700080938D0381E180932B0581E480937C0031
:101380000E94620908C081E080932B0580912A05A4
:101390008F5F80932A05FF91EF91BF91AF919F914D
:1013A0008F917F916F915F914F913F912F910F900E
:1013B0000FBE0F901F901895E4E6F0E08081877FC4
:1013C000808310928500109284008EE480938900BF
:1013D0008FE1809388001092800089E480938100DF
:1013E00082E280936F00089510926F001092810046
:1013F000E4E6F0E080818860808308951F920F9278
:101400000FB60F9211242F933F938F939F93AF9317
:10141000BF938091370590913805A0913905B0911F
:101420003A050196A11DB11D8093370590933805AB
:10143000A0933905B0933A0578948091000186FF16
:1014400011C0F8948DB72EB7789490E0922B20912C
:101450000601309107018217930720F4909307014A
:1014600080930601BF91AF919F918F913F912F91F2
:101470000F900FBE0F901F9018951F920F920FB6EE
:101480000F9211242F934F935F936F937F938F93BA
:101490009F93EF93FF938091860020918700409166
:1014A0003705509138056091390570913A05789467
:1014B000EAE7F0E0908190649083F89490E0922BBA
:1014C0009093400580933F0540933B0550933C0526
:1014D00060933D0570933E057894FF91EF919F9145
:1014E0008F917F916F915F914F912F910F900FBED0
:1014F0000F901F901895E4E6F0E080818F7D808347
:1015000016BC8AE588BD83E284BD81E085BD559A1D
:1015100082E00E94E9228823C9F04AE550E061E0B8
:1015200082E495E00E94C3224BE550E061E081E453
:1015300095E00E94C3228FB7F89490914205909352
:10154000360590914105909335058FBFA89AEEE638
:10155000F0E0808181608083089510926E0055983C
:1015600015BC14BC18BC16BCE4E6F0E080818062B7
:10157000808308951F920F920FB60F9211248F93BC
:101580009F93789480913405882361F0F89480913A
:10159000330588BD8091320580933105789410928F
:1015A000340509C0F8948091360588BD80913505D1
:1015B000809331057894F8949091300580913105AD
:1015C000981718F488B58F5F88BD7894809130059E
:1015D0008F5F809330059F918F910F900FBE0F907A
:1015E0001F901895EF92FF921F93CF93DF9300D037
:1015F000CDB7DEB7182F7B010E948B229A83898397
:10160000A70162E0CE0101960E942A23812F0E9449
:1016100088230F900F90DF91CF911F91FF90EF9053
:10162000089518954F925F926F927F928F929F923A
:10163000AF92BF92CF92DF92EF92FF920F931F93E0
:10164000CF93DF934B015C017A016901FA0160815C
:1016500070E080E090E00E94CE302B013C01F6016A
:10166000608170E080E090E00E94CE3020E030E0C9
:1016700040E85BE30E94DB319B01AC01C301B20196
:101680000E94B32F9B01AC01C501B4010E94B32F8E
:10169000062FD72FC82F192F20E030E0A9010E9474
:1016A0001F308823FCF020E03FEF4EE753E4602F2B
:1016B0007D2F8C2F912F0E94D6311816E4F420E054
:1016C0003FEF4EE753E4602F7D2F8C2F912F0E9428
:1016D000B22F962EA72EB82E892E00E0DFEFCEE790
:1016E00013E40DC0902EAD2EBC2E812E00E0D0E074
:1016F000C0E010E004C0912CA12CB12C812C20E082
:1017000030E040E05BE3602F7D2F8C2F912F0E9413
:10171000B32F2B013C010E949D30F7016083C30170
:10172000B2010E9409319B01AC01C301B2010E94C8
:10173000B22F20E030E040E853E40E94DB310E9409
:101740009D30F6016083692D7A2D8B2D982DDF91C8
:10175000CF911F910F91FF90EF90DF90CF90BF90AE
:10176000AF909F908F907F906F905F904F90089573
:10177000CF92DF92EF92FF920F931F93CF93DF935D
:1017800000D0CDB7DEB76B017C01142F20E030E034
:10179000A9010E941F30882341F10FB7F89480916E
:1017A00036058A838091350589830FBF9E012F5F9F
:1017B0003F4FAE014E5F5F4FC701B6010E94120B53
:1017C000F894111107C02A812093360529812093AE
:1017D000350509C02A8120933305298120933205DC
:1017E00021E0209334050FBF03C060E070E0CB011F
:1017F0000F900F90DF91CF911F910F91FF90EF907D
:10180000DF90CF900895CF92DF92EF92FF92CF9327
:101810008FB7F894C09134058FBFC0902C05D0903D
:101820002D05E0902E05F0902F0520E030E0A90175
:10183000C701B6010E941F30882379F0C1110DC085
:1018400041E0C701B6010E94B80B60932C0570936C
:101850002D0580932E0590932F05CF91FF90EF904B
:10186000DF90CF9008950F931F93CF93DF938C0158
:10187000EA019A01AB016FE873E081E00E946922FE
:10188000AE016FE873E0C8010E94073DDF91CF9180
:101890001F910F9108950F931F93CF93DF938C01A6
:1018A000EA019A01AB016FE873E081E00E946922CE
:1018B000AE016FE873E0C8010E94F13CDF91CF9167
:1018C0001F910F910895CF92DF92EF92FF92C090F7
:1018D0005505D0905605E0905705F09058052FEF2C
:1018E000C21AD20AE20AF20AC701B60124E630E0BF
:1018F00040E050E00E94683B6C3371058105910522
:101900004CF4C0925505D0925605E0925705F092DE
:10191000580511C0C61AD70AE80AF90A84E6C80EA3
:10192000D11CE11CF11CC0925505D0925605E092E5
:101930005705F0925805C0905505D0905605E09097
:101940005705F0905805C701B60120E137E240E0A5
:1019500050E00E94683B683427E1720781059105D9
:1019600094F0C61AD70AE80AF90A80E1C80E87E29D
:10197000D81EE11CF11CC0925505D0925605E0928C
:101980005705F0925805FF90EF90DF90CF900895A3
:101990008F929F92AF92BF92CF92DF92EF92FF927F
:1019A0000F931F93CF93DF932DE330E048E153E093
:1019B0006FE873E081E00E94692283E495E09F93E1
:1019C0008F9385E495E09F938F9381E695E09F93B5
:1019D0008F9389E695E09F938F938FE695E09F9391
:1019E0008F9389E495E09F938F938AE495E09F938A
:1019F0008F938EE495E09F938F938FE495E09F9370
:101A00008F9383E595E09F938F9385E595E09F9372
:101A10008F930FE813E01F930F93C1E1D2E0DF93A0
:101A2000CF930E94E93D2FE030E049E053E0B80158
:101A300081E00E94692281E795E09F938F931F9335
:101A40000F93DF93CF930E94E93D2DB73EB7205E01
:101A50003F4F0FB6F8943EBF0FBE2DBF18161906A4
:101A60000CF066C00E94630C809171059091720524
:101A70000297029720F01092720510927105E09182
:101A80001D05CE2FD0E0219739F1DE01AF5EBD4FAD
:101A90008C918A3241F403C082918A3239F41C1647
:101AA0001D063CF019C0F0E0E05FFD4F2197A1F763
:101AB00013C0FE01EE5EFD4FCE0140E050E02291EA
:101AC0002C3241F44F5F5F4F4330510519F4EC0164
:101AD000219602C0019799F72CE030E04DEF52E0DB
:101AE0006FE873E081E00E94692283E495E09F93B0
:101AF0008F938DE595E09F938F9381E695E09F937B
:101B00008F9385E695E09F938F938FE893E09F9363
:101B10008F93CF5EDD4FDF93CF930E94E93D2DB7CA
:101B20003EB7245F3F4F0FB6F8943EBF0FBE2DBFA8
:101B300023E330E04AEC52E06FE873E081E00E947A
:101B4000692283E495E09F938F9389E595E09F93C5
:101B50008F9389E495E09F938F938AE495E09F9318
:101B60008F938EE495E09F938F938FE495E09F93FE
:101B70008F9383E595E09F938F9385E595E09F9301
:101B80008F938FE893E09F938F9381E192E09F93EF
:101B90008F930E94E93D2DB73EB72C5E3F4F0FB6A5
:101BA000F8943EBF0FBE2DBF181619060CF044C0A6
:101BB0000E94630CC0905905D0905A05E0905B05D7
:101BC000F0905C05D701C60180549041A109B1098C
:101BD000833C9F4AA440B10538F5C701B60124E60D
:101BE00030E040E050E00E94683B4B015C01A701FF
:101BF0009601261B370B480B590BA4E6B0E00E9458
:101C00009C3BDC01CB018053984FAF4FBF4F880DF9
:101C1000991DAA1DBB1D8093590590935A05A09349
:101C20005B05B0935C0508C01092590510925A05E7
:101C300010925B0510925C0521E130E049EB52E027
:101C40006FE873E081E00E9469228DE695E09F9342
:101C50008F930FE813E01F930F93C1E1D2E0DF935E
:101C6000CF930E94E93D21E130E048EA52E0B8011B
:101C700081E00E9469228BE695E09F938F931F93EA
:101C80000F93DF93CF930E94E93D8DB79EB70C96DB
:101C90000FB6F8949EBF0FBE8DBFDF91CF911F91FD
:101CA0000F91FF90EF90DF90CF90BF90AF909F90FB
:101CB0008F9008954F925F926F927F928F929F9232
:101CC000AF92BF92CF92DF92EF92FF92CF93DF93CA
:101CD0008091000188234CF00E94F4290E94942AEC
:101CE0008091000188230CF0FCC12FB7F8948091FB
:101CF000370590913805A0913905B0913A052FBF6D
:101D000089389341A105B10548F521E130E04DEA5C
:101D100054E06FE873E081E00E94692260E080E0B7
:101D20000E944B2B60E18FE893E00E947F2B0E9482
:101D3000282E21E130E04CE954E06FE873E081E0C7
:101D40000E94692260E081E00E944B2B60E18FE8F5
:101D500093E00E947F2B0E94282EC3C180919F0593
:101D6000882309F442C028E130E044E854E06FE8F9
:101D700073E081E00E94692280916A058F938091CF
:101D800069058F931F9283EF8F9380919F051F9218
:101D90008F931F9280EE8F9320E030E44CE955E45E
:101DA00060917F05709180058091810590918205F9
:101DB0000E94DB319F938F937F936F931F9282E6F4
:101DC0008F938FE893E09F938F938FE094E09F939E
:101DD0008F930E94C63DC82F8DB79EB742960FB60F
:101DE000F8949EBF0FBE8DBF2CC028E130E04CE6BA
:101DF00054E06FE873E081E00E94692280916A05F7
:101E00008F93809169058F931F9283EF8F938091B9
:101E10009F051F928F931F9280EE8F938FE893E020
:101E20009F938F938FE094E09F938F930E94C63D82
:101E3000C82F8DB79EB70C960FB6F8949EBF0FBEF5
:101E40008DBF60E080E00E944B2B6C2F8FE094E010
:101E50000E947F2B0E94282E80912E01813009F450
:101E600074C0823009F4C7C08090590590905A051B
:101E7000A0905B05B0905C054090550550905605CC
:101E800060905705709058052CE130E040E554E033
:101E90006FE873E081E00E9469220F2EF4E6CF2EF6
:101EA000D12CE12CF12CF02DC301B201A701960138
:101EB0000E94683B1F926F93CA01B901A701960166
:101EC0000E94683B1F926F93C301B20120E137E289
:101ED00040E050E00E94683B1F922F93C501B4017F
:101EE00020E137E240E050E00E94683BCA01B901BE
:101EF000A70196010E94683B1F926F93C501B40130
:101F000020E432E44FE050E00E94683B1F922F93A0
:101F10008FE893E09F938F938FE094E09F938F934C
:101F20000E94C63DC82F60E081E00E944B2B6C2FC1
:101F30008FE094E00E947F2B8DB79EB70E960FB670
:101F4000F8949EBF0FBE8DBFB2C020E230E040E3E8
:101F500054E06FE873E081E00E94692280916C0593
:101F60008F9380916B058F931F928BEE8F9380914F
:101F70006E058F9380916D058F931F928FED8F93D8
:101F8000809168058F93809167058F938091660596
:101F90008F93809165058F93809170058F938091C9
:101FA0006F058F931F9286E48F93809172058F93B4
:101FB000809171058F931F928DE48F938FE893E04A
:101FC0009F938F938FE094E09F938F930E94C63DE1
:101FD000C82F60E081E00E944B2B6C2F8FE094E0D3
:101FE0000E947F2B8DB79EB748960FB6F8949EBF80
:101FF0000FBE8DBF5CC08FB7F894D0913605C091ED
:1020000035058FBF23E130E04DE154E06FE873E028
:1020100081E00E94692280917E058F9380917D05E9
:102020008F9380917C058F9380917B058F931F9276
:102030008BEA8F936D2F70E080E090E00E94CE30AD
:102040006B017C016C2F70E080E090E00E94CE304C
:1020500020E030E040E85BE30E94DB319B01AC0113
:10206000C701B6010E94B32F9F938F937F936F9305
:102070001F9280E58F938FE893E09F938F938FE07B
:1020800094E09F938F930E94C63DC82F60E081E04B
:102090000E944B2B6C2F8FE094E00E947F2B8DB71A
:1020A0009EB740960FB6F8949EBF0FBE8DBF0E949C
:1020B000282E80912D018F5F833018F480932D019D
:1020C00010C010922D0190912E019F5F8BEA989F76
:1020D000812D11248695282F220F820F981B909313
:1020E0002E01DF91CF91FF90EF90DF90CF90BF90C6
:1020F000AF909F908F907F906F905F904F900895DA
:102100004F925F926F927F928F929F92AF92BF9207
:10211000CF92DF92EF92FF920F931F93CF93DF93B3
:102120008091010180FF0E94CA2B2FB7F894C091C3
:102130009F05609177057091780580917905909160
:102140007A052FBF2AE939E949E15FE30E94B22FFE
:1021500020E030E044E353E40E94DB3120E030E053
:1021600040E850E40E94DB3120E030E048EC52E4EB
:102170000E94DB310E9496308C2F0E94CD2B8FB7AE
:10218000F894C0905905D0905A05E0905B05F09006
:102190005C058FBFC701B60120E432E44FE050E098
:1021A0000E94683BC22F0F2EF0E18F2EF7E29F2E88
:1021B000A12CB12CF02DC701B601A50194010E94FC
:1021C000683B2B013C010F2EF4E6CF2ED12CE12CE5
:1021D000F12CF02DCA01B901A70196010E94683BBC
:1021E0004C2FC2010E94D92B8FB7F894409055050F
:1021F0005090560560905705709058058FBFC301E9
:10220000B201A70196010E94683BD62FCA01B9010D
:10221000A70196010E94683BC62FC301B201A50128
:1022200094010E94683B822F4D2F6C2F0E94E62B59
:102230008FB7F894C0907F05D0908005E09081051D
:10224000F09082058FBF20E030E0A901C701B60100
:102250000E94D63118165CF420E030E040EA50E4E9
:10226000C701B6010E94DB312B013C010AC020E00E
:1022700030E040EA50ECC701B6010E94DB312B018F
:102280003C01C301B2010E9496304B015C01EB019D
:10229000072E000C880B990B0E94CE309B01AC01DD
:1022A000C301B2010E94B22F20E030E04AE754E4BB
:1022B0000E94DB310E949D302B013C0120E030E088
:1022C000A901C701B6010E941F30882324F4CC273E
:1022D000DD27C819D909B201CE010E94F22B9FB7A0
:1022E000F89480913605609135059FBF0E94FF2BC1
:1022F0008FB7F894C0907B05D0907C05E0907D0569
:10230000F0907E058FBFC701B6010E949D30C62F99
:1023100070E080E090E00E94CE309B01AC01C701EC
:10232000B6010E94B22F20E030E04AE754E40E9458
:10233000DB310E949D308C2F0E940A2C9FB7F894AD
:1023400080916D0560916B05409169059FBF0E946A
:10235000162C2FB7F89460916505709166058091F1
:102360006705909168052FBF20E030E048EC52E40B
:102370000E94DB310E949D30CB010E94222C9FB72E
:10238000F89480916F05609171059FBF0E942D2C7C
:102390008FB7F89450904E0580904F05909050055F
:1023A000A0905105B09052058FBF20E030E048EC7E
:1023B00052E4C501B4010E9424300E949D30662E73
:1023C000C501B4010E94963004E610E0CB01B801CB
:1023D0000E94323BEC010F2EF4E67F2EF02D6C01B3
:1023E000DD24769CC00CD11C1124B601DD0C880BB9
:1023F000990B0E94CE309B01AC01C501B4010E9433
:10240000B22F20E030E04AE754E40E94DB310E9422
:102410009D309B014C2F662D852D0E94382C8FB747
:10242000F894C0914905C0904A05D0904B05E090C2
:102430004C05F0904D058FBF20E030E048EC52E4B1
:10244000C701B6010E9424300E949D304B015C01FF
:10245000C701B6010E949630CB01B8010E94323B01
:10246000D82F789C8001799C100D1124080F111D24
:10247000B80180E090E00E94CC309B01AC01C70124
:10248000B6010E94B22F20E030E04AE754E40E94F7
:10249000DB310E949D309B014D2F682D8C2F0E94B7
:1024A000462CCFB7F8946091450570914605809110
:1024B0004705909148050E949630CFBFCB010E94FE
:1024C000542CDF91CF911F910F91FF90EF90DF90EF
:1024D000CF90BF90AF909F908F907F906F905F90C4
:1024E0004F90089525E042EB5DE061E081E00E94BD
:1024F0008C2508952F923F924F925F926F927F9218
:102500008F929F92AF92BF92CF92DF92EF92FF9203
:102510000F931F93CF93DF93CDB7DEB760970FB6BE
:10252000F894DEBF0FBECDBFA8950E94282E0E9452
:102530005F2C81E00E94E623882309F4F2C381E046
:102540000E944225182F80E00E94422590910101AF
:1025500096959F7009F015C310FF13C314FF04C0B4
:1025600081E00E946A26DDC3107F11F00C94A9203F
:102570004FE76FE874E081E00E94AF2481E00E94A1
:10258000F72346E050E067E67DE08FE894E00E94A4
:10259000330C892BA1F52CE130E04FE753E06FE8D5
:1025A00073E081E00E9469228091C4059091C50585
:1025B0009C0133273F932F931F929F938091C705D0
:1025C0008F938091C6058F9388EC95E09F938F93AE
:1025D0008FE893E09F938F938FE094E09F938F9386
:1025E0000E94C63D282F4FE054E060E080E00E944A
:1025F0008C250FB6F894DEBF0FBECDBF92C347E067
:1026000050E06FEC7DE08FE894E00E94330C892B62
:1026100031F4E0E0F1E080818E7F808382C346E088
:1026200050E069EC7DE08FE894E00E94330C892B48
:1026300031F4E0E0F1E080818160808372C347E0A3
:1026400050E062EC7DE08FE894E00E94330C892B2F
:1026500031F4E0E0F1E080818D7F808362C346E069
:1026600050E06CEB7DE08FE894E00E94330C892B06
:1026700031F4E0E0F1E080818260808352C345E084
:1026800050E067EB7DE08FE894E00E94330C892BEB
:1026900071F5E0E0F1E080818B7F808380818F7E27
:1026A000808380818860808340E164E979E081E013
:1026B0000E94572603C0A8950E94282E0E945026EB
:1026C0008111F9CF19EFA8950E94282E87E893E190
:1026D0000197F1F700C000001150A9F7E0E0F1E028
:1026E0008081877F80838081806280831AC345E0F8
:1026F00050E062EB7DE08FE894E00E94330C892B80
:10270000E1F522E430E042EB59E06FE873E081E06C
:102710000E94692281E08F9386E48F931F928AEA58
:102720008F938FE893E09F938F931F928FE78F9300
:102730008FE094E09F938F930E94963D282F4FE067
:1027400054E060E080E00E948C2522E445E25DE0F8
:1027500061E080E00E948C25E1E0F1E08081817EF3
:1027600082608083E0E0F1E080818F7E80830FB61D
:10277000F894DEBF0FBECDBFD4C245E050E06DEA95
:102780007DE08FE894E00E94330C892BB1F4E0E007
:10279000F1E0808182FB992790F981E0892790817F
:1027A00080FB92F99083808182FFBBC28081877F0A
:1027B000808380818F7E8083B4C247E050E066EAE8
:1027C0007DE08FE894E00E94330C892B99F4198204
:1027D000E1E0F1E080818F71808344E150E061E0CD
:1027E000CE0101960E942A236EE170E080E00E94F3
:1027F000F20A97C246E050E060EA7DE08FE894E09C
:102800000E94330C892BA9F481E08983E1E0F1E097
:1028100080818F718062808344E150E061E0CE016D
:1028200001960E942A236EE170E080E00E94F20A85
:1028300078C247E050E061E97DE08FE894E00E94D3
:10284000330C892B31F4E0E0F1E08081877F8083D5
:1028500068C246E050E06BE87DE08FE894E00E94BB
:10286000330C892B61F4E0E0F1E0808188608083A3
:1028700080818B7F808380818F7E808352C247E0FE
:1028800050E068E97DE08FE894E00E944B0C892BD2
:1028900009F046C082E295E09F938F938FE091E02C
:1028A0009F938F9386E994E09F938F930E94E93DD5
:1028B00080912205909123050E94E52540E650E095
:1028C00062E082E295E00E942A236EE770E083E0F6
:1028D0000E94F20A2AE230E045E553E06FE873E037
:1028E00081E00E946922809123058F9380912205C7
:1028F0008F938FE893E09F938F938FE094E09F9363
:102900008F930E94C63D282F4FE054E060E080E0A6
:102910000E948C250FB6F894DEBF0FBECDBF01C25A
:1029200046E050E065E87DE08FE894E00E94330CDB
:10293000892B69F4E0E0F1E0808186FB992790F92A
:1029400081E08927908180FB96F99083EAC145E078
:1029500050E060E87DE08FE894E00E94330C892B22
:10296000B1F4E0E0F1E0808184FB992790F981E007
:102970008927908180FB94F99083808184FFD1C165
:102980008081877F808380818B7F8083CAC149E07B
:1029900050E067E77DE08FE894E00E94330C892BDC
:1029A000F9F48FB7F8949091360590934205909181
:1029B0003505909341058FBF4AE550E061E082E420
:1029C00095E00E942A234BE550E061E081E495E028
:1029D0000E942A236EE570E082E00E94F20AA1C103
:1029E00049E050E06DE67DE08FE894E00E944B0CFA
:1029F000892B09F05EC019821A821B821C82CE01CB
:102A000001969F938F9382E191E09F938F9388E942
:102A100094E09F938F930E94E93DC980DA80EB8018
:102A2000FC800F900F900F900F900F900F9020E070
:102A300030E0A901C701B6010E941F30882309F4C4
:102A400070C180918D0390918E03BC0180E090E075
:102A50000E94CC304B015C0120E030E048EC51E4B6
:102A6000C701B6010E94B22F2091B4053091B5057F
:102A70004091B6055091B7050E9424309B01AC01EE
:102A8000C501B4010E94B22F6093B8057093B905D7
:102A90008093BA059093BB0548E250E064E088EB70
:102AA00095E00E942A236EE370E081E00E94F20A22
:102AB00038C180918F048B32A9F48BE995E09F9304
:102AC0008F9382E191E09F938F9380E994E09F93AD
:102AD0008F930E94E93D0F900F900F900F900F90F1
:102AE0000F901FC18D3231F58BE995E09F938F9345
:102AF00082E191E09F938F9380E994E09F938F937D
:102B00000E94E93D80919B0590919C05A0919D05B7
:102B1000B0919E05B05880939B0590939C05A0931F
:102B20009D05B0939E050F900F900F900F900F9002
:102B30000F90F7C021E330E044EF59E06FE873E015
:102B400081E00E9469228FE894E09F938F938FE841
:102B500093E09F938F931F928FE78F938FE094E082
:102B60009F938F930E94963D282F4FE054E060E0A2
:102B700080E00E948C250FB6F894DEBF0FBECDBF5B
:102B8000D0C09091010196959F7011F40C94A920EA
:102B900080FF02C00C94A92081E00E94F723E091FD
:102BA0000101E695EF70F0E03197ED30F10508F0A6
:102BB000B3C0EC5CFF4F0C94873B2FE646EB5CE028
:102BC00061E080E00E948C25E1E0F1E08081817E7F
:102BD00084608083A6C027E64FE45CE061E080E08B
:102BE0000E948C25E1E0F1E08081817E8660808317
:102BF00098C02EE241E25CE061E080E00E948C251A
:102C0000E1E0F1E08081817E886080838AC027E1F5
:102C10004AE05CE061E080E00E948C25E1E0F1E0C8
:102C20008081817E8A6080837CC02BE24FED5BE0F7
:102C300061E080E00E948C25E1E0F1E08081817E0E
:102C40008C6080836EC02FE340EA5BE061E080E04F
:102C50000E948C25E1E0F1E08081817E8E6080839E
:102C600060C02CE244E75BE061E080E00E948C25DC
:102C7000E1E0F1E08081817E8061808352C025E5C2
:102C80004FE15BE061E080E00E948C25E1E0F1E053
:102C90008081817E8261808344C028E247EF5AE0D0
:102CA00061E080E00E948C25E1E0F1E08081817E9E
:102CB0008461808336C02FE148ED5AE061E080E016
:102CC0000E948C25E1E0F1E08081817E8661808335
:102CD00028C024E744E65AE061E080E00E948C25A9
:102CE000E1E0F1E08081817E886180831AC020E389
:102CF00044E35AE061E080E00E948C25E1E0F1E0ED
:102D00008081817E8A6180830CC02FE045E25AE099
:102D100061E080E00E948C25E1E0F1E08081817E2D
:102D200080839FB7F8947090840060908500C09075
:102D30003705D0903805E0903905F0903A0580913C
:102D400086003091870040913B0550913C05609191
:102D50003D0570913E059FBF90912A0520912C0161
:102D60002917D9F190932C0110922B0180908B059B
:102D700090908C05A0908D05B0908E058092850571
:102D800090928605A0928705B0928805E09189050A
:102D9000F0918A05F0938405E093830566277727F1
:102DA00040938B0550938C0560938D0570938E0531
:102DB00090E0932B90938A0580938905D701C601F3
:102DC0008E519B4FAF4FBF4F8093270190932801A7
:102DD000A0932901B0932A015FC0809127019091AF
:102DE0002801A0912901B0912A01C816D906EA0646
:102DF000FB06C0F120912B012F5F20932B01253B77
:102E000020F024EB20932B0102C0253050F01092CB
:102E10009F0510927F0510928005109281051092F7
:102E2000820588519C4FAF4FBF4FC816D906EA069E
:102E3000FB0648F48093270190932801A093290171
:102E4000B0932A0129C0D701C6018E519B4FAF4FC5
:102E5000BF4F8093270190932801A0932901B0933D
:102E60002A011AC080911A05823091F40E94C80C80
:102E70008091000183FF08C020911D0541E152E0CF
:102E800060E080E00E948C2510921D0510921A05CA
:102E90000E94030C0C941A2180910301882391F164
:102EA0008F5F80930301853039F44EE064EA79E066
:102EB00081E00E94572626C08A3039F442E162E858
:102EC00079E081E00E9457261DC08B3039F442E141
:102ED00060E779E081E00E94572614C08C3039F415
:102EE00042E16EE579E081E00E9457260BC086340E
:102EF00049F442E16EE579E081E00E9457268AE0DC
:102F00008093030109E813E0D8016D917C918090D2
:102F1000C0059090C105A090C205B090C30580E0A7
:102F200090E00E94CC30A50194010E94DB3120E0AA
:102F300030E040E85AE30E94DB3160937B057093F8
:102F40007C0580937D0590937E05F80162817381F5
:102F500080E090E00E94CC309B01AC01C501B4013F
:102F60000E94DB3120E030E040E85AE30E94DB3190
:102F700060937705709378058093790590937A052F
:102F8000D80114966D917C91159780E090E00E9495
:102F9000CC302091B8053091B9054091BA055091D7
:102FA000BB050E94B22F2091B4053091B505409128
:102FB000B6055091B7050E94DB3120E030E048ECC7
:102FC00051E40E94B32F609373057093740580934E
:102FD0007505909376058091000182FF4EC221E134
:102FE00030E04EE459E06FE074E081E00E94692235
:102FF00021E14FE054E060E080E00E948C2528E26F
:1030000030E046E259E06FE873E081E00E94692217
:10301000809154058F93809153058F93809158052B
:103020008F93809157058F93809156058F93809150
:1030300055058F9380915C058F9380915B058F93ED
:1030400080915A058F93809159058F930F2EFFE839
:10305000AF2EF3E0BF2EF02DBF92AF920FE014E041
:103060001F930F930E94C63D282FA80160E080E0C7
:103070000E948C2525E230E041E059E0B50181E075
:103080000E946922809170058F9380916F058F93C4
:10309000809172058F93809171058F93BF92AF924B
:1030A0001F930F930E94C63D282FA80160E080E087
:1030B0000E948C2523E530E04EEA58E0B50181E01E
:1030C0000E94692280916C058F9380916B058F938C
:1030D00080916E058F9380916D058F9380916A0525
:1030E0008F93809169058F93BF92AF921F930F9337
:1030F0000E94C63D0FB6F894DEBF0FBECDBF282F8D
:10310000A80160E080E00E948C252FE230E04FE7CC
:1031100058E0B50181E00E946922809160058F939B
:1031200080915F058F9380915E058F9380915D05FF
:103130008F93809164058F93809163058F93809125
:1031400062058F93809161058F93809168058F93BD
:10315000809167058F93809166058F9380916505B7
:103160008F93BF92AF921F930F930E94C63D282F5B
:10317000A80160E080E00E948C252BE330E044E46D
:1031800058E0B50181E00E94692210914505009147
:103190004605B0904705A0904805E0914A05F0919A
:1031A0004B05A0914C05B0914D05209149050FB6F6
:1031B000F894DEBF0FBECDBF222311F030E002C075
:1031C0002DE230E040914F0550915005609151053E
:1031D0007091520580914E05882311F090E002C055
:1031E0008DE290E0AF92BF920F931F93BF93AF9386
:1031F000FF93EF933F932F937F936F935F934F933F
:103200009F938F938FE893E09F938F938FE094E049
:103210009F938F930E94C63D282F4FE054E060E0BB
:1032200080E00E948C250FB6F894DEBF0FBECDBFA4
:1032300080912B01811185C02DE130E047E258E0FB
:103240006FE873E081E00E9469220F2EF9E88F2E6B
:10325000F3E09F2EF02DF4018081918120917E0575
:103260002F9320917D052F9320917C052F93209102
:103270007B052F939F938F930F2EFFE8AF2EF3E0E4
:10328000BF2EF02DBF92AF920FE014E01F930F936B
:103290000E94C63D282FA80160E080E00E948C2596
:1032A0002DE130E04AE058E0B50181E00E9469225A
:1032B000D40112968D919C91139720917A052F93AA
:1032C000209179052F93209178052F9320917705F0
:1032D0002F939F938F93BF92AF921F930F930E9450
:1032E000C63D282FA80160E080E00E948C252DE1DA
:1032F00030E04DEE57E0B50181E00E946922F40113
:1033000084819581209176052F93209175052F93C7
:10331000209174052F93209173052F939F938F9382
:10332000BF92AF921F930F930E94C63D282FA80112
:1033300060E080E00E948C250FB6F894DEBF0FBEDF
:10334000CDBF28E330E045EB57E06FE873E081E064
:103350000E94692290E096299F937F92FF92EF92BC
:10336000DF92CF920F2EFFE8EF2EF3E0FF2EF02D2D
:10337000FF92EF920FE014E01F930F930E94C63D5F
:10338000282FA80160E080E00E948C2524E730E02F
:1033900041E457E0B70181E00E94692280918405F1
:1033A0008F93809183058F93809188058F9380916F
:1033B00087058F93809186058F93809185058F93E4
:1033C00080918A058F93809189058F9380918E05D6
:1033D0008F9380918D058F9380918C058F93809131
:1033E0008B058F93FF92EF921F930F930E94C63D20
:1033F000282FA80160E080E00E948C2524E230E0C4
:103400004DE157E0B70181E00E94692280913505C6
:103410001F928F93809136051F928F93FF92EF92A8
:103420001F930F930E94C63D0FB6F894DEBF0FBEE8
:10343000CDBF282FA80160E080E00E948C2520E20B
:1034400030E04DEF56E0B70181E00E9469228091A3
:103450009F051F928F93FF92EF921F930F930E94ED
:10346000C63D282FA80160E080E00E948C250F90C7
:103470000F900F900F900F900F9080912B01811162
:10348000C0C640918B0550918C0560918D0570915F
:103490008E058091850590918605A0918705B09154
:1034A00088059A01AB01281B390B4A0B5B0BA0E284
:1034B000BEE40E949C3B2091890530918A05490118
:1034C000A12CB12C2091830530918405821A930A96
:1034D000A108B108860E971EA81EB91E75016401C9
:1034E000BDE2DB1AB1E3EB0AB1E0FB0A4090230135
:1034F00050902401609025017090260120E030E07A
:1035000040EA50E4C301B2010E9424306E837F83FD
:1035100088879987ECE98E1AECE29E0AE1E3AE0A0D
:10352000E1E0BE0AF9EC8F169104A104B104D0F0D9
:1035300020E030E040E05FE30E94DB31262E372EB2
:10354000882E992E20E030E040EA51E46E817F81A0
:10355000888599850E9424302B013C01C12CD12CF7
:1035600076015EC0D701C6014396A11DB11D8797A4
:10357000A105B10598F5C701B6010E94CE302E8194
:103580003F81488559850E94B22F9B01AC01C30140
:10359000B2010E94B32F60932301709324018093A2
:1035A00025019093260120E030E040E05FE36E814A
:1035B0007F81888599850E94DB31262E372E882EC3
:1035C000992E20E030E040EA51E46E817F818885C9
:1035D00099850E9424302B013C0122C010922301C6
:1035E000109224011092250110922601C701B60104
:1035F0000E94CE302B013C0120E030E040E05FE350
:103600000E94DB31262E372E882E992E20E030E0C6
:1036100040EA51E4C301B2010E9424302B013C0175
:103620008091000182FF5CC08091000180FD58C044
:103630002AE330E047EF55E06FE873E081E00E9455
:103640006922FF92EF92DF92CF920F2EFFE8AF2E0A
:10365000F3E0BF2EF02DBF92AF920FE014E01F9366
:103660000F930E94C63D282FA80160E080E00E94D1
:103670008C2528E630E04FE855E0B50181E00E9456
:10368000692220E030E040E250E460917F057091D3
:10369000800580918105909182050E94B32F9F93B0
:1036A0008F937F936F939F928F923F922F92298552
:1036B0002F9338853F938F818F939E819F93BF92E5
:1036C000AF921F930F930E94C63D282FA80160E080
:1036D00080E00E948C250FB6F894DEBF0FBECDBFF0
:1036E0008091000180FFF7C180919F05843080F4B4
:1036F0002DEC3CEC4CEC5DE36E817F8188859985F7
:103700000E94B32F6E837F838887998711E001C061
:1037100010E020E030E04AE754EC6E817F8188853C
:1037200099850E94D63118160CF0C0C120E030E017
:103730004AE754E46E817F81888599850E941F3015
:1037400088230CF0B3C1111104C020E030E0A901BE
:1037500004C02AE037ED43EA5BE3C301B2010E94F3
:10376000B22FB62EA72E182F092FD701C601039608
:10377000A11DB11D0797A105B10500F520E030E0BE
:1037800040EA51E46E817F818885998590580E9436
:1037900024302091A8053091A9054091AA055091A7
:1037A000AB050E94243020E030E040E251E40E946A
:1037B00024306A877E878F87988B25C06627772776
:1037C000CB016C197D098E099F090E94CE3020E043
:1037D00030E040EA51E40E9424302091A805309165
:1037E000A9054091AA055091AB050E9424302DEC0B
:1037F0003CEC4CE85FE30E9424306A877E878F8729
:10380000988B10929F052FE832EC45E75CEB6B2D0F
:103810007A2D812F902F0E94D6318823C4F02FE873
:1038200032EC45E75CE36B2D7A2D812F902F0E94BF
:103830001F30181664F080919F05823041F480910A
:10384000220181117CC083E080939F0578C02CEE1B
:1038500031E548E35DEB6B2D7A2D812F902F0E948F
:10386000D6318823DCF02CEE31E548E35DE36B2DA7
:103870007A2D812F902F0E941F3018167CF0809196
:103880009F05813059F480912201811158C082E056
:1038900080939F0584E18093220151C02CE53FE88D
:1038A00042EC5DEB6B2D7A2D812F902F0E94D6314B
:1038B000882384F02CE53FE842EC5DE36B2D7A2D04
:1038C000812F902F0E941F30181624F080919F05A1
:1038D0008230A8F520E030E048EC51EC6B2D7A2DD9
:1038E000812F902F0E94D631882324F120E030E0F0
:1038F00048EC51E46B2D7A2D812F902F0E941F30C0
:103900001816C4F080919F05823038F081E08093D2
:103910009F0584E18093220112C0811110C0809123
:10392000220181110CC081E080939F0584E1809386
:10393000220105C010929F0584E1809322018FB778
:10394000F894909136059D839091350599838FBFAA
:1039500080919F058430C8F49E012F5F3F4FAE01D8
:103960004B5F5F4FBA85AE85FF85E8896B2F7A2F55
:103970008F2F9E2F0E94120B8FB7F8949D819093EA
:1039800036059981909335058FBF8091000182FFA4
:103990008DC02AE330E047EF55E06FE873E081E047
:1039A0000E946922FF92EF92DF92CF92AFE8B3E0DC
:1039B000BF93AF93AFE0B4E0BF93AF930E94C63D17
:1039C000282F4FE054E060E080E00E948C2528E63C
:1039D00030E04FE855E06FE873E081E00E94692233
:1039E0000F931F93AF92BF929F928F923F922F920D
:1039F000F985FF9328852F933F813F938E818F9385
:103A0000AFE8B3E0BF93AF93AFE0B4E0BF93AF9341
:103A10000E94C63D282F4FE054E060E080E00E9405
:103A20008C2521E430E04EE455E06FE873E081E05E
:103A30000E946922F889FF932F852F933E853F933B
:103A40008A858F936D8170E080E090E00E94CE3097
:103A50006B017C01698170E080E090E00E94CE30D3
:103A600020E030E040E85BE30E94DB319B01AC01E9
:103A7000C701B6010E94B32F9F938F937F936F93DB
:103A8000AFE8B3E0BF93AF93AFE0B4E0BF93AF93C1
:103A90000E94C63D0FB6F894DEBF0FBECDBF282FE3
:103AA0004FE054E060E080E00E948C25809122018C
:103AB000815018F08093220102C01092220180915F
:103AC0009F05843040F440927F05509280056092BB
:103AD0008105709282058091000181FF92C36091FF
:103AE0008B0370918C0310919F05133008F480C0F4
:103AF0008CEE860F8E3D08F062C01730D8F487E058
:103B000080939F0510921E0110921F0110922001B8
:103B1000109221018FB7F89410922C0510922D0568
:103B200010922E0510922F058FBF80EB860F8437E1
:103B300060F05EC0183008F423C387E080939F05CF
:103B400080EB860F843730F061C380919F058F3002
:103B500008F04EC08FE080939F0577276958710960
:103B6000072E000C880B990B0E94CE3026E131E520
:103B700042E050E40E94DB314B015C019F7720E082
:103B800030E044E352E40E94DB312AE939E949E9B3
:103B90005FE30E944832462F572F682F792F2A0162
:103BA0003B0120E030E0A901C501B4010E941F30B3
:103BB00088230CF452C0C12CD12C7601A2C017303E
:103BC00008F4E4C281E080939F0510921E011092D8
:103BD0001F0110922001109221018FB7F8941092CA
:103BE0002C0510922D0510922E0510922F058FBFD7
:103BF000772769587109072E000C880B990B0E94D2
:103C0000CE3026E131E542E050E40E94DB314B0149
:103C10005C0110919F05173008F426C120E030E0C8
:103C200044E352E4C501B4019F770E94DB312AE9E5
:103C300039E949E95FE30E944832462F572F682F40
:103C4000792F2A013B0120E030E0A901C501B40130
:103C50000E941F30882334F401C01FE077FA70946B
:103C600077F870941F3008F045C020E030E0A901DB
:103C7000C301B2010E941F30882309F43FC01FB75F
:103C8000F894A301920160912C0570912D0580910B
:103C90002E0590912F050E94B32F60932C057093F1
:103CA0002D0580932E0590932F051FBF0E94030CB6
:103CB0002CE933E549EC55E360911E0170911F0139
:103CC00080912001909121010E94DB3120E030E0C1
:103CD000A9010E94B32F6B017C0110921E0110926A
:103CE0001F01109220011092210180919F058730C1
:103CF00040F4BFC0C12CD12C760103C0C12CD12C03
:103D0000760120911A0130911B0140911C015091C4
:103D10001D01C301B2010E94B22F6E837F83888789
:103D2000998720E030E0A901C301B2010E94D63199
:103D3000181664F420E030E0A9016E817F81888547
:103D400099850E94D63118160CF437C220E030E075
:103D5000A901C301B2010E941F3088230CF03AC2AE
:103D600020E030E0A9016E817F81888599850E94DD
:103D70001F3088230CF02EC220C2C301B2010E9462
:103D8000DB319B01AC01C701B6010E94B32F6B016F
:103D90007C018091160190911701A0911801B091BA
:103DA00019018E839F83A887B98720E030E040EE19
:103DB00050E4BC01CD010E9424306A877B878C8748
:103DC0009D872091A8053091A9054091AA055091A1
:103DD000AB050E94DB3160937F0570938005809373
:103DE00081059093820520E030E0A901C701B6016A
:103DF0000E94D6318823CCF02A853B854C855D8591
:103E0000C701B6010E94B22F9B01AC016E817F8178
:103E1000888599850E94B32F6093160170931701CE
:103E2000809318019093190119C02A853B854C8510
:103E30005D85C701B60190580E94B22F9B01AC016D
:103E40006E817F81888599850E94B32F60931601CA
:103E500070931701809318019093190140E0C701F6
:103E6000B6010E94B80B05C0412C512C32017301E0
:103E700062018091000182FFC4C120E630E04EEE75
:103E800054E06FE873E081E00E9469227F926F92B4
:103E90005F924F92FF92EF92DF92CF92BF92AF92DA
:103EA0009F928F920F2EFFE8EF2EF3E0FF2EF02D62
:103EB000FF92EF920FE014E01F930F930E94C63D14
:103EC000282FA80160E080E00E948C2520E330E0EC
:103ED0004EEB54E0B70181E00E94692280912F05EA
:103EE0008F9380912E058F9380912D058F938091D4
:103EF0002C058F93FF92EF921F930F930E94C63D64
:103F0000282FA80160E080E00E948C250FB6F8946D
:103F1000DEBF0FBECDBF75C121912A3589F002C029
:103F200080E090E084529A4F209104013091050185
:103F30008217930750F4909305018093040105C004
:103F400001968032B2E09B0739F725E430E048ED76
:103F500053E06FE873E081E00E94692280910701DD
:103F60008F93809106018F93809105018F938091AB
:103F700004018F930F2EFFE8EF2EF3E0FF2EF02DBC
:103F8000FF92EF920FE014E01F930F930E94C63D43
:103F9000282FA80160E080E00E948C252DE330E00E
:103FA0004BE953E0B70181E00E946922E0E4F1E0CF
:103FB000608166FB662760F9508157FB552750F9F1
:103FC000408142954170308135FB332730F92081A3
:103FD00023FB222720F99081969591708081817032
:103FE00070913F011F926F931F925F931F924F93A7
:103FF0001F923F931F922F931F929F931F928F9315
:104000001F927F93FF92EF921F930F930E94C63DE2
:10401000282FA80160E080E00E948C250FB6F8945C
:10402000DEBF0FBECDBF0E945A0E0E94801020E05E
:1040300030E0A90160919B0570919C0580919D05E0
:1040400090919E050E941F30882309F4F3C0FFB6AB
:10405000F8941091360500913505FFBE19830D8344
:1040600060919B0570919C0580919D0590919E05A6
:104070009E012B5F3F4FAE014F5F5F4F0E94120BBF
:10408000F8948981809336058D8180933505FFBE34
:1040900026E630E047E956E06FE873E081E00E94F1
:1040A00069221F920F931F921F9380919E058F93F9
:1040B00080919D058F9380919C058F9380919B05A6
:1040C0008F930F2EFFE8EF2EF3E0FF2EF02DFF92DF
:1040D000EF920FE014E01F930F930E94C63D282F2C
:1040E000A80160E080E00E948C2526E630E041E3F4
:1040F00056E0B70181E00E9469228D811F928F9363
:1041000089811F928F9380919E058F9380919D0549
:104110008F9380919C058F9380919B058F93FF9245
:10412000EF921F930F930E94C63D282FA80160E0D5
:1041300080E00E948C2510929B0510929C051092A5
:104140009D0510929E050FB6F894DEBF0FBECDBF41
:1041500071C081E00E94F7230C949116772769586B
:104160007109072E000C880B990B0E94CE3026E1B6
:1041700031E542E050E40E94DB314B015C014ECD61
:1041800080EB860F843708F4E0CCE8CF77276958B6
:104190007109072E000C880B990B0E94CE3026E186
:1041A00031E542E050E40E94DB314B015C01412CDF
:1041B000512C3201730162015CCE40921A0150927F
:1041C0001B0160921C0170921D0122E838EA4BE746
:1041D00057E3D3CD40921A0150921B0160921C010B
:1041E00070921D012DEB37E346E056E3C6CD80917A
:1041F000DC058A3509F094CEEDEDF5E081E090E044
:104200008BCE8091000186FDF2CF0DCF77276958C4
:104210007109072E000C880B990B0E94CE3026E105
:1042200031E542E050E40E94DB314B015C0110912A
:104230009F05F4CC60960FB6F894DEBF0FBECDBFDD
:10424000DF91CF911F910F91FF90EF90DF90CF9072
:10425000BF90AF909F908F907F906F905F904F90A6
:104260003F902F900895F894F89481E085BF80E006
:1042700085BF0FB6F894A8958091600088618093FF
:104280006000109260000FBE8FEE8093640080B7D4
:10429000806880BFEFE7F0E080818360808385B72E
:1042A0008F7E85BF0E947B0AECEFF7E02CED35E0B6
:1042B0008AE58293E217F307E1F70E94DC090E9486
:1042C00028090E9405260E94692C789481E0809339
:1042D00018050E948C270E94F4290E94942A0E94AB
:1042E000CA2B0E94D62360E08FE893E00E94092346
:1042F000882311F1CFE8D3E020E1FE01A8ECB5E07E
:1043000001900D922A95E1F71092D8052A893B89F0
:104310003093C7052093C605288939893093C50590
:104320002093C4058C89E1E0F1E08295880F807EBE
:1043300090819F71892B808361E08FE893E00E94D8
:104340000923882391F1EFE8F3E080819181A28134
:10435000B3818093C0059093C105A093C205B0932B
:10436000C30584819581A681B7818093BC05909314
:10437000BD05A093BE05B093BF0580859185A2853C
:10438000B3858093B8059093B905A093BA05B0930F
:10439000BB0584859585A685B7858093B4059093E4
:1043A000B505A093B605B093B70562E08FE893E03A
:1043B0000E9409238823F1F1EFE8F3E080819181E5
:1043C000A281B3818093B0059093B105A093B2050B
:1043D000B093B30584819581A681B7818093AC05A4
:1043E0009093AD05A093AE05B093AF058085918500
:1043F000A285B3858093A8059093A905A093AA05EB
:10440000B093AB0582899389A489B5898093A4056B
:104410009093A505A093A605B093A70586899789D3
:10442000A08DB18D8093A0059093A105A093A205C6
:10443000B093A3058091000188232CF080910101A5
:1044400080FF0E9472128091000185FD07C0C0E0CC
:10445000D1E00E947A12888185FFFBCF0FB6F894D5
:10446000A895809160008861809360001092600040
:104470000FBE0E94202B0E94302A0E94A327109278
:104480001805F8940E947C2C0E94C2250E945109B4
:104490000E94F4090E94AD0A14B817B81AB815B8EA
:1044A00018B81BB885B78F7E85BF83B7817F8460BE
:1044B00083BF9FB7F89483B7816083BF85B7806659
:1044C00085BF8F7D85BF889583B78E7F83BF9FBF54
:1044D000ECCFCF93DF93EB01642F752F882331F05E
:1044E0002115310541F48C2F9D2F12C0A901CE0159
:1044F0000E94FE3C0DC0E42FF52FDE012C0F3D1F66
:1045000094919D933196A217B307D1F78C2F9D2FCD
:10451000DF91CF91089520E1829FC00111248C602A
:10452000906B0895CF93FC01DC015E9625EA35EA95
:10453000C0E124C0B901660F771F822F8170932FCD
:10454000991F9927991F982735FB442740F99427ED
:1045500033FB332730F9932727FB882780F99827E7
:1045600022FB222720F92927CB01822B9C015150C5
:1045700009F781912827EA17FB0711F05C2FDACFA2
:10458000C901CF910895CF92DF92EF92FF920F93DE
:104590001F93CF93DF93662399F0062F6C01C42FEE
:1045A000D52F90E011E0190F7601E90EF11CCE0134
:1045B0000E947C3EF70180832196912F1013F2CF49
:1045C000DF91CF911F910F91FF90EF90DF90CF90EF
:1045D00008958830D8F490E2899FA001112460E208
:1045E0008FE893E00E94C3228FE893E00E9492221A
:1045F000EFE8F3E0278D30E0322F2227468D242B81
:1046000041E02817390719F040E001C040E0842F4D
:1046100008950F931F93CF936830A8F4C62F8C0191
:10462000862F0E94E922882389F083E00F3818073B
:1046300061F080E2C89FA001112460E2C8010E94DD
:10464000C32281E003C080E001C081E0CF911F91CF
:104650000F910895CF92DF92EF92FF920F931F93E5
:10466000CF93DF936C018A018FEF860F6623A1F051
:104670007A019FEFE91AF90AE80EF11CEA019C2F72
:10468000901BF601E90FF11D6081CE010E94843E6E
:104690002196CE15DF0599F7DF91CF911F910F91EC
:1046A000FF90EF90DF90CF9008951F93CF93DF930B
:1046B000683038F5162FEC010E9492222F8D30E0E1
:1046C000322F22274E8D242B28173907E1F08E8FA9
:1046D0009F8F8D8D90E0982F88272C8D822B0196AF
:1046E0008C8F9D8FCE010E9492228E8F9F8F80E2B1
:1046F000189FA001112460E2CE010E942A2381E0CC
:1047000003C080E001C081E0DF91CF911F91089547
:10471000EF92FF920F931F93CF938830F0F5C82F3D
:104720000E94E92281113BC02C2F30E0EFE8F3E03A
:10473000878D90E0982F8827468D842BA90142957C
:104740005295507F5427407F54274C60506B8417FC
:104750009507E1F07F01058D10E0102F0027848D73
:10476000082B220F331F22953295307F3227207F6E
:1047700032272A52324F40E050E06CE1CF010E94D4
:10478000FD080F5F1F4FF701048F158F6C2F8FE807
:1047900093E00E94552381E003C080E001C080E0E7
:1047A000CF911F910F91FF90EF900895CF93DF93DA
:1047B000C0E0D0E08C2F0E9488238111DF5FCF5FA3
:1047C000C830C1F78D2FDF91CF910895811103C0BB
:1047D000E4E2F5E002C0E5E2F5E08FB7F8949081FD
:1047E00021E020838FBF81E0911180E00895811145
:1047F00003C0E4E2F5E002C0E5E2F5E08FB7F8942B
:1048000010828FBF08958F929F92AF92BF92CF92E6
:10481000DF92EF92FF920F931F93CF93DF93982F26
:104820008FB7F894992329F03091290570912805C4
:1048300004C030912705709126058FBFA32FB0E0EB
:10484000E72FF0E08D010F5F1F4F0E171F0709F4D0
:1048500075C03F3719F4772309F472C0911107C06E
:104860000F2EF9E8EF2EF2E0FF2EF02D06C00F2EEE
:10487000F9E0EF2EF3E0FF2EF02DC22FD0E0371736
:1048800080F48F010A1B1B0B01501109C017D107BF
:104890000CF48E01D02E1127C01BD10BE0E0F0E00C
:1048A0001AC000E810E00A1B1B0BA1E0B0E0772360
:1048B00011F0A0E0B0E00A1B1B0BC017D1070CF4ED
:1048C0008E01D02E1127C01BD10B772311F0319709
:1048D00002C0E0E0F0E0EC17FD070CF4EF015A0134
:1048E000862E992ECC2EDD2039F0B701630F711D75
:1048F0009801882D0E946922CC2051F09E01332717
:10490000A501400F511FB701882D0E946922DC0CC0
:10491000992051F09FB7F894809129058D0D8F77DC
:10492000809329059FBF0DC09FB7F89480912705FC
:104930008D0D8F77809327059FBF03C0D12C01C0B9
:10494000D12C8D2DDF91CF911F910F91FF90EF9082
:10495000DF90CF90BF90AF909F908F9008959F92DF
:10496000AF92BF92CF92DF92EF92FF920F931F937D
:10497000CF93DF932FB7F894882329F090912905DE
:104980005091280504C090912705509126052FBF0E
:10499000951709F463C0423008F460C0811103C068
:1049A00009E812E002C009E013E0C42FD0E021972B
:1049B000591780F4292F30E0251B3109C217D3077E
:1049C0000CF49E01E22E6901DD24CC19DD0920E002
:1049D00030E00FC020E830E0251B3109C217D307B3
:1049E0000CF49E01E22E6901DD24CC19DD09292F8A
:1049F00030E02C173D070CF4E9015B01F82E9C2EEA
:104A0000EE2039F0B801650F711DA601C5010E94A5
:104A1000FE3C992049F0AE015527B801C5018C0D27
:104A20009D1D0E94FE3CE90CF501EE0DF11D10826A
:104A3000FF2051F09FB7F894809128058E0D8F7755
:104A4000809328059FBF11C09FB7F89480912605D9
:104A50008E0D8F77809326059FBF07C0411104C03C
:104A6000FB011082E12C01C0E12C8E2DDF91CF9152
:104A70001F910F91FF90EF90DF90CF90BF90AF907C
:104A80009F9008959FB7F894882349F020912905B5
:104A9000809128059FBF28130CC080E008952091C5
:104AA0002705809126059FBF281761F0E9E8F2E00D
:104AB00002C0E9E0F3E0E80FF11D8081843221F4C7
:104AC00081E1089580E0089581E00895CF93C82F93
:104AD0008C2F0E94E6238823C9F0CC2341F02FB706
:104AE000F89480912905909128052FBF07C02FB712
:104AF000F89480912705909126052FBF981751F0C3
:104B00008C2F0E94F723A8950E94282EA8950E941A
:104B1000282EDECFCF910895FF920F931F93CF934E
:104B2000DF93C82FD62F8A01F22E0E9466252F2DE3
:104B3000A8016D2F8C2F0E940324D82F8C2F0E9448
:104B4000F7238D2FDF91CF911F910F91FF90089543
:104B50009FB7F894E0ECF0E080818F7B8083E09158
:104B60001B0581E08E0F80931B05F0E0E753FE4F9D
:104B700080818093C6009FBFE1ECF0E0808180627D
:104B8000808308959FB7F894E1ECF0E0808187700E
:104B900080839FBF5898E4E6F0E080818260808344
:104BA0000895882349F09FB7F894E1ECF0E0808104
:104BB000806880839FBF08959FB7F894E1ECF0E090
:104BC00080818F7780839FBF08959C01BC0176957B
:104BD0006795CB01A0E0B0E0BC01CD0160537D4EF4
:104BE0008C4E9F4F40E050E00E94463BDA01C901E5
:104BF0000197A109B109892F9A2FAB2FBB27809369
:104C0000C50021502093C4000895E4E6F0E08081BF
:104C10008D7F808385B78F7E85BF589A63E08FE84C
:104C200093E00E9409238823A1F0EFE8F3E080815C
:104C300091819093230580932205828193819093A3
:104C40002105809320058481958190931F05809391
:104C50001E0580912205909123050E94E52588E19B
:104C60008093C100209120053091210583E0820FBF
:104C70008370880F932F9073892B222733709FEFB7
:104C8000930F9170990F990F990F892B8093C20000
:104C90008091C60010921B0581E00E94D1250895E5
:104CA00081E090911C05911101C080E00895CF939F
:104CB000442371F0C42FAB012C2F30E069EC71E07C
:104CC0000E94692210921B05C0931C050E94A82512
:104CD000CF910895CF93C82F8FB7F8949091C000CB
:104CE0008FBF80911C05811138C095FF36C04DE300
:104CF00069EC71E08C2F0E94AF2480931C058C2FEF
:104D00000E94F7238091000183FF10921C051092EE
:104D10001B0580911C05882319F1EFEFE80FE09344
:104D20001C05F0E0E753FE4F9081911180931C0524
:104D3000E0911C05AE2FB0E0A753BE4F8DE08C93E1
:104D400082E08E0F80931C05EF5FF0E0E753FE4F8B
:104D50008AE080830E94A82503C08C2F0E94F7233D
:104D6000CF9108951F920F920FB60F9211242F9397
:104D70003F934F935F936F937F938F939F93AF93E3
:104D8000BF93CF93DF93EF93FF934091C600789446
:104D900080911A05811151C080911D05853708F059
:104DA0004CC081E080931A05809119058823F9F0A1
:104DB0005FB7F8946091190570E016161706A4F411
:104DC000E0911D05A9E0B2E080E090E021E02E0F27
:104DD0003D91F0E0EF5EFD4F30830196E22F8617A4
:104DE0009707A4F320931D05109219055FBFE0916A
:104DF0001D05A1E0AE0FA0931D05CE2FD0E0CF5E24
:104E0000DD4F4883A53780F0B0E0AF5EBD4F8DE049
:104E10008C9383E08E0F80931D05EE5FF0E0EF5ED4
:104E2000FD4F8AE0808302C04A3021F482E0809303
:104E30001A0514C010921A0511C080911905883006
:104E400068F48FB7F894E091190591E09E0F909364
:104E50001905F0E0E75FFD4F40838FBFFF91EF91B1
:104E6000DF91CF91BF91AF919F918F917F916F9182
:104E70005F914F913F912F910F900FBE0F901F9018
:104E800018951F920F920FB60F9211248F939F9334
:104E9000EF93FF93E1ECF0E080818F7D8083789445
:104EA00090911B0580911C059817C8F4F894E09127
:104EB0001B0581E08E0F80931B05F0E0E753FE4F4A
:104EC00080818093C600E1ECF0E080818062808385
:104ED000789490911B0580911C05981748F0F894E0
:104EE000E1ECF0E080818F7D8083789410921C0546
:104EF000FF91EF919F918F910F900FBE0F901F9098
:104F0000189578941F920F920FB60F9211240F905C
:104F10000FBE0F901F901895E4E6F0E080818F7728
:104F200080839FB7F89487B18F7C87B988B18063FD
:104F300088B91092B90081E18093B80084E8809329
:104F4000BC009FBF08951092BC0088B18F6C88B9D7
:104F5000E4E6F0E08081806880830895CF93DF935A
:104F6000C0E4D1E005C0A895992321F00E94282E25
:104F700090911805888180FDF6CF888181FDF3CF5F
:104F8000DF91CF9108959FB7F8942091400121FDC2
:104F900004C02091400120FD06C02091400121FF66
:104FA00024C0662311F1209111052223F1F0E0E4E1
:104FB000F1E020812260208320812E7F20832081C8
:104FC000277F208320812F7D208320812F7E2083B7
:104FD00020812F77208320812F7B208310920F0543
:104FE000882319F085EA8093BC009FBF08951F9322
:104FF000CF93DF93182FD62FC42F0E94AE279FB7D1
:10500000F8941093120510921105E091110581E0BA
:105010008E0F80931105F0E0E15DFE4FD083A0E498
:10502000B1E08C918B7F8C93E091110581E08E0F24
:1050300080931105F0E0E15DFE4FC0838C918160AB
:105040008C939FBF60E081E00E94C327DF91CF91E6
:105050001F9108950F931F93CF93DF93082F162F5F
:10506000D42FC22F0E94AE279FB7F8940093120549
:1050700010921105E091110581E08E0F80931105CA
:10508000F0E0E15DFE4F1083A0E4B1E08C918B7FF6
:105090008C93E091110581E08E0F80931105F0E073
:1050A000E15DFE4FD083E091110581E08E0F80938A
:1050B0001105F0E0E15DFE4FC0838C9181608C931F
:1050C0009FBF60E081E00E94C327DF91CF911F91D5
:1050D0000F910895FF920F931F93CF93DF93F82EB4
:1050E000062F142FE9010E94AE279FB7F894F09283
:1050F000120510921105E091110581E08E0F809349
:105100001105F0E0E15DFE4F0083E0E4F1E0808115
:105110008B7F8083112391F0DE019E01210F311DD1
:10512000E091110581E08E0F80931105F0E08D91E3
:10513000E15DFE4F8083A217B30791F7E0E4F1E051
:105140008081816080839FBF60E081E00E94C327EF
:10515000DF91CF911F910F91FF900895CF93DF932F
:10516000D82FC62F0E94AE279FB7F894D093120570
:1051700010921105E091110581E08E0F80931105C9
:10518000F0E0E15DFE4FC083E0E4F1E08081846007
:10519000808384E0809310058081816080839FBF3D
:1051A00060E081E00E94C3270E94AE2780912F011A
:1051B000DF91CF9108959FB7F894882339F08091BB
:1051C000400181FF03C085E98093BC001092110566
:1051D000E0E4F1E080818D7F80839FBF08951F927E
:1051E0000F920FB60F9211242F933F934F935F931B
:1051F0006F937F938F939F93AF93BF93CF93EF93CF
:10520000FF938091B900E82FE87F8091BB00209147
:10521000BC00C22FCF74E0933F018E2F90E0FC01C1
:105220003897E135F10508F0C6C0EF5BFF4F0C94ED
:10523000873B80911205880F8093BB00C0C080918E
:105240001205880F81608093BB00E0E4F1E080816B
:105250008B7F8083809110058093110561E080E051
:105260000E94C327ACC0E0E4F1E0808180628083CB
:1052700080818061808380911205803231F4E0E08A
:10528000F1E080818068808309C0809112058232BC
:1052900029F4E1E0F1E080818160808380913F0129
:1052A000883129F480912F018093BB0088C0C064AD
:1052B00086C0E0E4F1E080818F7D80838081806121
:1052C000808380911205803231F4E0E0F1E080814A
:1052D0008F77808309C080911205823229F4E1E042
:1052E000F1E080818E7F808380E00E94DB28C061B6
:1052F00066C080910F058F5F80930F05E0E4F1E0B9
:1053000080818068808380818064808390910F0594
:1053100080911105981748F4E0910F05F0E0E15DE8
:10532000FE4F80818093BB004AC08091400182FF84
:1053300006C061E080E00E94C327C06240C080E0F8
:105340000E94DB28C0613BC080E00E94DB28C06176
:1053500036C0E0910F0581E08E0F80930F05F0E0DD
:105360008091BB00E15DFE4F8083E0E4F1E080814D
:105370008068808380818064808380913F0188354C
:1053800031F090910F0580911105981728F080E079
:105390000E94DB28C06113C080910F054091110568
:1053A00090E0019650E0841795071CF0C22FCF7053
:1053B00006C0C06404C080E00E94DB28C061C568EC
:1053C000C093BC00FF91EF91CF91BF91AF919F919E
:1053D0008F917F916F915F914F913F912F910F909E
:1053E0000FBE0F901F90189544E26AE080E20E9481
:1053F000F7270E94AE2780910001882384F52FEFC4
:105400004FEF6CE080E20E942A2820E04FEF60E03E
:1054100080E20E942A2820E040E062E080E20E94D0
:105420002A2820E040E062E180E20E942A2820E071
:1054300040E064E180E20E942A2820E040E064E04D
:1054400080E20E942A2820E040E066E080E20E949C
:105450002A282FEF4FEF68E080E20E942A28089563
:1054600020E040E064E080E20E942A282FEF4FEF26
:105470006CE080E20E942A282FEF4FEF60E080E28C
:105480000E942A280895882331F040E060E080E2FD
:105490000E94F72708954FEF60E080E20E94F7270F
:1054A0000895482F65E180E20E94F7270895462F6E
:1054B00090E8699F90011124282B64E180E20E940A
:1054C0002A28089562E180E20E94AE2808951F9381
:1054D000CF93DF938091010182958695877081300B
:1054E00011F010E001C018E080E00E94432AC12FB3
:1054F000C26013608C2F0E94512A812F0E94512A72
:105500000E94622AD82F8C2F0E94512ADD2344F456
:1055100082E48A95F1F700C0A8950E94282EEACF70
:10552000DF91CF911F9108958091000188230CF0A5
:1055300086C00E94672A81E00E94432A6CE380E0D3
:105540000E94572A6CE381E00E94572A6CE380E0B6
:105550000E94572A80E00E94432A8BE18A95F1F746
:10556000000081E00E94432A6CE380E00E94572AF9
:105570006CE381E00E94572A6CE380E00E94572A86
:1055800080E00E94432A83EF91E00197F1F700C089
:10559000000081E00E94432A6CE380E00E94572AC9
:1055A0006CE381E00E94572A6CE380E00E94572A56
:1055B0000E94672A81E00E94432A6CE380E00E94F7
:1055C000572A6CE381E00E94572A6CE380E00E9436
:1055D000572A0E94672A81E00E94432A6CE080E0FB
:1055E0000E94572A6CE081E00E94572A6CE080E01C
:1055F0000E94572A0E94672A81E00E94432A61E0A4
:1056000080E00E94572A61E081E00E94572A61E011
:1056100080E00E94572A0E94672A81E00E94432A64
:1056200066E080E00E94572A66E081E00E94572AE7
:1056300066E088E00E94572A80E00E94432A08958D
:1056400080910001882334F581E00E94432A61E0C3
:1056500080E00E94572A61E081E00E94572A61E0C1
:1056600080E00E94572A80E00E94432A0E94672A15
:1056700081E00E94432A68E080E00E94572A68E0A7
:1056800081E00E94572A68E080E00E94572A80E06B
:105690000E94432A0895CF93DF9390910101929540
:1056A00096959770913011F0D0E001C0D8E0C62FE8
:1056B000CF70C068282F217030E0002436952795E0
:1056C0000794369527950794322F202DC22B0E94E0
:1056D000672A81E00E94432A6C2F8D2F0E94572A4F
:1056E0006C2F8D2F81600E94572A6C2F8D2F0E9466
:1056F000572A80E00E94432ADF91CF910895CF92EC
:10570000DF92EF92FF920F931F93CF93DF937C0171
:1057100080910101829586958770813011F0D12C9E
:1057200003C06894DD24D3F8662331F18701E60EC7
:10573000F11CDD2DD4608D2D8560C82EF801C1913E
:105740008F010E94672A81E00E94432A6C2F8D2FCF
:105750000E94572A6C2F8C2D0E94572A6C2F8D2F58
:105760000E94572A6C2F8D2D0E94572A80E00E949C
:10577000432A0E151F0511F7DF91CF911F910F914D
:10578000FF90EF90DF90CF90089561E082E20E9459
:10579000AE2808950E94C52B0895EFE0F4E08083C1
:1057A000618372839F0143E060E882E20E946A287D
:1057B0000895EFE0F4E080839183628343839F0147
:1057C00044E061E882E20E946A280895EFE0F4E094
:1057D0008083618342839F0143E062E882E20E940A
:1057E0006A280895EFE0F4E08083918362837383F5
:1057F0009F0144E063E882E20E946A280895EFE096
:10580000F4E0808361839F0142E064E882E20E94C9
:105810006A280895EFE0F4E08083618372839F013A
:1058200043E065E882E20E946A280895EFE0F4E030
:105830008083618342839F0143E068E882E20E94A3
:105840006A280895EFE0F4E0808391839F0142E0AD
:1058500069E882E20E946A280895EFE0F4E080831C
:1058600061839F0142E06AE882E20E946A2808950B
:10587000EFE0F4E0808361834283238334839F01DC
:1058800045E06BE882E20E946A280895EFE0F4E0C8
:10589000808361834283238334839F0145E06CE8E6
:1058A00082E20E946A280895EFE0F4E08083918309
:1058B0009F0142E06DE882E20E946A28089580918B
:1058C0008F0584FF05C065E088E091E00E94012E0D
:1058D00008950E94A52FE8982198299889EFE7E874
:1058E000F3E13197F1F700C00000A8958150B9F7B6
:1058F000219A299AE89A0895E89821982998089574
:10590000FC019081892F8076803481F59F7181F52B
:105910008181811111C0A1E4B1E082818C938381E6
:1059200011968C931197848112968C93129785818E
:1059300013968C9384E01FC0823059F48FB7F8948B
:105940002681378130931705209316058FBF8FEF7F
:1059500012C0813079F48FB7F89426813781309363
:105960001505209314058FBF8FEF05C080E003C09D
:1059700080E001C080E021E431E030930B08209307
:105980000A080895CF92DF92EF92FF921F93CF9370
:10599000DF93FC01462F8091000184FFA0C080911D
:1059A000160590911705892B09F4CEC0C091D90531
:1059B000D091DA059E01369527953695279536952F
:1059C0002795A5ECB0E20E948D3B7C01F694E7940C
:1059D000F694E794F694E794F694E7949701ADEC87
:1059E000BCEC0E948D3B96958795969587959695EC
:1059F00087959C01220F331F880F991F880F991FCD
:105A0000880F991F820F931F9701281B390BC9011B
:105A1000805D80839E013695279536952795ABE767
:105A2000B4E10E948D3B7C01F694E7949701ADECC4
:105A3000BCEC0E948D3B969587959695879596959B
:105A400087959C01220F331F880F991F880F991F7C
:105A5000880F991F820F931F9701281B390BC901CB
:105A6000805D81839E010E948D3B7C01F694E794CA
:105A7000F694E794F694E79497010E948D3B9695EF
:105A8000879596958795969587959C01220F331F4C
:105A9000880F991F880F991F880F991F820F931FD6
:105AA0009701281B390BC901805D8283CE010196C5
:105AB0009093DA058093D905C701880F991FEE0CE2
:105AC000FF1CEE0CFF1CEE0CFF1CE80EF91ECE199D
:105AD000DF09C05DC3838AE3848315E001C010E061
